{
  "_format": "hh-sol-artifact-1",
  "contractName": "PredictionMarketPositions",
  "sourceName": "src/core/PredictionMarketPositions.sol",
  "abi": [
    {
      "inputs": [
        {
          "internalType": "string",
          "name": "_uri",
          "type": "string"
        },
        {
          "internalType": "address",
          "name": "_initialOwner",
          "type": "address"
        }
      ],
      "stateMutability": "nonpayable",
      "type": "constructor"
    },
    {
      "inputs": [],
      "name": "AccessControlBadConfirmation",
      "type": "error"
    },
    {
      "inputs": [
        {
          "internalType": "address",
          "name": "account",
          "type": "address"
        },
        {
          "internalType": "bytes32",
          "name": "neededRole",
          "type": "bytes32"
        }
      ],
      "name": "AccessControlUnauthorizedAccount",
      "type": "error"
    },
    {
      "inputs": [
        {
          "internalType": "address",
          "name": "sender",
          "type": "address"
        },
        {
          "internalType": "uint256",
          "name": "balance",
          "type": "uint256"
        },
        {
          "internalType": "uint256",
          "name": "needed",
          "type": "uint256"
        },
        {
          "internalType": "uint256",
          "name": "tokenId",
          "type": "uint256"
        }
      ],
      "name": "ERC1155InsufficientBalance",
      "type": "error"
    },
    {
      "inputs": [
        {
          "internalType": "address",
          "name": "approver",
          "type": "address"
        }
      ],
      "name": "ERC1155InvalidApprover",
      "type": "error"
    },
    {
      "inputs": [
        {
          "internalType": "uint256",
          "name": "idsLength",
          "type": "uint256"
        },
        {
          "internalType": "uint256",
          "name": "valuesLength",
          "type": "uint256"
        }
      ],
      "name": "ERC1155InvalidArrayLength",
      "type": "error"
    },
    {
      "inputs": [
        {
          "internalType": "address",
          "name": "operator",
          "type": "address"
        }
      ],
      "name": "ERC1155InvalidOperator",
      "type": "error"
    },
    {
      "inputs": [
        {
          "internalType": "address",
          "name": "receiver",
          "type": "address"
        }
      ],
      "name": "ERC1155InvalidReceiver",
      "type": "error"
    },
    {
      "inputs": [
        {
          "internalType": "address",
          "name": "sender",
          "type": "address"
        }
      ],
      "name": "ERC1155InvalidSender",
      "type": "error"
    },
    {
      "inputs": [
        {
          "internalType": "address",
          "name": "operator",
          "type": "address"
        },
        {
          "internalType": "address",
          "name": "owner",
          "type": "address"
        }
      ],
      "name": "ERC1155MissingApprovalForAll",
      "type": "error"
    },
    {
      "inputs": [
        {
          "internalType": "address",
          "name": "owner",
          "type": "address"
        }
      ],
      "name": "OwnableInvalidOwner",
      "type": "error"
    },
    {
      "inputs": [
        {
          "internalType": "address",
          "name": "account",
          "type": "address"
        }
      ],
      "name": "OwnableUnauthorizedAccount",
      "type": "error"
    },
    {
      "anonymous": false,
      "inputs": [
        {
          "indexed": true,
          "internalType": "address",
          "name": "account",
          "type": "address"
        },
        {
          "indexed": true,
          "internalType": "address",
          "name": "operator",
          "type": "address"
        },
        {
          "indexed": false,
          "internalType": "bool",
          "name": "approved",
          "type": "bool"
        }
      ],
      "name": "ApprovalForAll",
      "type": "event"
    },
    {
      "anonymous": false,
      "inputs": [
        {
          "indexed": true,
          "internalType": "address",
          "name": "previousOwner",
          "type": "address"
        },
        {
          "indexed": true,
          "internalType": "address",
          "name": "newOwner",
          "type": "address"
        }
      ],
      "name": "OwnershipTransferred",
      "type": "event"
    },
    {
      "anonymous": false,
      "inputs": [
        {
          "indexed": true,
          "internalType": "bytes32",
          "name": "role",
          "type": "bytes32"
        },
        {
          "indexed": true,
          "internalType": "bytes32",
          "name": "previousAdminRole",
          "type": "bytes32"
        },
        {
          "indexed": true,
          "internalType": "bytes32",
          "name": "newAdminRole",
          "type": "bytes32"
        }
      ],
      "name": "RoleAdminChanged",
      "type": "event"
    },
    {
      "anonymous": false,
      "inputs": [
        {
          "indexed": true,
          "internalType": "bytes32",
          "name": "role",
          "type": "bytes32"
        },
        {
          "indexed": true,
          "internalType": "address",
          "name": "account",
          "type": "address"
        },
        {
          "indexed": true,
          "internalType": "address",
          "name": "sender",
          "type": "address"
        }
      ],
      "name": "RoleGranted",
      "type": "event"
    },
    {
      "anonymous": false,
      "inputs": [
        {
          "indexed": true,
          "internalType": "bytes32",
          "name": "role",
          "type": "bytes32"
        },
        {
          "indexed": true,
          "internalType": "address",
          "name": "account",
          "type": "address"
        },
        {
          "indexed": true,
          "internalType": "address",
          "name": "sender",
          "type": "address"
        }
      ],
      "name": "RoleRevoked",
      "type": "event"
    },
    {
      "anonymous": false,
      "inputs": [
        {
          "indexed": true,
          "internalType": "address",
          "name": "from",
          "type": "address"
        },
        {
          "indexed": true,
          "internalType": "uint256",
          "name": "tokenId",
          "type": "uint256"
        },
        {
          "indexed": false,
          "internalType": "uint256",
          "name": "amount",
          "type": "uint256"
        }
      ],
      "name": "TokensBurned",
      "type": "event"
    },
    {
      "anonymous": false,
      "inputs": [
        {
          "indexed": true,
          "internalType": "address",
          "name": "to",
          "type": "address"
        },
        {
          "indexed": true,
          "internalType": "uint256",
          "name": "tokenId",
          "type": "uint256"
        },
        {
          "indexed": false,
          "internalType": "uint256",
          "name": "amount",
          "type": "uint256"
        }
      ],
      "name": "TokensMinted",
      "type": "event"
    },
    {
      "anonymous": false,
      "inputs": [
        {
          "indexed": true,
          "internalType": "address",
          "name": "operator",
          "type": "address"
        },
        {
          "indexed": true,
          "internalType": "address",
          "name": "from",
          "type": "address"
        },
        {
          "indexed": true,
          "internalType": "address",
          "name": "to",
          "type": "address"
        },
        {
          "indexed": false,
          "internalType": "uint256[]",
          "name": "ids",
          "type": "uint256[]"
        },
        {
          "indexed": false,
          "internalType": "uint256[]",
          "name": "values",
          "type": "uint256[]"
        }
      ],
      "name": "TransferBatch",
      "type": "event"
    },
    {
      "anonymous": false,
      "inputs": [
        {
          "indexed": true,
          "internalType": "address",
          "name": "operator",
          "type": "address"
        },
        {
          "indexed": true,
          "internalType": "address",
          "name": "from",
          "type": "address"
        },
        {
          "indexed": true,
          "internalType": "address",
          "name": "to",
          "type": "address"
        },
        {
          "indexed": false,
          "internalType": "uint256",
          "name": "id",
          "type": "uint256"
        },
        {
          "indexed": false,
          "internalType": "uint256",
          "name": "value",
          "type": "uint256"
        }
      ],
      "name": "TransferSingle",
      "type": "event"
    },
    {
      "anonymous": false,
      "inputs": [
        {
          "indexed": false,
          "internalType": "string",
          "name": "value",
          "type": "string"
        },
        {
          "indexed": true,
          "internalType": "uint256",
          "name": "id",
          "type": "uint256"
        }
      ],
      "name": "URI",
      "type": "event"
    },
    {
      "inputs": [],
      "name": "BURNER_ROLE",
      "outputs": [
        {
          "internalType": "bytes32",
          "name": "",
          "type": "bytes32"
        }
      ],
      "stateMutability": "view",
      "type": "function"
    },
    {
      "inputs": [],
      "name": "DEFAULT_ADMIN_ROLE",
      "outputs": [
        {
          "internalType": "bytes32",
          "name": "",
          "type": "bytes32"
        }
      ],
      "stateMutability": "view",
      "type": "function"
    },
    {
      "inputs": [],
      "name": "MINTER_ROLE",
      "outputs": [
        {
          "internalType": "bytes32",
          "name": "",
          "type": "bytes32"
        }
      ],
      "stateMutability": "view",
      "type": "function"
    },
    {
      "inputs": [
        {
          "internalType": "address",
          "name": "account",
          "type": "address"
        },
        {
          "internalType": "uint256",
          "name": "id",
          "type": "uint256"
        }
      ],
      "name": "balanceOf",
      "outputs": [
        {
          "internalType": "uint256",
          "name": "",
          "type": "uint256"
        }
      ],
      "stateMutability": "view",
      "type": "function"
    },
    {
      "inputs": [
        {
          "internalType": "address[]",
          "name": "accounts",
          "type": "address[]"
        },
        {
          "internalType": "uint256[]",
          "name": "ids",
          "type": "uint256[]"
        }
      ],
      "name": "balanceOfBatch",
      "outputs": [
        {
          "internalType": "uint256[]",
          "name": "",
          "type": "uint256[]"
        }
      ],
      "stateMutability": "view",
      "type": "function"
    },
    {
      "inputs": [
        {
          "internalType": "address",
          "name": "from",
          "type": "address"
        },
        {
          "internalType": "uint256",
          "name": "marketId",
          "type": "uint256"
        },
        {
          "internalType": "uint256",
          "name": "outcomeIndex",
          "type": "uint256"
        },
        {
          "internalType": "uint256",
          "name": "amount",
          "type": "uint256"
        }
      ],
      "name": "burn",
      "outputs": [],
      "stateMutability": "nonpayable",
      "type": "function"
    },
    {
      "inputs": [
        {
          "internalType": "bytes32",
          "name": "role",
          "type": "bytes32"
        }
      ],
      "name": "getRoleAdmin",
      "outputs": [
        {
          "internalType": "bytes32",
          "name": "",
          "type": "bytes32"
        }
      ],
      "stateMutability": "view",
      "type": "function"
    },
    {
      "inputs": [
        {
          "internalType": "uint256",
          "name": "marketId",
          "type": "uint256"
        },
        {
          "internalType": "uint256",
          "name": "outcomeIndex",
          "type": "uint256"
        }
      ],
      "name": "getTokenId",
      "outputs": [
        {
          "internalType": "uint256",
          "name": "",
          "type": "uint256"
        }
      ],
      "stateMutability": "pure",
      "type": "function"
    },
    {
      "inputs": [
        {
          "internalType": "bytes32",
          "name": "role",
          "type": "bytes32"
        },
        {
          "internalType": "address",
          "name": "account",
          "type": "address"
        }
      ],
      "name": "grantRole",
      "outputs": [],
      "stateMutability": "nonpayable",
      "type": "function"
    },
    {
      "inputs": [
        {
          "internalType": "bytes32",
          "name": "role",
          "type": "bytes32"
        },
        {
          "internalType": "address",
          "name": "account",
          "type": "address"
        }
      ],
      "name": "hasRole",
      "outputs": [
        {
          "internalType": "bool",
          "name": "",
          "type": "bool"
        }
      ],
      "stateMutability": "view",
      "type": "function"
    },
    {
      "inputs": [
        {
          "internalType": "address",
          "name": "account",
          "type": "address"
        },
        {
          "internalType": "address",
          "name": "operator",
          "type": "address"
        }
      ],
      "name": "isApprovedForAll",
      "outputs": [
        {
          "internalType": "bool",
          "name": "",
          "type": "bool"
        }
      ],
      "stateMutability": "view",
      "type": "function"
    },
    {
      "inputs": [
        {
          "internalType": "address",
          "name": "to",
          "type": "address"
        },
        {
          "internalType": "uint256",
          "name": "marketId",
          "type": "uint256"
        },
        {
          "internalType": "uint256",
          "name": "outcomeIndex",
          "type": "uint256"
        },
        {
          "internalType": "uint256",
          "name": "amount",
          "type": "uint256"
        }
      ],
      "name": "mint",
      "outputs": [],
      "stateMutability": "nonpayable",
      "type": "function"
    },
    {
      "inputs": [],
      "name": "owner",
      "outputs": [
        {
          "internalType": "address",
          "name": "",
          "type": "address"
        }
      ],
      "stateMutability": "view",
      "type": "function"
    },
    {
      "inputs": [],
      "name": "renounceOwnership",
      "outputs": [],
      "stateMutability": "nonpayable",
      "type": "function"
    },
    {
      "inputs": [
        {
          "internalType": "bytes32",
          "name": "role",
          "type": "bytes32"
        },
        {
          "internalType": "address",
          "name": "callerConfirmation",
          "type": "address"
        }
      ],
      "name": "renounceRole",
      "outputs": [],
      "stateMutability": "nonpayable",
      "type": "function"
    },
    {
      "inputs": [
        {
          "internalType": "bytes32",
          "name": "role",
          "type": "bytes32"
        },
        {
          "internalType": "address",
          "name": "account",
          "type": "address"
        }
      ],
      "name": "revokeRole",
      "outputs": [],
      "stateMutability": "nonpayable",
      "type": "function"
    },
    {
      "inputs": [
        {
          "internalType": "address",
          "name": "from",
          "type": "address"
        },
        {
          "internalType": "address",
          "name": "to",
          "type": "address"
        },
        {
          "internalType": "uint256[]",
          "name": "ids",
          "type": "uint256[]"
        },
        {
          "internalType": "uint256[]",
          "name": "values",
          "type": "uint256[]"
        },
        {
          "internalType": "bytes",
          "name": "data",
          "type": "bytes"
        }
      ],
      "name": "safeBatchTransferFrom",
      "outputs": [],
      "stateMutability": "nonpayable",
      "type": "function"
    },
    {
      "inputs": [
        {
          "internalType": "address",
          "name": "from",
          "type": "address"
        },
        {
          "internalType": "address",
          "name": "to",
          "type": "address"
        },
        {
          "internalType": "uint256",
          "name": "id",
          "type": "uint256"
        },
        {
          "internalType": "uint256",
          "name": "value",
          "type": "uint256"
        },
        {
          "internalType": "bytes",
          "name": "data",
          "type": "bytes"
        }
      ],
      "name": "safeTransferFrom",
      "outputs": [],
      "stateMutability": "nonpayable",
      "type": "function"
    },
    {
      "inputs": [
        {
          "internalType": "address",
          "name": "operator",
          "type": "address"
        },
        {
          "internalType": "bool",
          "name": "approved",
          "type": "bool"
        }
      ],
      "name": "setApprovalForAll",
      "outputs": [],
      "stateMutability": "nonpayable",
      "type": "function"
    },
    {
      "inputs": [
        {
          "internalType": "bytes4",
          "name": "interfaceId",
          "type": "bytes4"
        }
      ],
      "name": "supportsInterface",
      "outputs": [
        {
          "internalType": "bool",
          "name": "",
          "type": "bool"
        }
      ],
      "stateMutability": "view",
      "type": "function"
    },
    {
      "inputs": [
        {
          "internalType": "address",
          "name": "newOwner",
          "type": "address"
        }
      ],
      "name": "transferOwnership",
      "outputs": [],
      "stateMutability": "nonpayable",
      "type": "function"
    },
    {
      "inputs": [
        {
          "internalType": "uint256",
          "name": "tokenId",
          "type": "uint256"
        }
      ],
      "name": "uri",
      "outputs": [
        {
          "internalType": "string",
          "name": "",
          "type": "string"
        }
      ],
      "stateMutability": "view",
      "type": "function"
    }
  ],
  "bytecode": "0x608060405234620003ba5762002278803803806200001d81620003d4565b9283398101604082820312620003ba5781516001600160401b039290838111620003ba57810190601f838184011215620003ba57825191858311620002c457602092601f19946200007485878685011601620003d4565b96828852858383010111620003ba579084929160005b828110620003bf57505060009087018301520151936001600160a01b0392838616808703620003ba57825194888611620002c457600254956001968781811c91168015620003af575b85821014620002a35786811162000363575b508084878211600114620002ff57600091620002f3575b50600019600383901b1c191690871b176002555b8115620002da57600380546001600160a01b031981168417909155167f8be0079c531659141344cd1fd0a4f28419497f9722a3daafe3b4186f6b6457e0600080a38151968711620002c45760059485548581811c91168015620002b9575b83821014620002a3578481116200025a575b5081938811600114620001ef5750509480928192620001d297600094620001e3575b50501b916000199060031b1c19161790555b620001bf81620003fa565b50620001cb816200047b565b506200051e565b50604051611c9b9081620005bd8239f35b015192503880620001a2565b879391929716968560005282600020926000905b8982106200024257505083620001d2981062000228575b505050811b019055620001b4565b015160001960f88460031b161c191690553880806200021a565b80878596829496860151815501950193019062000203565b866000528260002085808b01891c820192858c1062000299575b01881c019086905b8281106200028c57505062000180565b600081550186906200027c565b9250819262000274565b634e487b7160e01b600052602260045260246000fd5b90607f16906200016e565b634e487b7160e01b600052604160045260246000fd5b604051631e4fbdf760e01b815260006004820152602490fd5b905085015138620000fc565b89899316906002600052866000209160005b888282106200034c575050831162000332575b5050811b0160025562000110565b87015160001960f88460031b161c19169055388062000324565b838b015185558c9690940193928301920162000311565b6002600052846000208780840160051c820192878510620003a5575b0160051c019088905b82811062000398575050620000e5565b6000815501889062000388565b925081926200037f565b90607f1690620000d3565b600080fd5b8181018501518982018601528694016200008a565b6040519190601f01601f191682016001600160401b03811183821017620002c457604052565b6001600160a01b031660008181527f17ef568e3e12ab5b9c7254a8d58478811de00f9e6eb34345acd53bf8fd09d3ec602052604081205490919060ff16620004775781805260046020526040822081835260205260408220600160ff198254161790553391600080516020620022588339815191528180a4600190565b5090565b6001600160a01b031660008181527fc8a67ff93cd072913f31c50776e9da9e00867535cbaa98368a69dafa551e553460205260408120549091907f9f2df0fed2c77648de5860a4cc508cd0818c85b8b8a1ab4ceeef8d981c8956a69060ff16620005195780835260046020526040832082845260205260408320600160ff1982541617905560008051602062002258833981519152339380a4600190565b505090565b6001600160a01b031660008181527f0b82c046ead5c152b204781fecb4d5f82ef023694e7cda46a44bf9a793e5fbd760205260408120549091907f3c11d16cbaffd01df69ce1c404f6340ee057498f5f00246190ea54220576a8489060ff16620005195780835260046020526040832082845260205260408320600160ff1982541617905560008051602062002258833981519152339380a460019056fe6080604052600436101561001257600080fd5b60003560e01c8062fdd58e1461017657806301ffc9a7146101715780630e89341c1461016c578063248a9ca314610167578063282c51f3146101625780632eb2c2d61461015d5780632f2ff15d146101585780633112de9a1461015357806336568abe1461014e5780634e1273f414610149578063715018a6146101445780638da5cb5b1461013f57806391d148541461013a578063a217fddf14610135578063a22cb46514610130578063a647e8ec1461012b578063d539139314610126578063d547741f14610121578063de7bf0a21461011c578063e985e9c514610117578063f242432a146101125763f2fde38b1461010d57600080fd5b610f2d565b610e0f565b610dbe565b610ca9565b610c6a565b610c2f565b610afa565b610a10565b6109f4565b6109a2565b610979565b610918565b61085e565b6107d2565b6107a9565b61076a565b610641565b6104d4565b6104a5565b610303565b61021f565b6101c0565b600435906001600160a01b038216820361019157565b600080fd5b602435906001600160a01b038216820361019157565b35906001600160a01b038216820361019157565b346101915760403660031901126101915760206102046101de61017b565b6024356000526000835260406000209060018060a01b0316600052602052604060002090565b54604051908152f35b6001600160e01b031981160361019157565b3461019157602036600319011261019157602060043561023e8161020d565b63ffffffff60e01b16637965db0b60e01b8114908115610264575b506040519015158152f35b636cdb3d1360e11b811491508115610296575b8115610285575b5038610259565b6301ffc9a760e01b1490503861027e565b6303a24d0760e21b81149150610277565b60005b8381106102ba5750506000910152565b81810151838201526020016102aa565b906020916102e3815180928185528580860191016102a7565b601f01601f1916010190565b9060206103009281815201906102ca565b90565b34610191576020366003190112610191576000600435807a184f03e93ff9f4daa797ed6e38ed64bf6a1f01000000000000000080821015610497575b506d04ee2d6d415b85acef810000000080831015610488575b50662386f26fc1000080831015610479575b506305f5e1008083101561046a575b506127108083101561045b575b50606482101561044b575b600a80921015610441575b6001908160216103ad828701611c33565b95860101905b61040b575b604051610407906103fb816103ed6103dc8a6103d660208501611b49565b90611c1c565b64173539b7b760d91b815260050190565b03601f198101835282610546565b604051918291826102ef565b0390f35b600019019083906f181899199a1a9b1b9c1cb0b131b232b360811b8282061a83530491821561043c579190826103b3565b6103b8565b916001019161039c565b9190606460029104910191610391565b60049193920491019138610386565b60089193920491019138610379565b6010919392049101913861036a565b60209193920491019138610358565b60409350810491503861033f565b346101915760203660031901126101915760043560005260046020526020600160406000200154604051908152f35b346101915760003660031901126101915760206040517f3c11d16cbaffd01df69ce1c404f6340ee057498f5f00246190ea54220576a8488152f35b634e487b7160e01b600052604160045260246000fd5b6020810190811067ffffffffffffffff82111761054157604052565b61050f565b90601f8019910116810190811067ffffffffffffffff82111761054157604052565b67ffffffffffffffff81116105415760051b60200190565b81601f820112156101915780359161059783610568565b926105a56040519485610546565b808452602092838086019260051b820101928311610191578301905b8282106105cf575050505090565b813581529083019083016105c1565b67ffffffffffffffff811161054157601f01601f191660200190565b81601f8201121561019157803590610611826105de565b9261061f6040519485610546565b8284526020838301011161019157816000926020809301838601378301015290565b346101915760a03660031901126101915761065a61017b565b610662610196565b906044359167ffffffffffffffff908184116101915761068760049436908601610580565b906064358381116101915761069f9036908701610580565b92608435908111610191576106b790369087016105fa565b936001600160a01b03808216903382141580610746575b6107195783161561070157156106ea576106e8955061142b565b005b604051626a0d4560e21b8152600081880152602490fd5b604051632bfa23e760e11b8152600081890152602490fd5b6040805163711bec9160e11b815233818b019081526001600160a01b038616602082015290918291010390fd5b50600082815260016020908152604080832033845290915290205460ff16156106ce565b34610191576040366003190112610191576106e8600435610789610196565b908060005260046020526107a4600160406000200154611019565b61103a565b346101915760403660031901126101915760206107ca602435600435611b23565b604051908152f35b34610191576040366003190112610191576107eb610196565b336001600160a01b03821603610807576106e8906004356110d4565b60405163334bd91960e11b8152600490fd5b90815180825260208080930193019160005b828110610839575050505090565b83518552938101939281019260010161082b565b906020610300928181520190610819565b346101915760403660031901126101915760043567ffffffffffffffff808211610191573660238301121561019157816004013561089b81610568565b926108a96040519485610546565b81845260209160248386019160051b8301019136831161019157602401905b828210610901578560243586811161019157610407916108ef6108f5923690600401610580565b906111e6565b6040519182918261084d565b83809161090d846101ac565b8152019101906108c8565b346101915760008060031936011261097657610932611166565b600380546001600160a01b0319811690915581906001600160a01b03167f8be0079c531659141344cd1fd0a4f28419497f9722a3daafe3b4186f6b6457e08280a380f35b80fd5b34610191576000366003190112610191576003546040516001600160a01b039091168152602090f35b3461019157604036600319011261019157602060ff6109e86109c2610196565b6004356000526004845260406000209060018060a01b0316600052602052604060002090565b54166040519015158152f35b3461019157600036600319011261019157602060405160008152f35b3461019157604036600319011261019157610a2961017b565b6024359081151590818303610191576001600160a01b038116928315610ab457610a75610a869233600052600160205260406000209060018060a01b0316600052602052604060002090565b9060ff801983541691151516179055565b6040519081527f17307eab39ab6107e8899845ad3d59bd9653f200f220920489ca2b5937696c3160203392a3005b60405162ced3e160e81b815260006004820152602490fd5b6080906003190112610191576004356001600160a01b03811681036101915790602435906044359060643590565b3461019157610b0836610acc565b3360009081527fc8a67ff93cd072913f31c50776e9da9e00867535cbaa98368a69dafa551e5534602052604081205490949193919291907f9f2df0fed2c77648de5860a4cc508cd0818c85b8b8a1ab4ceeef8d981c8956a69060ff1615610c11575090610b7491611b23565b91604051610b8181610525565b8481526001600160a01b038316928315610bf85791610bee6020927f2e8ac5177a616f2aec08c3048f5021e4e9743ece034e8d83ba5caf76688bb47594610be884899160405192600184526020840152604083019160018352606084015260808301604052565b916112ab565b604051908152a380f35b604051632bfa23e760e11b815260048101879052602490fd5b6044906040519063e2517d3f60e01b82523360048301526024820152fd5b346101915760003660031901126101915760206040517f9f2df0fed2c77648de5860a4cc508cd0818c85b8b8a1ab4ceeef8d981c8956a68152f35b34610191576040366003190112610191576106e8600435610c89610196565b90806000526004602052610ca4600160406000200154611019565b6110d4565b3461019157610cb736610acc565b9190610cc1610fbb565b6001600160a01b038416928315610d79578015610d2657610d1181610d0a610d21947fccbea4088a3b7ae9ca2d15fab9a9742a4075b4d7247768a1eecea917565aba0096611b23565b8097611981565b6040519081529081906020820190565b0390a3005b60405162461bcd60e51b815260206004820152602560248201527f4275726e20616d6f756e74206d7573742062652067726561746572207468616e604482015264207a65726f60d81b6064820152608490fd5b60405162461bcd60e51b815260206004820152601d60248201527f43616e6e6f74206275726e2066726f6d207a65726f20616464726573730000006044820152606490fd5b3461019157604036600319011261019157602060ff6109e8610dde61017b565b610de6610196565b6001600160a01b0391821660009081526001865260408082209290931681526020919091522090565b346101915760a036600319011261019157610e2861017b565b610e30610196565b60843567ffffffffffffffff811161019157610e509036906004016105fa565b906001600160a01b03838116903382141580610f09575b610ee257821615610ec95715610eb1576106e892610ea96064356044359160405192600184526020840152604083019160018352606084015260808301604052565b92909161142b565b604051626a0d4560e21b815260006004820152602490fd5b604051632bfa23e760e11b815260006004820152602490fd5b60405163711bec9160e11b81523360048201526001600160a01b0386166024820152604490fd5b50600082815260016020908152604080832033845290915290205460ff1615610e67565b3461019157602036600319011261019157610f4661017b565b610f4e611166565b6001600160a01b03908116908115610fa257600354826bffffffffffffffffffffffff60a01b821617600355167f8be0079c531659141344cd1fd0a4f28419497f9722a3daafe3b4186f6b6457e0600080a3005b604051631e4fbdf760e01b815260006004820152602490fd5b3360009081527f0b82c046ead5c152b204781fecb4d5f82ef023694e7cda46a44bf9a793e5fbd7602052604090207f3c11d16cbaffd01df69ce1c404f6340ee057498f5f00246190ea54220576a8489060ff905b541615610c115750565b6000818152600460209081526040808320338452909152902060ff9061100f565b600090808252600460205260ff61106684604085209060018060a01b0316600052602052604060002090565b54166110ce578082526004602090815260408084206001600160a01b038616600090815292529020805460ff1916600117905533926001600160a01b0316917f2f8788117e7eff1d82e926ec794901d17c78024a50270940304540a733656f0d9080a4600190565b50905090565b600090808252600460205260ff61110084604085209060018060a01b0316600052602052604060002090565b5416156110ce578082526004602090815260408084206001600160a01b038616600090815292529020805460ff1916905533926001600160a01b0316917ff6391f5c32d9c69d2a47ea670b442974b53935d1edc7fd64eb21e047a839171b9080a4600190565b6003546001600160a01b0316330361117a57565b60405163118cdaa760e01b8152336004820152602490fd5b634e487b7160e01b600052601160045260246000fd5b60001981146111b75760010190565b611192565b80518210156111d05760209160051b010190565b634e487b7160e01b600052603260045260246000fd5b9190918051835180820361128957505080519061120282610568565b916112106040519384610546565b80835261121f601f1991610568565b0190602091368385013760005b815181101561128157600581901b8281018401519087018401516000908152602081815260408083206001600160a01b039094168352929052205461127c919061127682876111bc565b526111a8565b61122c565b509193505050565b604051635b05999160e01b815260048101919091526024810191909152604490fd5b90805183519081810361128957505060005b815181101561134057600581901b82810160209081015191860101516112f7929185906001600160a01b0382166112fc575b5050506111a8565b6112bd565b6113369161131761132e926000526000602052604060002090565b9060018060a01b0316600052602052604060002090565b918254611629565b90553884816112ef565b508051919392916001036113e2576020818101518382015160408051928352928201526001600160a01b0386169160009133917fc3d58168c5ae7397731d063d5bbf3d657854427343f4c083240f7aacaa2d0f6291a45b6001600160a01b0384166113ac575b50505050565b80516001036113d357906020806113ca959301519101519133611704565b388080806113a6565b6113dd9333611915565b6113ca565b6040516001600160a01b0385169060009033907f4a39dc06d4c0dbc64b70af90fd698a233a518aa5d07e595d983b8c0526c8f7fb9080611423888883611636565b0390a4611397565b94919091815184519081810361128957505060005b825181101561153357600581901b83810160209081015191870101516001600160a01b03929186908a85166114ac575b611482948216611487575050506111a8565b611440565b6114a29161131761132e926000526000602052604060002090565b90553885816112ef565b91929390506114c98a611317846000526000602052604060002090565b548381106114fc5791879184611482969594036114f48d611317856000526000602052604060002090565b559450611470565b6040516303dee4c560e01b81526001600160a01b038c16600482015260248101919091526044810184905260648101839052608490fd5b5094919392909360018551146000146115de576020858101518382015160408051928352928201526001600160a01b03838116929086169133917fc3d58168c5ae7397731d063d5bbf3d657854427343f4c083240f7aacaa2d0f6291a45b6001600160a01b0381166115a7575b5050505050565b84516001036115cd576020806115c396015192015192336117fe565b38808080806115a0565b6115d99491923361194a565b6115c3565b6040516001600160a01b03828116919085169033907f4a39dc06d4c0dbc64b70af90fd698a233a518aa5d07e595d983b8c0526c8f7fb9080611621888c83611636565b0390a4611591565b919082018092116111b757565b909161164d61030093604084526040840190610819565b916020818403910152610819565b9081602091031261019157516103008161020d565b909260a0926103009594600180861b03168352600060208401526040830152606082015281608082015201906102ca565b919261030095949160a094600180871b0380921685521660208401526040830152606082015281608082015201906102ca565b3d156116ff573d906116e5826105de565b916116f36040519384610546565b82523d6000602084013e565b606090565b9293919093843b611716575050505050565b602091611739604051948593849363f23a6e6160e01b9889865260048601611670565b038160006001600160a01b0388165af1600091816117ce575b5061179157826117606116d4565b805191908261178a57604051632bfa23e760e11b81526001600160a01b0383166004820152602490fd5b9050602001fd5b6001600160e01b031916036117ab575038808080806115a0565b604051632bfa23e760e11b81526001600160a01b03919091166004820152602490fd5b6117f091925060203d81116117f7575b6117e88183610546565b81019061165b565b9038611752565b503d6117de565b939290949194853b611813575b505050505050565b611836602093604051958694859463f23a6e6160e01b998a8752600487016116a1565b038160006001600160a01b0388165af160009181611878575b5061185d57826117606116d4565b6001600160e01b031916036117ab575038808080808061180b565b61189191925060203d81116117f7576117e88183610546565b903861184f565b926118c761030095936118d59360018060a01b031686526000602087015260a0604087015260a0860190610819565b908482036060860152610819565b9160808184039101526102ca565b939061030095936118c7916118d59460018060a01b03809216885216602087015260a0604087015260a0860190610819565b9293919093843b611927575050505050565b602091611739604051948593849363bc197c8160e01b9889865260048601611898565b939290949194853b61195e57505050505050565b611836602093604051958694859463bc197c8160e01b998a8752600487016118e3565b6001600160a01b038116929091908315610eb1576119bc60405192600184526020840152604083019160018352606084015260808301604052565b9190604094600086516119ce81610525565b528151845190818103611b0257505060005b8251811015611a7b578060051b60208082860101519187010151611a1286611317846000526000602052604060002090565b54818110611a455786611317611a40959493611a3a9303936000526000602052604060002090565b556111a8565b6119e0565b89516303dee4c560e01b81526001600160a01b038816600482015260248101919091526044810182905260648101839052608490fd5b50949060009493925060018151148514611ad05760209081015192810151915192835282015233907fc3d58168c5ae7397731d063d5bbf3d657854427343f4c083240f7aacaa2d0f629080604081015b0390a4565b905133927f4a39dc06d4c0dbc64b70af90fd698a233a518aa5d07e595d983b8c0526c8f7fb928291611acb9183611636565b8751635b05999160e01b815260048101919091526024810191909152604490fd5b60408051602081019283529081019290925290611b4381606081016103ed565b51902090565b60055460009291600182811c9281811691908215611c12575b6020928386108114611bfc57908115611be15750600114611b835750505050565b909192939450611bb560056000527f036b6384b5eca791c62761152d0c79bb0604c104a5fb6f4eb0703f3154bb3db090565b906000915b858310611bd057505050500190388080806113a6565b805485840152918301918101611bba565b60ff19168452505050811515909102019150388080806113a6565b634e487b7160e01b600052602260045260246000fd5b93607f1693611b62565b90611c2f602092828151948592016102a7565b0190565b90611c3d826105de565b611c4a6040519182610546565b8281528092611c5b601f19916105de565b019060203691013756fea2646970667358221220be7a6065cbc14cb73f55b612318cdcd697201f353681a064f3d262f7ebb9003c64736f6c634300081400332f8788117e7eff1d82e926ec794901d17c78024a50270940304540a733656f0d",
  "linkReferences": {},
  "deployedLinkReferences": {}
}