{"src/core/MarketFactory.sol":{"MarketFactory":{"abi":[{"inputs":[{"internalType":"string","name":"baseURI","type":"string"}],"stateMutability":"nonpayable","type":"constructor"},{"inputs":[{"internalType":"address","name":"owner","type":"address"}],"name":"OwnableInvalidOwner","type":"error"},{"inputs":[{"internalType":"address","name":"account","type":"address"}],"name":"OwnableUnauthorizedAccount","type":"error"},{"anonymous":false,"inputs":[{"indexed":true,"internalType":"address","name":"marketAddress","type":"address"},{"indexed":false,"internalType":"uint256","name":"amount","type":"uint256"}],"name":"FundsTransferred","type":"event"},{"anonymous":false,"inputs":[{"indexed":true,"internalType":"address","name":"marketAddress","type":"address"},{"indexed":false,"internalType":"string","name":"title","type":"string"}],"name":"MarketCreated","type":"event"},{"anonymous":false,"inputs":[{"indexed":true,"internalType":"address","name":"marketAddress","type":"address"}],"name":"MinterAuthorized","type":"event"},{"anonymous":false,"inputs":[{"indexed":true,"internalType":"address","name":"previousOwner","type":"address"},{"indexed":true,"internalType":"address","name":"newOwner","type":"address"}],"name":"OwnershipTransferred","type":"event"},{"anonymous":false,"inputs":[{"indexed":true,"internalType":"address","name":"marketAddress","type":"address"}],"name":"RolesGranted","type":"event"},{"inputs":[{"internalType":"uint256","name":"","type":"uint256"}],"name":"activeMarkets","outputs":[{"internalType":"address","name":"","type":"address"}],"stateMutability":"view","type":"function"},{"inputs":[{"internalType":"uint256","name":"marketId","type":"uint256"},{"internalType":"string","name":"title","type":"string"},{"internalType":"string[]","name":"outcomes","type":"string[]"},{"internalType":"address","name":"oracle","type":"address"},{"internalType":"uint256","name":"b","type":"uint256"},{"internalType":"uint256","name":"duration","type":"uint256"},{"internalType":"uint256","name":"feePercent","type":"uint256"},{"internalType":"address","name":"feeRecipient","type":"address"},{"internalType":"address","name":"tokenAddress","type":"address"},{"internalType":"uint256","name":"initialFunds","type":"uint256"}],"name":"createMarket","outputs":[{"internalType":"address","name":"","type":"address"}],"stateMutability":"nonpayable","type":"function"},{"inputs":[],"name":"getActiveMarkets","outputs":[{"internalType":"address[]","name":"","type":"address[]"}],"stateMutability":"view","type":"function"},{"inputs":[],"name":"getPositions","outputs":[{"internalType":"address","name":"","type":"address"}],"stateMutability":"view","type":"function"},{"inputs":[{"internalType":"address","name":"","type":"address"}],"name":"marketTitles","outputs":[{"internalType":"string","name":"","type":"string"}],"stateMutability":"view","type":"function"},{"inputs":[],"name":"owner","outputs":[{"internalType":"address","name":"","type":"address"}],"stateMutability":"view","type":"function"},{"inputs":[],"name":"positions","outputs":[{"internalType":"contract PredictionMarketPositions","name":"","type":"address"}],"stateMutability":"view","type":"function"},{"inputs":[],"name":"renounceOwnership","outputs":[],"stateMutability":"nonpayable","type":"function"},{"inputs":[{"internalType":"address","name":"newOwner","type":"address"}],"name":"transferOwnership","outputs":[],"stateMutability":"nonpayable","type":"function"}],"evm":{"bytecode":{"linkReferences":{},"object":"6040608081523462000185576200769f803803806200001e81620001a0565b92833981016020918281830312620001855780516001600160401b03918282116200018557019082601f8301121562000185578151908082116200018a57601f199262000072601f840185168701620001a0565b928084528684019587828401011162000185578587620000939301620001c6565b33156200016d5760009283549460018060a01b0319963388881617865588519460018060a01b0397883391167f8be0079c531659141344cd1fd0a4f28419497f9722a3daafe3b4186f6b6457e08980a361227886810195861187871017620001595792869492620001208c601f9460609997620054278a39818852519384809289015289880190620001c6565b309085015201160103019082f09081156200014e5750169060025416176002555161523b9081620001ec8239f35b8451903d90823e3d90fd5b634e487b7160e01b88526041600452602488fd5b8551631e4fbdf760e01b815260006004820152602490fd5b600080fd5b634e487b7160e01b600052604160045260246000fd5b6040519190601f01601f191682016001600160401b038111838210176200018a57604052565b60005b838110620001da5750506000910152565b8181015183820152602001620001c956fe608060405260043610156200001357600080fd5b6000803560e01c80633adfe6d01462000b4c578063715018a61462000aee57806380275860146200021f5780638da5cb5b1462000ac557806397271c141462000310578063a5e973c3146200024a578063ba5b7982146200021f578063c3a811fe14620001235763f2fde38b146200008a57600080fd5b34620001205760203660031901126200012057620000a762000c8d565b620000b162000d23565b6001600160a01b039081169081156200010757600054826bffffffffffffffffffffffff60a01b821617600055167f8be0079c531659141344cd1fd0a4f28419497f9722a3daafe3b4186f6b6457e0600080a380f35b604051631e4fbdf760e01b815260048101849052602490fd5b80fd5b503462000120576020806003193601126200021b576001600160a01b036200014a62000c8d565b1682526003815260408220604051838194908354906200016a8262000ca4565b94858552600192878482169182600014620001f5575050600114620001b5575b5050506200019b9250038362000c0e565b620001b160405192828493845283019062000ce1565b0390f35b869350819291528282205b858310620001dc5750506200019b93508201013880806200018a565b80548389018501528794508693909201918101620001c0565b9350945050506200019b94915060ff191682840152151560051b8201013880806200018a565b5080fd5b503462000120578060031936011262000120576002546040516001600160a01b039091168152602090f35b503462000120578060031936011262000120576040518091600190815493848452602080940180958484527fb10e2d527612073b26eecdfd717e6a320cf44b4afac2b0732d9fcbe2b7fa0cf690845b818110620002f35750505081620002b291038262000c0e565b6040519380850191818652518092526040850195925b828110620002d65785870386f35b83516001600160a01b0316875295810195928101928401620002c8565b82546001600160a01b031684529287019291860191860162000299565b50346200012057610140366003190112620001205760243567ffffffffffffffff81116200021b576200034890369060040162000c31565b906044359167ffffffffffffffff83116200021b57366023840112156200021b5782600401359267ffffffffffffffff841162000ab1578360051b906040519462000397602084018762000c0e565b8552602085019181016024018236821162000a755760248301905b82821062000a795750506064359150506001600160a01b0381168103620008615760e435916001600160a01b0383168303620008d35761010435926001600160a01b038416840362000a755760018060a01b03600254169060405193846144b581011067ffffffffffffffff6144b58701111762000a61576144b562000d5186396004356144b58601908152610160602082018190526200045591018862000ce1565b986144b586018a0360406144b58801015251808a5260208a019060208160051b8c010195918a905b82821062000a31575050506001600160a01b039182166144b587016060810191909152608435608082015260a43560a082015260c43560c082015292821660e08401525085166101008201526101243561012082015261014001528190039084f091821562000753576001546801000000000000000081101562000a1d578060016200050d920160015562000b95565b81546001600160a01b03600392831b81811b1990921696169081901b9590951790915583855260205260408420815167ffffffffffffffff811162000a0957908492916200055c825462000ca4565b601f8111620009b0575b506020601f82116001146200091d5791817f89e2b56dfb4365b59dc3a37aaf819ce4937e48be6ab23686edcecacf0124ae039492620005d0948a9162000911575b508160011b916000199060031b1c19161790555b60405191829160208352602083019062000ce1565b0390a260025460405163d539139360e01b8152906001600160a01b0316602082600481845afa918215620008c8578592620008d7575b50803b15620008d357604051632f2ff15d60e01b80825260048201939093526001600160a01b03851660248201529085908290604490829084905af18015620008c857620008b2575b5060025460405163282c51f360e01b815285926001600160a01b0390921691602082600481865afa918215620008a757849262000865575b50823b15620008615760405190815260048101919091526001600160a01b03851660248201529082908290604490829084905af1801562000856576200083e575b5060405191837f92199b96df436a113d14e9952bea656a2e2e7fbc271b2141f2c42002e0e2b85b8380a2610124356200075e575b505050803b156200021b5760405163f2fde38b60e01b8152336004820152828160248183865af1801562000753576200073b575b602082604051908152f35b62000747839162000be3565b6200021b578162000730565b6040513d85823e3d90fd5b6323b872dd60e01b835233600484015260248301849052610124356044840152602091839160649183916001600160a01b03165af190811562000753578391620007f8575b5015620007b357828281620006fc565b60405162461bcd60e51b815260206004820152601c60248201527f496e697469616c2066756e64207472616e73666572206661696c6564000000006044820152606490fd5b90506020813d60201162000835575b81620008166020938362000c0e565b810103126200083157518015158103620008315783620007a3565b8280fd5b3d915062000807565b620008499062000be3565b62000831578284620006c8565b6040513d84823e3d90fd5b8380fd5b935090506020833d6020116200089e575b81620008856020938362000c0e565b810103126200089957859251908762000687565b600080fd5b3d915062000876565b6040513d86823e3d90fd5b620008c09094919462000be3565b92846200064f565b6040513d87823e3d90fd5b8480fd5b9091506020813d60201162000908575b81620008f66020938362000c0e565b81010312620008d35751908562000606565b3d9150620008e7565b90508301518a620005a7565b8288526020882090885b601f198416811062000994575082620005d094926001927f89e2b56dfb4365b59dc3a37aaf819ce4937e48be6ab23686edcecacf0124ae039795601f198116106200097a575b5050811b019055620005bb565b85015160001960f88460031b161c191690558a806200096d565b8186015183558896506001909201916020918201910162000927565b909180939450875260208720601f830160051c81019160208410620009fe575b90601f8896959493920160051c01905b818110620009ef575062000566565b888155879550600101620009e0565b9091508190620009d0565b634e487b7160e01b86526041600452602486fd5b634e487b7160e01b85526041600452602485fd5b9091929660208062000a528f93600194601f199082030186528b5162000ce1565b9901920192019092916200047d565b634e487b7160e01b88526041600452602488fd5b8580fd5b813567ffffffffffffffff811162000aad5760209162000aa183926024369189010162000c31565b815201910190620003b2565b8780fd5b634e487b7160e01b83526041600452602483fd5b50346200012057806003193601126200012057546040516001600160a01b039091168152602090f35b5034620001205780600319360112620001205762000b0b62000d23565b80546001600160a01b03198116825581906001600160a01b03167f8be0079c531659141344cd1fd0a4f28419497f9722a3daafe3b4186f6b6457e08280a380f35b5034620001205760203660031901126200012057600435906001548210156200012057602062000b7c8362000b95565b905460405160039290921b1c6001600160a01b03168152f35b60015481101562000bcd5760016000527fb10e2d527612073b26eecdfd717e6a320cf44b4afac2b0732d9fcbe2b7fa0cf60190600090565b634e487b7160e01b600052603260045260246000fd5b67ffffffffffffffff811162000bf857604052565b634e487b7160e01b600052604160045260246000fd5b90601f8019910116810190811067ffffffffffffffff82111762000bf857604052565b81601f82011215620008995780359067ffffffffffffffff821162000bf8576040519262000c6a601f8401601f19166020018562000c0e565b828452602083830101116200089957816000926020809301838601378301015290565b600435906001600160a01b03821682036200089957565b90600182811c9216801562000cd6575b602083101462000cc057565b634e487b7160e01b600052602260045260246000fd5b91607f169162000cb4565b919082519283825260005b84811062000d0e575050826000602080949584010152601f8019910116010190565b60208183018101518483018201520162000cec565b6000546001600160a01b0316330362000d3857565b60405163118cdaa760e01b8152336004820152602490fdfe610180806040523462000a2957620044b5803803809162000021828562000d47565b83398101906101608183031262000a2957805160208201516001600160401b03811162000a2957836200005691840162000d6b565b60408301516001600160401b03811162000a295783019380601f8601121562000a29578451946001600160401b038611620006be578560051b9060405196620000a3602084018962000d47565b87526020808801928201019183831162000a295760208201905b83821062000d16575050505050620000d86060840162000de2565b9060808401519360a08101519260c082015195620000f960e0840162000de2565b9162000109610100850162000de2565b946200011f610140610120870151960162000de2565b97331562000cfd5760008054336001600160a01b03198216811783556040519290916001600160a01b0316907f8be0079c531659141344cd1fd0a4f28419497f9722a3daafe3b4186f6b6457e09080a3600180556002805460ff1916905560006009819055600a819055600b556001600160a01b0388161562000cbb57506001600160a01b0385161562000c76578a511562000c3157831562000bd457871562000b8f578a51801515908162000b82575b501562000b3d57612710841162000ade576064841062000a73578a51600181111562000a2e5760016001603f1b03811162000a295760008160401b600f0b131562000a29576000604082901b600f0b6801000000000000000081121562000a16575b80640100000000600292121562000a09575b62010000811215620009fc575b610100811215620009ef575b6010811215620009e2575b6004811215620009d6575b1215620009cd575b908591603f19810160401b9160401b600f0b90607f031b678000000000000000905b60008213620009ac575050906fb17217f7d1cf79abc9e3b39803f2f6af620002cc92600f0b0260801d62000e33565b60405163313ce56760e01b81526020816004816001600160a01b038d165afa80156200082a57620003079160009162000988575b5062000e12565b90818102918183041490151715620005b05786106200092c5760c0528051906001600160401b038211620006be57600754908160011c91600181161562000921575b60011660208310146200069d5781601f849311620008c0575b50602090601f8311600114620008425760009262000836575b50508160011b916000199060031b1c1916176007555b600880546001600160a01b0319166001600160a01b03929092169190911790556080524280850110620005b0576004956020944201875561ffff196005541660055560e0526101005260018060a01b03821660a05285516101605280600955600a556040519384809263313ce56760e01b825260018060a01b03165afa9081156200082a5760ff92600092620007f2575b50610120829052600c80546001600160a01b0319166001600160a01b0392909216919091179055166008811115620007d2575060ff610120511680600719810111620005b05762000477906007190162000e24565b600d555b6200048c60ff610120511662000e12565b6101405260005b8151811015620006ea57600581901b82016020015160408051919082016001600160401b03811183821017620006be576040528152600060208201526003549068010000000000000000821015620006be576001820180600355821015620006d4576003600052805180517fc2575a0e9e593c00f959f8c92f12db2869c3395a3b0502d05e2516446f71f85b92916001600160401b038211620006be578460011b840154600181811c91168015620006b3575b60208210146200069d57601f81116200064f575b50602090601f8311600114620005d25791806001959492602094600092620005c6575b5050600019600383901b1c191690851b1785851b8401555b015192821b0101556000198114620005b05760010162000493565b634e487b7160e01b600052601160045260246000fd5b0151905038806200057d565b908560011b850160005260206000209160005b601f1985168110620006365750926001959492869260209583601f198116106200061c575b505050811b0185851b84015562000595565b015160001960f88460031b161c191690553880806200060a565b91926020600181928685015181550194019201620005e5565b8560011b85016000526020600020601f840160051c81016020851062000695575b601f830160051c82018110620006885750506200055a565b6000815560010162000670565b508062000670565b634e487b7160e01b600052602260045260246000fd5b90607f169062000546565b634e487b7160e01b600052604160045260246000fd5b634e487b7160e01b600052603260045260246000fd5b604051613609908162000e8c823960805181818161096901528181611520015281816115f9015281816116600152612589015260a05181818161025c015281816103ac0152818161072701528181610dbf015281816112270152818161184e0152611d28015260c0518181816105b701528181610a6d01528181610e1b015281816114500152611b35015260e051818181610d2f01528181611373015281816115890152611c1d01526101005181818161036e015281816117d8015261193b01526101205181611abe015261014051818181610667015261090b01526101605181610bb90152f35b60080360088111620005b057620007e99062000e24565b600d556200047b565b6200081a91925060203d60201162000822575b62000811818362000d47565b81019062000df7565b903862000422565b503d62000805565b6040513d6000823e3d90fd5b0151905038806200037b565b6007600090815293506000805160206200449583398151915291905b601f1984168510620008a4576001945083601f198116106200088a575b505050811b0160075562000391565b015160001960f88460031b161c191690553880806200087b565b818101518355602094850194600190930192909101906200085e565b600760005290915060008051602062004495833981519152601f840160051c81016020851062000919575b90849392915b601f830160051c820181106200090957505062000362565b60008155859450600101620008f1565b5080620008eb565b91607f169162000349565b60405162461bcd60e51b815260206004820152602e60248201527f496e697469616c2066756e6473206d757374206578636565642062202a206c6e60448201526d286e756d5f6f7574636f6d65732960901b6064820152608490fd5b620009a5915060203d602011620008225762000811818362000d47565b3862000300565b8091935002908160ff1c9182607f011c918302019160011d8692916200029d565b6001016200027b565b91810191811d62000273565b6004928301921d62000268565b6008928301921d6200025d565b6010928301921d62000251565b6020928301921d62000244565b506040905081811b600f0b811d62000232565b600080fd5b60405162461bcd60e51b815260206004820152601e60248201527f4174206c656173742074776f206f7574636f6d657320726571756972656400006044820152606490fd5b60405162461bcd60e51b815260206004820152603460248201527f4c697175696469747920706172616d6574657220276227206d7573742062652060448201527f67726561746572207468616e206d696e696d756d0000000000000000000000006064820152608490fd5b60405162461bcd60e51b815260206004820152603160248201527f4c697175696469747920706172616d6574657220276227206578636565647320604482015270746865206c696d6974206d6178696d756d60781b6064820152608490fd5b60405162461bcd60e51b815260206004820152601a60248201527f496e76616c6964206e756d626572206f66206f7574636f6d65730000000000006044820152606490fd5b60059150111538620001d0565b60405162461bcd60e51b815260206004820152601960248201527f4475726174696f6e206d75737420626520706f736974697665000000000000006044820152606490fd5b60405162461bcd60e51b815260206004820152602f60248201527f4c697175696469747920706172616d657465722062206d75737420626520677260448201526e6561746572207468616e207a65726f60881b6064820152608490fd5b60405162461bcd60e51b815260206004820152601d60248201527f4174206c65617374206f6e65206f7574636f6d652072657175697265640000006044820152606490fd5b60405162461bcd60e51b815260206004820152601d60248201527f496e76616c69642066656520726563697069656e7420616464726573730000006044820152606490fd5b62461bcd60e51b815260206004820152601560248201527f496e76616c696420746f6b656e206164647265737300000000000000000000006044820152606490fd5b604051631e4fbdf760e01b815260006004820152602490fd5b81516001600160401b03811162000a295760209162000d3b8784809488010162000d6b565b815201910190620000bd565b601f909101601f19168101906001600160401b03821190821017620006be57604052565b919080601f8401121562000a29578251906001600160401b038211620006be576040519160209162000da7601f8301601f191684018562000d47565b81845282828701011162000a295760005b81811062000dce57508260009394955001015290565b858101830151848201840152820162000db8565b51906001600160a01b038216820362000a2957565b9081602091031262000a29575160ff8116810362000a295790565b60ff16604d8111620005b057600a0a90565b604d8111620005b057600a0a90565b811562000e8457600f0b60009081811262000e80576001600160801b038316810260401c9260801c026001600160c01b03811162000e805760401b908219821162000e7d57500190565b80fd5b5080fd5b505060009056fe6040608081526004908136101561001557600080fd5b600091823560e01c9081631cb44dfc14611efd5781632279a97014611ae25781633b97e85614611aa45781633f4ba83a14611a3a578163416e517e1461196a5781634690484014611926578163474e19f21461190a578163476343ee146117bc57816348a5dec6146117985781634a79d50c146116835781634df7e3d014611648578163510f5116146115b557816353249a31146114dc5781635c975abb146114b857816369c41a741461149a5781636e77609e146114735781636ed71ede14611438578163715018a6146113de5781637dc0d1d0146113b55781637dc8f086146113965781637fd6f15c1461135b5781638456cb591461130057816389ff7069146111d85781638da5cb5b146111b05781638f512bf4146111915781638fbb4a821461056e5781639003adfe14611172578163905143201461115357816392b2849b1461113757816396211a97146110b35781639aaff766146110565781639b34ae03146110375781639e6c295914610c65578163a2d07d241461101b578163b03238f714610fe7578163ba5b798214610fbe578163beebc5da14610c6a578163c3883f1714610c65578163c511ed5e14610bdc578163ca3bd56914610ba1578163d55e725b14610b82578163ddd9d04514610a42578163e75722301461092e578163e8467af6146108f3578163e88499a914610573578163ed0c986f1461056e578163eed2a1471461045d578163ef86ce8e14610324578163f2fde38b1461028f575063fc0c546a1461024957600080fd5b3461028b578160031936011261028b57517f00000000000000000000000000000000000000000000000000000000000000006001600160a01b03168152602090f35b5080fd5b905034610320576020366003190112610320576102aa611f89565b906102b36120ca565b6001600160a01b0391821692831561030a575050600054826bffffffffffffffffffffffff60a01b821617600055167f8be0079c531659141344cd1fd0a4f28419497f9722a3daafe3b4186f6b6457e0600080a380f35b51631e4fbdf760e01b8152908101849052602490fd5b8280fd5b9190503461032057826003193601126103205761033f6120ca565b61035060ff60055460081c1661238d565b6009805490849055815163a9059cbb60e01b81526001600160a01b037f000000000000000000000000000000000000000000000000000000000000000016848201908152602081810193909352909190829081906040010381877f00000000000000000000000000000000000000000000000000000000000000006001600160a01b03165af1908115610453578491610425575b50156103ee578280f35b906020606492519162461bcd60e51b8352820152601160248201527015da5d1a191c985dd85b0819985a5b1959607a1b6044820152fd5b610446915060203d811161044c575b61043e8183611fdf565b810190612222565b386103e4565b503d610434565b82513d86823e3d90fd5b82843461056b576020908160031936011261056b5783359060035482101561056b57506104899061207a565b509282519360009181549260019380851c92858216908115610561575b878510821461054e5750838952889291879082156105315750506001146104f1575b6104d492500386611fdf565b01546104e98351948486958652850190612001565b918301520390f35b505081600052858480600020856000915b8583106105185750506104d493508201016104c8565b80919294505483858c0101520191018590858993610502565b60ff1916848201526104d494151560051b84010191506104c89050565b634e487b7160e01b845260229052602483fd5b93607f16936104a6565b80fd5b612041565b9190503461032057826003193601126103205761058e61229c565b61059661227e565b6105a760ff60055460081c1661238d565b60018060a01b039081600c5416927f0000000000000000000000000000000000000000000000000000000000000000926006548351946318896f4d60e11b8652808487015281602487015260209586816044818b5afa80156108ba5787908a906108c4575b8751627eeac760e11b81523388820190815260208101929092529250829081906040015b03818b5afa9081156108ba578991610888575b50801561084e578060016106568561207a565b50015410610813579088929161068c7f0000000000000000000000000000000000000000000000000000000000000000826121e2565b986106a58a6009546106a0828210156122bf565b612215565b600955803b1561080f578751636f3df85160e11b815233888201908152602081019490945260408401949094526060830191909152839183919082908490829060800103925af18015610805576107ed575b5050825163a9059cbb60e01b815233838201908152602081018790529091859183919082908a90829060400103927f0000000000000000000000000000000000000000000000000000000000000000165af19081156107e35786916107c6575b501561078f5750907fec68461f5d4cc45c89e914cb8826a966c73dd35e5f97815ece0a01ffa4a025a691519283523392a26001805580f35b82606492519162461bcd60e51b83528201526013602482015272151bdad95b881c185e5bdd5d0819985a5b1959606a1b6044820152fd5b6107dd9150843d861161044c5761043e8183611fdf565b38610757565b83513d88823e3d90fd5b6107f690611fb5565b6108015785386106f7565b8580fd5b85513d84823e3d90fd5b8480fd5b855162461bcd60e51b81528086018890526015602482015274496e76616c696420736861726520616d6f756e747360581b6044820152606490fd5b855162461bcd60e51b815280860188905260146024820152734e6f2077696e6e696e677320746f20636c61696d60601b6044820152606490fd5b90508681813d83116108b3575b61089f8183611fdf565b810103126108ae575138610643565b600080fd5b503d610895565b86513d8b823e3d90fd5b5081813d83116108ec575b6108d98183611fdf565b810103126108ae5786610630915161060c565b503d6108cf565b50503461028b578160031936011261028b57602090517f00000000000000000000000000000000000000000000000000000000000000008152f35b905034610320576020366003190112610320573561095960035491610954838210612135565b61207a565b506001809101549061099461098f7f00000000000000000000000000000000000000000000000000000000000000008094612761565b6129e2565b92859286925b828410610a0a5750505050600f0b908115610a0657821b60170b059160016001607f1b0319831215806109f5575b1561056b575067ffffffffffffffff6109ed6109e8602094600f0b6126e4565b612680565b169051908152f35b5060016001607f1b038313156109c8565b8380fd5b90919293610a34610a3a91610a2e61098f8686610a268b61207a565b500154612761565b9061269b565b94612505565b92919061099a565b83833461028b578060031936011261028b57610a5c611f89565b600c5482516318896f4d60e11b81527f000000000000000000000000000000000000000000000000000000000000000086820152602480359082015260209590916001600160a01b0316908683604481855afa928315610b785790879392918793610b43575b508551627eeac760e11b81526001600160a01b0390951690850190815260208101929092528391829081906040015b03915afa928315610b385792610b09575b5051908152f35b9091508281813d8311610b31575b610b218183611fdf565b810103126108ae57519083610b02565b503d610b17565b8251903d90823e3d90fd5b8481959294503d8311610b71575b610b5b8183611fdf565b810103126108ae57915186929091610af1610ac2565b503d610b51565b85513d88823e3d90fd5b50503461028b578160031936011261028b57602090600a549051908152f35b50503461028b578160031936011261028b57602090517f00000000000000000000000000000000000000000000000000000000000000008152f35b9190503461032057826003193601126103205781544210610c2c5782600160ff1960055416176005557f0b5f6bf058282d5cc003efc735b9ee453bbd7f9bef4c6db6300d095f3eefac288180a180f35b906020606492519162461bcd60e51b8352820152601360248201527213585c9ad95d081b9bdd081bdd995c881e595d606a1b6044820152fd5b61205e565b9190503461032057610c7b36611f9f565b610c8693919361229c565b610c8e61227e565b610c9d60ff60055416156120f6565b610caa6003548510612135565b8015610f7b57612710811015610f3857610d27610d146109e8610d00610cd6610cd1612514565b61257a565b6001610ce18a61207a565b5001610cee878254612173565b9055610cfb610cd1612514565b6126c0565b610d0f8982600f0b1215612196565b6126e4565b67ffffffffffffffff600d5491166121e2565b926064610d547f0000000000000000000000000000000000000000000000000000000000000000866121e2565b04936032850285810460321486151715610f2557606490049087610d82610d7b8489612215565b9783612173565b84516323b872dd60e01b8152338189019081523060208201526040810183905291979181906060016001600160a01b0392916020918391900381877f000000000000000000000000000000000000000000000000000000000000000087165af1908115610f1b5790610dfb918591610efd575b5061223a565b600c5416803b15610320578551632991fa3b60e21b8152339281019283527f00000000000000000000000000000000000000000000000000000000000000006020840152604083018b905260608301889052918391839182908490829060800103925af1801561080557610edf575b50507f0ea2cc1a2a0fcfecef8b5ff9be41f8c0ca3770265a060b00de53118f88c91dfa95610eaa610ea2610ed59594610eb594612173565b600954612173565b600955600b54612173565b600b55519283923396846040919493926060820195825260208201520152565b0390a26001805580f35b610eeb90949394611fb5565b610ef9578738939293610e6a565b8780fd5b610f15915060203d811161044c5761043e8183611fdf565b38610df5565b87513d86823e3d90fd5b634e487b7160e01b885260118552602488fd5b506020606492519162461bcd60e51b8352820152601a60248201527f5368617265207472616465206c696d69742065786365656465640000000000006044820152fd5b506020606492519162461bcd60e51b8352820152601b60248201527f4d75737420627579206174206c65617374206f6e6520736861726500000000006044820152fd5b50503461028b578160031936011261028b57600c5490516001600160a01b039091168152602090f35b82843461056b57602036600319011261056b575060016110116020933561095460035482106123d2565b5001549051908152f35b50503461028b578160031936011261028b576020905160328152f35b50503461028b578160031936011261028b576020906006549051908152f35b9050823461056b575061106836611f9f565b8351906020820192835284820152838152606081019281841067ffffffffffffffff85111761109e575082602094525190208152f35b604190634e487b7160e01b6000525260246000fd5b9050823461056b57506110c536611f9f565b909160018211156110f4576020846110ed856110e86110e387612668565b6128d1565b612714565b9051908152f35b606490602085519162461bcd60e51b8352820152601e60248201527f4174206c656173742074776f206f7574636f6d657320726571756972656400006044820152fd5b50503461028b578160031936011261028b576020905160058152f35b50503461028b578160031936011261028b576020906009549051908152f35b50503461028b578160031936011261028b57602090600b549051908152f35b50503461028b578160031936011261028b57602090600d549051908152f35b50503461028b578160031936011261028b57905490516001600160a01b039091168152602090f35b919050346103205760209081600319360112610a06578235926111f96120ca565b81516323b872dd60e01b815233828201908152306020820152604081018690528490829081906060010381897f00000000000000000000000000000000000000000000000000000000000000006001600160a01b03165af19081156107e35786916112e3575b50156112a25750907f543ba50a5eec5e6178218e364b1d0f396157b3c8fa278522c2cb7fd99407d4749161129584600954612173565b600955519283523392a280f35b82606492519162461bcd60e51b8352820152601c60248201527f496e697469616c2066756e64207472616e73666572206661696c6564000000006044820152fd5b6112fa9150843d861161044c5761043e8183611fdf565b3861125f565b50503461028b578160031936011261028b5760207f62e78cea01bee320cd4e420270b5ea74000d11b0c9f74754ebdbfc544b05a2589161133e6120ca565b61134661227e565b600160ff19600254161760025551338152a180f35b50503461028b578160031936011261028b57602090517f00000000000000000000000000000000000000000000000000000000000000008152f35b50503461028b578160031936011261028b576020906003549051908152f35b50503461028b578160031936011261028b5760085490516001600160a01b039091168152602090f35b833461056b578060031936011261056b576113f76120ca565b600080546001600160a01b0319811682556001600160a01b03167f8be0079c531659141344cd1fd0a4f28419497f9722a3daafe3b4186f6b6457e08280a380f35b50503461028b578160031936011261028b57602090517f00000000000000000000000000000000000000000000000000000000000000008152f35b50503461028b578160031936011261028b5760209060ff60055460081c1690519015158152f35b90503461032057826003193601126103205760209250549051908152f35b50503461028b578160031936011261028b5760209060ff6002541690519015158152f35b50503461028b576020906110ed611582610d146109e8610d0f61157c61150136611f9f565b919061151060035482106123d2565b61151b831515612416565b6115467f00000000000000000000000000000000000000000000000000000000000000001515612475565b61154e612514565b9061157661156f61155e8461257a565b9561156984866124d9565b51612215565b91836124d9565b5261257a565b906126c0565b60646115ae7f0000000000000000000000000000000000000000000000000000000000000000836121e2565b0490612173565b50503461028b576020906110ed611582610d146109e8610d0f610cfb6115da36611f9f565b91906115e960035482106123d2565b6115f4831515612416565b61161f7f00000000000000000000000000000000000000000000000000000000000000001515612475565b611627612514565b9061157661156f6116378461257a565b9561164284866124d9565b51612173565b50503461028b578160031936011261028b57602090517f00000000000000000000000000000000000000000000000000000000000000008152f35b82843461056b578060031936011261056b575080519060009060075491600183811c9080851694851561178e575b602095868410811461177b578388528794939291879082156117595750506001146116fc575b50506116f892916116e9910385611fdf565b51928284938452830190612001565b0390f35b9085925060076000527fa66cc928b5edb82af9bd49922954155ab7b0942694bea4ce44661d9a8736c688916000925b82841061174157505050820101816116e96116d7565b8054848a01860152889550879490930192810161172b565b60ff19168682015292151560051b850190920192508391506116e990506116d7565b634e487b7160e01b855260228952602485fd5b91607f16916116b1565b50503461028b578160031936011261028b5760209060ff6005541690519015158152f35b9050346103205782600319360112610320576001600160a01b037f00000000000000000000000000000000000000000000000000000000000000008181169391929061184a9060209061181033881461230b565b600b5495869189600b5589875180968195829463a9059cbb60e01b84528a840160209093929193604081019460018060a01b031681520152565b03927f0000000000000000000000000000000000000000000000000000000000000000165af19081156107e35786916118ec575b50156118b257507fc0819c13be868895eb93e40eaceb96de976442fa1d404e5c55f14bb65a8c489a9160209151908152a280f35b6020606492519162461bcd60e51b83528201526015602482015274119959481dda5d1a191c985dd85b0819985a5b1959605a1b6044820152fd5b611904915060203d811161044c5761043e8183611fdf565b3861187e565b50503461028b578160031936011261028b576020905160088152f35b50503461028b578160031936011261028b57517f00000000000000000000000000000000000000000000000000000000000000006001600160a01b03168152602090f35b919050346103205760203660031901126103205781359161199660018060a01b0360085416331461230b565b6005549160ff831615611a03575050806119cf60ff6101009360081c16156119bd81612348565b6119ca6003548610612135565b612348565b8260065561ff001916176005557fbdb6af8caa3a0b8c130fd2ab4c4930e3fd8987c9730340729078e256bbc4b5438280a280f35b906020606492519162461bcd60e51b8352820152601160248201527026b0b935b2ba1039ba34b6361037b832b760791b6044820152fd5b905034610320578260031936011261032057611a546120ca565b6002549060ff821615611a96575060ff1916600255513381527f5db9ee0a495bf2e6ff9c91a7834c1ba4fdd244a5e8aa4e537bd38aeae4b073aa90602090a180f35b8251638dfc202b60e01b8152fd5b50503461028b578160031936011261028b576020905160ff7f0000000000000000000000000000000000000000000000000000000000000000168152f35b83833461028b57611af236611f9f565b611afa61229c565b611b0261227e565b611b1160ff60055416156120f6565b611b1e6003548310612135565b8015611eba57600c5483516318896f4d60e11b81527f0000000000000000000000000000000000000000000000000000000000000000878201819052602482018590526020926001600160a01b0392908316908481604481855afa908115611dea579085918a91611e85575b508851627eeac760e11b815233818d019081526020810192909252928391829081906040015b03915afa908115611e7b579085918991611e4a575b5010611e0757611c16610d146109e8611c07611be2610cd1612514565b6001611bed8b61207a565b5001611bfa8a8254612215565b905561157c610cd1612514565b610d0f8b82600f0b1215612196565b6064611c427f0000000000000000000000000000000000000000000000000000000000000000836121e2565b046032810281810460321482151715611df45791610eaa611ca492611c7d6064611c9e9b9c9d9e97960491611c778382612215565b94612215565b9981611c98611c908d9460095495612173565b8410156122bf565b8b612173565b90612215565b600b558883600c541691823b1561028b578951636f3df85160e11b8152338582019081526020810192909252604082018a90526060820188905292839182908490829060800103925af18015611dea57611dcf575b50865163a9059cbb60e01b8152339181019182526020820186905291839183919082908b9082906040015b03927f0000000000000000000000000000000000000000000000000000000000000000165af1918215611dc557610ed5927f019eed797248695407e185a0977fa0dba8bbaaba6c2f6f4a8bdf6fb32e62ba23969792611d8b928a92611da8575b505061223a565b519283923396846040919493926060820195825260208201520152565b611dbe9250803d1061044c5761043e8183611fdf565b8980611d84565b86513d89823e3d90fd5b611d2492849299611de08893611fb5565b9992509250611cf9565b88513d8b823e3d90fd5b634e487b7160e01b8a5260118b5260248afd5b855162461bcd60e51b8152808901849052601960248201527f4e6f7420656e6f7567682073686172657320746f2073656c6c000000000000006044820152606490fd5b809250858092503d8311611e74575b611e638183611fdf565b81010312610ef9578490518a611bc5565b503d611e59565b87513d8a823e3d90fd5b82819392503d8311611eb3575b611e9c8183611fdf565b81010312611eaf57518490611bb0611b8a565b8880fd5b503d611e92565b825162461bcd60e51b8152602081870152601c60248201527f4d7573742073656c6c206174206c65617374206f6e65207368617265000000006044820152606490fd5b90503461032057602036600319011261032057611f18611f89565b611f206120ca565b6001600160a01b0316918215611f4d5750506bffffffffffffffffffffffff60a01b600854161760085580f35b906020606492519162461bcd60e51b83528201526016602482015275496e76616c6964206f7261636c65206164647265737360501b6044820152fd5b600435906001600160a01b03821682036108ae57565b60409060031901126108ae576004359060243590565b67ffffffffffffffff8111611fc957604052565b634e487b7160e01b600052604160045260246000fd5b90601f8019910116810190811067ffffffffffffffff821117611fc957604052565b919082519283825260005b84811061202d575050826000602080949584010152601f8019910116010190565b60208183018101518483018201520161200c565b346108ae5760003660031901126108ae5760206040516127108152f35b346108ae5760003660031901126108ae57602060405160648152f35b6003548110156120b457600360005260011b7fc2575a0e9e593c00f959f8c92f12db2869c3395a3b0502d05e2516446f71f85b0190600090565b634e487b7160e01b600052603260045260246000fd5b6000546001600160a01b031633036120de57565b60405163118cdaa760e01b8152336004820152602490fd5b156120fd57565b60405162461bcd60e51b815260206004820152601060248201526f13585c9ad95d081a5cc818db1bdcd95960821b6044820152606490fd5b1561213c57565b60405162461bcd60e51b815260206004820152600f60248201526e496e76616c6964206f7574636f6d6560881b6044820152606490fd5b9190820180921161218057565b634e487b7160e01b600052601160045260246000fd5b1561219d57565b60405162461bcd60e51b815260206004820152601b60248201527f436f737420646966666572656e6365206973206e6567617469766500000000006044820152606490fd5b8181029291811591840414171561218057565b81156121ff570490565b634e487b7160e01b600052601260045260246000fd5b9190820391821161218057565b908160209103126108ae575180151581036108ae5790565b1561224157565b60405162461bcd60e51b8152602060048201526015602482015274151bdad95b881d1c985b9cd9995c8819985a5b1959605a1b6044820152606490fd5b60ff6002541661228a57565b60405163d93c066560e01b8152600490fd5b6002600154146122ad576002600155565b604051633ee5aeb560e01b8152600490fd5b156122c657565b60405162461bcd60e51b815260206004820152601f60248201527f496e73756666696369656e74206d61726b6574206d616b65722066756e6473006044820152606490fd5b1561231257565b60405162461bcd60e51b815260206004820152600e60248201526d139bdd08185d5d1a1bdc9a5e995960921b6044820152606490fd5b1561234f57565b60405162461bcd60e51b815260206004820152601660248201527513585c9ad95d08185b1c9958591e481cd95d1d1b195960521b6044820152606490fd5b1561239457565b60405162461bcd60e51b815260206004820152601660248201527513585c9ad95d081b9bdd081cd95d1d1b1959081e595d60521b6044820152606490fd5b156123d957565b60405162461bcd60e51b8152602060048201526015602482015274092dcecc2d8d2c840deeae8c6dedaca40d2dcc8caf605b1b6044820152606490fd5b1561241d57565b60405162461bcd60e51b815260206004820152602a60248201527f4e756d626572206f6620736861726573206d7573742062652067726561746572604482015269207468616e207a65726f60b01b6064820152608490fd5b1561247c57565b60405162461bcd60e51b815260206004820152602f60248201527f4c697175696469747920706172616d657465722062206d75737420626520677260448201526e6561746572207468616e207a65726f60881b6064820152608490fd5b80518210156120b45760209160051b010190565b67ffffffffffffffff8111611fc95760051b60200190565b60001981146121805760010190565b600354612520816124ed565b9061252e6040519283611fdf565b808252601f1961253d826124ed565b0136602084013760005b81811061255357505090565b8060016125626125759361207a565b50015461256f82866124d9565b52612505565b612547565b9081511561262b5790600080917f0000000000000000000000000000000000000000000000000000000000000000915b81518410156125dd576125d16125d791610a2e61098f866125cb89886124d9565b51612761565b93612505565b926125aa565b9250506125ec6125f291612668565b916128d1565b600f0b90600f0b0260401d60016001607f1b03198112158061261a575b156108ae57600f0b90565b5060016001607f1b0381131561260f565b60405162461bcd60e51b81526020600482015260156024820152744e6f206f7574636f6d657320617661696c61626c6560581b6044820152606490fd5b677fffffffffffffff81116108ae5760401b600f0b90565b600f0b600081126108ae5760401d67ffffffffffffffff1690565b90600f0b90600f0b0160016001607f1b03198112158061261a57156108ae57600f0b90565b600f91820b910b0360016001607f1b03198112158061261a57156108ae57600f0b90565b600f0b6b05f5e10000000000000000000260401d60016001607f1b03198112158061261a57156108ae57600f0b90565b811561275a57600f0b60009081811261028b576001600160801b038316810260401c9260801c026001600160c01b03811161028b5760401b908219821161056b57500190565b5050600090565b9080156108ae5760006001600160c01b0383116127aa57506127859160401b6121f5565b6001600160801b03908181116108ae571660016001607f1b0381116108ae57600f0b90565b9060c083811c93846401000000008110156128c4575b806201000060029210156128b8575b6101008110156128ac575b60108110156128a0575b6004811015612895575b101561288b575b6128136000199282600185870160be1984011c019160ff031b6121f5565b946001600160801b0390818711610801578460801c870291851687029084819460401b91838310612881575b505003948160801b93848710612877575b505060801c0361286c5761286492036121f5565b905b01612785565b505050600190612866565b9092019138612850565b019350843861283f565b90600101906127f5565b92810192811c6127ee565b6004938401931c6127e4565b6008938401931c6127da565b6010938401931c6127cf565b5060e0915080821c6127c0565b600f0b60008082131561056b578082680100000000000000008412156129d5575b8064010000000060029212156129c9575b620100008112156129bd575b6101008112156129b1575b60108112156129a5575b600481121561299a575b1215612992575b6001603f1b92603f19820160401b9291607f919082031b5b828513612974575050506fb17217f7d1cf79abc9e3b39803f2f6af9150600f0b0260801d90565b600185901d9490800260ff81901c918202909401939082011c61294d565b600101612935565b91810191811d61292e565b6004928301921d612924565b6008928301921d61291a565b6010928301921d61290f565b6020928301921d612903565b506040905082811d6128f2565b600f0b600160461b8112156108ae57683fffffffffffffffff198112612a2757700171547652b82fe1777d0ffda0d23a7d12612a24910260801d600f0b612a2d565b90565b50600090565b600f81810b600160461b8112156108ae57683fffffffffffffffff1981126135cb576001607f1b90600093846001603f1b8216850b136135b3575b846740000000000000008216850b13613596575b846720000000000000008216850b13613579575b846710000000000000008216850b1361355c575b846708000000000000008216850b1361353f575b846704000000000000008216850b13613522575b846702000000000000008216850b13613505575b846701000000000000008216850b136134e8575b8466800000000000008216850b136134cb575b8466400000000000008216850b136134ae575b8466200000000000008216850b13613491575b8466100000000000008216850b13613474575b8466080000000000008216850b13613457575b8466040000000000008216850b1361343a575b8466020000000000008216850b1361341d575b8466010000000000008216850b13613400575b84658000000000008216850b136133e3575b84654000000000008216850b136133c6575b84652000000000008216850b136133a9575b84651000000000008216850b1361338c575b84650800000000008216850b1361336f575b84650400000000008216850b13613352575b84650200000000008216850b13613335575b84650100000000008216850b13613318575b846480000000008216850b136132fb575b846440000000008216850b136132de575b846420000000008216850b136132c1575b846410000000008216850b136132a4575b846408000000008216850b13613287575b846404000000008216850b1361326a575b846402000000008216850b1361324d575b846401000000008216850b13613230575b8463800000008216850b13613213575b8463400000008216850b136131f6575b8463200000008216850b136131d9575b8463100000008216850b136131bc575b8463080000008216850b1361319f575b8463040000008216850b13613182575b8463020000008216850b13613165575b8463010000008216850b13613148575b84628000008216850b1361312b575b84624000008216850b1361310e575b84622000008216850b136130f1575b84621000008216850b136130d4575b84620800008216850b136130b7575b84620400008216850b1361309a575b84620200008216850b1361307d575b84620100008216850b13613060575b846180008216850b13613043575b846140008216850b13613026575b846120008216850b13613009575b846110008216850b13612fec575b846108008216850b13612fcf575b846104008216850b13612fb2575b846102008216850b13612f95575b846101008216850b13612f78575b8460809181838216870b13612f5c575b8160408216870b13612f40575b8160208216870b13612f24575b8160108216870b13612f08575b8160088216870b13612eec575b8160048216870b13612ed0575b8160028216870b13612eb3575b600116850b13612e95575b5060401d820b603f03820b1c9160016001607f1b03831161056b57500b90565b909170010000000000000000b17217f7d1cf79ab02901c9038612e75565b7001000000000000000162e42fefa39ef358909402821c93612e6a565b9370010000000000000002c5c85fdf473de6b202821c93612e5d565b93700100000000000000058b90bfbe8e7bcd6d02821c93612e50565b937001000000000000000b17217f7d1cf79afa02821c93612e43565b93700100000000000000162e42fefa39ef366f02821c93612e36565b937001000000000000002c5c85fdf473de6eca02821c93612e29565b9370010000000000000058b90bfbe8e7bce54402821c93612e1c565b91700100000000000000b17217f7d1cf79e9490260801c91612e0c565b9170010000000000000162e42fefa39ef44d910260801c91612dfe565b91700100000000000002c5c85fdf473dea871f0260801c91612df0565b917001000000000000058b90bfbe8e7bdcbe2e0260801c91612de2565b9170010000000000000b17217f7d1cf7d83c1a0260801c91612dd4565b917001000000000000162e42fefa39f02b772c0260801c91612dc6565b9170010000000000002c5c85fdf473e242ea380260801c91612db8565b91700100000000000058b90bfbe8e7cc35c3f00260801c91612daa565b917001000000000000b17217f7d1cfb72b45e10260801c91612d9c565b91700100000000000162e42fefa39fe95583c20260801c91612d8d565b917001000000000002c5c85fdf4741bea6e77e0260801c91612d7e565b9170010000000000058b90bfbe8e8b2d3d4ede0260801c91612d6f565b91700100000000000b17217f7d1d351a389d400260801c91612d60565b9170010000000000162e42fefa3ae53369388c0260801c91612d51565b91700100000000002c5c85fdf477b662b269450260801c91612d42565b917001000000000058b90bfbe8f71cb4e4b33d0260801c91612d33565b9170010000000000b17217f7d20cf927c8e94c0260801c91612d24565b917001000000000162e42fefa494f1478fde050260801c91612d14565b9170010000000002c5c85fdf4b15de6f17eb0d0260801c91612d04565b91700100000000058b90bfbe9ddbac5e109cce0260801c91612cf4565b917001000000000b17217f7d5a7716bba4a9ae0260801c91612ce4565b91700100000000162e42fefb2fed257559bdaa0260801c91612cd4565b917001000000002c5c85fdf84bd62ae30a74cc0260801c91612cc4565b9170010000000058b90bfbf8479bd5a81b51ad0260801c91612cb4565b91700100000000b17217f80f4ef5aadda455540260801c91612ca4565b9170010000000162e42ff0999ce3541b9fffcf0260801c91612c93565b91700100000002c5c85fe31f35a6a30da1be500260801c91612c82565b917001000000058b90bfcdee5acd3c1cedc8230260801c91612c71565b9170010000000b17217fba9c739aa5819f44f90260801c91612c60565b917001000000162e42fff037df38aa2b219f060260801c91612c4f565b9170010000002c5c8601cc6b9e94213c72737a0260801c91612c3e565b91700100000058b90c0b48c6be5df846c5b2ef0260801c91612c2d565b917001000000b1721835514b86e6d96efd1bfe0260801c91612c1c565b91700100000162e430e5a18f6119e3c02282a50260801c91612c0a565b917001000002c5c863b73f016468f6bac5ca2b0260801c91612bf8565b9170010000058b90cf1e6d97f9ca14dbcc16280260801c91612be6565b91700100000b1721bcfc99d9f890ea069117630260801c91612bd4565b9170010000162e43f4f831060e02d839a9d16d0260801c91612bc2565b91700100002c5c89d5ec6ca4d7c8acc017b7c90260801c91612bb0565b917001000058b91b5bc9ae2eed81e9b7d4cfab0260801c91612b9e565b9170010000b17255775c040618bf4a4ade83fc0260801c91612b8c565b917001000162e525ee054754457d59952920260260801c91612b79565b9170010002c5cc37da9491d0985c348c68e7b30260801c91612b66565b91700100058ba01fb9f96d6cacd4b180917c3d0260801c91612b53565b917001000b175effdc76ba38e31671ca9397250260801c91612b40565b91700100162f3904051fa128bca9c55c31e5df0260801c91612b2d565b917001002c605e2e8cec506d21bfc89a23a00f0260801c91612b1a565b9170010058c86da1c09ea1ff19d294cf2f679b0260801c91612b07565b91700100b1afa5abcbed6129ab13ec11dc95430260801c91612af4565b9170010163da9fb33356d84a66ae336dcdfa3f0260801c91612ae0565b91700102c9a3e778060ee6f7caca4f7a29bde80260801c91612acc565b917001059b0d31585743ae7c548eb68ca417fd0260801c91612ab8565b9170010b5586cf9890f6298b92b71842a983630260801c91612aa4565b917001172b83c7d517adcdf7c8c50eb14a791f0260801c91612a90565b917001306fe0a31b7152de8d5a46305c85edec0260801c91612a7c565b6fb504f333f9de6484597d89b3754abe9f9250612a68565b50505060009056fea2646970667358221220191235ce9a904ca7358a6529ed7f8f3ba0bfa7918cb13bf06baafb0c22f5141d64736f6c63430008140033a66cc928b5edb82af9bd49922954155ab7b0942694bea4ce44661d9a8736c688a264697066735822122055eca748af5e55fe4120aec50ba2a68bd6dbebe002d5c5630bc4aa4c355b517164736f6c63430008140033608060405234620003ba5762002278803803806200001d81620003d4565b9283398101604082820312620003ba5781516001600160401b039290838111620003ba57810190601f838184011215620003ba57825191858311620002c457602092601f19946200007485878685011601620003d4565b96828852858383010111620003ba579084929160005b828110620003bf57505060009087018301520151936001600160a01b0392838616808703620003ba57825194888611620002c457600254956001968781811c91168015620003af575b85821014620002a35786811162000363575b508084878211600114620002ff57600091620002f3575b50600019600383901b1c191690871b176002555b8115620002da57600380546001600160a01b031981168417909155167f8be0079c531659141344cd1fd0a4f28419497f9722a3daafe3b4186f6b6457e0600080a38151968711620002c45760059485548581811c91168015620002b9575b83821014620002a3578481116200025a575b5081938811600114620001ef5750509480928192620001d297600094620001e3575b50501b916000199060031b1c19161790555b620001bf81620003fa565b50620001cb816200047b565b506200051e565b50604051611c9b9081620005bd8239f35b015192503880620001a2565b879391929716968560005282600020926000905b8982106200024257505083620001d2981062000228575b505050811b019055620001b4565b015160001960f88460031b161c191690553880806200021a565b80878596829496860151815501950193019062000203565b866000528260002085808b01891c820192858c1062000299575b01881c019086905b8281106200028c57505062000180565b600081550186906200027c565b9250819262000274565b634e487b7160e01b600052602260045260246000fd5b90607f16906200016e565b634e487b7160e01b600052604160045260246000fd5b604051631e4fbdf760e01b815260006004820152602490fd5b905085015138620000fc565b89899316906002600052866000209160005b888282106200034c575050831162000332575b5050811b0160025562000110565b87015160001960f88460031b161c19169055388062000324565b838b015185558c9690940193928301920162000311565b6002600052846000208780840160051c820192878510620003a5575b0160051c019088905b82811062000398575050620000e5565b6000815501889062000388565b925081926200037f565b90607f1690620000d3565b600080fd5b8181018501518982018601528694016200008a565b6040519190601f01601f191682016001600160401b03811183821017620002c457604052565b6001600160a01b031660008181527f17ef568e3e12ab5b9c7254a8d58478811de00f9e6eb34345acd53bf8fd09d3ec602052604081205490919060ff16620004775781805260046020526040822081835260205260408220600160ff198254161790553391600080516020620022588339815191528180a4600190565b5090565b6001600160a01b031660008181527fc8a67ff93cd072913f31c50776e9da9e00867535cbaa98368a69dafa551e553460205260408120549091907f9f2df0fed2c77648de5860a4cc508cd0818c85b8b8a1ab4ceeef8d981c8956a69060ff16620005195780835260046020526040832082845260205260408320600160ff1982541617905560008051602062002258833981519152339380a4600190565b505090565b6001600160a01b031660008181527f0b82c046ead5c152b204781fecb4d5f82ef023694e7cda46a44bf9a793e5fbd760205260408120549091907f3c11d16cbaffd01df69ce1c404f6340ee057498f5f00246190ea54220576a8489060ff16620005195780835260046020526040832082845260205260408320600160ff1982541617905560008051602062002258833981519152339380a460019056fe6080604052600436101561001257600080fd5b60003560e01c8062fdd58e1461017657806301ffc9a7146101715780630e89341c1461016c578063248a9ca314610167578063282c51f3146101625780632eb2c2d61461015d5780632f2ff15d146101585780633112de9a1461015357806336568abe1461014e5780634e1273f414610149578063715018a6146101445780638da5cb5b1461013f57806391d148541461013a578063a217fddf14610135578063a22cb46514610130578063a647e8ec1461012b578063d539139314610126578063d547741f14610121578063de7bf0a21461011c578063e985e9c514610117578063f242432a146101125763f2fde38b1461010d57600080fd5b610f2d565b610e0f565b610dbe565b610ca9565b610c6a565b610c2f565b610afa565b610a10565b6109f4565b6109a2565b610979565b610918565b61085e565b6107d2565b6107a9565b61076a565b610641565b6104d4565b6104a5565b610303565b61021f565b6101c0565b600435906001600160a01b038216820361019157565b600080fd5b602435906001600160a01b038216820361019157565b35906001600160a01b038216820361019157565b346101915760403660031901126101915760206102046101de61017b565b6024356000526000835260406000209060018060a01b0316600052602052604060002090565b54604051908152f35b6001600160e01b031981160361019157565b3461019157602036600319011261019157602060043561023e8161020d565b63ffffffff60e01b16637965db0b60e01b8114908115610264575b506040519015158152f35b636cdb3d1360e11b811491508115610296575b8115610285575b5038610259565b6301ffc9a760e01b1490503861027e565b6303a24d0760e21b81149150610277565b60005b8381106102ba5750506000910152565b81810151838201526020016102aa565b906020916102e3815180928185528580860191016102a7565b601f01601f1916010190565b9060206103009281815201906102ca565b90565b34610191576020366003190112610191576000600435807a184f03e93ff9f4daa797ed6e38ed64bf6a1f01000000000000000080821015610497575b506d04ee2d6d415b85acef810000000080831015610488575b50662386f26fc1000080831015610479575b506305f5e1008083101561046a575b506127108083101561045b575b50606482101561044b575b600a80921015610441575b6001908160216103ad828701611c33565b95860101905b61040b575b604051610407906103fb816103ed6103dc8a6103d660208501611b49565b90611c1c565b64173539b7b760d91b815260050190565b03601f198101835282610546565b604051918291826102ef565b0390f35b600019019083906f181899199a1a9b1b9c1cb0b131b232b360811b8282061a83530491821561043c579190826103b3565b6103b8565b916001019161039c565b9190606460029104910191610391565b60049193920491019138610386565b60089193920491019138610379565b6010919392049101913861036a565b60209193920491019138610358565b60409350810491503861033f565b346101915760203660031901126101915760043560005260046020526020600160406000200154604051908152f35b346101915760003660031901126101915760206040517f3c11d16cbaffd01df69ce1c404f6340ee057498f5f00246190ea54220576a8488152f35b634e487b7160e01b600052604160045260246000fd5b6020810190811067ffffffffffffffff82111761054157604052565b61050f565b90601f8019910116810190811067ffffffffffffffff82111761054157604052565b67ffffffffffffffff81116105415760051b60200190565b81601f820112156101915780359161059783610568565b926105a56040519485610546565b808452602092838086019260051b820101928311610191578301905b8282106105cf575050505090565b813581529083019083016105c1565b67ffffffffffffffff811161054157601f01601f191660200190565b81601f8201121561019157803590610611826105de565b9261061f6040519485610546565b8284526020838301011161019157816000926020809301838601378301015290565b346101915760a03660031901126101915761065a61017b565b610662610196565b906044359167ffffffffffffffff908184116101915761068760049436908601610580565b906064358381116101915761069f9036908701610580565b92608435908111610191576106b790369087016105fa565b936001600160a01b03808216903382141580610746575b6107195783161561070157156106ea576106e8955061142b565b005b604051626a0d4560e21b8152600081880152602490fd5b604051632bfa23e760e11b8152600081890152602490fd5b6040805163711bec9160e11b815233818b019081526001600160a01b038616602082015290918291010390fd5b50600082815260016020908152604080832033845290915290205460ff16156106ce565b34610191576040366003190112610191576106e8600435610789610196565b908060005260046020526107a4600160406000200154611019565b61103a565b346101915760403660031901126101915760206107ca602435600435611b23565b604051908152f35b34610191576040366003190112610191576107eb610196565b336001600160a01b03821603610807576106e8906004356110d4565b60405163334bd91960e11b8152600490fd5b90815180825260208080930193019160005b828110610839575050505090565b83518552938101939281019260010161082b565b906020610300928181520190610819565b346101915760403660031901126101915760043567ffffffffffffffff808211610191573660238301121561019157816004013561089b81610568565b926108a96040519485610546565b81845260209160248386019160051b8301019136831161019157602401905b828210610901578560243586811161019157610407916108ef6108f5923690600401610580565b906111e6565b6040519182918261084d565b83809161090d846101ac565b8152019101906108c8565b346101915760008060031936011261097657610932611166565b600380546001600160a01b0319811690915581906001600160a01b03167f8be0079c531659141344cd1fd0a4f28419497f9722a3daafe3b4186f6b6457e08280a380f35b80fd5b34610191576000366003190112610191576003546040516001600160a01b039091168152602090f35b3461019157604036600319011261019157602060ff6109e86109c2610196565b6004356000526004845260406000209060018060a01b0316600052602052604060002090565b54166040519015158152f35b3461019157600036600319011261019157602060405160008152f35b3461019157604036600319011261019157610a2961017b565b6024359081151590818303610191576001600160a01b038116928315610ab457610a75610a869233600052600160205260406000209060018060a01b0316600052602052604060002090565b9060ff801983541691151516179055565b6040519081527f17307eab39ab6107e8899845ad3d59bd9653f200f220920489ca2b5937696c3160203392a3005b60405162ced3e160e81b815260006004820152602490fd5b6080906003190112610191576004356001600160a01b03811681036101915790602435906044359060643590565b3461019157610b0836610acc565b3360009081527fc8a67ff93cd072913f31c50776e9da9e00867535cbaa98368a69dafa551e5534602052604081205490949193919291907f9f2df0fed2c77648de5860a4cc508cd0818c85b8b8a1ab4ceeef8d981c8956a69060ff1615610c11575090610b7491611b23565b91604051610b8181610525565b8481526001600160a01b038316928315610bf85791610bee6020927f2e8ac5177a616f2aec08c3048f5021e4e9743ece034e8d83ba5caf76688bb47594610be884899160405192600184526020840152604083019160018352606084015260808301604052565b916112ab565b604051908152a380f35b604051632bfa23e760e11b815260048101879052602490fd5b6044906040519063e2517d3f60e01b82523360048301526024820152fd5b346101915760003660031901126101915760206040517f9f2df0fed2c77648de5860a4cc508cd0818c85b8b8a1ab4ceeef8d981c8956a68152f35b34610191576040366003190112610191576106e8600435610c89610196565b90806000526004602052610ca4600160406000200154611019565b6110d4565b3461019157610cb736610acc565b9190610cc1610fbb565b6001600160a01b038416928315610d79578015610d2657610d1181610d0a610d21947fccbea4088a3b7ae9ca2d15fab9a9742a4075b4d7247768a1eecea917565aba0096611b23565b8097611981565b6040519081529081906020820190565b0390a3005b60405162461bcd60e51b815260206004820152602560248201527f4275726e20616d6f756e74206d7573742062652067726561746572207468616e604482015264207a65726f60d81b6064820152608490fd5b60405162461bcd60e51b815260206004820152601d60248201527f43616e6e6f74206275726e2066726f6d207a65726f20616464726573730000006044820152606490fd5b3461019157604036600319011261019157602060ff6109e8610dde61017b565b610de6610196565b6001600160a01b0391821660009081526001865260408082209290931681526020919091522090565b346101915760a036600319011261019157610e2861017b565b610e30610196565b60843567ffffffffffffffff811161019157610e509036906004016105fa565b906001600160a01b03838116903382141580610f09575b610ee257821615610ec95715610eb1576106e892610ea96064356044359160405192600184526020840152604083019160018352606084015260808301604052565b92909161142b565b604051626a0d4560e21b815260006004820152602490fd5b604051632bfa23e760e11b815260006004820152602490fd5b60405163711bec9160e11b81523360048201526001600160a01b0386166024820152604490fd5b50600082815260016020908152604080832033845290915290205460ff1615610e67565b3461019157602036600319011261019157610f4661017b565b610f4e611166565b6001600160a01b03908116908115610fa257600354826bffffffffffffffffffffffff60a01b821617600355167f8be0079c531659141344cd1fd0a4f28419497f9722a3daafe3b4186f6b6457e0600080a3005b604051631e4fbdf760e01b815260006004820152602490fd5b3360009081527f0b82c046ead5c152b204781fecb4d5f82ef023694e7cda46a44bf9a793e5fbd7602052604090207f3c11d16cbaffd01df69ce1c404f6340ee057498f5f00246190ea54220576a8489060ff905b541615610c115750565b6000818152600460209081526040808320338452909152902060ff9061100f565b600090808252600460205260ff61106684604085209060018060a01b0316600052602052604060002090565b54166110ce578082526004602090815260408084206001600160a01b038616600090815292529020805460ff1916600117905533926001600160a01b0316917f2f8788117e7eff1d82e926ec794901d17c78024a50270940304540a733656f0d9080a4600190565b50905090565b600090808252600460205260ff61110084604085209060018060a01b0316600052602052604060002090565b5416156110ce578082526004602090815260408084206001600160a01b038616600090815292529020805460ff1916905533926001600160a01b0316917ff6391f5c32d9c69d2a47ea670b442974b53935d1edc7fd64eb21e047a839171b9080a4600190565b6003546001600160a01b0316330361117a57565b60405163118cdaa760e01b8152336004820152602490fd5b634e487b7160e01b600052601160045260246000fd5b60001981146111b75760010190565b611192565b80518210156111d05760209160051b010190565b634e487b7160e01b600052603260045260246000fd5b9190918051835180820361128957505080519061120282610568565b916112106040519384610546565b80835261121f601f1991610568565b0190602091368385013760005b815181101561128157600581901b8281018401519087018401516000908152602081815260408083206001600160a01b039094168352929052205461127c919061127682876111bc565b526111a8565b61122c565b509193505050565b604051635b05999160e01b815260048101919091526024810191909152604490fd5b90805183519081810361128957505060005b815181101561134057600581901b82810160209081015191860101516112f7929185906001600160a01b0382166112fc575b5050506111a8565b6112bd565b6113369161131761132e926000526000602052604060002090565b9060018060a01b0316600052602052604060002090565b918254611629565b90553884816112ef565b508051919392916001036113e2576020818101518382015160408051928352928201526001600160a01b0386169160009133917fc3d58168c5ae7397731d063d5bbf3d657854427343f4c083240f7aacaa2d0f6291a45b6001600160a01b0384166113ac575b50505050565b80516001036113d357906020806113ca959301519101519133611704565b388080806113a6565b6113dd9333611915565b6113ca565b6040516001600160a01b0385169060009033907f4a39dc06d4c0dbc64b70af90fd698a233a518aa5d07e595d983b8c0526c8f7fb9080611423888883611636565b0390a4611397565b94919091815184519081810361128957505060005b825181101561153357600581901b83810160209081015191870101516001600160a01b03929186908a85166114ac575b611482948216611487575050506111a8565b611440565b6114a29161131761132e926000526000602052604060002090565b90553885816112ef565b91929390506114c98a611317846000526000602052604060002090565b548381106114fc5791879184611482969594036114f48d611317856000526000602052604060002090565b559450611470565b6040516303dee4c560e01b81526001600160a01b038c16600482015260248101919091526044810184905260648101839052608490fd5b5094919392909360018551146000146115de576020858101518382015160408051928352928201526001600160a01b03838116929086169133917fc3d58168c5ae7397731d063d5bbf3d657854427343f4c083240f7aacaa2d0f6291a45b6001600160a01b0381166115a7575b5050505050565b84516001036115cd576020806115c396015192015192336117fe565b38808080806115a0565b6115d99491923361194a565b6115c3565b6040516001600160a01b03828116919085169033907f4a39dc06d4c0dbc64b70af90fd698a233a518aa5d07e595d983b8c0526c8f7fb9080611621888c83611636565b0390a4611591565b919082018092116111b757565b909161164d61030093604084526040840190610819565b916020818403910152610819565b9081602091031261019157516103008161020d565b909260a0926103009594600180861b03168352600060208401526040830152606082015281608082015201906102ca565b919261030095949160a094600180871b0380921685521660208401526040830152606082015281608082015201906102ca565b3d156116ff573d906116e5826105de565b916116f36040519384610546565b82523d6000602084013e565b606090565b9293919093843b611716575050505050565b602091611739604051948593849363f23a6e6160e01b9889865260048601611670565b038160006001600160a01b0388165af1600091816117ce575b5061179157826117606116d4565b805191908261178a57604051632bfa23e760e11b81526001600160a01b0383166004820152602490fd5b9050602001fd5b6001600160e01b031916036117ab575038808080806115a0565b604051632bfa23e760e11b81526001600160a01b03919091166004820152602490fd5b6117f091925060203d81116117f7575b6117e88183610546565b81019061165b565b9038611752565b503d6117de565b939290949194853b611813575b505050505050565b611836602093604051958694859463f23a6e6160e01b998a8752600487016116a1565b038160006001600160a01b0388165af160009181611878575b5061185d57826117606116d4565b6001600160e01b031916036117ab575038808080808061180b565b61189191925060203d81116117f7576117e88183610546565b903861184f565b926118c761030095936118d59360018060a01b031686526000602087015260a0604087015260a0860190610819565b908482036060860152610819565b9160808184039101526102ca565b939061030095936118c7916118d59460018060a01b03809216885216602087015260a0604087015260a0860190610819565b9293919093843b611927575050505050565b602091611739604051948593849363bc197c8160e01b9889865260048601611898565b939290949194853b61195e57505050505050565b611836602093604051958694859463bc197c8160e01b998a8752600487016118e3565b6001600160a01b038116929091908315610eb1576119bc60405192600184526020840152604083019160018352606084015260808301604052565b9190604094600086516119ce81610525565b528151845190818103611b0257505060005b8251811015611a7b578060051b60208082860101519187010151611a1286611317846000526000602052604060002090565b54818110611a455786611317611a40959493611a3a9303936000526000602052604060002090565b556111a8565b6119e0565b89516303dee4c560e01b81526001600160a01b038816600482015260248101919091526044810182905260648101839052608490fd5b50949060009493925060018151148514611ad05760209081015192810151915192835282015233907fc3d58168c5ae7397731d063d5bbf3d657854427343f4c083240f7aacaa2d0f629080604081015b0390a4565b905133927f4a39dc06d4c0dbc64b70af90fd698a233a518aa5d07e595d983b8c0526c8f7fb928291611acb9183611636565b8751635b05999160e01b815260048101919091526024810191909152604490fd5b60408051602081019283529081019290925290611b4381606081016103ed565b51902090565b60055460009291600182811c9281811691908215611c12575b6020928386108114611bfc57908115611be15750600114611b835750505050565b909192939450611bb560056000527f036b6384b5eca791c62761152d0c79bb0604c104a5fb6f4eb0703f3154bb3db090565b906000915b858310611bd057505050500190388080806113a6565b805485840152918301918101611bba565b60ff19168452505050811515909102019150388080806113a6565b634e487b7160e01b600052602260045260246000fd5b93607f1693611b62565b90611c2f602092828151948592016102a7565b0190565b90611c3d826105de565b611c4a6040519182610546565b8281528092611c5b601f19916105de565b019060203691013756fea26469706673582212201fef0091d9e6f9379fc67364adbd1f6cb8e74637b585eca3cf4ab0494e5da77e64736f6c634300081400332f8788117e7eff1d82e926ec794901d17c78024a50270940304540a733656f0d","opcodes":"PUSH1 0x40 PUSH1 0x80 DUP2 MSTORE CALLVALUE PUSH3 0x185 JUMPI PUSH3 0x769F DUP1 CODESIZE SUB DUP1 PUSH3 0x1E DUP2 PUSH3 0x1A0 JUMP JUMPDEST SWAP3 DUP4 CODECOPY DUP2 ADD PUSH1 0x20 SWAP2 DUP3 DUP2 DUP4 SUB SLT PUSH3 0x185 JUMPI DUP1 MLOAD PUSH1 0x1 PUSH1 0x1 PUSH1 0x40 SHL SUB SWAP2 DUP3 DUP3 GT PUSH3 0x185 JUMPI ADD SWAP1 DUP3 PUSH1 0x1F DUP4 ADD SLT ISZERO PUSH3 0x185 JUMPI DUP2 MLOAD SWAP1 DUP1 DUP3 GT PUSH3 0x18A JUMPI PUSH1 0x1F NOT SWAP3 PUSH3 0x72 PUSH1 0x1F DUP5 ADD DUP6 AND DUP8 ADD PUSH3 0x1A0 JUMP JUMPDEST SWAP3 DUP1 DUP5 MSTORE DUP7 DUP5 ADD SWAP6 DUP8 DUP3 DUP5 ADD ADD GT PUSH3 0x185 JUMPI DUP6 DUP8 PUSH3 0x93 SWAP4 ADD PUSH3 0x1C6 JUMP JUMPDEST CALLER ISZERO PUSH3 0x16D JUMPI PUSH1 0x0 SWAP3 DUP4 SLOAD SWAP5 PUSH1 0x1 DUP1 PUSH1 0xA0 SHL SUB NOT SWAP7 CALLER DUP9 DUP9 AND OR DUP7 SSTORE DUP9 MLOAD SWAP5 PUSH1 0x1 DUP1 PUSH1 0xA0 SHL SUB SWAP8 DUP9 CALLER SWAP2 AND PUSH32 0x8BE0079C531659141344CD1FD0A4F28419497F9722A3DAAFE3B4186F6B6457E0 DUP10 DUP1 LOG3 PUSH2 0x2278 DUP7 DUP2 ADD SWAP6 DUP7 GT DUP8 DUP8 LT OR PUSH3 0x159 JUMPI SWAP3 DUP7 SWAP5 SWAP3 PUSH3 0x120 DUP13 PUSH1 0x1F SWAP5 PUSH1 0x60 SWAP10 SWAP8 PUSH3 0x5427 DUP11 CODECOPY DUP2 DUP9 MSTORE MLOAD SWAP4 DUP5 DUP1 SWAP3 DUP10 ADD MSTORE DUP10 DUP9 ADD SWAP1 PUSH3 0x1C6 JUMP JUMPDEST ADDRESS SWAP1 DUP6 ADD MSTORE ADD AND ADD SUB ADD SWAP1 DUP3 CREATE SWAP1 DUP2 ISZERO PUSH3 0x14E JUMPI POP AND SWAP1 PUSH1 0x2 SLOAD AND OR PUSH1 0x2 SSTORE MLOAD PUSH2 0x523B SWAP1 DUP2 PUSH3 0x1EC DUP3 CODECOPY RETURN JUMPDEST DUP5 MLOAD SWAP1 RETURNDATASIZE SWAP1 DUP3 RETURNDATACOPY RETURNDATASIZE SWAP1 REVERT JUMPDEST PUSH4 0x4E487B71 PUSH1 0xE0 SHL DUP9 MSTORE PUSH1 0x41 PUSH1 0x4 MSTORE PUSH1 0x24 DUP9 REVERT JUMPDEST DUP6 MLOAD PUSH4 0x1E4FBDF7 PUSH1 0xE0 SHL DUP2 MSTORE PUSH1 0x0 PUSH1 0x4 DUP3 ADD MSTORE PUSH1 0x24 SWAP1 REVERT JUMPDEST PUSH1 0x0 DUP1 REVERT JUMPDEST PUSH4 0x4E487B71 PUSH1 0xE0 SHL PUSH1 0x0 MSTORE PUSH1 0x41 PUSH1 0x4 MSTORE PUSH1 0x24 PUSH1 0x0 REVERT JUMPDEST PUSH1 0x40 MLOAD SWAP2 SWAP1 PUSH1 0x1F ADD PUSH1 0x1F NOT AND DUP3 ADD PUSH1 0x1 PUSH1 0x1 PUSH1 0x40 SHL SUB DUP2 GT DUP4 DUP3 LT OR PUSH3 0x18A JUMPI PUSH1 0x40 MSTORE JUMP JUMPDEST PUSH1 0x0 JUMPDEST DUP4 DUP2 LT PUSH3 0x1DA JUMPI POP POP PUSH1 0x0 SWAP2 ADD MSTORE JUMP JUMPDEST DUP2 DUP2 ADD MLOAD DUP4 DUP3 ADD MSTORE PUSH1 0x20 ADD PUSH3 0x1C9 JUMP INVALID PUSH1 0x80 PUSH1 0x40 MSTORE PUSH1 0x4 CALLDATASIZE LT ISZERO PUSH3 0x13 JUMPI PUSH1 0x0 DUP1 REVERT JUMPDEST PUSH1 0x0 DUP1 CALLDATALOAD PUSH1 0xE0 SHR DUP1 PUSH4 0x3ADFE6D0 EQ PUSH3 0xB4C JUMPI DUP1 PUSH4 0x715018A6 EQ PUSH3 0xAEE JUMPI DUP1 PUSH4 0x80275860 EQ PUSH3 0x21F JUMPI DUP1 PUSH4 0x8DA5CB5B EQ PUSH3 0xAC5 JUMPI DUP1 PUSH4 0x97271C14 EQ PUSH3 0x310 JUMPI DUP1 PUSH4 0xA5E973C3 EQ PUSH3 0x24A JUMPI DUP1 PUSH4 0xBA5B7982 EQ PUSH3 0x21F JUMPI DUP1 PUSH4 0xC3A811FE EQ PUSH3 0x123 JUMPI PUSH4 0xF2FDE38B EQ PUSH3 0x8A JUMPI PUSH1 0x0 DUP1 REVERT JUMPDEST CALLVALUE PUSH3 0x120 JUMPI PUSH1 0x20 CALLDATASIZE PUSH1 0x3 NOT ADD SLT PUSH3 0x120 JUMPI PUSH3 0xA7 PUSH3 0xC8D JUMP JUMPDEST PUSH3 0xB1 PUSH3 0xD23 JUMP JUMPDEST PUSH1 0x1 PUSH1 0x1 PUSH1 0xA0 SHL SUB SWAP1 DUP2 AND SWAP1 DUP2 ISZERO PUSH3 0x107 JUMPI PUSH1 0x0 SLOAD DUP3 PUSH12 0xFFFFFFFFFFFFFFFFFFFFFFFF PUSH1 0xA0 SHL DUP3 AND OR PUSH1 0x0 SSTORE AND PUSH32 0x8BE0079C531659141344CD1FD0A4F28419497F9722A3DAAFE3B4186F6B6457E0 PUSH1 0x0 DUP1 LOG3 DUP1 RETURN JUMPDEST PUSH1 0x40 MLOAD PUSH4 0x1E4FBDF7 PUSH1 0xE0 SHL DUP2 MSTORE PUSH1 0x4 DUP2 ADD DUP5 SWAP1 MSTORE PUSH1 0x24 SWAP1 REVERT JUMPDEST DUP1 REVERT JUMPDEST POP CALLVALUE PUSH3 0x120 JUMPI PUSH1 0x20 DUP1 PUSH1 0x3 NOT CALLDATASIZE ADD SLT PUSH3 0x21B JUMPI PUSH1 0x1 PUSH1 0x1 PUSH1 0xA0 SHL SUB PUSH3 0x14A PUSH3 0xC8D JUMP JUMPDEST AND DUP3 MSTORE PUSH1 0x3 DUP2 MSTORE PUSH1 0x40 DUP3 KECCAK256 PUSH1 0x40 MLOAD DUP4 DUP2 SWAP5 SWAP1 DUP4 SLOAD SWAP1 PUSH3 0x16A DUP3 PUSH3 0xCA4 JUMP JUMPDEST SWAP5 DUP6 DUP6 MSTORE PUSH1 0x1 SWAP3 DUP8 DUP5 DUP3 AND SWAP2 DUP3 PUSH1 0x0 EQ PUSH3 0x1F5 JUMPI POP POP PUSH1 0x1 EQ PUSH3 0x1B5 JUMPI JUMPDEST POP POP POP PUSH3 0x19B SWAP3 POP SUB DUP4 PUSH3 0xC0E JUMP JUMPDEST PUSH3 0x1B1 PUSH1 0x40 MLOAD SWAP3 DUP3 DUP5 SWAP4 DUP5 MSTORE DUP4 ADD SWAP1 PUSH3 0xCE1 JUMP JUMPDEST SUB SWAP1 RETURN JUMPDEST DUP7 SWAP4 POP DUP2 SWAP3 SWAP2 MSTORE DUP3 DUP3 KECCAK256 JUMPDEST DUP6 DUP4 LT PUSH3 0x1DC JUMPI POP POP PUSH3 0x19B SWAP4 POP DUP3 ADD ADD CODESIZE DUP1 DUP1 PUSH3 0x18A JUMP JUMPDEST DUP1 SLOAD DUP4 DUP10 ADD DUP6 ADD MSTORE DUP8 SWAP5 POP DUP7 SWAP4 SWAP1 SWAP3 ADD SWAP2 DUP2 ADD PUSH3 0x1C0 JUMP JUMPDEST SWAP4 POP SWAP5 POP POP POP PUSH3 0x19B SWAP5 SWAP2 POP PUSH1 0xFF NOT AND DUP3 DUP5 ADD MSTORE ISZERO ISZERO PUSH1 0x5 SHL DUP3 ADD ADD CODESIZE DUP1 DUP1 PUSH3 0x18A JUMP JUMPDEST POP DUP1 REVERT JUMPDEST POP CALLVALUE PUSH3 0x120 JUMPI DUP1 PUSH1 0x3 NOT CALLDATASIZE ADD SLT PUSH3 0x120 JUMPI PUSH1 0x2 SLOAD PUSH1 0x40 MLOAD PUSH1 0x1 PUSH1 0x1 PUSH1 0xA0 SHL SUB SWAP1 SWAP2 AND DUP2 MSTORE PUSH1 0x20 SWAP1 RETURN JUMPDEST POP CALLVALUE PUSH3 0x120 JUMPI DUP1 PUSH1 0x3 NOT CALLDATASIZE ADD SLT PUSH3 0x120 JUMPI PUSH1 0x40 MLOAD DUP1 SWAP2 PUSH1 0x1 SWAP1 DUP2 SLOAD SWAP4 DUP5 DUP5 MSTORE PUSH1 0x20 DUP1 SWAP5 ADD DUP1 SWAP6 DUP5 DUP5 MSTORE PUSH32 0xB10E2D527612073B26EECDFD717E6A320CF44B4AFAC2B0732D9FCBE2B7FA0CF6 SWAP1 DUP5 JUMPDEST DUP2 DUP2 LT PUSH3 0x2F3 JUMPI POP POP POP DUP2 PUSH3 0x2B2 SWAP2 SUB DUP3 PUSH3 0xC0E JUMP JUMPDEST PUSH1 0x40 MLOAD SWAP4 DUP1 DUP6 ADD SWAP2 DUP2 DUP7 MSTORE MLOAD DUP1 SWAP3 MSTORE PUSH1 0x40 DUP6 ADD SWAP6 SWAP3 JUMPDEST DUP3 DUP2 LT PUSH3 0x2D6 JUMPI DUP6 DUP8 SUB DUP7 RETURN JUMPDEST DUP4 MLOAD PUSH1 0x1 PUSH1 0x1 PUSH1 0xA0 SHL SUB AND DUP8 MSTORE SWAP6 DUP2 ADD SWAP6 SWAP3 DUP2 ADD SWAP3 DUP5 ADD PUSH3 0x2C8 JUMP JUMPDEST DUP3 SLOAD PUSH1 0x1 PUSH1 0x1 PUSH1 0xA0 SHL SUB AND DUP5 MSTORE SWAP3 DUP8 ADD SWAP3 SWAP2 DUP7 ADD SWAP2 DUP7 ADD PUSH3 0x299 JUMP JUMPDEST POP CALLVALUE PUSH3 0x120 JUMPI PUSH2 0x140 CALLDATASIZE PUSH1 0x3 NOT ADD SLT PUSH3 0x120 JUMPI PUSH1 0x24 CALLDATALOAD PUSH8 0xFFFFFFFFFFFFFFFF DUP2 GT PUSH3 0x21B JUMPI PUSH3 0x348 SWAP1 CALLDATASIZE SWAP1 PUSH1 0x4 ADD PUSH3 0xC31 JUMP JUMPDEST SWAP1 PUSH1 0x44 CALLDATALOAD SWAP2 PUSH8 0xFFFFFFFFFFFFFFFF DUP4 GT PUSH3 0x21B JUMPI CALLDATASIZE PUSH1 0x23 DUP5 ADD SLT ISZERO PUSH3 0x21B JUMPI DUP3 PUSH1 0x4 ADD CALLDATALOAD SWAP3 PUSH8 0xFFFFFFFFFFFFFFFF DUP5 GT PUSH3 0xAB1 JUMPI DUP4 PUSH1 0x5 SHL SWAP1 PUSH1 0x40 MLOAD SWAP5 PUSH3 0x397 PUSH1 0x20 DUP5 ADD DUP8 PUSH3 0xC0E JUMP JUMPDEST DUP6 MSTORE PUSH1 0x20 DUP6 ADD SWAP2 DUP2 ADD PUSH1 0x24 ADD DUP3 CALLDATASIZE DUP3 GT PUSH3 0xA75 JUMPI PUSH1 0x24 DUP4 ADD SWAP1 JUMPDEST DUP3 DUP3 LT PUSH3 0xA79 JUMPI POP POP PUSH1 0x64 CALLDATALOAD SWAP2 POP POP PUSH1 0x1 PUSH1 0x1 PUSH1 0xA0 SHL SUB DUP2 AND DUP2 SUB PUSH3 0x861 JUMPI PUSH1 0xE4 CALLDATALOAD SWAP2 PUSH1 0x1 PUSH1 0x1 PUSH1 0xA0 SHL SUB DUP4 AND DUP4 SUB PUSH3 0x8D3 JUMPI PUSH2 0x104 CALLDATALOAD SWAP3 PUSH1 0x1 PUSH1 0x1 PUSH1 0xA0 SHL SUB DUP5 AND DUP5 SUB PUSH3 0xA75 JUMPI PUSH1 0x1 DUP1 PUSH1 0xA0 SHL SUB PUSH1 0x2 SLOAD AND SWAP1 PUSH1 0x40 MLOAD SWAP4 DUP5 PUSH2 0x44B5 DUP2 ADD LT PUSH8 0xFFFFFFFFFFFFFFFF PUSH2 0x44B5 DUP8 ADD GT OR PUSH3 0xA61 JUMPI PUSH2 0x44B5 PUSH3 0xD51 DUP7 CODECOPY PUSH1 0x4 CALLDATALOAD PUSH2 0x44B5 DUP7 ADD SWAP1 DUP2 MSTORE PUSH2 0x160 PUSH1 0x20 DUP3 ADD DUP2 SWAP1 MSTORE PUSH3 0x455 SWAP2 ADD DUP9 PUSH3 0xCE1 JUMP JUMPDEST SWAP9 PUSH2 0x44B5 DUP7 ADD DUP11 SUB PUSH1 0x40 PUSH2 0x44B5 DUP9 ADD ADD MSTORE MLOAD DUP1 DUP11 MSTORE PUSH1 0x20 DUP11 ADD SWAP1 PUSH1 0x20 DUP2 PUSH1 0x5 SHL DUP13 ADD ADD SWAP6 SWAP2 DUP11 SWAP1 JUMPDEST DUP3 DUP3 LT PUSH3 0xA31 JUMPI POP POP POP PUSH1 0x1 PUSH1 0x1 PUSH1 0xA0 SHL SUB SWAP2 DUP3 AND PUSH2 0x44B5 DUP8 ADD PUSH1 0x60 DUP2 ADD SWAP2 SWAP1 SWAP2 MSTORE PUSH1 0x84 CALLDATALOAD PUSH1 0x80 DUP3 ADD MSTORE PUSH1 0xA4 CALLDATALOAD PUSH1 0xA0 DUP3 ADD MSTORE PUSH1 0xC4 CALLDATALOAD PUSH1 0xC0 DUP3 ADD MSTORE SWAP3 DUP3 AND PUSH1 0xE0 DUP5 ADD MSTORE POP DUP6 AND PUSH2 0x100 DUP3 ADD MSTORE PUSH2 0x124 CALLDATALOAD PUSH2 0x120 DUP3 ADD MSTORE PUSH2 0x140 ADD MSTORE DUP2 SWAP1 SUB SWAP1 DUP5 CREATE SWAP2 DUP3 ISZERO PUSH3 0x753 JUMPI PUSH1 0x1 SLOAD PUSH9 0x10000000000000000 DUP2 LT ISZERO PUSH3 0xA1D JUMPI DUP1 PUSH1 0x1 PUSH3 0x50D SWAP3 ADD PUSH1 0x1 SSTORE PUSH3 0xB95 JUMP JUMPDEST DUP2 SLOAD PUSH1 0x1 PUSH1 0x1 PUSH1 0xA0 SHL SUB PUSH1 0x3 SWAP3 DUP4 SHL DUP2 DUP2 SHL NOT SWAP1 SWAP3 AND SWAP7 AND SWAP1 DUP2 SWAP1 SHL SWAP6 SWAP1 SWAP6 OR SWAP1 SWAP2 SSTORE DUP4 DUP6 MSTORE PUSH1 0x20 MSTORE PUSH1 0x40 DUP5 KECCAK256 DUP2 MLOAD PUSH8 0xFFFFFFFFFFFFFFFF DUP2 GT PUSH3 0xA09 JUMPI SWAP1 DUP5 SWAP3 SWAP2 PUSH3 0x55C DUP3 SLOAD PUSH3 0xCA4 JUMP JUMPDEST PUSH1 0x1F DUP2 GT PUSH3 0x9B0 JUMPI JUMPDEST POP PUSH1 0x20 PUSH1 0x1F DUP3 GT PUSH1 0x1 EQ PUSH3 0x91D JUMPI SWAP2 DUP2 PUSH32 0x89E2B56DFB4365B59DC3A37AAF819CE4937E48BE6AB23686EDCECACF0124AE03 SWAP5 SWAP3 PUSH3 0x5D0 SWAP5 DUP11 SWAP2 PUSH3 0x911 JUMPI JUMPDEST POP DUP2 PUSH1 0x1 SHL SWAP2 PUSH1 0x0 NOT SWAP1 PUSH1 0x3 SHL SHR NOT AND OR SWAP1 SSTORE JUMPDEST PUSH1 0x40 MLOAD SWAP2 DUP3 SWAP2 PUSH1 0x20 DUP4 MSTORE PUSH1 0x20 DUP4 ADD SWAP1 PUSH3 0xCE1 JUMP JUMPDEST SUB SWAP1 LOG2 PUSH1 0x2 SLOAD PUSH1 0x40 MLOAD PUSH4 0xD5391393 PUSH1 0xE0 SHL DUP2 MSTORE SWAP1 PUSH1 0x1 PUSH1 0x1 PUSH1 0xA0 SHL SUB AND PUSH1 0x20 DUP3 PUSH1 0x4 DUP2 DUP5 GAS STATICCALL SWAP2 DUP3 ISZERO PUSH3 0x8C8 JUMPI DUP6 SWAP3 PUSH3 0x8D7 JUMPI JUMPDEST POP DUP1 EXTCODESIZE ISZERO PUSH3 0x8D3 JUMPI PUSH1 0x40 MLOAD PUSH4 0x2F2FF15D PUSH1 0xE0 SHL DUP1 DUP3 MSTORE PUSH1 0x4 DUP3 ADD SWAP4 SWAP1 SWAP4 MSTORE PUSH1 0x1 PUSH1 0x1 PUSH1 0xA0 SHL SUB DUP6 AND PUSH1 0x24 DUP3 ADD MSTORE SWAP1 DUP6 SWAP1 DUP3 SWAP1 PUSH1 0x44 SWAP1 DUP3 SWAP1 DUP5 SWAP1 GAS CALL DUP1 ISZERO PUSH3 0x8C8 JUMPI PUSH3 0x8B2 JUMPI JUMPDEST POP PUSH1 0x2 SLOAD PUSH1 0x40 MLOAD PUSH4 0x282C51F3 PUSH1 0xE0 SHL DUP2 MSTORE DUP6 SWAP3 PUSH1 0x1 PUSH1 0x1 PUSH1 0xA0 SHL SUB SWAP1 SWAP3 AND SWAP2 PUSH1 0x20 DUP3 PUSH1 0x4 DUP2 DUP7 GAS STATICCALL SWAP2 DUP3 ISZERO PUSH3 0x8A7 JUMPI DUP5 SWAP3 PUSH3 0x865 JUMPI JUMPDEST POP DUP3 EXTCODESIZE ISZERO PUSH3 0x861 JUMPI PUSH1 0x40 MLOAD SWAP1 DUP2 MSTORE PUSH1 0x4 DUP2 ADD SWAP2 SWAP1 SWAP2 MSTORE PUSH1 0x1 PUSH1 0x1 PUSH1 0xA0 SHL SUB DUP6 AND PUSH1 0x24 DUP3 ADD MSTORE SWAP1 DUP3 SWAP1 DUP3 SWAP1 PUSH1 0x44 SWAP1 DUP3 SWAP1 DUP5 SWAP1 GAS CALL DUP1 ISZERO PUSH3 0x856 JUMPI PUSH3 0x83E JUMPI JUMPDEST POP PUSH1 0x40 MLOAD SWAP2 DUP4 PUSH32 0x92199B96DF436A113D14E9952BEA656A2E2E7FBC271B2141F2C42002E0E2B85B DUP4 DUP1 LOG2 PUSH2 0x124 CALLDATALOAD PUSH3 0x75E JUMPI JUMPDEST POP POP POP DUP1 EXTCODESIZE ISZERO PUSH3 0x21B JUMPI PUSH1 0x40 MLOAD PUSH4 0xF2FDE38B PUSH1 0xE0 SHL DUP2 MSTORE CALLER PUSH1 0x4 DUP3 ADD MSTORE DUP3 DUP2 PUSH1 0x24 DUP2 DUP4 DUP7 GAS CALL DUP1 ISZERO PUSH3 0x753 JUMPI PUSH3 0x73B JUMPI JUMPDEST PUSH1 0x20 DUP3 PUSH1 0x40 MLOAD SWAP1 DUP2 MSTORE RETURN JUMPDEST PUSH3 0x747 DUP4 SWAP2 PUSH3 0xBE3 JUMP JUMPDEST PUSH3 0x21B JUMPI DUP2 PUSH3 0x730 JUMP JUMPDEST PUSH1 0x40 MLOAD RETURNDATASIZE DUP6 DUP3 RETURNDATACOPY RETURNDATASIZE SWAP1 REVERT JUMPDEST PUSH4 0x23B872DD PUSH1 0xE0 SHL DUP4 MSTORE CALLER PUSH1 0x4 DUP5 ADD MSTORE PUSH1 0x24 DUP4 ADD DUP5 SWAP1 MSTORE PUSH2 0x124 CALLDATALOAD PUSH1 0x44 DUP5 ADD MSTORE PUSH1 0x20 SWAP2 DUP4 SWAP2 PUSH1 0x64 SWAP2 DUP4 SWAP2 PUSH1 0x1 PUSH1 0x1 PUSH1 0xA0 SHL SUB AND GAS CALL SWAP1 DUP2 ISZERO PUSH3 0x753 JUMPI DUP4 SWAP2 PUSH3 0x7F8 JUMPI JUMPDEST POP ISZERO PUSH3 0x7B3 JUMPI DUP3 DUP3 DUP2 PUSH3 0x6FC JUMP JUMPDEST PUSH1 0x40 MLOAD PUSH3 0x461BCD PUSH1 0xE5 SHL DUP2 MSTORE PUSH1 0x20 PUSH1 0x4 DUP3 ADD MSTORE PUSH1 0x1C PUSH1 0x24 DUP3 ADD MSTORE PUSH32 0x496E697469616C2066756E64207472616E73666572206661696C656400000000 PUSH1 0x44 DUP3 ADD MSTORE PUSH1 0x64 SWAP1 REVERT JUMPDEST SWAP1 POP PUSH1 0x20 DUP2 RETURNDATASIZE PUSH1 0x20 GT PUSH3 0x835 JUMPI JUMPDEST DUP2 PUSH3 0x816 PUSH1 0x20 SWAP4 DUP4 PUSH3 0xC0E JUMP JUMPDEST DUP2 ADD SUB SLT PUSH3 0x831 JUMPI MLOAD DUP1 ISZERO ISZERO DUP2 SUB PUSH3 0x831 JUMPI DUP4 PUSH3 0x7A3 JUMP JUMPDEST DUP3 DUP1 REVERT JUMPDEST RETURNDATASIZE SWAP2 POP PUSH3 0x807 JUMP JUMPDEST PUSH3 0x849 SWAP1 PUSH3 0xBE3 JUMP JUMPDEST PUSH3 0x831 JUMPI DUP3 DUP5 PUSH3 0x6C8 JUMP JUMPDEST PUSH1 0x40 MLOAD RETURNDATASIZE DUP5 DUP3 RETURNDATACOPY RETURNDATASIZE SWAP1 REVERT JUMPDEST DUP4 DUP1 REVERT JUMPDEST SWAP4 POP SWAP1 POP PUSH1 0x20 DUP4 RETURNDATASIZE PUSH1 0x20 GT PUSH3 0x89E JUMPI JUMPDEST DUP2 PUSH3 0x885 PUSH1 0x20 SWAP4 DUP4 PUSH3 0xC0E JUMP JUMPDEST DUP2 ADD SUB SLT PUSH3 0x899 JUMPI DUP6 SWAP3 MLOAD SWAP1 DUP8 PUSH3 0x687 JUMP JUMPDEST PUSH1 0x0 DUP1 REVERT JUMPDEST RETURNDATASIZE SWAP2 POP PUSH3 0x876 JUMP JUMPDEST PUSH1 0x40 MLOAD RETURNDATASIZE DUP7 DUP3 RETURNDATACOPY RETURNDATASIZE SWAP1 REVERT JUMPDEST PUSH3 0x8C0 SWAP1 SWAP5 SWAP2 SWAP5 PUSH3 0xBE3 JUMP JUMPDEST SWAP3 DUP5 PUSH3 0x64F JUMP JUMPDEST PUSH1 0x40 MLOAD RETURNDATASIZE DUP8 DUP3 RETURNDATACOPY RETURNDATASIZE SWAP1 REVERT JUMPDEST DUP5 DUP1 REVERT JUMPDEST SWAP1 SWAP2 POP PUSH1 0x20 DUP2 RETURNDATASIZE PUSH1 0x20 GT PUSH3 0x908 JUMPI JUMPDEST DUP2 PUSH3 0x8F6 PUSH1 0x20 SWAP4 DUP4 PUSH3 0xC0E JUMP JUMPDEST DUP2 ADD SUB SLT PUSH3 0x8D3 JUMPI MLOAD SWAP1 DUP6 PUSH3 0x606 JUMP JUMPDEST RETURNDATASIZE SWAP2 POP PUSH3 0x8E7 JUMP JUMPDEST SWAP1 POP DUP4 ADD MLOAD DUP11 PUSH3 0x5A7 JUMP JUMPDEST DUP3 DUP9 MSTORE PUSH1 0x20 DUP9 KECCAK256 SWAP1 DUP9 JUMPDEST PUSH1 0x1F NOT DUP5 AND DUP2 LT PUSH3 0x994 JUMPI POP DUP3 PUSH3 0x5D0 SWAP5 SWAP3 PUSH1 0x1 SWAP3 PUSH32 0x89E2B56DFB4365B59DC3A37AAF819CE4937E48BE6AB23686EDCECACF0124AE03 SWAP8 SWAP6 PUSH1 0x1F NOT DUP2 AND LT PUSH3 0x97A JUMPI JUMPDEST POP POP DUP2 SHL ADD SWAP1 SSTORE PUSH3 0x5BB JUMP JUMPDEST DUP6 ADD MLOAD PUSH1 0x0 NOT PUSH1 0xF8 DUP5 PUSH1 0x3 SHL AND SHR NOT AND SWAP1 SSTORE DUP11 DUP1 PUSH3 0x96D JUMP JUMPDEST DUP2 DUP7 ADD MLOAD DUP4 SSTORE DUP9 SWAP7 POP PUSH1 0x1 SWAP1 SWAP3 ADD SWAP2 PUSH1 0x20 SWAP2 DUP3 ADD SWAP2 ADD PUSH3 0x927 JUMP JUMPDEST SWAP1 SWAP2 DUP1 SWAP4 SWAP5 POP DUP8 MSTORE PUSH1 0x20 DUP8 KECCAK256 PUSH1 0x1F DUP4 ADD PUSH1 0x5 SHR DUP2 ADD SWAP2 PUSH1 0x20 DUP5 LT PUSH3 0x9FE JUMPI JUMPDEST SWAP1 PUSH1 0x1F DUP9 SWAP7 SWAP6 SWAP5 SWAP4 SWAP3 ADD PUSH1 0x5 SHR ADD SWAP1 JUMPDEST DUP2 DUP2 LT PUSH3 0x9EF JUMPI POP PUSH3 0x566 JUMP JUMPDEST DUP9 DUP2 SSTORE DUP8 SWAP6 POP PUSH1 0x1 ADD PUSH3 0x9E0 JUMP JUMPDEST SWAP1 SWAP2 POP DUP2 SWAP1 PUSH3 0x9D0 JUMP JUMPDEST PUSH4 0x4E487B71 PUSH1 0xE0 SHL DUP7 MSTORE PUSH1 0x41 PUSH1 0x4 MSTORE PUSH1 0x24 DUP7 REVERT JUMPDEST PUSH4 0x4E487B71 PUSH1 0xE0 SHL DUP6 MSTORE PUSH1 0x41 PUSH1 0x4 MSTORE PUSH1 0x24 DUP6 REVERT JUMPDEST SWAP1 SWAP2 SWAP3 SWAP7 PUSH1 0x20 DUP1 PUSH3 0xA52 DUP16 SWAP4 PUSH1 0x1 SWAP5 PUSH1 0x1F NOT SWAP1 DUP3 SUB ADD DUP7 MSTORE DUP12 MLOAD PUSH3 0xCE1 JUMP JUMPDEST SWAP10 ADD SWAP3 ADD SWAP3 ADD SWAP1 SWAP3 SWAP2 PUSH3 0x47D JUMP JUMPDEST PUSH4 0x4E487B71 PUSH1 0xE0 SHL DUP9 MSTORE PUSH1 0x41 PUSH1 0x4 MSTORE PUSH1 0x24 DUP9 REVERT JUMPDEST DUP6 DUP1 REVERT JUMPDEST DUP2 CALLDATALOAD PUSH8 0xFFFFFFFFFFFFFFFF DUP2 GT PUSH3 0xAAD JUMPI PUSH1 0x20 SWAP2 PUSH3 0xAA1 DUP4 SWAP3 PUSH1 0x24 CALLDATASIZE SWAP2 DUP10 ADD ADD PUSH3 0xC31 JUMP JUMPDEST DUP2 MSTORE ADD SWAP2 ADD SWAP1 PUSH3 0x3B2 JUMP JUMPDEST DUP8 DUP1 REVERT JUMPDEST PUSH4 0x4E487B71 PUSH1 0xE0 SHL DUP4 MSTORE PUSH1 0x41 PUSH1 0x4 MSTORE PUSH1 0x24 DUP4 REVERT JUMPDEST POP CALLVALUE PUSH3 0x120 JUMPI DUP1 PUSH1 0x3 NOT CALLDATASIZE ADD SLT PUSH3 0x120 JUMPI SLOAD PUSH1 0x40 MLOAD PUSH1 0x1 PUSH1 0x1 PUSH1 0xA0 SHL SUB SWAP1 SWAP2 AND DUP2 MSTORE PUSH1 0x20 SWAP1 RETURN JUMPDEST POP CALLVALUE PUSH3 0x120 JUMPI DUP1 PUSH1 0x3 NOT CALLDATASIZE ADD SLT PUSH3 0x120 JUMPI PUSH3 0xB0B PUSH3 0xD23 JUMP JUMPDEST DUP1 SLOAD PUSH1 0x1 PUSH1 0x1 PUSH1 0xA0 SHL SUB NOT DUP2 AND DUP3 SSTORE DUP2 SWAP1 PUSH1 0x1 PUSH1 0x1 PUSH1 0xA0 SHL SUB AND PUSH32 0x8BE0079C531659141344CD1FD0A4F28419497F9722A3DAAFE3B4186F6B6457E0 DUP3 DUP1 LOG3 DUP1 RETURN JUMPDEST POP CALLVALUE PUSH3 0x120 JUMPI PUSH1 0x20 CALLDATASIZE PUSH1 0x3 NOT ADD SLT PUSH3 0x120 JUMPI PUSH1 0x4 CALLDATALOAD SWAP1 PUSH1 0x1 SLOAD DUP3 LT ISZERO PUSH3 0x120 JUMPI PUSH1 0x20 PUSH3 0xB7C DUP4 PUSH3 0xB95 JUMP JUMPDEST SWAP1 SLOAD PUSH1 0x40 MLOAD PUSH1 0x3 SWAP3 SWAP1 SWAP3 SHL SHR PUSH1 0x1 PUSH1 0x1 PUSH1 0xA0 SHL SUB AND DUP2 MSTORE RETURN JUMPDEST PUSH1 0x1 SLOAD DUP2 LT ISZERO PUSH3 0xBCD JUMPI PUSH1 0x1 PUSH1 0x0 MSTORE PUSH32 0xB10E2D527612073B26EECDFD717E6A320CF44B4AFAC2B0732D9FCBE2B7FA0CF6 ADD SWAP1 PUSH1 0x0 SWAP1 JUMP JUMPDEST PUSH4 0x4E487B71 PUSH1 0xE0 SHL PUSH1 0x0 MSTORE PUSH1 0x32 PUSH1 0x4 MSTORE PUSH1 0x24 PUSH1 0x0 REVERT JUMPDEST PUSH8 0xFFFFFFFFFFFFFFFF DUP2 GT PUSH3 0xBF8 JUMPI PUSH1 0x40 MSTORE JUMP JUMPDEST PUSH4 0x4E487B71 PUSH1 0xE0 SHL PUSH1 0x0 MSTORE PUSH1 0x41 PUSH1 0x4 MSTORE PUSH1 0x24 PUSH1 0x0 REVERT JUMPDEST SWAP1 PUSH1 0x1F DUP1 NOT SWAP2 ADD AND DUP2 ADD SWAP1 DUP2 LT PUSH8 0xFFFFFFFFFFFFFFFF DUP3 GT OR PUSH3 0xBF8 JUMPI PUSH1 0x40 MSTORE JUMP JUMPDEST DUP2 PUSH1 0x1F DUP3 ADD SLT ISZERO PUSH3 0x899 JUMPI DUP1 CALLDATALOAD SWAP1 PUSH8 0xFFFFFFFFFFFFFFFF DUP3 GT PUSH3 0xBF8 JUMPI PUSH1 0x40 MLOAD SWAP3 PUSH3 0xC6A PUSH1 0x1F DUP5 ADD PUSH1 0x1F NOT AND PUSH1 0x20 ADD DUP6 PUSH3 0xC0E JUMP JUMPDEST DUP3 DUP5 MSTORE PUSH1 0x20 DUP4 DUP4 ADD ADD GT PUSH3 0x899 JUMPI DUP2 PUSH1 0x0 SWAP3 PUSH1 0x20 DUP1 SWAP4 ADD DUP4 DUP7 ADD CALLDATACOPY DUP4 ADD ADD MSTORE SWAP1 JUMP JUMPDEST PUSH1 0x4 CALLDATALOAD SWAP1 PUSH1 0x1 PUSH1 0x1 PUSH1 0xA0 SHL SUB DUP3 AND DUP3 SUB PUSH3 0x899 JUMPI JUMP JUMPDEST SWAP1 PUSH1 0x1 DUP3 DUP2 SHR SWAP3 AND DUP1 ISZERO PUSH3 0xCD6 JUMPI JUMPDEST PUSH1 0x20 DUP4 LT EQ PUSH3 0xCC0 JUMPI JUMP JUMPDEST PUSH4 0x4E487B71 PUSH1 0xE0 SHL PUSH1 0x0 MSTORE PUSH1 0x22 PUSH1 0x4 MSTORE PUSH1 0x24 PUSH1 0x0 REVERT JUMPDEST SWAP2 PUSH1 0x7F AND SWAP2 PUSH3 0xCB4 JUMP JUMPDEST SWAP2 SWAP1 DUP3 MLOAD SWAP3 DUP4 DUP3 MSTORE PUSH1 0x0 JUMPDEST DUP5 DUP2 LT PUSH3 0xD0E JUMPI POP POP DUP3 PUSH1 0x0 PUSH1 0x20 DUP1 SWAP5 SWAP6 DUP5 ADD ADD MSTORE PUSH1 0x1F DUP1 NOT SWAP2 ADD AND ADD ADD SWAP1 JUMP JUMPDEST PUSH1 0x20 DUP2 DUP4 ADD DUP2 ADD MLOAD DUP5 DUP4 ADD DUP3 ADD MSTORE ADD PUSH3 0xCEC JUMP JUMPDEST PUSH1 0x0 SLOAD PUSH1 0x1 PUSH1 0x1 PUSH1 0xA0 SHL SUB AND CALLER SUB PUSH3 0xD38 JUMPI JUMP JUMPDEST PUSH1 0x40 MLOAD PUSH4 0x118CDAA7 PUSH1 0xE0 SHL DUP2 MSTORE CALLER PUSH1 0x4 DUP3 ADD MSTORE PUSH1 0x24 SWAP1 REVERT INVALID PUSH2 0x180 DUP1 PUSH1 0x40 MSTORE CALLVALUE PUSH3 0xA29 JUMPI PUSH3 0x44B5 DUP1 CODESIZE SUB DUP1 SWAP2 PUSH3 0x21 DUP3 DUP6 PUSH3 0xD47 JUMP JUMPDEST DUP4 CODECOPY DUP2 ADD SWAP1 PUSH2 0x160 DUP2 DUP4 SUB SLT PUSH3 0xA29 JUMPI DUP1 MLOAD PUSH1 0x20 DUP3 ADD MLOAD PUSH1 0x1 PUSH1 0x1 PUSH1 0x40 SHL SUB DUP2 GT PUSH3 0xA29 JUMPI DUP4 PUSH3 0x56 SWAP2 DUP5 ADD PUSH3 0xD6B JUMP JUMPDEST PUSH1 0x40 DUP4 ADD MLOAD PUSH1 0x1 PUSH1 0x1 PUSH1 0x40 SHL SUB DUP2 GT PUSH3 0xA29 JUMPI DUP4 ADD SWAP4 DUP1 PUSH1 0x1F DUP7 ADD SLT ISZERO PUSH3 0xA29 JUMPI DUP5 MLOAD SWAP5 PUSH1 0x1 PUSH1 0x1 PUSH1 0x40 SHL SUB DUP7 GT PUSH3 0x6BE JUMPI DUP6 PUSH1 0x5 SHL SWAP1 PUSH1 0x40 MLOAD SWAP7 PUSH3 0xA3 PUSH1 0x20 DUP5 ADD DUP10 PUSH3 0xD47 JUMP JUMPDEST DUP8 MSTORE PUSH1 0x20 DUP1 DUP9 ADD SWAP3 DUP3 ADD ADD SWAP2 DUP4 DUP4 GT PUSH3 0xA29 JUMPI PUSH1 0x20 DUP3 ADD SWAP1 JUMPDEST DUP4 DUP3 LT PUSH3 0xD16 JUMPI POP POP POP POP POP PUSH3 0xD8 PUSH1 0x60 DUP5 ADD PUSH3 0xDE2 JUMP JUMPDEST SWAP1 PUSH1 0x80 DUP5 ADD MLOAD SWAP4 PUSH1 0xA0 DUP2 ADD MLOAD SWAP3 PUSH1 0xC0 DUP3 ADD MLOAD SWAP6 PUSH3 0xF9 PUSH1 0xE0 DUP5 ADD PUSH3 0xDE2 JUMP JUMPDEST SWAP2 PUSH3 0x109 PUSH2 0x100 DUP6 ADD PUSH3 0xDE2 JUMP JUMPDEST SWAP5 PUSH3 0x11F PUSH2 0x140 PUSH2 0x120 DUP8 ADD MLOAD SWAP7 ADD PUSH3 0xDE2 JUMP JUMPDEST SWAP8 CALLER ISZERO PUSH3 0xCFD JUMPI PUSH1 0x0 DUP1 SLOAD CALLER PUSH1 0x1 PUSH1 0x1 PUSH1 0xA0 SHL SUB NOT DUP3 AND DUP2 OR DUP4 SSTORE PUSH1 0x40 MLOAD SWAP3 SWAP1 SWAP2 PUSH1 0x1 PUSH1 0x1 PUSH1 0xA0 SHL SUB AND SWAP1 PUSH32 0x8BE0079C531659141344CD1FD0A4F28419497F9722A3DAAFE3B4186F6B6457E0 SWAP1 DUP1 LOG3 PUSH1 0x1 DUP1 SSTORE PUSH1 0x2 DUP1 SLOAD PUSH1 0xFF NOT AND SWAP1 SSTORE PUSH1 0x0 PUSH1 0x9 DUP2 SWAP1 SSTORE PUSH1 0xA DUP2 SWAP1 SSTORE PUSH1 0xB SSTORE PUSH1 0x1 PUSH1 0x1 PUSH1 0xA0 SHL SUB DUP9 AND ISZERO PUSH3 0xCBB JUMPI POP PUSH1 0x1 PUSH1 0x1 PUSH1 0xA0 SHL SUB DUP6 AND ISZERO PUSH3 0xC76 JUMPI DUP11 MLOAD ISZERO PUSH3 0xC31 JUMPI DUP4 ISZERO PUSH3 0xBD4 JUMPI DUP8 ISZERO PUSH3 0xB8F JUMPI DUP11 MLOAD DUP1 ISZERO ISZERO SWAP1 DUP2 PUSH3 0xB82 JUMPI JUMPDEST POP ISZERO PUSH3 0xB3D JUMPI PUSH2 0x2710 DUP5 GT PUSH3 0xADE JUMPI PUSH1 0x64 DUP5 LT PUSH3 0xA73 JUMPI DUP11 MLOAD PUSH1 0x1 DUP2 GT ISZERO PUSH3 0xA2E JUMPI PUSH1 0x1 PUSH1 0x1 PUSH1 0x3F SHL SUB DUP2 GT PUSH3 0xA29 JUMPI PUSH1 0x0 DUP2 PUSH1 0x40 SHL PUSH1 0xF SIGNEXTEND SGT ISZERO PUSH3 0xA29 JUMPI PUSH1 0x0 PUSH1 0x40 DUP3 SWAP1 SHL PUSH1 0xF SIGNEXTEND PUSH9 0x10000000000000000 DUP2 SLT ISZERO PUSH3 0xA16 JUMPI JUMPDEST DUP1 PUSH5 0x100000000 PUSH1 0x2 SWAP3 SLT ISZERO PUSH3 0xA09 JUMPI JUMPDEST PUSH3 0x10000 DUP2 SLT ISZERO PUSH3 0x9FC JUMPI JUMPDEST PUSH2 0x100 DUP2 SLT ISZERO PUSH3 0x9EF JUMPI JUMPDEST PUSH1 0x10 DUP2 SLT ISZERO PUSH3 0x9E2 JUMPI JUMPDEST PUSH1 0x4 DUP2 SLT ISZERO PUSH3 0x9D6 JUMPI JUMPDEST SLT ISZERO PUSH3 0x9CD JUMPI JUMPDEST SWAP1 DUP6 SWAP2 PUSH1 0x3F NOT DUP2 ADD PUSH1 0x40 SHL SWAP2 PUSH1 0x40 SHL PUSH1 0xF SIGNEXTEND SWAP1 PUSH1 0x7F SUB SHL PUSH8 0x8000000000000000 SWAP1 JUMPDEST PUSH1 0x0 DUP3 SGT PUSH3 0x9AC JUMPI POP POP SWAP1 PUSH16 0xB17217F7D1CF79ABC9E3B39803F2F6AF PUSH3 0x2CC SWAP3 PUSH1 0xF SIGNEXTEND MUL PUSH1 0x80 SAR PUSH3 0xE33 JUMP JUMPDEST PUSH1 0x40 MLOAD PUSH4 0x313CE567 PUSH1 0xE0 SHL DUP2 MSTORE PUSH1 0x20 DUP2 PUSH1 0x4 DUP2 PUSH1 0x1 PUSH1 0x1 PUSH1 0xA0 SHL SUB DUP14 AND GAS STATICCALL DUP1 ISZERO PUSH3 0x82A JUMPI PUSH3 0x307 SWAP2 PUSH1 0x0 SWAP2 PUSH3 0x988 JUMPI JUMPDEST POP PUSH3 0xE12 JUMP JUMPDEST SWAP1 DUP2 DUP2 MUL SWAP2 DUP2 DUP4 DIV EQ SWAP1 ISZERO OR ISZERO PUSH3 0x5B0 JUMPI DUP7 LT PUSH3 0x92C JUMPI PUSH1 0xC0 MSTORE DUP1 MLOAD SWAP1 PUSH1 0x1 PUSH1 0x1 PUSH1 0x40 SHL SUB DUP3 GT PUSH3 0x6BE JUMPI PUSH1 0x7 SLOAD SWAP1 DUP2 PUSH1 0x1 SHR SWAP2 PUSH1 0x1 DUP2 AND ISZERO PUSH3 0x921 JUMPI JUMPDEST PUSH1 0x1 AND PUSH1 0x20 DUP4 LT EQ PUSH3 0x69D JUMPI DUP2 PUSH1 0x1F DUP5 SWAP4 GT PUSH3 0x8C0 JUMPI JUMPDEST POP PUSH1 0x20 SWAP1 PUSH1 0x1F DUP4 GT PUSH1 0x1 EQ PUSH3 0x842 JUMPI PUSH1 0x0 SWAP3 PUSH3 0x836 JUMPI JUMPDEST POP POP DUP2 PUSH1 0x1 SHL SWAP2 PUSH1 0x0 NOT SWAP1 PUSH1 0x3 SHL SHR NOT AND OR PUSH1 0x7 SSTORE JUMPDEST PUSH1 0x8 DUP1 SLOAD PUSH1 0x1 PUSH1 0x1 PUSH1 0xA0 SHL SUB NOT AND PUSH1 0x1 PUSH1 0x1 PUSH1 0xA0 SHL SUB SWAP3 SWAP1 SWAP3 AND SWAP2 SWAP1 SWAP2 OR SWAP1 SSTORE PUSH1 0x80 MSTORE TIMESTAMP DUP1 DUP6 ADD LT PUSH3 0x5B0 JUMPI PUSH1 0x4 SWAP6 PUSH1 0x20 SWAP5 TIMESTAMP ADD DUP8 SSTORE PUSH2 0xFFFF NOT PUSH1 0x5 SLOAD AND PUSH1 0x5 SSTORE PUSH1 0xE0 MSTORE PUSH2 0x100 MSTORE PUSH1 0x1 DUP1 PUSH1 0xA0 SHL SUB DUP3 AND PUSH1 0xA0 MSTORE DUP6 MLOAD PUSH2 0x160 MSTORE DUP1 PUSH1 0x9 SSTORE PUSH1 0xA SSTORE PUSH1 0x40 MLOAD SWAP4 DUP5 DUP1 SWAP3 PUSH4 0x313CE567 PUSH1 0xE0 SHL DUP3 MSTORE PUSH1 0x1 DUP1 PUSH1 0xA0 SHL SUB AND GAS STATICCALL SWAP1 DUP2 ISZERO PUSH3 0x82A JUMPI PUSH1 0xFF SWAP3 PUSH1 0x0 SWAP3 PUSH3 0x7F2 JUMPI JUMPDEST POP PUSH2 0x120 DUP3 SWAP1 MSTORE PUSH1 0xC DUP1 SLOAD PUSH1 0x1 PUSH1 0x1 PUSH1 0xA0 SHL SUB NOT AND PUSH1 0x1 PUSH1 0x1 PUSH1 0xA0 SHL SUB SWAP3 SWAP1 SWAP3 AND SWAP2 SWAP1 SWAP2 OR SWAP1 SSTORE AND PUSH1 0x8 DUP2 GT ISZERO PUSH3 0x7D2 JUMPI POP PUSH1 0xFF PUSH2 0x120 MLOAD AND DUP1 PUSH1 0x7 NOT DUP2 ADD GT PUSH3 0x5B0 JUMPI PUSH3 0x477 SWAP1 PUSH1 0x7 NOT ADD PUSH3 0xE24 JUMP JUMPDEST PUSH1 0xD SSTORE JUMPDEST PUSH3 0x48C PUSH1 0xFF PUSH2 0x120 MLOAD AND PUSH3 0xE12 JUMP JUMPDEST PUSH2 0x140 MSTORE PUSH1 0x0 JUMPDEST DUP2 MLOAD DUP2 LT ISZERO PUSH3 0x6EA JUMPI PUSH1 0x5 DUP2 SWAP1 SHL DUP3 ADD PUSH1 0x20 ADD MLOAD PUSH1 0x40 DUP1 MLOAD SWAP2 SWAP1 DUP3 ADD PUSH1 0x1 PUSH1 0x1 PUSH1 0x40 SHL SUB DUP2 GT DUP4 DUP3 LT OR PUSH3 0x6BE JUMPI PUSH1 0x40 MSTORE DUP2 MSTORE PUSH1 0x0 PUSH1 0x20 DUP3 ADD MSTORE PUSH1 0x3 SLOAD SWAP1 PUSH9 0x10000000000000000 DUP3 LT ISZERO PUSH3 0x6BE JUMPI PUSH1 0x1 DUP3 ADD DUP1 PUSH1 0x3 SSTORE DUP3 LT ISZERO PUSH3 0x6D4 JUMPI PUSH1 0x3 PUSH1 0x0 MSTORE DUP1 MLOAD DUP1 MLOAD PUSH32 0xC2575A0E9E593C00F959F8C92F12DB2869C3395A3B0502D05E2516446F71F85B SWAP3 SWAP2 PUSH1 0x1 PUSH1 0x1 PUSH1 0x40 SHL SUB DUP3 GT PUSH3 0x6BE JUMPI DUP5 PUSH1 0x1 SHL DUP5 ADD SLOAD PUSH1 0x1 DUP2 DUP2 SHR SWAP2 AND DUP1 ISZERO PUSH3 0x6B3 JUMPI JUMPDEST PUSH1 0x20 DUP3 LT EQ PUSH3 0x69D JUMPI PUSH1 0x1F DUP2 GT PUSH3 0x64F JUMPI JUMPDEST POP PUSH1 0x20 SWAP1 PUSH1 0x1F DUP4 GT PUSH1 0x1 EQ PUSH3 0x5D2 JUMPI SWAP2 DUP1 PUSH1 0x1 SWAP6 SWAP5 SWAP3 PUSH1 0x20 SWAP5 PUSH1 0x0 SWAP3 PUSH3 0x5C6 JUMPI JUMPDEST POP POP PUSH1 0x0 NOT PUSH1 0x3 DUP4 SWAP1 SHL SHR NOT AND SWAP1 DUP6 SHL OR DUP6 DUP6 SHL DUP5 ADD SSTORE JUMPDEST ADD MLOAD SWAP3 DUP3 SHL ADD ADD SSTORE PUSH1 0x0 NOT DUP2 EQ PUSH3 0x5B0 JUMPI PUSH1 0x1 ADD PUSH3 0x493 JUMP JUMPDEST PUSH4 0x4E487B71 PUSH1 0xE0 SHL PUSH1 0x0 MSTORE PUSH1 0x11 PUSH1 0x4 MSTORE PUSH1 0x24 PUSH1 0x0 REVERT JUMPDEST ADD MLOAD SWAP1 POP CODESIZE DUP1 PUSH3 0x57D JUMP JUMPDEST SWAP1 DUP6 PUSH1 0x1 SHL DUP6 ADD PUSH1 0x0 MSTORE PUSH1 0x20 PUSH1 0x0 KECCAK256 SWAP2 PUSH1 0x0 JUMPDEST PUSH1 0x1F NOT DUP6 AND DUP2 LT PUSH3 0x636 JUMPI POP SWAP3 PUSH1 0x1 SWAP6 SWAP5 SWAP3 DUP7 SWAP3 PUSH1 0x20 SWAP6 DUP4 PUSH1 0x1F NOT DUP2 AND LT PUSH3 0x61C JUMPI JUMPDEST POP POP POP DUP2 SHL ADD DUP6 DUP6 SHL DUP5 ADD SSTORE PUSH3 0x595 JUMP JUMPDEST ADD MLOAD PUSH1 0x0 NOT PUSH1 0xF8 DUP5 PUSH1 0x3 SHL AND SHR NOT AND SWAP1 SSTORE CODESIZE DUP1 DUP1 PUSH3 0x60A JUMP JUMPDEST SWAP2 SWAP3 PUSH1 0x20 PUSH1 0x1 DUP2 SWAP3 DUP7 DUP6 ADD MLOAD DUP2 SSTORE ADD SWAP5 ADD SWAP3 ADD PUSH3 0x5E5 JUMP JUMPDEST DUP6 PUSH1 0x1 SHL DUP6 ADD PUSH1 0x0 MSTORE PUSH1 0x20 PUSH1 0x0 KECCAK256 PUSH1 0x1F DUP5 ADD PUSH1 0x5 SHR DUP2 ADD PUSH1 0x20 DUP6 LT PUSH3 0x695 JUMPI JUMPDEST PUSH1 0x1F DUP4 ADD PUSH1 0x5 SHR DUP3 ADD DUP2 LT PUSH3 0x688 JUMPI POP POP PUSH3 0x55A JUMP JUMPDEST PUSH1 0x0 DUP2 SSTORE PUSH1 0x1 ADD PUSH3 0x670 JUMP JUMPDEST POP DUP1 PUSH3 0x670 JUMP JUMPDEST PUSH4 0x4E487B71 PUSH1 0xE0 SHL PUSH1 0x0 MSTORE PUSH1 0x22 PUSH1 0x4 MSTORE PUSH1 0x24 PUSH1 0x0 REVERT JUMPDEST SWAP1 PUSH1 0x7F AND SWAP1 PUSH3 0x546 JUMP JUMPDEST PUSH4 0x4E487B71 PUSH1 0xE0 SHL PUSH1 0x0 MSTORE PUSH1 0x41 PUSH1 0x4 MSTORE PUSH1 0x24 PUSH1 0x0 REVERT JUMPDEST PUSH4 0x4E487B71 PUSH1 0xE0 SHL PUSH1 0x0 MSTORE PUSH1 0x32 PUSH1 0x4 MSTORE PUSH1 0x24 PUSH1 0x0 REVERT JUMPDEST PUSH1 0x40 MLOAD PUSH2 0x3609 SWAP1 DUP2 PUSH3 0xE8C DUP3 CODECOPY PUSH1 0x80 MLOAD DUP2 DUP2 DUP2 PUSH2 0x969 ADD MSTORE DUP2 DUP2 PUSH2 0x1520 ADD MSTORE DUP2 DUP2 PUSH2 0x15F9 ADD MSTORE DUP2 DUP2 PUSH2 0x1660 ADD MSTORE PUSH2 0x2589 ADD MSTORE PUSH1 0xA0 MLOAD DUP2 DUP2 DUP2 PUSH2 0x25C ADD MSTORE DUP2 DUP2 PUSH2 0x3AC ADD MSTORE DUP2 DUP2 PUSH2 0x727 ADD MSTORE DUP2 DUP2 PUSH2 0xDBF ADD MSTORE DUP2 DUP2 PUSH2 0x1227 ADD MSTORE DUP2 DUP2 PUSH2 0x184E ADD MSTORE PUSH2 0x1D28 ADD MSTORE PUSH1 0xC0 MLOAD DUP2 DUP2 DUP2 PUSH2 0x5B7 ADD MSTORE DUP2 DUP2 PUSH2 0xA6D ADD MSTORE DUP2 DUP2 PUSH2 0xE1B ADD MSTORE DUP2 DUP2 PUSH2 0x1450 ADD MSTORE PUSH2 0x1B35 ADD MSTORE PUSH1 0xE0 MLOAD DUP2 DUP2 DUP2 PUSH2 0xD2F ADD MSTORE DUP2 DUP2 PUSH2 0x1373 ADD MSTORE DUP2 DUP2 PUSH2 0x1589 ADD MSTORE PUSH2 0x1C1D ADD MSTORE PUSH2 0x100 MLOAD DUP2 DUP2 DUP2 PUSH2 0x36E ADD MSTORE DUP2 DUP2 PUSH2 0x17D8 ADD MSTORE PUSH2 0x193B ADD MSTORE PUSH2 0x120 MLOAD DUP2 PUSH2 0x1ABE ADD MSTORE PUSH2 0x140 MLOAD DUP2 DUP2 DUP2 PUSH2 0x667 ADD MSTORE PUSH2 0x90B ADD MSTORE PUSH2 0x160 MLOAD DUP2 PUSH2 0xBB9 ADD MSTORE RETURN JUMPDEST PUSH1 0x8 SUB PUSH1 0x8 DUP2 GT PUSH3 0x5B0 JUMPI PUSH3 0x7E9 SWAP1 PUSH3 0xE24 JUMP JUMPDEST PUSH1 0xD SSTORE PUSH3 0x47B JUMP JUMPDEST PUSH3 0x81A SWAP2 SWAP3 POP PUSH1 0x20 RETURNDATASIZE PUSH1 0x20 GT PUSH3 0x822 JUMPI JUMPDEST PUSH3 0x811 DUP2 DUP4 PUSH3 0xD47 JUMP JUMPDEST DUP2 ADD SWAP1 PUSH3 0xDF7 JUMP JUMPDEST SWAP1 CODESIZE PUSH3 0x422 JUMP JUMPDEST POP RETURNDATASIZE PUSH3 0x805 JUMP JUMPDEST PUSH1 0x40 MLOAD RETURNDATASIZE PUSH1 0x0 DUP3 RETURNDATACOPY RETURNDATASIZE SWAP1 REVERT JUMPDEST ADD MLOAD SWAP1 POP CODESIZE DUP1 PUSH3 0x37B JUMP JUMPDEST PUSH1 0x7 PUSH1 0x0 SWAP1 DUP2 MSTORE SWAP4 POP PUSH1 0x0 DUP1 MLOAD PUSH1 0x20 PUSH3 0x4495 DUP4 CODECOPY DUP2 MLOAD SWAP2 MSTORE SWAP2 SWAP1 JUMPDEST PUSH1 0x1F NOT DUP5 AND DUP6 LT PUSH3 0x8A4 JUMPI PUSH1 0x1 SWAP5 POP DUP4 PUSH1 0x1F NOT DUP2 AND LT PUSH3 0x88A JUMPI JUMPDEST POP POP POP DUP2 SHL ADD PUSH1 0x7 SSTORE PUSH3 0x391 JUMP JUMPDEST ADD MLOAD PUSH1 0x0 NOT PUSH1 0xF8 DUP5 PUSH1 0x3 SHL AND SHR NOT AND SWAP1 SSTORE CODESIZE DUP1 DUP1 PUSH3 0x87B JUMP JUMPDEST DUP2 DUP2 ADD MLOAD DUP4 SSTORE PUSH1 0x20 SWAP5 DUP6 ADD SWAP5 PUSH1 0x1 SWAP1 SWAP4 ADD SWAP3 SWAP1 SWAP2 ADD SWAP1 PUSH3 0x85E JUMP JUMPDEST PUSH1 0x7 PUSH1 0x0 MSTORE SWAP1 SWAP2 POP PUSH1 0x0 DUP1 MLOAD PUSH1 0x20 PUSH3 0x4495 DUP4 CODECOPY DUP2 MLOAD SWAP2 MSTORE PUSH1 0x1F DUP5 ADD PUSH1 0x5 SHR DUP2 ADD PUSH1 0x20 DUP6 LT PUSH3 0x919 JUMPI JUMPDEST SWAP1 DUP5 SWAP4 SWAP3 SWAP2 JUMPDEST PUSH1 0x1F DUP4 ADD PUSH1 0x5 SHR DUP3 ADD DUP2 LT PUSH3 0x909 JUMPI POP POP PUSH3 0x362 JUMP JUMPDEST PUSH1 0x0 DUP2 SSTORE DUP6 SWAP5 POP PUSH1 0x1 ADD PUSH3 0x8F1 JUMP JUMPDEST POP DUP1 PUSH3 0x8EB JUMP JUMPDEST SWAP2 PUSH1 0x7F AND SWAP2 PUSH3 0x349 JUMP JUMPDEST PUSH1 0x40 MLOAD PUSH3 0x461BCD PUSH1 0xE5 SHL DUP2 MSTORE PUSH1 0x20 PUSH1 0x4 DUP3 ADD MSTORE PUSH1 0x2E PUSH1 0x24 DUP3 ADD MSTORE PUSH32 0x496E697469616C2066756E6473206D757374206578636565642062202A206C6E PUSH1 0x44 DUP3 ADD MSTORE PUSH14 0x286E756D5F6F7574636F6D657329 PUSH1 0x90 SHL PUSH1 0x64 DUP3 ADD MSTORE PUSH1 0x84 SWAP1 REVERT JUMPDEST PUSH3 0x9A5 SWAP2 POP PUSH1 0x20 RETURNDATASIZE PUSH1 0x20 GT PUSH3 0x822 JUMPI PUSH3 0x811 DUP2 DUP4 PUSH3 0xD47 JUMP JUMPDEST CODESIZE PUSH3 0x300 JUMP JUMPDEST DUP1 SWAP2 SWAP4 POP MUL SWAP1 DUP2 PUSH1 0xFF SHR SWAP2 DUP3 PUSH1 0x7F ADD SHR SWAP2 DUP4 MUL ADD SWAP2 PUSH1 0x1 SAR DUP7 SWAP3 SWAP2 PUSH3 0x29D JUMP JUMPDEST PUSH1 0x1 ADD PUSH3 0x27B JUMP JUMPDEST SWAP2 DUP2 ADD SWAP2 DUP2 SAR PUSH3 0x273 JUMP JUMPDEST PUSH1 0x4 SWAP3 DUP4 ADD SWAP3 SAR PUSH3 0x268 JUMP JUMPDEST PUSH1 0x8 SWAP3 DUP4 ADD SWAP3 SAR PUSH3 0x25D JUMP JUMPDEST PUSH1 0x10 SWAP3 DUP4 ADD SWAP3 SAR PUSH3 0x251 JUMP JUMPDEST PUSH1 0x20 SWAP3 DUP4 ADD SWAP3 SAR PUSH3 0x244 JUMP JUMPDEST POP PUSH1 0x40 SWAP1 POP DUP2 DUP2 SHL PUSH1 0xF SIGNEXTEND DUP2 SAR PUSH3 0x232 JUMP JUMPDEST PUSH1 0x0 DUP1 REVERT JUMPDEST PUSH1 0x40 MLOAD PUSH3 0x461BCD PUSH1 0xE5 SHL DUP2 MSTORE PUSH1 0x20 PUSH1 0x4 DUP3 ADD MSTORE PUSH1 0x1E PUSH1 0x24 DUP3 ADD MSTORE PUSH32 0x4174206C656173742074776F206F7574636F6D65732072657175697265640000 PUSH1 0x44 DUP3 ADD MSTORE PUSH1 0x64 SWAP1 REVERT JUMPDEST PUSH1 0x40 MLOAD PUSH3 0x461BCD PUSH1 0xE5 SHL DUP2 MSTORE PUSH1 0x20 PUSH1 0x4 DUP3 ADD MSTORE PUSH1 0x34 PUSH1 0x24 DUP3 ADD MSTORE PUSH32 0x4C697175696469747920706172616D6574657220276227206D75737420626520 PUSH1 0x44 DUP3 ADD MSTORE PUSH32 0x67726561746572207468616E206D696E696D756D000000000000000000000000 PUSH1 0x64 DUP3 ADD MSTORE PUSH1 0x84 SWAP1 REVERT JUMPDEST PUSH1 0x40 MLOAD PUSH3 0x461BCD PUSH1 0xE5 SHL DUP2 MSTORE PUSH1 0x20 PUSH1 0x4 DUP3 ADD MSTORE PUSH1 0x31 PUSH1 0x24 DUP3 ADD MSTORE PUSH32 0x4C697175696469747920706172616D6574657220276227206578636565647320 PUSH1 0x44 DUP3 ADD MSTORE PUSH17 0x746865206C696D6974206D6178696D756D PUSH1 0x78 SHL PUSH1 0x64 DUP3 ADD MSTORE PUSH1 0x84 SWAP1 REVERT JUMPDEST PUSH1 0x40 MLOAD PUSH3 0x461BCD PUSH1 0xE5 SHL DUP2 MSTORE PUSH1 0x20 PUSH1 0x4 DUP3 ADD MSTORE PUSH1 0x1A PUSH1 0x24 DUP3 ADD MSTORE PUSH32 0x496E76616C6964206E756D626572206F66206F7574636F6D6573000000000000 PUSH1 0x44 DUP3 ADD MSTORE PUSH1 0x64 SWAP1 REVERT JUMPDEST PUSH1 0x5 SWAP2 POP GT ISZERO CODESIZE PUSH3 0x1D0 JUMP JUMPDEST PUSH1 0x40 MLOAD PUSH3 0x461BCD PUSH1 0xE5 SHL DUP2 MSTORE PUSH1 0x20 PUSH1 0x4 DUP3 ADD MSTORE PUSH1 0x19 PUSH1 0x24 DUP3 ADD MSTORE PUSH32 0x4475726174696F6E206D75737420626520706F73697469766500000000000000 PUSH1 0x44 DUP3 ADD MSTORE PUSH1 0x64 SWAP1 REVERT JUMPDEST PUSH1 0x40 MLOAD PUSH3 0x461BCD PUSH1 0xE5 SHL DUP2 MSTORE PUSH1 0x20 PUSH1 0x4 DUP3 ADD MSTORE PUSH1 0x2F PUSH1 0x24 DUP3 ADD MSTORE PUSH32 0x4C697175696469747920706172616D657465722062206D757374206265206772 PUSH1 0x44 DUP3 ADD MSTORE PUSH15 0x6561746572207468616E207A65726F PUSH1 0x88 SHL PUSH1 0x64 DUP3 ADD MSTORE PUSH1 0x84 SWAP1 REVERT JUMPDEST PUSH1 0x40 MLOAD PUSH3 0x461BCD PUSH1 0xE5 SHL DUP2 MSTORE PUSH1 0x20 PUSH1 0x4 DUP3 ADD MSTORE PUSH1 0x1D PUSH1 0x24 DUP3 ADD MSTORE PUSH32 0x4174206C65617374206F6E65206F7574636F6D65207265717569726564000000 PUSH1 0x44 DUP3 ADD MSTORE PUSH1 0x64 SWAP1 REVERT JUMPDEST PUSH1 0x40 MLOAD PUSH3 0x461BCD PUSH1 0xE5 SHL DUP2 MSTORE PUSH1 0x20 PUSH1 0x4 DUP3 ADD MSTORE PUSH1 0x1D PUSH1 0x24 DUP3 ADD MSTORE PUSH32 0x496E76616C69642066656520726563697069656E742061646472657373000000 PUSH1 0x44 DUP3 ADD MSTORE PUSH1 0x64 SWAP1 REVERT JUMPDEST PUSH3 0x461BCD PUSH1 0xE5 SHL DUP2 MSTORE PUSH1 0x20 PUSH1 0x4 DUP3 ADD MSTORE PUSH1 0x15 PUSH1 0x24 DUP3 ADD MSTORE PUSH32 0x496E76616C696420746F6B656E20616464726573730000000000000000000000 PUSH1 0x44 DUP3 ADD MSTORE PUSH1 0x64 SWAP1 REVERT JUMPDEST PUSH1 0x40 MLOAD PUSH4 0x1E4FBDF7 PUSH1 0xE0 SHL DUP2 MSTORE PUSH1 0x0 PUSH1 0x4 DUP3 ADD MSTORE PUSH1 0x24 SWAP1 REVERT JUMPDEST DUP2 MLOAD PUSH1 0x1 PUSH1 0x1 PUSH1 0x40 SHL SUB DUP2 GT PUSH3 0xA29 JUMPI PUSH1 0x20 SWAP2 PUSH3 0xD3B DUP8 DUP5 DUP1 SWAP5 DUP9 ADD ADD PUSH3 0xD6B JUMP JUMPDEST DUP2 MSTORE ADD SWAP2 ADD SWAP1 PUSH3 0xBD JUMP JUMPDEST PUSH1 0x1F SWAP1 SWAP2 ADD PUSH1 0x1F NOT AND DUP2 ADD SWAP1 PUSH1 0x1 PUSH1 0x1 PUSH1 0x40 SHL SUB DUP3 GT SWAP1 DUP3 LT OR PUSH3 0x6BE JUMPI PUSH1 0x40 MSTORE JUMP JUMPDEST SWAP2 SWAP1 DUP1 PUSH1 0x1F DUP5 ADD SLT ISZERO PUSH3 0xA29 JUMPI DUP3 MLOAD SWAP1 PUSH1 0x1 PUSH1 0x1 PUSH1 0x40 SHL SUB DUP3 GT PUSH3 0x6BE JUMPI PUSH1 0x40 MLOAD SWAP2 PUSH1 0x20 SWAP2 PUSH3 0xDA7 PUSH1 0x1F DUP4 ADD PUSH1 0x1F NOT AND DUP5 ADD DUP6 PUSH3 0xD47 JUMP JUMPDEST DUP2 DUP5 MSTORE DUP3 DUP3 DUP8 ADD ADD GT PUSH3 0xA29 JUMPI PUSH1 0x0 JUMPDEST DUP2 DUP2 LT PUSH3 0xDCE JUMPI POP DUP3 PUSH1 0x0 SWAP4 SWAP5 SWAP6 POP ADD ADD MSTORE SWAP1 JUMP JUMPDEST DUP6 DUP2 ADD DUP4 ADD MLOAD DUP5 DUP3 ADD DUP5 ADD MSTORE DUP3 ADD PUSH3 0xDB8 JUMP JUMPDEST MLOAD SWAP1 PUSH1 0x1 PUSH1 0x1 PUSH1 0xA0 SHL SUB DUP3 AND DUP3 SUB PUSH3 0xA29 JUMPI JUMP JUMPDEST SWAP1 DUP2 PUSH1 0x20 SWAP2 SUB SLT PUSH3 0xA29 JUMPI MLOAD PUSH1 0xFF DUP2 AND DUP2 SUB PUSH3 0xA29 JUMPI SWAP1 JUMP JUMPDEST PUSH1 0xFF AND PUSH1 0x4D DUP2 GT PUSH3 0x5B0 JUMPI PUSH1 0xA EXP SWAP1 JUMP JUMPDEST PUSH1 0x4D DUP2 GT PUSH3 0x5B0 JUMPI PUSH1 0xA EXP SWAP1 JUMP JUMPDEST DUP2 ISZERO PUSH3 0xE84 JUMPI PUSH1 0xF SIGNEXTEND PUSH1 0x0 SWAP1 DUP2 DUP2 SLT PUSH3 0xE80 JUMPI PUSH1 0x1 PUSH1 0x1 PUSH1 0x80 SHL SUB DUP4 AND DUP2 MUL PUSH1 0x40 SHR SWAP3 PUSH1 0x80 SHR MUL PUSH1 0x1 PUSH1 0x1 PUSH1 0xC0 SHL SUB DUP2 GT PUSH3 0xE80 JUMPI PUSH1 0x40 SHL SWAP1 DUP3 NOT DUP3 GT PUSH3 0xE7D JUMPI POP ADD SWAP1 JUMP JUMPDEST DUP1 REVERT JUMPDEST POP DUP1 REVERT JUMPDEST POP POP PUSH1 0x0 SWAP1 JUMP INVALID PUSH1 0x40 PUSH1 0x80 DUP2 MSTORE PUSH1 0x4 SWAP1 DUP2 CALLDATASIZE LT ISZERO PUSH2 0x15 JUMPI PUSH1 0x0 DUP1 REVERT JUMPDEST PUSH1 0x0 SWAP2 DUP3 CALLDATALOAD PUSH1 0xE0 SHR SWAP1 DUP2 PUSH4 0x1CB44DFC EQ PUSH2 0x1EFD JUMPI DUP2 PUSH4 0x2279A970 EQ PUSH2 0x1AE2 JUMPI DUP2 PUSH4 0x3B97E856 EQ PUSH2 0x1AA4 JUMPI DUP2 PUSH4 0x3F4BA83A EQ PUSH2 0x1A3A JUMPI DUP2 PUSH4 0x416E517E EQ PUSH2 0x196A JUMPI DUP2 PUSH4 0x46904840 EQ PUSH2 0x1926 JUMPI DUP2 PUSH4 0x474E19F2 EQ PUSH2 0x190A JUMPI DUP2 PUSH4 0x476343EE EQ PUSH2 0x17BC JUMPI DUP2 PUSH4 0x48A5DEC6 EQ PUSH2 0x1798 JUMPI DUP2 PUSH4 0x4A79D50C EQ PUSH2 0x1683 JUMPI DUP2 PUSH4 0x4DF7E3D0 EQ PUSH2 0x1648 JUMPI DUP2 PUSH4 0x510F5116 EQ PUSH2 0x15B5 JUMPI DUP2 PUSH4 0x53249A31 EQ PUSH2 0x14DC JUMPI DUP2 PUSH4 0x5C975ABB EQ PUSH2 0x14B8 JUMPI DUP2 PUSH4 0x69C41A74 EQ PUSH2 0x149A JUMPI DUP2 PUSH4 0x6E77609E EQ PUSH2 0x1473 JUMPI DUP2 PUSH4 0x6ED71EDE EQ PUSH2 0x1438 JUMPI DUP2 PUSH4 0x715018A6 EQ PUSH2 0x13DE JUMPI DUP2 PUSH4 0x7DC0D1D0 EQ PUSH2 0x13B5 JUMPI DUP2 PUSH4 0x7DC8F086 EQ PUSH2 0x1396 JUMPI DUP2 PUSH4 0x7FD6F15C EQ PUSH2 0x135B JUMPI DUP2 PUSH4 0x8456CB59 EQ PUSH2 0x1300 JUMPI DUP2 PUSH4 0x89FF7069 EQ PUSH2 0x11D8 JUMPI DUP2 PUSH4 0x8DA5CB5B EQ PUSH2 0x11B0 JUMPI DUP2 PUSH4 0x8F512BF4 EQ PUSH2 0x1191 JUMPI DUP2 PUSH4 0x8FBB4A82 EQ PUSH2 0x56E JUMPI DUP2 PUSH4 0x9003ADFE EQ PUSH2 0x1172 JUMPI DUP2 PUSH4 0x90514320 EQ PUSH2 0x1153 JUMPI DUP2 PUSH4 0x92B2849B EQ PUSH2 0x1137 JUMPI DUP2 PUSH4 0x96211A97 EQ PUSH2 0x10B3 JUMPI DUP2 PUSH4 0x9AAFF766 EQ PUSH2 0x1056 JUMPI DUP2 PUSH4 0x9B34AE03 EQ PUSH2 0x1037 JUMPI DUP2 PUSH4 0x9E6C2959 EQ PUSH2 0xC65 JUMPI DUP2 PUSH4 0xA2D07D24 EQ PUSH2 0x101B JUMPI DUP2 PUSH4 0xB03238F7 EQ PUSH2 0xFE7 JUMPI DUP2 PUSH4 0xBA5B7982 EQ PUSH2 0xFBE JUMPI DUP2 PUSH4 0xBEEBC5DA EQ PUSH2 0xC6A JUMPI DUP2 PUSH4 0xC3883F17 EQ PUSH2 0xC65 JUMPI DUP2 PUSH4 0xC511ED5E EQ PUSH2 0xBDC JUMPI DUP2 PUSH4 0xCA3BD569 EQ PUSH2 0xBA1 JUMPI DUP2 PUSH4 0xD55E725B EQ PUSH2 0xB82 JUMPI DUP2 PUSH4 0xDDD9D045 EQ PUSH2 0xA42 JUMPI DUP2 PUSH4 0xE7572230 EQ PUSH2 0x92E JUMPI DUP2 PUSH4 0xE8467AF6 EQ PUSH2 0x8F3 JUMPI DUP2 PUSH4 0xE88499A9 EQ PUSH2 0x573 JUMPI DUP2 PUSH4 0xED0C986F EQ PUSH2 0x56E JUMPI DUP2 PUSH4 0xEED2A147 EQ PUSH2 0x45D JUMPI DUP2 PUSH4 0xEF86CE8E EQ PUSH2 0x324 JUMPI DUP2 PUSH4 0xF2FDE38B EQ PUSH2 0x28F JUMPI POP PUSH4 0xFC0C546A EQ PUSH2 0x249 JUMPI PUSH1 0x0 DUP1 REVERT JUMPDEST CALLVALUE PUSH2 0x28B JUMPI DUP2 PUSH1 0x3 NOT CALLDATASIZE ADD SLT PUSH2 0x28B JUMPI MLOAD PUSH32 0x0 PUSH1 0x1 PUSH1 0x1 PUSH1 0xA0 SHL SUB AND DUP2 MSTORE PUSH1 0x20 SWAP1 RETURN JUMPDEST POP DUP1 REVERT JUMPDEST SWAP1 POP CALLVALUE PUSH2 0x320 JUMPI PUSH1 0x20 CALLDATASIZE PUSH1 0x3 NOT ADD SLT PUSH2 0x320 JUMPI PUSH2 0x2AA PUSH2 0x1F89 JUMP JUMPDEST SWAP1 PUSH2 0x2B3 PUSH2 0x20CA JUMP JUMPDEST PUSH1 0x1 PUSH1 0x1 PUSH1 0xA0 SHL SUB SWAP2 DUP3 AND SWAP3 DUP4 ISZERO PUSH2 0x30A JUMPI POP POP PUSH1 0x0 SLOAD DUP3 PUSH12 0xFFFFFFFFFFFFFFFFFFFFFFFF PUSH1 0xA0 SHL DUP3 AND OR PUSH1 0x0 SSTORE AND PUSH32 0x8BE0079C531659141344CD1FD0A4F28419497F9722A3DAAFE3B4186F6B6457E0 PUSH1 0x0 DUP1 LOG3 DUP1 RETURN JUMPDEST MLOAD PUSH4 0x1E4FBDF7 PUSH1 0xE0 SHL DUP2 MSTORE SWAP1 DUP2 ADD DUP5 SWAP1 MSTORE PUSH1 0x24 SWAP1 REVERT JUMPDEST DUP3 DUP1 REVERT JUMPDEST SWAP2 SWAP1 POP CALLVALUE PUSH2 0x320 JUMPI DUP3 PUSH1 0x3 NOT CALLDATASIZE ADD SLT PUSH2 0x320 JUMPI PUSH2 0x33F PUSH2 0x20CA JUMP JUMPDEST PUSH2 0x350 PUSH1 0xFF PUSH1 0x5 SLOAD PUSH1 0x8 SHR AND PUSH2 0x238D JUMP JUMPDEST PUSH1 0x9 DUP1 SLOAD SWAP1 DUP5 SWAP1 SSTORE DUP2 MLOAD PUSH4 0xA9059CBB PUSH1 0xE0 SHL DUP2 MSTORE PUSH1 0x1 PUSH1 0x1 PUSH1 0xA0 SHL SUB PUSH32 0x0 AND DUP5 DUP3 ADD SWAP1 DUP2 MSTORE PUSH1 0x20 DUP2 DUP2 ADD SWAP4 SWAP1 SWAP4 MSTORE SWAP1 SWAP2 SWAP1 DUP3 SWAP1 DUP2 SWAP1 PUSH1 0x40 ADD SUB DUP2 DUP8 PUSH32 0x0 PUSH1 0x1 PUSH1 0x1 PUSH1 0xA0 SHL SUB AND GAS CALL SWAP1 DUP2 ISZERO PUSH2 0x453 JUMPI DUP5 SWAP2 PUSH2 0x425 JUMPI JUMPDEST POP ISZERO PUSH2 0x3EE JUMPI DUP3 DUP1 RETURN JUMPDEST SWAP1 PUSH1 0x20 PUSH1 0x64 SWAP3 MLOAD SWAP2 PUSH3 0x461BCD PUSH1 0xE5 SHL DUP4 MSTORE DUP3 ADD MSTORE PUSH1 0x11 PUSH1 0x24 DUP3 ADD MSTORE PUSH17 0x15DA5D1A191C985DD85B0819985A5B1959 PUSH1 0x7A SHL PUSH1 0x44 DUP3 ADD MSTORE REVERT JUMPDEST PUSH2 0x446 SWAP2 POP PUSH1 0x20 RETURNDATASIZE DUP2 GT PUSH2 0x44C JUMPI JUMPDEST PUSH2 0x43E DUP2 DUP4 PUSH2 0x1FDF JUMP JUMPDEST DUP2 ADD SWAP1 PUSH2 0x2222 JUMP JUMPDEST CODESIZE PUSH2 0x3E4 JUMP JUMPDEST POP RETURNDATASIZE PUSH2 0x434 JUMP JUMPDEST DUP3 MLOAD RETURNDATASIZE DUP7 DUP3 RETURNDATACOPY RETURNDATASIZE SWAP1 REVERT JUMPDEST DUP3 DUP5 CALLVALUE PUSH2 0x56B JUMPI PUSH1 0x20 SWAP1 DUP2 PUSH1 0x3 NOT CALLDATASIZE ADD SLT PUSH2 0x56B JUMPI DUP4 CALLDATALOAD SWAP1 PUSH1 0x3 SLOAD DUP3 LT ISZERO PUSH2 0x56B JUMPI POP PUSH2 0x489 SWAP1 PUSH2 0x207A JUMP JUMPDEST POP SWAP3 DUP3 MLOAD SWAP4 PUSH1 0x0 SWAP2 DUP2 SLOAD SWAP3 PUSH1 0x1 SWAP4 DUP1 DUP6 SHR SWAP3 DUP6 DUP3 AND SWAP1 DUP2 ISZERO PUSH2 0x561 JUMPI JUMPDEST DUP8 DUP6 LT DUP3 EQ PUSH2 0x54E JUMPI POP DUP4 DUP10 MSTORE DUP9 SWAP3 SWAP2 DUP8 SWAP1 DUP3 ISZERO PUSH2 0x531 JUMPI POP POP PUSH1 0x1 EQ PUSH2 0x4F1 JUMPI JUMPDEST PUSH2 0x4D4 SWAP3 POP SUB DUP7 PUSH2 0x1FDF JUMP JUMPDEST ADD SLOAD PUSH2 0x4E9 DUP4 MLOAD SWAP5 DUP5 DUP7 SWAP6 DUP7 MSTORE DUP6 ADD SWAP1 PUSH2 0x2001 JUMP JUMPDEST SWAP2 DUP4 ADD MSTORE SUB SWAP1 RETURN JUMPDEST POP POP DUP2 PUSH1 0x0 MSTORE DUP6 DUP5 DUP1 PUSH1 0x0 KECCAK256 DUP6 PUSH1 0x0 SWAP2 JUMPDEST DUP6 DUP4 LT PUSH2 0x518 JUMPI POP POP PUSH2 0x4D4 SWAP4 POP DUP3 ADD ADD PUSH2 0x4C8 JUMP JUMPDEST DUP1 SWAP2 SWAP3 SWAP5 POP SLOAD DUP4 DUP6 DUP13 ADD ADD MSTORE ADD SWAP2 ADD DUP6 SWAP1 DUP6 DUP10 SWAP4 PUSH2 0x502 JUMP JUMPDEST PUSH1 0xFF NOT AND DUP5 DUP3 ADD MSTORE PUSH2 0x4D4 SWAP5 ISZERO ISZERO PUSH1 0x5 SHL DUP5 ADD ADD SWAP2 POP PUSH2 0x4C8 SWAP1 POP JUMP JUMPDEST PUSH4 0x4E487B71 PUSH1 0xE0 SHL DUP5 MSTORE PUSH1 0x22 SWAP1 MSTORE PUSH1 0x24 DUP4 REVERT JUMPDEST SWAP4 PUSH1 0x7F AND SWAP4 PUSH2 0x4A6 JUMP JUMPDEST DUP1 REVERT JUMPDEST PUSH2 0x2041 JUMP JUMPDEST SWAP2 SWAP1 POP CALLVALUE PUSH2 0x320 JUMPI DUP3 PUSH1 0x3 NOT CALLDATASIZE ADD SLT PUSH2 0x320 JUMPI PUSH2 0x58E PUSH2 0x229C JUMP JUMPDEST PUSH2 0x596 PUSH2 0x227E JUMP JUMPDEST PUSH2 0x5A7 PUSH1 0xFF PUSH1 0x5 SLOAD PUSH1 0x8 SHR AND PUSH2 0x238D JUMP JUMPDEST PUSH1 0x1 DUP1 PUSH1 0xA0 SHL SUB SWAP1 DUP2 PUSH1 0xC SLOAD AND SWAP3 PUSH32 0x0 SWAP3 PUSH1 0x6 SLOAD DUP4 MLOAD SWAP5 PUSH4 0x18896F4D PUSH1 0xE1 SHL DUP7 MSTORE DUP1 DUP5 DUP8 ADD MSTORE DUP2 PUSH1 0x24 DUP8 ADD MSTORE PUSH1 0x20 SWAP6 DUP7 DUP2 PUSH1 0x44 DUP2 DUP12 GAS STATICCALL DUP1 ISZERO PUSH2 0x8BA JUMPI DUP8 SWAP1 DUP11 SWAP1 PUSH2 0x8C4 JUMPI JUMPDEST DUP8 MLOAD PUSH3 0x7EEAC7 PUSH1 0xE1 SHL DUP2 MSTORE CALLER DUP9 DUP3 ADD SWAP1 DUP2 MSTORE PUSH1 0x20 DUP2 ADD SWAP3 SWAP1 SWAP3 MSTORE SWAP3 POP DUP3 SWAP1 DUP2 SWAP1 PUSH1 0x40 ADD JUMPDEST SUB DUP2 DUP12 GAS STATICCALL SWAP1 DUP2 ISZERO PUSH2 0x8BA JUMPI DUP10 SWAP2 PUSH2 0x888 JUMPI JUMPDEST POP DUP1 ISZERO PUSH2 0x84E JUMPI DUP1 PUSH1 0x1 PUSH2 0x656 DUP6 PUSH2 0x207A JUMP JUMPDEST POP ADD SLOAD LT PUSH2 0x813 JUMPI SWAP1 DUP9 SWAP3 SWAP2 PUSH2 0x68C PUSH32 0x0 DUP3 PUSH2 0x21E2 JUMP JUMPDEST SWAP9 PUSH2 0x6A5 DUP11 PUSH1 0x9 SLOAD PUSH2 0x6A0 DUP3 DUP3 LT ISZERO PUSH2 0x22BF JUMP JUMPDEST PUSH2 0x2215 JUMP JUMPDEST PUSH1 0x9 SSTORE DUP1 EXTCODESIZE ISZERO PUSH2 0x80F JUMPI DUP8 MLOAD PUSH4 0x6F3DF851 PUSH1 0xE1 SHL DUP2 MSTORE CALLER DUP9 DUP3 ADD SWAP1 DUP2 MSTORE PUSH1 0x20 DUP2 ADD SWAP5 SWAP1 SWAP5 MSTORE PUSH1 0x40 DUP5 ADD SWAP5 SWAP1 SWAP5 MSTORE PUSH1 0x60 DUP4 ADD SWAP2 SWAP1 SWAP2 MSTORE DUP4 SWAP2 DUP4 SWAP2 SWAP1 DUP3 SWAP1 DUP5 SWAP1 DUP3 SWAP1 PUSH1 0x80 ADD SUB SWAP3 GAS CALL DUP1 ISZERO PUSH2 0x805 JUMPI PUSH2 0x7ED JUMPI JUMPDEST POP POP DUP3 MLOAD PUSH4 0xA9059CBB PUSH1 0xE0 SHL DUP2 MSTORE CALLER DUP4 DUP3 ADD SWAP1 DUP2 MSTORE PUSH1 0x20 DUP2 ADD DUP8 SWAP1 MSTORE SWAP1 SWAP2 DUP6 SWAP2 DUP4 SWAP2 SWAP1 DUP3 SWAP1 DUP11 SWAP1 DUP3 SWAP1 PUSH1 0x40 ADD SUB SWAP3 PUSH32 0x0 AND GAS CALL SWAP1 DUP2 ISZERO PUSH2 0x7E3 JUMPI DUP7 SWAP2 PUSH2 0x7C6 JUMPI JUMPDEST POP ISZERO PUSH2 0x78F JUMPI POP SWAP1 PUSH32 0xEC68461F5D4CC45C89E914CB8826A966C73DD35E5F97815ECE0A01FFA4A025A6 SWAP2 MLOAD SWAP3 DUP4 MSTORE CALLER SWAP3 LOG2 PUSH1 0x1 DUP1 SSTORE DUP1 RETURN JUMPDEST DUP3 PUSH1 0x64 SWAP3 MLOAD SWAP2 PUSH3 0x461BCD PUSH1 0xE5 SHL DUP4 MSTORE DUP3 ADD MSTORE PUSH1 0x13 PUSH1 0x24 DUP3 ADD MSTORE PUSH19 0x151BDAD95B881C185E5BDD5D0819985A5B1959 PUSH1 0x6A SHL PUSH1 0x44 DUP3 ADD MSTORE REVERT JUMPDEST PUSH2 0x7DD SWAP2 POP DUP5 RETURNDATASIZE DUP7 GT PUSH2 0x44C JUMPI PUSH2 0x43E DUP2 DUP4 PUSH2 0x1FDF JUMP JUMPDEST CODESIZE PUSH2 0x757 JUMP JUMPDEST DUP4 MLOAD RETURNDATASIZE DUP9 DUP3 RETURNDATACOPY RETURNDATASIZE SWAP1 REVERT JUMPDEST PUSH2 0x7F6 SWAP1 PUSH2 0x1FB5 JUMP JUMPDEST PUSH2 0x801 JUMPI DUP6 CODESIZE PUSH2 0x6F7 JUMP JUMPDEST DUP6 DUP1 REVERT JUMPDEST DUP6 MLOAD RETURNDATASIZE DUP5 DUP3 RETURNDATACOPY RETURNDATASIZE SWAP1 REVERT JUMPDEST DUP5 DUP1 REVERT JUMPDEST DUP6 MLOAD PUSH3 0x461BCD PUSH1 0xE5 SHL DUP2 MSTORE DUP1 DUP7 ADD DUP9 SWAP1 MSTORE PUSH1 0x15 PUSH1 0x24 DUP3 ADD MSTORE PUSH21 0x496E76616C696420736861726520616D6F756E7473 PUSH1 0x58 SHL PUSH1 0x44 DUP3 ADD MSTORE PUSH1 0x64 SWAP1 REVERT JUMPDEST DUP6 MLOAD PUSH3 0x461BCD PUSH1 0xE5 SHL DUP2 MSTORE DUP1 DUP7 ADD DUP9 SWAP1 MSTORE PUSH1 0x14 PUSH1 0x24 DUP3 ADD MSTORE PUSH20 0x4E6F2077696E6E696E677320746F20636C61696D PUSH1 0x60 SHL PUSH1 0x44 DUP3 ADD MSTORE PUSH1 0x64 SWAP1 REVERT JUMPDEST SWAP1 POP DUP7 DUP2 DUP2 RETURNDATASIZE DUP4 GT PUSH2 0x8B3 JUMPI JUMPDEST PUSH2 0x89F DUP2 DUP4 PUSH2 0x1FDF JUMP JUMPDEST DUP2 ADD SUB SLT PUSH2 0x8AE JUMPI MLOAD CODESIZE PUSH2 0x643 JUMP JUMPDEST PUSH1 0x0 DUP1 REVERT JUMPDEST POP RETURNDATASIZE PUSH2 0x895 JUMP JUMPDEST DUP7 MLOAD RETURNDATASIZE DUP12 DUP3 RETURNDATACOPY RETURNDATASIZE SWAP1 REVERT JUMPDEST POP DUP2 DUP2 RETURNDATASIZE DUP4 GT PUSH2 0x8EC JUMPI JUMPDEST PUSH2 0x8D9 DUP2 DUP4 PUSH2 0x1FDF JUMP JUMPDEST DUP2 ADD SUB SLT PUSH2 0x8AE JUMPI DUP7 PUSH2 0x630 SWAP2 MLOAD PUSH2 0x60C JUMP JUMPDEST POP RETURNDATASIZE PUSH2 0x8CF JUMP JUMPDEST POP POP CALLVALUE PUSH2 0x28B JUMPI DUP2 PUSH1 0x3 NOT CALLDATASIZE ADD SLT PUSH2 0x28B JUMPI PUSH1 0x20 SWAP1 MLOAD PUSH32 0x0 DUP2 MSTORE RETURN JUMPDEST SWAP1 POP CALLVALUE PUSH2 0x320 JUMPI PUSH1 0x20 CALLDATASIZE PUSH1 0x3 NOT ADD SLT PUSH2 0x320 JUMPI CALLDATALOAD PUSH2 0x959 PUSH1 0x3 SLOAD SWAP2 PUSH2 0x954 DUP4 DUP3 LT PUSH2 0x2135 JUMP JUMPDEST PUSH2 0x207A JUMP JUMPDEST POP PUSH1 0x1 DUP1 SWAP2 ADD SLOAD SWAP1 PUSH2 0x994 PUSH2 0x98F PUSH32 0x0 DUP1 SWAP5 PUSH2 0x2761 JUMP JUMPDEST PUSH2 0x29E2 JUMP JUMPDEST SWAP3 DUP6 SWAP3 DUP7 SWAP3 JUMPDEST DUP3 DUP5 LT PUSH2 0xA0A JUMPI POP POP POP POP PUSH1 0xF SIGNEXTEND SWAP1 DUP2 ISZERO PUSH2 0xA06 JUMPI DUP3 SHL PUSH1 0x17 SIGNEXTEND SDIV SWAP2 PUSH1 0x1 PUSH1 0x1 PUSH1 0x7F SHL SUB NOT DUP4 SLT ISZERO DUP1 PUSH2 0x9F5 JUMPI JUMPDEST ISZERO PUSH2 0x56B JUMPI POP PUSH8 0xFFFFFFFFFFFFFFFF PUSH2 0x9ED PUSH2 0x9E8 PUSH1 0x20 SWAP5 PUSH1 0xF SIGNEXTEND PUSH2 0x26E4 JUMP JUMPDEST PUSH2 0x2680 JUMP JUMPDEST AND SWAP1 MLOAD SWAP1 DUP2 MSTORE RETURN JUMPDEST POP PUSH1 0x1 PUSH1 0x1 PUSH1 0x7F SHL SUB DUP4 SGT ISZERO PUSH2 0x9C8 JUMP JUMPDEST DUP4 DUP1 REVERT JUMPDEST SWAP1 SWAP2 SWAP3 SWAP4 PUSH2 0xA34 PUSH2 0xA3A SWAP2 PUSH2 0xA2E PUSH2 0x98F DUP7 DUP7 PUSH2 0xA26 DUP12 PUSH2 0x207A JUMP JUMPDEST POP ADD SLOAD PUSH2 0x2761 JUMP JUMPDEST SWAP1 PUSH2 0x269B JUMP JUMPDEST SWAP5 PUSH2 0x2505 JUMP JUMPDEST SWAP3 SWAP2 SWAP1 PUSH2 0x99A JUMP JUMPDEST DUP4 DUP4 CALLVALUE PUSH2 0x28B JUMPI DUP1 PUSH1 0x3 NOT CALLDATASIZE ADD SLT PUSH2 0x28B JUMPI PUSH2 0xA5C PUSH2 0x1F89 JUMP JUMPDEST PUSH1 0xC SLOAD DUP3 MLOAD PUSH4 0x18896F4D PUSH1 0xE1 SHL DUP2 MSTORE PUSH32 0x0 DUP7 DUP3 ADD MSTORE PUSH1 0x24 DUP1 CALLDATALOAD SWAP1 DUP3 ADD MSTORE PUSH1 0x20 SWAP6 SWAP1 SWAP2 PUSH1 0x1 PUSH1 0x1 PUSH1 0xA0 SHL SUB AND SWAP1 DUP7 DUP4 PUSH1 0x44 DUP2 DUP6 GAS STATICCALL SWAP3 DUP4 ISZERO PUSH2 0xB78 JUMPI SWAP1 DUP8 SWAP4 SWAP3 SWAP2 DUP8 SWAP4 PUSH2 0xB43 JUMPI JUMPDEST POP DUP6 MLOAD PUSH3 0x7EEAC7 PUSH1 0xE1 SHL DUP2 MSTORE PUSH1 0x1 PUSH1 0x1 PUSH1 0xA0 SHL SUB SWAP1 SWAP6 AND SWAP1 DUP6 ADD SWAP1 DUP2 MSTORE PUSH1 0x20 DUP2 ADD SWAP3 SWAP1 SWAP3 MSTORE DUP4 SWAP2 DUP3 SWAP1 DUP2 SWAP1 PUSH1 0x40 ADD JUMPDEST SUB SWAP2 GAS STATICCALL SWAP3 DUP4 ISZERO PUSH2 0xB38 JUMPI SWAP3 PUSH2 0xB09 JUMPI JUMPDEST POP MLOAD SWAP1 DUP2 MSTORE RETURN JUMPDEST SWAP1 SWAP2 POP DUP3 DUP2 DUP2 RETURNDATASIZE DUP4 GT PUSH2 0xB31 JUMPI JUMPDEST PUSH2 0xB21 DUP2 DUP4 PUSH2 0x1FDF JUMP JUMPDEST DUP2 ADD SUB SLT PUSH2 0x8AE JUMPI MLOAD SWAP1 DUP4 PUSH2 0xB02 JUMP JUMPDEST POP RETURNDATASIZE PUSH2 0xB17 JUMP JUMPDEST DUP3 MLOAD SWAP1 RETURNDATASIZE SWAP1 DUP3 RETURNDATACOPY RETURNDATASIZE SWAP1 REVERT JUMPDEST DUP5 DUP2 SWAP6 SWAP3 SWAP5 POP RETURNDATASIZE DUP4 GT PUSH2 0xB71 JUMPI JUMPDEST PUSH2 0xB5B DUP2 DUP4 PUSH2 0x1FDF JUMP JUMPDEST DUP2 ADD SUB SLT PUSH2 0x8AE JUMPI SWAP2 MLOAD DUP7 SWAP3 SWAP1 SWAP2 PUSH2 0xAF1 PUSH2 0xAC2 JUMP JUMPDEST POP RETURNDATASIZE PUSH2 0xB51 JUMP JUMPDEST DUP6 MLOAD RETURNDATASIZE DUP9 DUP3 RETURNDATACOPY RETURNDATASIZE SWAP1 REVERT JUMPDEST POP POP CALLVALUE PUSH2 0x28B JUMPI DUP2 PUSH1 0x3 NOT CALLDATASIZE ADD SLT PUSH2 0x28B JUMPI PUSH1 0x20 SWAP1 PUSH1 0xA SLOAD SWAP1 MLOAD SWAP1 DUP2 MSTORE RETURN JUMPDEST POP POP CALLVALUE PUSH2 0x28B JUMPI DUP2 PUSH1 0x3 NOT CALLDATASIZE ADD SLT PUSH2 0x28B JUMPI PUSH1 0x20 SWAP1 MLOAD PUSH32 0x0 DUP2 MSTORE RETURN JUMPDEST SWAP2 SWAP1 POP CALLVALUE PUSH2 0x320 JUMPI DUP3 PUSH1 0x3 NOT CALLDATASIZE ADD SLT PUSH2 0x320 JUMPI DUP2 SLOAD TIMESTAMP LT PUSH2 0xC2C JUMPI DUP3 PUSH1 0x1 PUSH1 0xFF NOT PUSH1 0x5 SLOAD AND OR PUSH1 0x5 SSTORE PUSH32 0xB5F6BF058282D5CC003EFC735B9EE453BBD7F9BEF4C6DB6300D095F3EEFAC28 DUP2 DUP1 LOG1 DUP1 RETURN JUMPDEST SWAP1 PUSH1 0x20 PUSH1 0x64 SWAP3 MLOAD SWAP2 PUSH3 0x461BCD PUSH1 0xE5 SHL DUP4 MSTORE DUP3 ADD MSTORE PUSH1 0x13 PUSH1 0x24 DUP3 ADD MSTORE PUSH19 0x13585C9AD95D081B9BDD081BDD995C881E595D PUSH1 0x6A SHL PUSH1 0x44 DUP3 ADD MSTORE REVERT JUMPDEST PUSH2 0x205E JUMP JUMPDEST SWAP2 SWAP1 POP CALLVALUE PUSH2 0x320 JUMPI PUSH2 0xC7B CALLDATASIZE PUSH2 0x1F9F JUMP JUMPDEST PUSH2 0xC86 SWAP4 SWAP2 SWAP4 PUSH2 0x229C JUMP JUMPDEST PUSH2 0xC8E PUSH2 0x227E JUMP JUMPDEST PUSH2 0xC9D PUSH1 0xFF PUSH1 0x5 SLOAD AND ISZERO PUSH2 0x20F6 JUMP JUMPDEST PUSH2 0xCAA PUSH1 0x3 SLOAD DUP6 LT PUSH2 0x2135 JUMP JUMPDEST DUP1 ISZERO PUSH2 0xF7B JUMPI PUSH2 0x2710 DUP2 LT ISZERO PUSH2 0xF38 JUMPI PUSH2 0xD27 PUSH2 0xD14 PUSH2 0x9E8 PUSH2 0xD00 PUSH2 0xCD6 PUSH2 0xCD1 PUSH2 0x2514 JUMP JUMPDEST PUSH2 0x257A JUMP JUMPDEST PUSH1 0x1 PUSH2 0xCE1 DUP11 PUSH2 0x207A JUMP JUMPDEST POP ADD PUSH2 0xCEE DUP8 DUP3 SLOAD PUSH2 0x2173 JUMP JUMPDEST SWAP1 SSTORE PUSH2 0xCFB PUSH2 0xCD1 PUSH2 0x2514 JUMP JUMPDEST PUSH2 0x26C0 JUMP JUMPDEST PUSH2 0xD0F DUP10 DUP3 PUSH1 0xF SIGNEXTEND SLT ISZERO PUSH2 0x2196 JUMP JUMPDEST PUSH2 0x26E4 JUMP JUMPDEST PUSH8 0xFFFFFFFFFFFFFFFF PUSH1 0xD SLOAD SWAP2 AND PUSH2 0x21E2 JUMP JUMPDEST SWAP3 PUSH1 0x64 PUSH2 0xD54 PUSH32 0x0 DUP7 PUSH2 0x21E2 JUMP JUMPDEST DIV SWAP4 PUSH1 0x32 DUP6 MUL DUP6 DUP2 DIV PUSH1 0x32 EQ DUP7 ISZERO OR ISZERO PUSH2 0xF25 JUMPI PUSH1 0x64 SWAP1 DIV SWAP1 DUP8 PUSH2 0xD82 PUSH2 0xD7B DUP5 DUP10 PUSH2 0x2215 JUMP JUMPDEST SWAP8 DUP4 PUSH2 0x2173 JUMP JUMPDEST DUP5 MLOAD PUSH4 0x23B872DD PUSH1 0xE0 SHL DUP2 MSTORE CALLER DUP2 DUP10 ADD SWAP1 DUP2 MSTORE ADDRESS PUSH1 0x20 DUP3 ADD MSTORE PUSH1 0x40 DUP2 ADD DUP4 SWAP1 MSTORE SWAP2 SWAP8 SWAP2 DUP2 SWAP1 PUSH1 0x60 ADD PUSH1 0x1 PUSH1 0x1 PUSH1 0xA0 SHL SUB SWAP3 SWAP2 PUSH1 0x20 SWAP2 DUP4 SWAP2 SWAP1 SUB DUP2 DUP8 PUSH32 0x0 DUP8 AND GAS CALL SWAP1 DUP2 ISZERO PUSH2 0xF1B JUMPI SWAP1 PUSH2 0xDFB SWAP2 DUP6 SWAP2 PUSH2 0xEFD JUMPI JUMPDEST POP PUSH2 0x223A JUMP JUMPDEST PUSH1 0xC SLOAD AND DUP1 EXTCODESIZE ISZERO PUSH2 0x320 JUMPI DUP6 MLOAD PUSH4 0x2991FA3B PUSH1 0xE2 SHL DUP2 MSTORE CALLER SWAP3 DUP2 ADD SWAP3 DUP4 MSTORE PUSH32 0x0 PUSH1 0x20 DUP5 ADD MSTORE PUSH1 0x40 DUP4 ADD DUP12 SWAP1 MSTORE PUSH1 0x60 DUP4 ADD DUP9 SWAP1 MSTORE SWAP2 DUP4 SWAP2 DUP4 SWAP2 DUP3 SWAP1 DUP5 SWAP1 DUP3 SWAP1 PUSH1 0x80 ADD SUB SWAP3 GAS CALL DUP1 ISZERO PUSH2 0x805 JUMPI PUSH2 0xEDF JUMPI JUMPDEST POP POP PUSH32 0xEA2CC1A2A0FCFECEF8B5FF9BE41F8C0CA3770265A060B00DE53118F88C91DFA SWAP6 PUSH2 0xEAA PUSH2 0xEA2 PUSH2 0xED5 SWAP6 SWAP5 PUSH2 0xEB5 SWAP5 PUSH2 0x2173 JUMP JUMPDEST PUSH1 0x9 SLOAD PUSH2 0x2173 JUMP JUMPDEST PUSH1 0x9 SSTORE PUSH1 0xB SLOAD PUSH2 0x2173 JUMP JUMPDEST PUSH1 0xB SSTORE MLOAD SWAP3 DUP4 SWAP3 CALLER SWAP7 DUP5 PUSH1 0x40 SWAP2 SWAP5 SWAP4 SWAP3 PUSH1 0x60 DUP3 ADD SWAP6 DUP3 MSTORE PUSH1 0x20 DUP3 ADD MSTORE ADD MSTORE JUMP JUMPDEST SUB SWAP1 LOG2 PUSH1 0x1 DUP1 SSTORE DUP1 RETURN JUMPDEST PUSH2 0xEEB SWAP1 SWAP5 SWAP4 SWAP5 PUSH2 0x1FB5 JUMP JUMPDEST PUSH2 0xEF9 JUMPI DUP8 CODESIZE SWAP4 SWAP3 SWAP4 PUSH2 0xE6A JUMP JUMPDEST DUP8 DUP1 REVERT JUMPDEST PUSH2 0xF15 SWAP2 POP PUSH1 0x20 RETURNDATASIZE DUP2 GT PUSH2 0x44C JUMPI PUSH2 0x43E DUP2 DUP4 PUSH2 0x1FDF JUMP JUMPDEST CODESIZE PUSH2 0xDF5 JUMP JUMPDEST DUP8 MLOAD RETURNDATASIZE DUP7 DUP3 RETURNDATACOPY RETURNDATASIZE SWAP1 REVERT JUMPDEST PUSH4 0x4E487B71 PUSH1 0xE0 SHL DUP9 MSTORE PUSH1 0x11 DUP6 MSTORE PUSH1 0x24 DUP9 REVERT JUMPDEST POP PUSH1 0x20 PUSH1 0x64 SWAP3 MLOAD SWAP2 PUSH3 0x461BCD PUSH1 0xE5 SHL DUP4 MSTORE DUP3 ADD MSTORE PUSH1 0x1A PUSH1 0x24 DUP3 ADD MSTORE PUSH32 0x5368617265207472616465206C696D6974206578636565646564000000000000 PUSH1 0x44 DUP3 ADD MSTORE REVERT JUMPDEST POP PUSH1 0x20 PUSH1 0x64 SWAP3 MLOAD SWAP2 PUSH3 0x461BCD PUSH1 0xE5 SHL DUP4 MSTORE DUP3 ADD MSTORE PUSH1 0x1B PUSH1 0x24 DUP3 ADD MSTORE PUSH32 0x4D75737420627579206174206C65617374206F6E652073686172650000000000 PUSH1 0x44 DUP3 ADD MSTORE REVERT JUMPDEST POP POP CALLVALUE PUSH2 0x28B JUMPI DUP2 PUSH1 0x3 NOT CALLDATASIZE ADD SLT PUSH2 0x28B JUMPI PUSH1 0xC SLOAD SWAP1 MLOAD PUSH1 0x1 PUSH1 0x1 PUSH1 0xA0 SHL SUB SWAP1 SWAP2 AND DUP2 MSTORE PUSH1 0x20 SWAP1 RETURN JUMPDEST DUP3 DUP5 CALLVALUE PUSH2 0x56B JUMPI PUSH1 0x20 CALLDATASIZE PUSH1 0x3 NOT ADD SLT PUSH2 0x56B JUMPI POP PUSH1 0x1 PUSH2 0x1011 PUSH1 0x20 SWAP4 CALLDATALOAD PUSH2 0x954 PUSH1 0x3 SLOAD DUP3 LT PUSH2 0x23D2 JUMP JUMPDEST POP ADD SLOAD SWAP1 MLOAD SWAP1 DUP2 MSTORE RETURN JUMPDEST POP POP CALLVALUE PUSH2 0x28B JUMPI DUP2 PUSH1 0x3 NOT CALLDATASIZE ADD SLT PUSH2 0x28B JUMPI PUSH1 0x20 SWAP1 MLOAD PUSH1 0x32 DUP2 MSTORE RETURN JUMPDEST POP POP CALLVALUE PUSH2 0x28B JUMPI DUP2 PUSH1 0x3 NOT CALLDATASIZE ADD SLT PUSH2 0x28B JUMPI PUSH1 0x20 SWAP1 PUSH1 0x6 SLOAD SWAP1 MLOAD SWAP1 DUP2 MSTORE RETURN JUMPDEST SWAP1 POP DUP3 CALLVALUE PUSH2 0x56B JUMPI POP PUSH2 0x1068 CALLDATASIZE PUSH2 0x1F9F JUMP JUMPDEST DUP4 MLOAD SWAP1 PUSH1 0x20 DUP3 ADD SWAP3 DUP4 MSTORE DUP5 DUP3 ADD MSTORE DUP4 DUP2 MSTORE PUSH1 0x60 DUP2 ADD SWAP3 DUP2 DUP5 LT PUSH8 0xFFFFFFFFFFFFFFFF DUP6 GT OR PUSH2 0x109E JUMPI POP DUP3 PUSH1 0x20 SWAP5 MSTORE MLOAD SWAP1 KECCAK256 DUP2 MSTORE RETURN JUMPDEST PUSH1 0x41 SWAP1 PUSH4 0x4E487B71 PUSH1 0xE0 SHL PUSH1 0x0 MSTORE MSTORE PUSH1 0x24 PUSH1 0x0 REVERT JUMPDEST SWAP1 POP DUP3 CALLVALUE PUSH2 0x56B JUMPI POP PUSH2 0x10C5 CALLDATASIZE PUSH2 0x1F9F JUMP JUMPDEST SWAP1 SWAP2 PUSH1 0x1 DUP3 GT ISZERO PUSH2 0x10F4 JUMPI PUSH1 0x20 DUP5 PUSH2 0x10ED DUP6 PUSH2 0x10E8 PUSH2 0x10E3 DUP8 PUSH2 0x2668 JUMP JUMPDEST PUSH2 0x28D1 JUMP JUMPDEST PUSH2 0x2714 JUMP JUMPDEST SWAP1 MLOAD SWAP1 DUP2 MSTORE RETURN JUMPDEST PUSH1 0x64 SWAP1 PUSH1 0x20 DUP6 MLOAD SWAP2 PUSH3 0x461BCD PUSH1 0xE5 SHL DUP4 MSTORE DUP3 ADD MSTORE PUSH1 0x1E PUSH1 0x24 DUP3 ADD MSTORE PUSH32 0x4174206C656173742074776F206F7574636F6D65732072657175697265640000 PUSH1 0x44 DUP3 ADD MSTORE REVERT JUMPDEST POP POP CALLVALUE PUSH2 0x28B JUMPI DUP2 PUSH1 0x3 NOT CALLDATASIZE ADD SLT PUSH2 0x28B JUMPI PUSH1 0x20 SWAP1 MLOAD PUSH1 0x5 DUP2 MSTORE RETURN JUMPDEST POP POP CALLVALUE PUSH2 0x28B JUMPI DUP2 PUSH1 0x3 NOT CALLDATASIZE ADD SLT PUSH2 0x28B JUMPI PUSH1 0x20 SWAP1 PUSH1 0x9 SLOAD SWAP1 MLOAD SWAP1 DUP2 MSTORE RETURN JUMPDEST POP POP CALLVALUE PUSH2 0x28B JUMPI DUP2 PUSH1 0x3 NOT CALLDATASIZE ADD SLT PUSH2 0x28B JUMPI PUSH1 0x20 SWAP1 PUSH1 0xB SLOAD SWAP1 MLOAD SWAP1 DUP2 MSTORE RETURN JUMPDEST POP POP CALLVALUE PUSH2 0x28B JUMPI DUP2 PUSH1 0x3 NOT CALLDATASIZE ADD SLT PUSH2 0x28B JUMPI PUSH1 0x20 SWAP1 PUSH1 0xD SLOAD SWAP1 MLOAD SWAP1 DUP2 MSTORE RETURN JUMPDEST POP POP CALLVALUE PUSH2 0x28B JUMPI DUP2 PUSH1 0x3 NOT CALLDATASIZE ADD SLT PUSH2 0x28B JUMPI SWAP1 SLOAD SWAP1 MLOAD PUSH1 0x1 PUSH1 0x1 PUSH1 0xA0 SHL SUB SWAP1 SWAP2 AND DUP2 MSTORE PUSH1 0x20 SWAP1 RETURN JUMPDEST SWAP2 SWAP1 POP CALLVALUE PUSH2 0x320 JUMPI PUSH1 0x20 SWAP1 DUP2 PUSH1 0x3 NOT CALLDATASIZE ADD SLT PUSH2 0xA06 JUMPI DUP3 CALLDATALOAD SWAP3 PUSH2 0x11F9 PUSH2 0x20CA JUMP JUMPDEST DUP2 MLOAD PUSH4 0x23B872DD PUSH1 0xE0 SHL DUP2 MSTORE CALLER DUP3 DUP3 ADD SWAP1 DUP2 MSTORE ADDRESS PUSH1 0x20 DUP3 ADD MSTORE PUSH1 0x40 DUP2 ADD DUP7 SWAP1 MSTORE DUP5 SWAP1 DUP3 SWAP1 DUP2 SWAP1 PUSH1 0x60 ADD SUB DUP2 DUP10 PUSH32 0x0 PUSH1 0x1 PUSH1 0x1 PUSH1 0xA0 SHL SUB AND GAS CALL SWAP1 DUP2 ISZERO PUSH2 0x7E3 JUMPI DUP7 SWAP2 PUSH2 0x12E3 JUMPI JUMPDEST POP ISZERO PUSH2 0x12A2 JUMPI POP SWAP1 PUSH32 0x543BA50A5EEC5E6178218E364B1D0F396157B3C8FA278522C2CB7FD99407D474 SWAP2 PUSH2 0x1295 DUP5 PUSH1 0x9 SLOAD PUSH2 0x2173 JUMP JUMPDEST PUSH1 0x9 SSTORE MLOAD SWAP3 DUP4 MSTORE CALLER SWAP3 LOG2 DUP1 RETURN JUMPDEST DUP3 PUSH1 0x64 SWAP3 MLOAD SWAP2 PUSH3 0x461BCD PUSH1 0xE5 SHL DUP4 MSTORE DUP3 ADD MSTORE PUSH1 0x1C PUSH1 0x24 DUP3 ADD MSTORE PUSH32 0x496E697469616C2066756E64207472616E73666572206661696C656400000000 PUSH1 0x44 DUP3 ADD MSTORE REVERT JUMPDEST PUSH2 0x12FA SWAP2 POP DUP5 RETURNDATASIZE DUP7 GT PUSH2 0x44C JUMPI PUSH2 0x43E DUP2 DUP4 PUSH2 0x1FDF JUMP JUMPDEST CODESIZE PUSH2 0x125F JUMP JUMPDEST POP POP CALLVALUE PUSH2 0x28B JUMPI DUP2 PUSH1 0x3 NOT CALLDATASIZE ADD SLT PUSH2 0x28B JUMPI PUSH1 0x20 PUSH32 0x62E78CEA01BEE320CD4E420270B5EA74000D11B0C9F74754EBDBFC544B05A258 SWAP2 PUSH2 0x133E PUSH2 0x20CA JUMP JUMPDEST PUSH2 0x1346 PUSH2 0x227E JUMP JUMPDEST PUSH1 0x1 PUSH1 0xFF NOT PUSH1 0x2 SLOAD AND OR PUSH1 0x2 SSTORE MLOAD CALLER DUP2 MSTORE LOG1 DUP1 RETURN JUMPDEST POP POP CALLVALUE PUSH2 0x28B JUMPI DUP2 PUSH1 0x3 NOT CALLDATASIZE ADD SLT PUSH2 0x28B JUMPI PUSH1 0x20 SWAP1 MLOAD PUSH32 0x0 DUP2 MSTORE RETURN JUMPDEST POP POP CALLVALUE PUSH2 0x28B JUMPI DUP2 PUSH1 0x3 NOT CALLDATASIZE ADD SLT PUSH2 0x28B JUMPI PUSH1 0x20 SWAP1 PUSH1 0x3 SLOAD SWAP1 MLOAD SWAP1 DUP2 MSTORE RETURN JUMPDEST POP POP CALLVALUE PUSH2 0x28B JUMPI DUP2 PUSH1 0x3 NOT CALLDATASIZE ADD SLT PUSH2 0x28B JUMPI PUSH1 0x8 SLOAD SWAP1 MLOAD PUSH1 0x1 PUSH1 0x1 PUSH1 0xA0 SHL SUB SWAP1 SWAP2 AND DUP2 MSTORE PUSH1 0x20 SWAP1 RETURN JUMPDEST DUP4 CALLVALUE PUSH2 0x56B JUMPI DUP1 PUSH1 0x3 NOT CALLDATASIZE ADD SLT PUSH2 0x56B JUMPI PUSH2 0x13F7 PUSH2 0x20CA JUMP JUMPDEST PUSH1 0x0 DUP1 SLOAD PUSH1 0x1 PUSH1 0x1 PUSH1 0xA0 SHL SUB NOT DUP2 AND DUP3 SSTORE PUSH1 0x1 PUSH1 0x1 PUSH1 0xA0 SHL SUB AND PUSH32 0x8BE0079C531659141344CD1FD0A4F28419497F9722A3DAAFE3B4186F6B6457E0 DUP3 DUP1 LOG3 DUP1 RETURN JUMPDEST POP POP CALLVALUE PUSH2 0x28B JUMPI DUP2 PUSH1 0x3 NOT CALLDATASIZE ADD SLT PUSH2 0x28B JUMPI PUSH1 0x20 SWAP1 MLOAD PUSH32 0x0 DUP2 MSTORE RETURN JUMPDEST POP POP CALLVALUE PUSH2 0x28B JUMPI DUP2 PUSH1 0x3 NOT CALLDATASIZE ADD SLT PUSH2 0x28B JUMPI PUSH1 0x20 SWAP1 PUSH1 0xFF PUSH1 0x5 SLOAD PUSH1 0x8 SHR AND SWAP1 MLOAD SWAP1 ISZERO ISZERO DUP2 MSTORE RETURN JUMPDEST SWAP1 POP CALLVALUE PUSH2 0x320 JUMPI DUP3 PUSH1 0x3 NOT CALLDATASIZE ADD SLT PUSH2 0x320 JUMPI PUSH1 0x20 SWAP3 POP SLOAD SWAP1 MLOAD SWAP1 DUP2 MSTORE RETURN JUMPDEST POP POP CALLVALUE PUSH2 0x28B JUMPI DUP2 PUSH1 0x3 NOT CALLDATASIZE ADD SLT PUSH2 0x28B JUMPI PUSH1 0x20 SWAP1 PUSH1 0xFF PUSH1 0x2 SLOAD AND SWAP1 MLOAD SWAP1 ISZERO ISZERO DUP2 MSTORE RETURN JUMPDEST POP POP CALLVALUE PUSH2 0x28B JUMPI PUSH1 0x20 SWAP1 PUSH2 0x10ED PUSH2 0x1582 PUSH2 0xD14 PUSH2 0x9E8 PUSH2 0xD0F PUSH2 0x157C PUSH2 0x1501 CALLDATASIZE PUSH2 0x1F9F JUMP JUMPDEST SWAP2 SWAP1 PUSH2 0x1510 PUSH1 0x3 SLOAD DUP3 LT PUSH2 0x23D2 JUMP JUMPDEST PUSH2 0x151B DUP4 ISZERO ISZERO PUSH2 0x2416 JUMP JUMPDEST PUSH2 0x1546 PUSH32 0x0 ISZERO ISZERO PUSH2 0x2475 JUMP JUMPDEST PUSH2 0x154E PUSH2 0x2514 JUMP JUMPDEST SWAP1 PUSH2 0x1576 PUSH2 0x156F PUSH2 0x155E DUP5 PUSH2 0x257A JUMP JUMPDEST SWAP6 PUSH2 0x1569 DUP5 DUP7 PUSH2 0x24D9 JUMP JUMPDEST MLOAD PUSH2 0x2215 JUMP JUMPDEST SWAP2 DUP4 PUSH2 0x24D9 JUMP JUMPDEST MSTORE PUSH2 0x257A JUMP JUMPDEST SWAP1 PUSH2 0x26C0 JUMP JUMPDEST PUSH1 0x64 PUSH2 0x15AE PUSH32 0x0 DUP4 PUSH2 0x21E2 JUMP JUMPDEST DIV SWAP1 PUSH2 0x2173 JUMP JUMPDEST POP POP CALLVALUE PUSH2 0x28B JUMPI PUSH1 0x20 SWAP1 PUSH2 0x10ED PUSH2 0x1582 PUSH2 0xD14 PUSH2 0x9E8 PUSH2 0xD0F PUSH2 0xCFB PUSH2 0x15DA CALLDATASIZE PUSH2 0x1F9F JUMP JUMPDEST SWAP2 SWAP1 PUSH2 0x15E9 PUSH1 0x3 SLOAD DUP3 LT PUSH2 0x23D2 JUMP JUMPDEST PUSH2 0x15F4 DUP4 ISZERO ISZERO PUSH2 0x2416 JUMP JUMPDEST PUSH2 0x161F PUSH32 0x0 ISZERO ISZERO PUSH2 0x2475 JUMP JUMPDEST PUSH2 0x1627 PUSH2 0x2514 JUMP JUMPDEST SWAP1 PUSH2 0x1576 PUSH2 0x156F PUSH2 0x1637 DUP5 PUSH2 0x257A JUMP JUMPDEST SWAP6 PUSH2 0x1642 DUP5 DUP7 PUSH2 0x24D9 JUMP JUMPDEST MLOAD PUSH2 0x2173 JUMP JUMPDEST POP POP CALLVALUE PUSH2 0x28B JUMPI DUP2 PUSH1 0x3 NOT CALLDATASIZE ADD SLT PUSH2 0x28B JUMPI PUSH1 0x20 SWAP1 MLOAD PUSH32 0x0 DUP2 MSTORE RETURN JUMPDEST DUP3 DUP5 CALLVALUE PUSH2 0x56B JUMPI DUP1 PUSH1 0x3 NOT CALLDATASIZE ADD SLT PUSH2 0x56B JUMPI POP DUP1 MLOAD SWAP1 PUSH1 0x0 SWAP1 PUSH1 0x7 SLOAD SWAP2 PUSH1 0x1 DUP4 DUP2 SHR SWAP1 DUP1 DUP6 AND SWAP5 DUP6 ISZERO PUSH2 0x178E JUMPI JUMPDEST PUSH1 0x20 SWAP6 DUP7 DUP5 LT DUP2 EQ PUSH2 0x177B JUMPI DUP4 DUP9 MSTORE DUP8 SWAP5 SWAP4 SWAP3 SWAP2 DUP8 SWAP1 DUP3 ISZERO PUSH2 0x1759 JUMPI POP POP PUSH1 0x1 EQ PUSH2 0x16FC JUMPI JUMPDEST POP POP PUSH2 0x16F8 SWAP3 SWAP2 PUSH2 0x16E9 SWAP2 SUB DUP6 PUSH2 0x1FDF JUMP JUMPDEST MLOAD SWAP3 DUP3 DUP5 SWAP4 DUP5 MSTORE DUP4 ADD SWAP1 PUSH2 0x2001 JUMP JUMPDEST SUB SWAP1 RETURN JUMPDEST SWAP1 DUP6 SWAP3 POP PUSH1 0x7 PUSH1 0x0 MSTORE PUSH32 0xA66CC928B5EDB82AF9BD49922954155AB7B0942694BEA4CE44661D9A8736C688 SWAP2 PUSH1 0x0 SWAP3 JUMPDEST DUP3 DUP5 LT PUSH2 0x1741 JUMPI POP POP POP DUP3 ADD ADD DUP2 PUSH2 0x16E9 PUSH2 0x16D7 JUMP JUMPDEST DUP1 SLOAD DUP5 DUP11 ADD DUP7 ADD MSTORE DUP9 SWAP6 POP DUP8 SWAP5 SWAP1 SWAP4 ADD SWAP3 DUP2 ADD PUSH2 0x172B JUMP JUMPDEST PUSH1 0xFF NOT AND DUP7 DUP3 ADD MSTORE SWAP3 ISZERO ISZERO PUSH1 0x5 SHL DUP6 ADD SWAP1 SWAP3 ADD SWAP3 POP DUP4 SWAP2 POP PUSH2 0x16E9 SWAP1 POP PUSH2 0x16D7 JUMP JUMPDEST PUSH4 0x4E487B71 PUSH1 0xE0 SHL DUP6 MSTORE PUSH1 0x22 DUP10 MSTORE PUSH1 0x24 DUP6 REVERT JUMPDEST SWAP2 PUSH1 0x7F AND SWAP2 PUSH2 0x16B1 JUMP JUMPDEST POP POP CALLVALUE PUSH2 0x28B JUMPI DUP2 PUSH1 0x3 NOT CALLDATASIZE ADD SLT PUSH2 0x28B JUMPI PUSH1 0x20 SWAP1 PUSH1 0xFF PUSH1 0x5 SLOAD AND SWAP1 MLOAD SWAP1 ISZERO ISZERO DUP2 MSTORE RETURN JUMPDEST SWAP1 POP CALLVALUE PUSH2 0x320 JUMPI DUP3 PUSH1 0x3 NOT CALLDATASIZE ADD SLT PUSH2 0x320 JUMPI PUSH1 0x1 PUSH1 0x1 PUSH1 0xA0 SHL SUB PUSH32 0x0 DUP2 DUP2 AND SWAP4 SWAP2 SWAP3 SWAP1 PUSH2 0x184A SWAP1 PUSH1 0x20 SWAP1 PUSH2 0x1810 CALLER DUP9 EQ PUSH2 0x230B JUMP JUMPDEST PUSH1 0xB SLOAD SWAP6 DUP7 SWAP2 DUP10 PUSH1 0xB SSTORE DUP10 DUP8 MLOAD DUP1 SWAP7 DUP2 SWAP6 DUP3 SWAP5 PUSH4 0xA9059CBB PUSH1 0xE0 SHL DUP5 MSTORE DUP11 DUP5 ADD PUSH1 0x20 SWAP1 SWAP4 SWAP3 SWAP2 SWAP4 PUSH1 0x40 DUP2 ADD SWAP5 PUSH1 0x1 DUP1 PUSH1 0xA0 SHL SUB AND DUP2 MSTORE ADD MSTORE JUMP JUMPDEST SUB SWAP3 PUSH32 0x0 AND GAS CALL SWAP1 DUP2 ISZERO PUSH2 0x7E3 JUMPI DUP7 SWAP2 PUSH2 0x18EC JUMPI JUMPDEST POP ISZERO PUSH2 0x18B2 JUMPI POP PUSH32 0xC0819C13BE868895EB93E40EACEB96DE976442FA1D404E5C55F14BB65A8C489A SWAP2 PUSH1 0x20 SWAP2 MLOAD SWAP1 DUP2 MSTORE LOG2 DUP1 RETURN JUMPDEST PUSH1 0x20 PUSH1 0x64 SWAP3 MLOAD SWAP2 PUSH3 0x461BCD PUSH1 0xE5 SHL DUP4 MSTORE DUP3 ADD MSTORE PUSH1 0x15 PUSH1 0x24 DUP3 ADD MSTORE PUSH21 0x119959481DDA5D1A191C985DD85B0819985A5B1959 PUSH1 0x5A SHL PUSH1 0x44 DUP3 ADD MSTORE REVERT JUMPDEST PUSH2 0x1904 SWAP2 POP PUSH1 0x20 RETURNDATASIZE DUP2 GT PUSH2 0x44C JUMPI PUSH2 0x43E DUP2 DUP4 PUSH2 0x1FDF JUMP JUMPDEST CODESIZE PUSH2 0x187E JUMP JUMPDEST POP POP CALLVALUE PUSH2 0x28B JUMPI DUP2 PUSH1 0x3 NOT CALLDATASIZE ADD SLT PUSH2 0x28B JUMPI PUSH1 0x20 SWAP1 MLOAD PUSH1 0x8 DUP2 MSTORE RETURN JUMPDEST POP POP CALLVALUE PUSH2 0x28B JUMPI DUP2 PUSH1 0x3 NOT CALLDATASIZE ADD SLT PUSH2 0x28B JUMPI MLOAD PUSH32 0x0 PUSH1 0x1 PUSH1 0x1 PUSH1 0xA0 SHL SUB AND DUP2 MSTORE PUSH1 0x20 SWAP1 RETURN JUMPDEST SWAP2 SWAP1 POP CALLVALUE PUSH2 0x320 JUMPI PUSH1 0x20 CALLDATASIZE PUSH1 0x3 NOT ADD SLT PUSH2 0x320 JUMPI DUP2 CALLDATALOAD SWAP2 PUSH2 0x1996 PUSH1 0x1 DUP1 PUSH1 0xA0 SHL SUB PUSH1 0x8 SLOAD AND CALLER EQ PUSH2 0x230B JUMP JUMPDEST PUSH1 0x5 SLOAD SWAP2 PUSH1 0xFF DUP4 AND ISZERO PUSH2 0x1A03 JUMPI POP POP DUP1 PUSH2 0x19CF PUSH1 0xFF PUSH2 0x100 SWAP4 PUSH1 0x8 SHR AND ISZERO PUSH2 0x19BD DUP2 PUSH2 0x2348 JUMP JUMPDEST PUSH2 0x19CA PUSH1 0x3 SLOAD DUP7 LT PUSH2 0x2135 JUMP JUMPDEST PUSH2 0x2348 JUMP JUMPDEST DUP3 PUSH1 0x6 SSTORE PUSH2 0xFF00 NOT AND OR PUSH1 0x5 SSTORE PUSH32 0xBDB6AF8CAA3A0B8C130FD2AB4C4930E3FD8987C9730340729078E256BBC4B543 DUP3 DUP1 LOG2 DUP1 RETURN JUMPDEST SWAP1 PUSH1 0x20 PUSH1 0x64 SWAP3 MLOAD SWAP2 PUSH3 0x461BCD PUSH1 0xE5 SHL DUP4 MSTORE DUP3 ADD MSTORE PUSH1 0x11 PUSH1 0x24 DUP3 ADD MSTORE PUSH17 0x26B0B935B2BA1039BA34B6361037B832B7 PUSH1 0x79 SHL PUSH1 0x44 DUP3 ADD MSTORE REVERT JUMPDEST SWAP1 POP CALLVALUE PUSH2 0x320 JUMPI DUP3 PUSH1 0x3 NOT CALLDATASIZE ADD SLT PUSH2 0x320 JUMPI PUSH2 0x1A54 PUSH2 0x20CA JUMP JUMPDEST PUSH1 0x2 SLOAD SWAP1 PUSH1 0xFF DUP3 AND ISZERO PUSH2 0x1A96 JUMPI POP PUSH1 0xFF NOT AND PUSH1 0x2 SSTORE MLOAD CALLER DUP2 MSTORE PUSH32 0x5DB9EE0A495BF2E6FF9C91A7834C1BA4FDD244A5E8AA4E537BD38AEAE4B073AA SWAP1 PUSH1 0x20 SWAP1 LOG1 DUP1 RETURN JUMPDEST DUP3 MLOAD PUSH4 0x8DFC202B PUSH1 0xE0 SHL DUP2 MSTORE REVERT JUMPDEST POP POP CALLVALUE PUSH2 0x28B JUMPI DUP2 PUSH1 0x3 NOT CALLDATASIZE ADD SLT PUSH2 0x28B JUMPI PUSH1 0x20 SWAP1 MLOAD PUSH1 0xFF PUSH32 0x0 AND DUP2 MSTORE RETURN JUMPDEST DUP4 DUP4 CALLVALUE PUSH2 0x28B JUMPI PUSH2 0x1AF2 CALLDATASIZE PUSH2 0x1F9F JUMP JUMPDEST PUSH2 0x1AFA PUSH2 0x229C JUMP JUMPDEST PUSH2 0x1B02 PUSH2 0x227E JUMP JUMPDEST PUSH2 0x1B11 PUSH1 0xFF PUSH1 0x5 SLOAD AND ISZERO PUSH2 0x20F6 JUMP JUMPDEST PUSH2 0x1B1E PUSH1 0x3 SLOAD DUP4 LT PUSH2 0x2135 JUMP JUMPDEST DUP1 ISZERO PUSH2 0x1EBA JUMPI PUSH1 0xC SLOAD DUP4 MLOAD PUSH4 0x18896F4D PUSH1 0xE1 SHL DUP2 MSTORE PUSH32 0x0 DUP8 DUP3 ADD DUP2 SWAP1 MSTORE PUSH1 0x24 DUP3 ADD DUP6 SWAP1 MSTORE PUSH1 0x20 SWAP3 PUSH1 0x1 PUSH1 0x1 PUSH1 0xA0 SHL SUB SWAP3 SWAP1 DUP4 AND SWAP1 DUP5 DUP2 PUSH1 0x44 DUP2 DUP6 GAS STATICCALL SWAP1 DUP2 ISZERO PUSH2 0x1DEA JUMPI SWAP1 DUP6 SWAP2 DUP11 SWAP2 PUSH2 0x1E85 JUMPI JUMPDEST POP DUP9 MLOAD PUSH3 0x7EEAC7 PUSH1 0xE1 SHL DUP2 MSTORE CALLER DUP2 DUP14 ADD SWAP1 DUP2 MSTORE PUSH1 0x20 DUP2 ADD SWAP3 SWAP1 SWAP3 MSTORE SWAP3 DUP4 SWAP2 DUP3 SWAP1 DUP2 SWAP1 PUSH1 0x40 ADD JUMPDEST SUB SWAP2 GAS STATICCALL SWAP1 DUP2 ISZERO PUSH2 0x1E7B JUMPI SWAP1 DUP6 SWAP2 DUP10 SWAP2 PUSH2 0x1E4A JUMPI JUMPDEST POP LT PUSH2 0x1E07 JUMPI PUSH2 0x1C16 PUSH2 0xD14 PUSH2 0x9E8 PUSH2 0x1C07 PUSH2 0x1BE2 PUSH2 0xCD1 PUSH2 0x2514 JUMP JUMPDEST PUSH1 0x1 PUSH2 0x1BED DUP12 PUSH2 0x207A JUMP JUMPDEST POP ADD PUSH2 0x1BFA DUP11 DUP3 SLOAD PUSH2 0x2215 JUMP JUMPDEST SWAP1 SSTORE PUSH2 0x157C PUSH2 0xCD1 PUSH2 0x2514 JUMP JUMPDEST PUSH2 0xD0F DUP12 DUP3 PUSH1 0xF SIGNEXTEND SLT ISZERO PUSH2 0x2196 JUMP JUMPDEST PUSH1 0x64 PUSH2 0x1C42 PUSH32 0x0 DUP4 PUSH2 0x21E2 JUMP JUMPDEST DIV PUSH1 0x32 DUP2 MUL DUP2 DUP2 DIV PUSH1 0x32 EQ DUP3 ISZERO OR ISZERO PUSH2 0x1DF4 JUMPI SWAP2 PUSH2 0xEAA PUSH2 0x1CA4 SWAP3 PUSH2 0x1C7D PUSH1 0x64 PUSH2 0x1C9E SWAP12 SWAP13 SWAP14 SWAP15 SWAP8 SWAP7 DIV SWAP2 PUSH2 0x1C77 DUP4 DUP3 PUSH2 0x2215 JUMP JUMPDEST SWAP5 PUSH2 0x2215 JUMP JUMPDEST SWAP10 DUP2 PUSH2 0x1C98 PUSH2 0x1C90 DUP14 SWAP5 PUSH1 0x9 SLOAD SWAP6 PUSH2 0x2173 JUMP JUMPDEST DUP5 LT ISZERO PUSH2 0x22BF JUMP JUMPDEST DUP12 PUSH2 0x2173 JUMP JUMPDEST SWAP1 PUSH2 0x2215 JUMP JUMPDEST PUSH1 0xB SSTORE DUP9 DUP4 PUSH1 0xC SLOAD AND SWAP2 DUP3 EXTCODESIZE ISZERO PUSH2 0x28B JUMPI DUP10 MLOAD PUSH4 0x6F3DF851 PUSH1 0xE1 SHL DUP2 MSTORE CALLER DUP6 DUP3 ADD SWAP1 DUP2 MSTORE PUSH1 0x20 DUP2 ADD SWAP3 SWAP1 SWAP3 MSTORE PUSH1 0x40 DUP3 ADD DUP11 SWAP1 MSTORE PUSH1 0x60 DUP3 ADD DUP9 SWAP1 MSTORE SWAP3 DUP4 SWAP2 DUP3 SWAP1 DUP5 SWAP1 DUP3 SWAP1 PUSH1 0x80 ADD SUB SWAP3 GAS CALL DUP1 ISZERO PUSH2 0x1DEA JUMPI PUSH2 0x1DCF JUMPI JUMPDEST POP DUP7 MLOAD PUSH4 0xA9059CBB PUSH1 0xE0 SHL DUP2 MSTORE CALLER SWAP2 DUP2 ADD SWAP2 DUP3 MSTORE PUSH1 0x20 DUP3 ADD DUP7 SWAP1 MSTORE SWAP2 DUP4 SWAP2 DUP4 SWAP2 SWAP1 DUP3 SWAP1 DUP12 SWAP1 DUP3 SWAP1 PUSH1 0x40 ADD JUMPDEST SUB SWAP3 PUSH32 0x0 AND GAS CALL SWAP2 DUP3 ISZERO PUSH2 0x1DC5 JUMPI PUSH2 0xED5 SWAP3 PUSH32 0x19EED797248695407E185A0977FA0DBA8BBAABA6C2F6F4A8BDF6FB32E62BA23 SWAP7 SWAP8 SWAP3 PUSH2 0x1D8B SWAP3 DUP11 SWAP3 PUSH2 0x1DA8 JUMPI JUMPDEST POP POP PUSH2 0x223A JUMP JUMPDEST MLOAD SWAP3 DUP4 SWAP3 CALLER SWAP7 DUP5 PUSH1 0x40 SWAP2 SWAP5 SWAP4 SWAP3 PUSH1 0x60 DUP3 ADD SWAP6 DUP3 MSTORE PUSH1 0x20 DUP3 ADD MSTORE ADD MSTORE JUMP JUMPDEST PUSH2 0x1DBE SWAP3 POP DUP1 RETURNDATASIZE LT PUSH2 0x44C JUMPI PUSH2 0x43E DUP2 DUP4 PUSH2 0x1FDF JUMP JUMPDEST DUP10 DUP1 PUSH2 0x1D84 JUMP JUMPDEST DUP7 MLOAD RETURNDATASIZE DUP10 DUP3 RETURNDATACOPY RETURNDATASIZE SWAP1 REVERT JUMPDEST PUSH2 0x1D24 SWAP3 DUP5 SWAP3 SWAP10 PUSH2 0x1DE0 DUP9 SWAP4 PUSH2 0x1FB5 JUMP JUMPDEST SWAP10 SWAP3 POP SWAP3 POP PUSH2 0x1CF9 JUMP JUMPDEST DUP9 MLOAD RETURNDATASIZE DUP12 DUP3 RETURNDATACOPY RETURNDATASIZE SWAP1 REVERT JUMPDEST PUSH4 0x4E487B71 PUSH1 0xE0 SHL DUP11 MSTORE PUSH1 0x11 DUP12 MSTORE PUSH1 0x24 DUP11 REVERT JUMPDEST DUP6 MLOAD PUSH3 0x461BCD PUSH1 0xE5 SHL DUP2 MSTORE DUP1 DUP10 ADD DUP5 SWAP1 MSTORE PUSH1 0x19 PUSH1 0x24 DUP3 ADD MSTORE PUSH32 0x4E6F7420656E6F7567682073686172657320746F2073656C6C00000000000000 PUSH1 0x44 DUP3 ADD MSTORE PUSH1 0x64 SWAP1 REVERT JUMPDEST DUP1 SWAP3 POP DUP6 DUP1 SWAP3 POP RETURNDATASIZE DUP4 GT PUSH2 0x1E74 JUMPI JUMPDEST PUSH2 0x1E63 DUP2 DUP4 PUSH2 0x1FDF JUMP JUMPDEST DUP2 ADD SUB SLT PUSH2 0xEF9 JUMPI DUP5 SWAP1 MLOAD DUP11 PUSH2 0x1BC5 JUMP JUMPDEST POP RETURNDATASIZE PUSH2 0x1E59 JUMP JUMPDEST DUP8 MLOAD RETURNDATASIZE DUP11 DUP3 RETURNDATACOPY RETURNDATASIZE SWAP1 REVERT JUMPDEST DUP3 DUP2 SWAP4 SWAP3 POP RETURNDATASIZE DUP4 GT PUSH2 0x1EB3 JUMPI JUMPDEST PUSH2 0x1E9C DUP2 DUP4 PUSH2 0x1FDF JUMP JUMPDEST DUP2 ADD SUB SLT PUSH2 0x1EAF JUMPI MLOAD DUP5 SWAP1 PUSH2 0x1BB0 PUSH2 0x1B8A JUMP JUMPDEST DUP9 DUP1 REVERT JUMPDEST POP RETURNDATASIZE PUSH2 0x1E92 JUMP JUMPDEST DUP3 MLOAD PUSH3 0x461BCD PUSH1 0xE5 SHL DUP2 MSTORE PUSH1 0x20 DUP2 DUP8 ADD MSTORE PUSH1 0x1C PUSH1 0x24 DUP3 ADD MSTORE PUSH32 0x4D7573742073656C6C206174206C65617374206F6E6520736861726500000000 PUSH1 0x44 DUP3 ADD MSTORE PUSH1 0x64 SWAP1 REVERT JUMPDEST SWAP1 POP CALLVALUE PUSH2 0x320 JUMPI PUSH1 0x20 CALLDATASIZE PUSH1 0x3 NOT ADD SLT PUSH2 0x320 JUMPI PUSH2 0x1F18 PUSH2 0x1F89 JUMP JUMPDEST PUSH2 0x1F20 PUSH2 0x20CA JUMP JUMPDEST PUSH1 0x1 PUSH1 0x1 PUSH1 0xA0 SHL SUB AND SWAP2 DUP3 ISZERO PUSH2 0x1F4D JUMPI POP POP PUSH12 0xFFFFFFFFFFFFFFFFFFFFFFFF PUSH1 0xA0 SHL PUSH1 0x8 SLOAD AND OR PUSH1 0x8 SSTORE DUP1 RETURN JUMPDEST SWAP1 PUSH1 0x20 PUSH1 0x64 SWAP3 MLOAD SWAP2 PUSH3 0x461BCD PUSH1 0xE5 SHL DUP4 MSTORE DUP3 ADD MSTORE PUSH1 0x16 PUSH1 0x24 DUP3 ADD MSTORE PUSH22 0x496E76616C6964206F7261636C652061646472657373 PUSH1 0x50 SHL PUSH1 0x44 DUP3 ADD MSTORE REVERT JUMPDEST PUSH1 0x4 CALLDATALOAD SWAP1 PUSH1 0x1 PUSH1 0x1 PUSH1 0xA0 SHL SUB DUP3 AND DUP3 SUB PUSH2 0x8AE JUMPI JUMP JUMPDEST PUSH1 0x40 SWAP1 PUSH1 0x3 NOT ADD SLT PUSH2 0x8AE JUMPI PUSH1 0x4 CALLDATALOAD SWAP1 PUSH1 0x24 CALLDATALOAD SWAP1 JUMP JUMPDEST PUSH8 0xFFFFFFFFFFFFFFFF DUP2 GT PUSH2 0x1FC9 JUMPI PUSH1 0x40 MSTORE JUMP JUMPDEST PUSH4 0x4E487B71 PUSH1 0xE0 SHL PUSH1 0x0 MSTORE PUSH1 0x41 PUSH1 0x4 MSTORE PUSH1 0x24 PUSH1 0x0 REVERT JUMPDEST SWAP1 PUSH1 0x1F DUP1 NOT SWAP2 ADD AND DUP2 ADD SWAP1 DUP2 LT PUSH8 0xFFFFFFFFFFFFFFFF DUP3 GT OR PUSH2 0x1FC9 JUMPI PUSH1 0x40 MSTORE JUMP JUMPDEST SWAP2 SWAP1 DUP3 MLOAD SWAP3 DUP4 DUP3 MSTORE PUSH1 0x0 JUMPDEST DUP5 DUP2 LT PUSH2 0x202D JUMPI POP POP DUP3 PUSH1 0x0 PUSH1 0x20 DUP1 SWAP5 SWAP6 DUP5 ADD ADD MSTORE PUSH1 0x1F DUP1 NOT SWAP2 ADD AND ADD ADD SWAP1 JUMP JUMPDEST PUSH1 0x20 DUP2 DUP4 ADD DUP2 ADD MLOAD DUP5 DUP4 ADD DUP3 ADD MSTORE ADD PUSH2 0x200C JUMP JUMPDEST CALLVALUE PUSH2 0x8AE JUMPI PUSH1 0x0 CALLDATASIZE PUSH1 0x3 NOT ADD SLT PUSH2 0x8AE JUMPI PUSH1 0x20 PUSH1 0x40 MLOAD PUSH2 0x2710 DUP2 MSTORE RETURN JUMPDEST CALLVALUE PUSH2 0x8AE JUMPI PUSH1 0x0 CALLDATASIZE PUSH1 0x3 NOT ADD SLT PUSH2 0x8AE JUMPI PUSH1 0x20 PUSH1 0x40 MLOAD PUSH1 0x64 DUP2 MSTORE RETURN JUMPDEST PUSH1 0x3 SLOAD DUP2 LT ISZERO PUSH2 0x20B4 JUMPI PUSH1 0x3 PUSH1 0x0 MSTORE PUSH1 0x1 SHL PUSH32 0xC2575A0E9E593C00F959F8C92F12DB2869C3395A3B0502D05E2516446F71F85B ADD SWAP1 PUSH1 0x0 SWAP1 JUMP JUMPDEST PUSH4 0x4E487B71 PUSH1 0xE0 SHL PUSH1 0x0 MSTORE PUSH1 0x32 PUSH1 0x4 MSTORE PUSH1 0x24 PUSH1 0x0 REVERT JUMPDEST PUSH1 0x0 SLOAD PUSH1 0x1 PUSH1 0x1 PUSH1 0xA0 SHL SUB AND CALLER SUB PUSH2 0x20DE JUMPI JUMP JUMPDEST PUSH1 0x40 MLOAD PUSH4 0x118CDAA7 PUSH1 0xE0 SHL DUP2 MSTORE CALLER PUSH1 0x4 DUP3 ADD MSTORE PUSH1 0x24 SWAP1 REVERT JUMPDEST ISZERO PUSH2 0x20FD JUMPI JUMP JUMPDEST PUSH1 0x40 MLOAD PUSH3 0x461BCD PUSH1 0xE5 SHL DUP2 MSTORE PUSH1 0x20 PUSH1 0x4 DUP3 ADD MSTORE PUSH1 0x10 PUSH1 0x24 DUP3 ADD MSTORE PUSH16 0x13585C9AD95D081A5CC818DB1BDCD959 PUSH1 0x82 SHL PUSH1 0x44 DUP3 ADD MSTORE PUSH1 0x64 SWAP1 REVERT JUMPDEST ISZERO PUSH2 0x213C JUMPI JUMP JUMPDEST PUSH1 0x40 MLOAD PUSH3 0x461BCD PUSH1 0xE5 SHL DUP2 MSTORE PUSH1 0x20 PUSH1 0x4 DUP3 ADD MSTORE PUSH1 0xF PUSH1 0x24 DUP3 ADD MSTORE PUSH15 0x496E76616C6964206F7574636F6D65 PUSH1 0x88 SHL PUSH1 0x44 DUP3 ADD MSTORE PUSH1 0x64 SWAP1 REVERT JUMPDEST SWAP2 SWAP1 DUP3 ADD DUP1 SWAP3 GT PUSH2 0x2180 JUMPI JUMP JUMPDEST PUSH4 0x4E487B71 PUSH1 0xE0 SHL PUSH1 0x0 MSTORE PUSH1 0x11 PUSH1 0x4 MSTORE PUSH1 0x24 PUSH1 0x0 REVERT JUMPDEST ISZERO PUSH2 0x219D JUMPI JUMP JUMPDEST PUSH1 0x40 MLOAD PUSH3 0x461BCD PUSH1 0xE5 SHL DUP2 MSTORE PUSH1 0x20 PUSH1 0x4 DUP3 ADD MSTORE PUSH1 0x1B PUSH1 0x24 DUP3 ADD MSTORE PUSH32 0x436F737420646966666572656E6365206973206E656761746976650000000000 PUSH1 0x44 DUP3 ADD MSTORE PUSH1 0x64 SWAP1 REVERT JUMPDEST DUP2 DUP2 MUL SWAP3 SWAP2 DUP2 ISZERO SWAP2 DUP5 DIV EQ OR ISZERO PUSH2 0x2180 JUMPI JUMP JUMPDEST DUP2 ISZERO PUSH2 0x21FF JUMPI DIV SWAP1 JUMP JUMPDEST PUSH4 0x4E487B71 PUSH1 0xE0 SHL PUSH1 0x0 MSTORE PUSH1 0x12 PUSH1 0x4 MSTORE PUSH1 0x24 PUSH1 0x0 REVERT JUMPDEST SWAP2 SWAP1 DUP3 SUB SWAP2 DUP3 GT PUSH2 0x2180 JUMPI JUMP JUMPDEST SWAP1 DUP2 PUSH1 0x20 SWAP2 SUB SLT PUSH2 0x8AE JUMPI MLOAD DUP1 ISZERO ISZERO DUP2 SUB PUSH2 0x8AE JUMPI SWAP1 JUMP JUMPDEST ISZERO PUSH2 0x2241 JUMPI JUMP JUMPDEST PUSH1 0x40 MLOAD PUSH3 0x461BCD PUSH1 0xE5 SHL DUP2 MSTORE PUSH1 0x20 PUSH1 0x4 DUP3 ADD MSTORE PUSH1 0x15 PUSH1 0x24 DUP3 ADD MSTORE PUSH21 0x151BDAD95B881D1C985B9CD9995C8819985A5B1959 PUSH1 0x5A SHL PUSH1 0x44 DUP3 ADD MSTORE PUSH1 0x64 SWAP1 REVERT JUMPDEST PUSH1 0xFF PUSH1 0x2 SLOAD AND PUSH2 0x228A JUMPI JUMP JUMPDEST PUSH1 0x40 MLOAD PUSH4 0xD93C0665 PUSH1 0xE0 SHL DUP2 MSTORE PUSH1 0x4 SWAP1 REVERT JUMPDEST PUSH1 0x2 PUSH1 0x1 SLOAD EQ PUSH2 0x22AD JUMPI PUSH1 0x2 PUSH1 0x1 SSTORE JUMP JUMPDEST PUSH1 0x40 MLOAD PUSH4 0x3EE5AEB5 PUSH1 0xE0 SHL DUP2 MSTORE PUSH1 0x4 SWAP1 REVERT JUMPDEST ISZERO PUSH2 0x22C6 JUMPI JUMP JUMPDEST PUSH1 0x40 MLOAD PUSH3 0x461BCD PUSH1 0xE5 SHL DUP2 MSTORE PUSH1 0x20 PUSH1 0x4 DUP3 ADD MSTORE PUSH1 0x1F PUSH1 0x24 DUP3 ADD MSTORE PUSH32 0x496E73756666696369656E74206D61726B6574206D616B65722066756E647300 PUSH1 0x44 DUP3 ADD MSTORE PUSH1 0x64 SWAP1 REVERT JUMPDEST ISZERO PUSH2 0x2312 JUMPI JUMP JUMPDEST PUSH1 0x40 MLOAD PUSH3 0x461BCD PUSH1 0xE5 SHL DUP2 MSTORE PUSH1 0x20 PUSH1 0x4 DUP3 ADD MSTORE PUSH1 0xE PUSH1 0x24 DUP3 ADD MSTORE PUSH14 0x139BDD08185D5D1A1BDC9A5E9959 PUSH1 0x92 SHL PUSH1 0x44 DUP3 ADD MSTORE PUSH1 0x64 SWAP1 REVERT JUMPDEST ISZERO PUSH2 0x234F JUMPI JUMP JUMPDEST PUSH1 0x40 MLOAD PUSH3 0x461BCD PUSH1 0xE5 SHL DUP2 MSTORE PUSH1 0x20 PUSH1 0x4 DUP3 ADD MSTORE PUSH1 0x16 PUSH1 0x24 DUP3 ADD MSTORE PUSH22 0x13585C9AD95D08185B1C9958591E481CD95D1D1B1959 PUSH1 0x52 SHL PUSH1 0x44 DUP3 ADD MSTORE PUSH1 0x64 SWAP1 REVERT JUMPDEST ISZERO PUSH2 0x2394 JUMPI JUMP JUMPDEST PUSH1 0x40 MLOAD PUSH3 0x461BCD PUSH1 0xE5 SHL DUP2 MSTORE PUSH1 0x20 PUSH1 0x4 DUP3 ADD MSTORE PUSH1 0x16 PUSH1 0x24 DUP3 ADD MSTORE PUSH22 0x13585C9AD95D081B9BDD081CD95D1D1B1959081E595D PUSH1 0x52 SHL PUSH1 0x44 DUP3 ADD MSTORE PUSH1 0x64 SWAP1 REVERT JUMPDEST ISZERO PUSH2 0x23D9 JUMPI JUMP JUMPDEST PUSH1 0x40 MLOAD PUSH3 0x461BCD PUSH1 0xE5 SHL DUP2 MSTORE PUSH1 0x20 PUSH1 0x4 DUP3 ADD MSTORE PUSH1 0x15 PUSH1 0x24 DUP3 ADD MSTORE PUSH21 0x92DCECC2D8D2C840DEEAE8C6DEDACA40D2DCC8CAF PUSH1 0x5B SHL PUSH1 0x44 DUP3 ADD MSTORE PUSH1 0x64 SWAP1 REVERT JUMPDEST ISZERO PUSH2 0x241D JUMPI JUMP JUMPDEST PUSH1 0x40 MLOAD PUSH3 0x461BCD PUSH1 0xE5 SHL DUP2 MSTORE PUSH1 0x20 PUSH1 0x4 DUP3 ADD MSTORE PUSH1 0x2A PUSH1 0x24 DUP3 ADD MSTORE PUSH32 0x4E756D626572206F6620736861726573206D7573742062652067726561746572 PUSH1 0x44 DUP3 ADD MSTORE PUSH10 0x207468616E207A65726F PUSH1 0xB0 SHL PUSH1 0x64 DUP3 ADD MSTORE PUSH1 0x84 SWAP1 REVERT JUMPDEST ISZERO PUSH2 0x247C JUMPI JUMP JUMPDEST PUSH1 0x40 MLOAD PUSH3 0x461BCD PUSH1 0xE5 SHL DUP2 MSTORE PUSH1 0x20 PUSH1 0x4 DUP3 ADD MSTORE PUSH1 0x2F PUSH1 0x24 DUP3 ADD MSTORE PUSH32 0x4C697175696469747920706172616D657465722062206D757374206265206772 PUSH1 0x44 DUP3 ADD MSTORE PUSH15 0x6561746572207468616E207A65726F PUSH1 0x88 SHL PUSH1 0x64 DUP3 ADD MSTORE PUSH1 0x84 SWAP1 REVERT JUMPDEST DUP1 MLOAD DUP3 LT ISZERO PUSH2 0x20B4 JUMPI PUSH1 0x20 SWAP2 PUSH1 0x5 SHL ADD ADD SWAP1 JUMP JUMPDEST PUSH8 0xFFFFFFFFFFFFFFFF DUP2 GT PUSH2 0x1FC9 JUMPI PUSH1 0x5 SHL PUSH1 0x20 ADD SWAP1 JUMP JUMPDEST PUSH1 0x0 NOT DUP2 EQ PUSH2 0x2180 JUMPI PUSH1 0x1 ADD SWAP1 JUMP JUMPDEST PUSH1 0x3 SLOAD PUSH2 0x2520 DUP2 PUSH2 0x24ED JUMP JUMPDEST SWAP1 PUSH2 0x252E PUSH1 0x40 MLOAD SWAP3 DUP4 PUSH2 0x1FDF JUMP JUMPDEST DUP1 DUP3 MSTORE PUSH1 0x1F NOT PUSH2 0x253D DUP3 PUSH2 0x24ED JUMP JUMPDEST ADD CALLDATASIZE PUSH1 0x20 DUP5 ADD CALLDATACOPY PUSH1 0x0 JUMPDEST DUP2 DUP2 LT PUSH2 0x2553 JUMPI POP POP SWAP1 JUMP JUMPDEST DUP1 PUSH1 0x1 PUSH2 0x2562 PUSH2 0x2575 SWAP4 PUSH2 0x207A JUMP JUMPDEST POP ADD SLOAD PUSH2 0x256F DUP3 DUP7 PUSH2 0x24D9 JUMP JUMPDEST MSTORE PUSH2 0x2505 JUMP JUMPDEST PUSH2 0x2547 JUMP JUMPDEST SWAP1 DUP2 MLOAD ISZERO PUSH2 0x262B JUMPI SWAP1 PUSH1 0x0 DUP1 SWAP2 PUSH32 0x0 SWAP2 JUMPDEST DUP2 MLOAD DUP5 LT ISZERO PUSH2 0x25DD JUMPI PUSH2 0x25D1 PUSH2 0x25D7 SWAP2 PUSH2 0xA2E PUSH2 0x98F DUP7 PUSH2 0x25CB DUP10 DUP9 PUSH2 0x24D9 JUMP JUMPDEST MLOAD PUSH2 0x2761 JUMP JUMPDEST SWAP4 PUSH2 0x2505 JUMP JUMPDEST SWAP3 PUSH2 0x25AA JUMP JUMPDEST SWAP3 POP POP PUSH2 0x25EC PUSH2 0x25F2 SWAP2 PUSH2 0x2668 JUMP JUMPDEST SWAP2 PUSH2 0x28D1 JUMP JUMPDEST PUSH1 0xF SIGNEXTEND SWAP1 PUSH1 0xF SIGNEXTEND MUL PUSH1 0x40 SAR PUSH1 0x1 PUSH1 0x1 PUSH1 0x7F SHL SUB NOT DUP2 SLT ISZERO DUP1 PUSH2 0x261A JUMPI JUMPDEST ISZERO PUSH2 0x8AE JUMPI PUSH1 0xF SIGNEXTEND SWAP1 JUMP JUMPDEST POP PUSH1 0x1 PUSH1 0x1 PUSH1 0x7F SHL SUB DUP2 SGT ISZERO PUSH2 0x260F JUMP JUMPDEST PUSH1 0x40 MLOAD PUSH3 0x461BCD PUSH1 0xE5 SHL DUP2 MSTORE PUSH1 0x20 PUSH1 0x4 DUP3 ADD MSTORE PUSH1 0x15 PUSH1 0x24 DUP3 ADD MSTORE PUSH21 0x4E6F206F7574636F6D657320617661696C61626C65 PUSH1 0x58 SHL PUSH1 0x44 DUP3 ADD MSTORE PUSH1 0x64 SWAP1 REVERT JUMPDEST PUSH8 0x7FFFFFFFFFFFFFFF DUP2 GT PUSH2 0x8AE JUMPI PUSH1 0x40 SHL PUSH1 0xF SIGNEXTEND SWAP1 JUMP JUMPDEST PUSH1 0xF SIGNEXTEND PUSH1 0x0 DUP2 SLT PUSH2 0x8AE JUMPI PUSH1 0x40 SAR PUSH8 0xFFFFFFFFFFFFFFFF AND SWAP1 JUMP JUMPDEST SWAP1 PUSH1 0xF SIGNEXTEND SWAP1 PUSH1 0xF SIGNEXTEND ADD PUSH1 0x1 PUSH1 0x1 PUSH1 0x7F SHL SUB NOT DUP2 SLT ISZERO DUP1 PUSH2 0x261A JUMPI ISZERO PUSH2 0x8AE JUMPI PUSH1 0xF SIGNEXTEND SWAP1 JUMP JUMPDEST PUSH1 0xF SWAP2 DUP3 SIGNEXTEND SWAP2 SIGNEXTEND SUB PUSH1 0x1 PUSH1 0x1 PUSH1 0x7F SHL SUB NOT DUP2 SLT ISZERO DUP1 PUSH2 0x261A JUMPI ISZERO PUSH2 0x8AE JUMPI PUSH1 0xF SIGNEXTEND SWAP1 JUMP JUMPDEST PUSH1 0xF SIGNEXTEND PUSH12 0x5F5E1000000000000000000 MUL PUSH1 0x40 SAR PUSH1 0x1 PUSH1 0x1 PUSH1 0x7F SHL SUB NOT DUP2 SLT ISZERO DUP1 PUSH2 0x261A JUMPI ISZERO PUSH2 0x8AE JUMPI PUSH1 0xF SIGNEXTEND SWAP1 JUMP JUMPDEST DUP2 ISZERO PUSH2 0x275A JUMPI PUSH1 0xF SIGNEXTEND PUSH1 0x0 SWAP1 DUP2 DUP2 SLT PUSH2 0x28B JUMPI PUSH1 0x1 PUSH1 0x1 PUSH1 0x80 SHL SUB DUP4 AND DUP2 MUL PUSH1 0x40 SHR SWAP3 PUSH1 0x80 SHR MUL PUSH1 0x1 PUSH1 0x1 PUSH1 0xC0 SHL SUB DUP2 GT PUSH2 0x28B JUMPI PUSH1 0x40 SHL SWAP1 DUP3 NOT DUP3 GT PUSH2 0x56B JUMPI POP ADD SWAP1 JUMP JUMPDEST POP POP PUSH1 0x0 SWAP1 JUMP JUMPDEST SWAP1 DUP1 ISZERO PUSH2 0x8AE JUMPI PUSH1 0x0 PUSH1 0x1 PUSH1 0x1 PUSH1 0xC0 SHL SUB DUP4 GT PUSH2 0x27AA JUMPI POP PUSH2 0x2785 SWAP2 PUSH1 0x40 SHL PUSH2 0x21F5 JUMP JUMPDEST PUSH1 0x1 PUSH1 0x1 PUSH1 0x80 SHL SUB SWAP1 DUP2 DUP2 GT PUSH2 0x8AE JUMPI AND PUSH1 0x1 PUSH1 0x1 PUSH1 0x7F SHL SUB DUP2 GT PUSH2 0x8AE JUMPI PUSH1 0xF SIGNEXTEND SWAP1 JUMP JUMPDEST SWAP1 PUSH1 0xC0 DUP4 DUP2 SHR SWAP4 DUP5 PUSH5 0x100000000 DUP2 LT ISZERO PUSH2 0x28C4 JUMPI JUMPDEST DUP1 PUSH3 0x10000 PUSH1 0x2 SWAP3 LT ISZERO PUSH2 0x28B8 JUMPI JUMPDEST PUSH2 0x100 DUP2 LT ISZERO PUSH2 0x28AC JUMPI JUMPDEST PUSH1 0x10 DUP2 LT ISZERO PUSH2 0x28A0 JUMPI JUMPDEST PUSH1 0x4 DUP2 LT ISZERO PUSH2 0x2895 JUMPI JUMPDEST LT ISZERO PUSH2 0x288B JUMPI JUMPDEST PUSH2 0x2813 PUSH1 0x0 NOT SWAP3 DUP3 PUSH1 0x1 DUP6 DUP8 ADD PUSH1 0xBE NOT DUP5 ADD SHR ADD SWAP2 PUSH1 0xFF SUB SHL PUSH2 0x21F5 JUMP JUMPDEST SWAP5 PUSH1 0x1 PUSH1 0x1 PUSH1 0x80 SHL SUB SWAP1 DUP2 DUP8 GT PUSH2 0x801 JUMPI DUP5 PUSH1 0x80 SHR DUP8 MUL SWAP2 DUP6 AND DUP8 MUL SWAP1 DUP5 DUP2 SWAP5 PUSH1 0x40 SHL SWAP2 DUP4 DUP4 LT PUSH2 0x2881 JUMPI JUMPDEST POP POP SUB SWAP5 DUP2 PUSH1 0x80 SHL SWAP4 DUP5 DUP8 LT PUSH2 0x2877 JUMPI JUMPDEST POP POP PUSH1 0x80 SHR SUB PUSH2 0x286C JUMPI PUSH2 0x2864 SWAP3 SUB PUSH2 0x21F5 JUMP JUMPDEST SWAP1 JUMPDEST ADD PUSH2 0x2785 JUMP JUMPDEST POP POP POP PUSH1 0x1 SWAP1 PUSH2 0x2866 JUMP JUMPDEST SWAP1 SWAP3 ADD SWAP2 CODESIZE PUSH2 0x2850 JUMP JUMPDEST ADD SWAP4 POP DUP5 CODESIZE PUSH2 0x283F JUMP JUMPDEST SWAP1 PUSH1 0x1 ADD SWAP1 PUSH2 0x27F5 JUMP JUMPDEST SWAP3 DUP2 ADD SWAP3 DUP2 SHR PUSH2 0x27EE JUMP JUMPDEST PUSH1 0x4 SWAP4 DUP5 ADD SWAP4 SHR PUSH2 0x27E4 JUMP JUMPDEST PUSH1 0x8 SWAP4 DUP5 ADD SWAP4 SHR PUSH2 0x27DA JUMP JUMPDEST PUSH1 0x10 SWAP4 DUP5 ADD SWAP4 SHR PUSH2 0x27CF JUMP JUMPDEST POP PUSH1 0xE0 SWAP2 POP DUP1 DUP3 SHR PUSH2 0x27C0 JUMP JUMPDEST PUSH1 0xF SIGNEXTEND PUSH1 0x0 DUP1 DUP3 SGT ISZERO PUSH2 0x56B JUMPI DUP1 DUP3 PUSH9 0x10000000000000000 DUP5 SLT ISZERO PUSH2 0x29D5 JUMPI JUMPDEST DUP1 PUSH5 0x100000000 PUSH1 0x2 SWAP3 SLT ISZERO PUSH2 0x29C9 JUMPI JUMPDEST PUSH3 0x10000 DUP2 SLT ISZERO PUSH2 0x29BD JUMPI JUMPDEST PUSH2 0x100 DUP2 SLT ISZERO PUSH2 0x29B1 JUMPI JUMPDEST PUSH1 0x10 DUP2 SLT ISZERO PUSH2 0x29A5 JUMPI JUMPDEST PUSH1 0x4 DUP2 SLT ISZERO PUSH2 0x299A JUMPI JUMPDEST SLT ISZERO PUSH2 0x2992 JUMPI JUMPDEST PUSH1 0x1 PUSH1 0x3F SHL SWAP3 PUSH1 0x3F NOT DUP3 ADD PUSH1 0x40 SHL SWAP3 SWAP2 PUSH1 0x7F SWAP2 SWAP1 DUP3 SUB SHL JUMPDEST DUP3 DUP6 SGT PUSH2 0x2974 JUMPI POP POP POP PUSH16 0xB17217F7D1CF79ABC9E3B39803F2F6AF SWAP2 POP PUSH1 0xF SIGNEXTEND MUL PUSH1 0x80 SAR SWAP1 JUMP JUMPDEST PUSH1 0x1 DUP6 SWAP1 SAR SWAP5 SWAP1 DUP1 MUL PUSH1 0xFF DUP2 SWAP1 SHR SWAP2 DUP3 MUL SWAP1 SWAP5 ADD SWAP4 SWAP1 DUP3 ADD SHR PUSH2 0x294D JUMP JUMPDEST PUSH1 0x1 ADD PUSH2 0x2935 JUMP JUMPDEST SWAP2 DUP2 ADD SWAP2 DUP2 SAR PUSH2 0x292E JUMP JUMPDEST PUSH1 0x4 SWAP3 DUP4 ADD SWAP3 SAR PUSH2 0x2924 JUMP JUMPDEST PUSH1 0x8 SWAP3 DUP4 ADD SWAP3 SAR PUSH2 0x291A JUMP JUMPDEST PUSH1 0x10 SWAP3 DUP4 ADD SWAP3 SAR PUSH2 0x290F JUMP JUMPDEST PUSH1 0x20 SWAP3 DUP4 ADD SWAP3 SAR PUSH2 0x2903 JUMP JUMPDEST POP PUSH1 0x40 SWAP1 POP DUP3 DUP2 SAR PUSH2 0x28F2 JUMP JUMPDEST PUSH1 0xF SIGNEXTEND PUSH1 0x1 PUSH1 0x46 SHL DUP2 SLT ISZERO PUSH2 0x8AE JUMPI PUSH9 0x3FFFFFFFFFFFFFFFFF NOT DUP2 SLT PUSH2 0x2A27 JUMPI PUSH17 0x171547652B82FE1777D0FFDA0D23A7D12 PUSH2 0x2A24 SWAP2 MUL PUSH1 0x80 SAR PUSH1 0xF SIGNEXTEND PUSH2 0x2A2D JUMP JUMPDEST SWAP1 JUMP JUMPDEST POP PUSH1 0x0 SWAP1 JUMP JUMPDEST PUSH1 0xF DUP2 DUP2 SIGNEXTEND PUSH1 0x1 PUSH1 0x46 SHL DUP2 SLT ISZERO PUSH2 0x8AE JUMPI PUSH9 0x3FFFFFFFFFFFFFFFFF NOT DUP2 SLT PUSH2 0x35CB JUMPI PUSH1 0x1 PUSH1 0x7F SHL SWAP1 PUSH1 0x0 SWAP4 DUP5 PUSH1 0x1 PUSH1 0x3F SHL DUP3 AND DUP6 SIGNEXTEND SGT PUSH2 0x35B3 JUMPI JUMPDEST DUP5 PUSH8 0x4000000000000000 DUP3 AND DUP6 SIGNEXTEND SGT PUSH2 0x3596 JUMPI JUMPDEST DUP5 PUSH8 0x2000000000000000 DUP3 AND DUP6 SIGNEXTEND SGT PUSH2 0x3579 JUMPI JUMPDEST DUP5 PUSH8 0x1000000000000000 DUP3 AND DUP6 SIGNEXTEND SGT PUSH2 0x355C JUMPI JUMPDEST DUP5 PUSH8 0x800000000000000 DUP3 AND DUP6 SIGNEXTEND SGT PUSH2 0x353F JUMPI JUMPDEST DUP5 PUSH8 0x400000000000000 DUP3 AND DUP6 SIGNEXTEND SGT PUSH2 0x3522 JUMPI JUMPDEST DUP5 PUSH8 0x200000000000000 DUP3 AND DUP6 SIGNEXTEND SGT PUSH2 0x3505 JUMPI JUMPDEST DUP5 PUSH8 0x100000000000000 DUP3 AND DUP6 SIGNEXTEND SGT PUSH2 0x34E8 JUMPI JUMPDEST DUP5 PUSH7 0x80000000000000 DUP3 AND DUP6 SIGNEXTEND SGT PUSH2 0x34CB JUMPI JUMPDEST DUP5 PUSH7 0x40000000000000 DUP3 AND DUP6 SIGNEXTEND SGT PUSH2 0x34AE JUMPI JUMPDEST DUP5 PUSH7 0x20000000000000 DUP3 AND DUP6 SIGNEXTEND SGT PUSH2 0x3491 JUMPI JUMPDEST DUP5 PUSH7 0x10000000000000 DUP3 AND DUP6 SIGNEXTEND SGT PUSH2 0x3474 JUMPI JUMPDEST DUP5 PUSH7 0x8000000000000 DUP3 AND DUP6 SIGNEXTEND SGT PUSH2 0x3457 JUMPI JUMPDEST DUP5 PUSH7 0x4000000000000 DUP3 AND DUP6 SIGNEXTEND SGT PUSH2 0x343A JUMPI JUMPDEST DUP5 PUSH7 0x2000000000000 DUP3 AND DUP6 SIGNEXTEND SGT PUSH2 0x341D JUMPI JUMPDEST DUP5 PUSH7 0x1000000000000 DUP3 AND DUP6 SIGNEXTEND SGT PUSH2 0x3400 JUMPI JUMPDEST DUP5 PUSH6 0x800000000000 DUP3 AND DUP6 SIGNEXTEND SGT PUSH2 0x33E3 JUMPI JUMPDEST DUP5 PUSH6 0x400000000000 DUP3 AND DUP6 SIGNEXTEND SGT PUSH2 0x33C6 JUMPI JUMPDEST DUP5 PUSH6 0x200000000000 DUP3 AND DUP6 SIGNEXTEND SGT PUSH2 0x33A9 JUMPI JUMPDEST DUP5 PUSH6 0x100000000000 DUP3 AND DUP6 SIGNEXTEND SGT PUSH2 0x338C JUMPI JUMPDEST DUP5 PUSH6 0x80000000000 DUP3 AND DUP6 SIGNEXTEND SGT PUSH2 0x336F JUMPI JUMPDEST DUP5 PUSH6 0x40000000000 DUP3 AND DUP6 SIGNEXTEND SGT PUSH2 0x3352 JUMPI JUMPDEST DUP5 PUSH6 0x20000000000 DUP3 AND DUP6 SIGNEXTEND SGT PUSH2 0x3335 JUMPI JUMPDEST DUP5 PUSH6 0x10000000000 DUP3 AND DUP6 SIGNEXTEND SGT PUSH2 0x3318 JUMPI JUMPDEST DUP5 PUSH5 0x8000000000 DUP3 AND DUP6 SIGNEXTEND SGT PUSH2 0x32FB JUMPI JUMPDEST DUP5 PUSH5 0x4000000000 DUP3 AND DUP6 SIGNEXTEND SGT PUSH2 0x32DE JUMPI JUMPDEST DUP5 PUSH5 0x2000000000 DUP3 AND DUP6 SIGNEXTEND SGT PUSH2 0x32C1 JUMPI JUMPDEST DUP5 PUSH5 0x1000000000 DUP3 AND DUP6 SIGNEXTEND SGT PUSH2 0x32A4 JUMPI JUMPDEST DUP5 PUSH5 0x800000000 DUP3 AND DUP6 SIGNEXTEND SGT PUSH2 0x3287 JUMPI JUMPDEST DUP5 PUSH5 0x400000000 DUP3 AND DUP6 SIGNEXTEND SGT PUSH2 0x326A JUMPI JUMPDEST DUP5 PUSH5 0x200000000 DUP3 AND DUP6 SIGNEXTEND SGT PUSH2 0x324D JUMPI JUMPDEST DUP5 PUSH5 0x100000000 DUP3 AND DUP6 SIGNEXTEND SGT PUSH2 0x3230 JUMPI JUMPDEST DUP5 PUSH4 0x80000000 DUP3 AND DUP6 SIGNEXTEND SGT PUSH2 0x3213 JUMPI JUMPDEST DUP5 PUSH4 0x40000000 DUP3 AND DUP6 SIGNEXTEND SGT PUSH2 0x31F6 JUMPI JUMPDEST DUP5 PUSH4 0x20000000 DUP3 AND DUP6 SIGNEXTEND SGT PUSH2 0x31D9 JUMPI JUMPDEST DUP5 PUSH4 0x10000000 DUP3 AND DUP6 SIGNEXTEND SGT PUSH2 0x31BC JUMPI JUMPDEST DUP5 PUSH4 0x8000000 DUP3 AND DUP6 SIGNEXTEND SGT PUSH2 0x319F JUMPI JUMPDEST DUP5 PUSH4 0x4000000 DUP3 AND DUP6 SIGNEXTEND SGT PUSH2 0x3182 JUMPI JUMPDEST DUP5 PUSH4 0x2000000 DUP3 AND DUP6 SIGNEXTEND SGT PUSH2 0x3165 JUMPI JUMPDEST DUP5 PUSH4 0x1000000 DUP3 AND DUP6 SIGNEXTEND SGT PUSH2 0x3148 JUMPI JUMPDEST DUP5 PUSH3 0x800000 DUP3 AND DUP6 SIGNEXTEND SGT PUSH2 0x312B JUMPI JUMPDEST DUP5 PUSH3 0x400000 DUP3 AND DUP6 SIGNEXTEND SGT PUSH2 0x310E JUMPI JUMPDEST DUP5 PUSH3 0x200000 DUP3 AND DUP6 SIGNEXTEND SGT PUSH2 0x30F1 JUMPI JUMPDEST DUP5 PUSH3 0x100000 DUP3 AND DUP6 SIGNEXTEND SGT PUSH2 0x30D4 JUMPI JUMPDEST DUP5 PUSH3 0x80000 DUP3 AND DUP6 SIGNEXTEND SGT PUSH2 0x30B7 JUMPI JUMPDEST DUP5 PUSH3 0x40000 DUP3 AND DUP6 SIGNEXTEND SGT PUSH2 0x309A JUMPI JUMPDEST DUP5 PUSH3 0x20000 DUP3 AND DUP6 SIGNEXTEND SGT PUSH2 0x307D JUMPI JUMPDEST DUP5 PUSH3 0x10000 DUP3 AND DUP6 SIGNEXTEND SGT PUSH2 0x3060 JUMPI JUMPDEST DUP5 PUSH2 0x8000 DUP3 AND DUP6 SIGNEXTEND SGT PUSH2 0x3043 JUMPI JUMPDEST DUP5 PUSH2 0x4000 DUP3 AND DUP6 SIGNEXTEND SGT PUSH2 0x3026 JUMPI JUMPDEST DUP5 PUSH2 0x2000 DUP3 AND DUP6 SIGNEXTEND SGT PUSH2 0x3009 JUMPI JUMPDEST DUP5 PUSH2 0x1000 DUP3 AND DUP6 SIGNEXTEND SGT PUSH2 0x2FEC JUMPI JUMPDEST DUP5 PUSH2 0x800 DUP3 AND DUP6 SIGNEXTEND SGT PUSH2 0x2FCF JUMPI JUMPDEST DUP5 PUSH2 0x400 DUP3 AND DUP6 SIGNEXTEND SGT PUSH2 0x2FB2 JUMPI JUMPDEST DUP5 PUSH2 0x200 DUP3 AND DUP6 SIGNEXTEND SGT PUSH2 0x2F95 JUMPI JUMPDEST DUP5 PUSH2 0x100 DUP3 AND DUP6 SIGNEXTEND SGT PUSH2 0x2F78 JUMPI JUMPDEST DUP5 PUSH1 0x80 SWAP2 DUP2 DUP4 DUP3 AND DUP8 SIGNEXTEND SGT PUSH2 0x2F5C JUMPI JUMPDEST DUP2 PUSH1 0x40 DUP3 AND DUP8 SIGNEXTEND SGT PUSH2 0x2F40 JUMPI JUMPDEST DUP2 PUSH1 0x20 DUP3 AND DUP8 SIGNEXTEND SGT PUSH2 0x2F24 JUMPI JUMPDEST DUP2 PUSH1 0x10 DUP3 AND DUP8 SIGNEXTEND SGT PUSH2 0x2F08 JUMPI JUMPDEST DUP2 PUSH1 0x8 DUP3 AND DUP8 SIGNEXTEND SGT PUSH2 0x2EEC JUMPI JUMPDEST DUP2 PUSH1 0x4 DUP3 AND DUP8 SIGNEXTEND SGT PUSH2 0x2ED0 JUMPI JUMPDEST DUP2 PUSH1 0x2 DUP3 AND DUP8 SIGNEXTEND SGT PUSH2 0x2EB3 JUMPI JUMPDEST PUSH1 0x1 AND DUP6 SIGNEXTEND SGT PUSH2 0x2E95 JUMPI JUMPDEST POP PUSH1 0x40 SAR DUP3 SIGNEXTEND PUSH1 0x3F SUB DUP3 SIGNEXTEND SHR SWAP2 PUSH1 0x1 PUSH1 0x1 PUSH1 0x7F SHL SUB DUP4 GT PUSH2 0x56B JUMPI POP SIGNEXTEND SWAP1 JUMP JUMPDEST SWAP1 SWAP2 PUSH17 0x10000000000000000B17217F7D1CF79AB MUL SWAP1 SHR SWAP1 CODESIZE PUSH2 0x2E75 JUMP JUMPDEST PUSH17 0x1000000000000000162E42FEFA39EF358 SWAP1 SWAP5 MUL DUP3 SHR SWAP4 PUSH2 0x2E6A JUMP JUMPDEST SWAP4 PUSH17 0x10000000000000002C5C85FDF473DE6B2 MUL DUP3 SHR SWAP4 PUSH2 0x2E5D JUMP JUMPDEST SWAP4 PUSH17 0x100000000000000058B90BFBE8E7BCD6D MUL DUP3 SHR SWAP4 PUSH2 0x2E50 JUMP JUMPDEST SWAP4 PUSH17 0x1000000000000000B17217F7D1CF79AFA MUL DUP3 SHR SWAP4 PUSH2 0x2E43 JUMP JUMPDEST SWAP4 PUSH17 0x100000000000000162E42FEFA39EF366F MUL DUP3 SHR SWAP4 PUSH2 0x2E36 JUMP JUMPDEST SWAP4 PUSH17 0x1000000000000002C5C85FDF473DE6ECA MUL DUP3 SHR SWAP4 PUSH2 0x2E29 JUMP JUMPDEST SWAP4 PUSH17 0x10000000000000058B90BFBE8E7BCE544 MUL DUP3 SHR SWAP4 PUSH2 0x2E1C JUMP JUMPDEST SWAP2 PUSH17 0x100000000000000B17217F7D1CF79E949 MUL PUSH1 0x80 SHR SWAP2 PUSH2 0x2E0C JUMP JUMPDEST SWAP2 PUSH17 0x10000000000000162E42FEFA39EF44D91 MUL PUSH1 0x80 SHR SWAP2 PUSH2 0x2DFE JUMP JUMPDEST SWAP2 PUSH17 0x100000000000002C5C85FDF473DEA871F MUL PUSH1 0x80 SHR SWAP2 PUSH2 0x2DF0 JUMP JUMPDEST SWAP2 PUSH17 0x1000000000000058B90BFBE8E7BDCBE2E MUL PUSH1 0x80 SHR SWAP2 PUSH2 0x2DE2 JUMP JUMPDEST SWAP2 PUSH17 0x10000000000000B17217F7D1CF7D83C1A MUL PUSH1 0x80 SHR SWAP2 PUSH2 0x2DD4 JUMP JUMPDEST SWAP2 PUSH17 0x1000000000000162E42FEFA39F02B772C MUL PUSH1 0x80 SHR SWAP2 PUSH2 0x2DC6 JUMP JUMPDEST SWAP2 PUSH17 0x10000000000002C5C85FDF473E242EA38 MUL PUSH1 0x80 SHR SWAP2 PUSH2 0x2DB8 JUMP JUMPDEST SWAP2 PUSH17 0x100000000000058B90BFBE8E7CC35C3F0 MUL PUSH1 0x80 SHR SWAP2 PUSH2 0x2DAA JUMP JUMPDEST SWAP2 PUSH17 0x1000000000000B17217F7D1CFB72B45E1 MUL PUSH1 0x80 SHR SWAP2 PUSH2 0x2D9C JUMP JUMPDEST SWAP2 PUSH17 0x100000000000162E42FEFA39FE95583C2 MUL PUSH1 0x80 SHR SWAP2 PUSH2 0x2D8D JUMP JUMPDEST SWAP2 PUSH17 0x1000000000002C5C85FDF4741BEA6E77E MUL PUSH1 0x80 SHR SWAP2 PUSH2 0x2D7E JUMP JUMPDEST SWAP2 PUSH17 0x10000000000058B90BFBE8E8B2D3D4EDE MUL PUSH1 0x80 SHR SWAP2 PUSH2 0x2D6F JUMP JUMPDEST SWAP2 PUSH17 0x100000000000B17217F7D1D351A389D40 MUL PUSH1 0x80 SHR SWAP2 PUSH2 0x2D60 JUMP JUMPDEST SWAP2 PUSH17 0x10000000000162E42FEFA3AE53369388C MUL PUSH1 0x80 SHR SWAP2 PUSH2 0x2D51 JUMP JUMPDEST SWAP2 PUSH17 0x100000000002C5C85FDF477B662B26945 MUL PUSH1 0x80 SHR SWAP2 PUSH2 0x2D42 JUMP JUMPDEST SWAP2 PUSH17 0x1000000000058B90BFBE8F71CB4E4B33D MUL PUSH1 0x80 SHR SWAP2 PUSH2 0x2D33 JUMP JUMPDEST SWAP2 PUSH17 0x10000000000B17217F7D20CF927C8E94C MUL PUSH1 0x80 SHR SWAP2 PUSH2 0x2D24 JUMP JUMPDEST SWAP2 PUSH17 0x1000000000162E42FEFA494F1478FDE05 MUL PUSH1 0x80 SHR SWAP2 PUSH2 0x2D14 JUMP JUMPDEST SWAP2 PUSH17 0x10000000002C5C85FDF4B15DE6F17EB0D MUL PUSH1 0x80 SHR SWAP2 PUSH2 0x2D04 JUMP JUMPDEST SWAP2 PUSH17 0x100000000058B90BFBE9DDBAC5E109CCE MUL PUSH1 0x80 SHR SWAP2 PUSH2 0x2CF4 JUMP JUMPDEST SWAP2 PUSH17 0x1000000000B17217F7D5A7716BBA4A9AE MUL PUSH1 0x80 SHR SWAP2 PUSH2 0x2CE4 JUMP JUMPDEST SWAP2 PUSH17 0x100000000162E42FEFB2FED257559BDAA MUL PUSH1 0x80 SHR SWAP2 PUSH2 0x2CD4 JUMP JUMPDEST SWAP2 PUSH17 0x1000000002C5C85FDF84BD62AE30A74CC MUL PUSH1 0x80 SHR SWAP2 PUSH2 0x2CC4 JUMP JUMPDEST SWAP2 PUSH17 0x10000000058B90BFBF8479BD5A81B51AD MUL PUSH1 0x80 SHR SWAP2 PUSH2 0x2CB4 JUMP JUMPDEST SWAP2 PUSH17 0x100000000B17217F80F4EF5AADDA45554 MUL PUSH1 0x80 SHR SWAP2 PUSH2 0x2CA4 JUMP JUMPDEST SWAP2 PUSH17 0x10000000162E42FF0999CE3541B9FFFCF MUL PUSH1 0x80 SHR SWAP2 PUSH2 0x2C93 JUMP JUMPDEST SWAP2 PUSH17 0x100000002C5C85FE31F35A6A30DA1BE50 MUL PUSH1 0x80 SHR SWAP2 PUSH2 0x2C82 JUMP JUMPDEST SWAP2 PUSH17 0x1000000058B90BFCDEE5ACD3C1CEDC823 MUL PUSH1 0x80 SHR SWAP2 PUSH2 0x2C71 JUMP JUMPDEST SWAP2 PUSH17 0x10000000B17217FBA9C739AA5819F44F9 MUL PUSH1 0x80 SHR SWAP2 PUSH2 0x2C60 JUMP JUMPDEST SWAP2 PUSH17 0x1000000162E42FFF037DF38AA2B219F06 MUL PUSH1 0x80 SHR SWAP2 PUSH2 0x2C4F JUMP JUMPDEST SWAP2 PUSH17 0x10000002C5C8601CC6B9E94213C72737A MUL PUSH1 0x80 SHR SWAP2 PUSH2 0x2C3E JUMP JUMPDEST SWAP2 PUSH17 0x100000058B90C0B48C6BE5DF846C5B2EF MUL PUSH1 0x80 SHR SWAP2 PUSH2 0x2C2D JUMP JUMPDEST SWAP2 PUSH17 0x1000000B1721835514B86E6D96EFD1BFE MUL PUSH1 0x80 SHR SWAP2 PUSH2 0x2C1C JUMP JUMPDEST SWAP2 PUSH17 0x100000162E430E5A18F6119E3C02282A5 MUL PUSH1 0x80 SHR SWAP2 PUSH2 0x2C0A JUMP JUMPDEST SWAP2 PUSH17 0x1000002C5C863B73F016468F6BAC5CA2B MUL PUSH1 0x80 SHR SWAP2 PUSH2 0x2BF8 JUMP JUMPDEST SWAP2 PUSH17 0x10000058B90CF1E6D97F9CA14DBCC1628 MUL PUSH1 0x80 SHR SWAP2 PUSH2 0x2BE6 JUMP JUMPDEST SWAP2 PUSH17 0x100000B1721BCFC99D9F890EA06911763 MUL PUSH1 0x80 SHR SWAP2 PUSH2 0x2BD4 JUMP JUMPDEST SWAP2 PUSH17 0x10000162E43F4F831060E02D839A9D16D MUL PUSH1 0x80 SHR SWAP2 PUSH2 0x2BC2 JUMP JUMPDEST SWAP2 PUSH17 0x100002C5C89D5EC6CA4D7C8ACC017B7C9 MUL PUSH1 0x80 SHR SWAP2 PUSH2 0x2BB0 JUMP JUMPDEST SWAP2 PUSH17 0x1000058B91B5BC9AE2EED81E9B7D4CFAB MUL PUSH1 0x80 SHR SWAP2 PUSH2 0x2B9E JUMP JUMPDEST SWAP2 PUSH17 0x10000B17255775C040618BF4A4ADE83FC MUL PUSH1 0x80 SHR SWAP2 PUSH2 0x2B8C JUMP JUMPDEST SWAP2 PUSH17 0x1000162E525EE054754457D5995292026 MUL PUSH1 0x80 SHR SWAP2 PUSH2 0x2B79 JUMP JUMPDEST SWAP2 PUSH17 0x10002C5CC37DA9491D0985C348C68E7B3 MUL PUSH1 0x80 SHR SWAP2 PUSH2 0x2B66 JUMP JUMPDEST SWAP2 PUSH17 0x100058BA01FB9F96D6CACD4B180917C3D MUL PUSH1 0x80 SHR SWAP2 PUSH2 0x2B53 JUMP JUMPDEST SWAP2 PUSH17 0x1000B175EFFDC76BA38E31671CA939725 MUL PUSH1 0x80 SHR SWAP2 PUSH2 0x2B40 JUMP JUMPDEST SWAP2 PUSH17 0x100162F3904051FA128BCA9C55C31E5DF MUL PUSH1 0x80 SHR SWAP2 PUSH2 0x2B2D JUMP JUMPDEST SWAP2 PUSH17 0x1002C605E2E8CEC506D21BFC89A23A00F MUL PUSH1 0x80 SHR SWAP2 PUSH2 0x2B1A JUMP JUMPDEST SWAP2 PUSH17 0x10058C86DA1C09EA1FF19D294CF2F679B MUL PUSH1 0x80 SHR SWAP2 PUSH2 0x2B07 JUMP JUMPDEST SWAP2 PUSH17 0x100B1AFA5ABCBED6129AB13EC11DC9543 MUL PUSH1 0x80 SHR SWAP2 PUSH2 0x2AF4 JUMP JUMPDEST SWAP2 PUSH17 0x10163DA9FB33356D84A66AE336DCDFA3F MUL PUSH1 0x80 SHR SWAP2 PUSH2 0x2AE0 JUMP JUMPDEST SWAP2 PUSH17 0x102C9A3E778060EE6F7CACA4F7A29BDE8 MUL PUSH1 0x80 SHR SWAP2 PUSH2 0x2ACC JUMP JUMPDEST SWAP2 PUSH17 0x1059B0D31585743AE7C548EB68CA417FD MUL PUSH1 0x80 SHR SWAP2 PUSH2 0x2AB8 JUMP JUMPDEST SWAP2 PUSH17 0x10B5586CF9890F6298B92B71842A98363 MUL PUSH1 0x80 SHR SWAP2 PUSH2 0x2AA4 JUMP JUMPDEST SWAP2 PUSH17 0x1172B83C7D517ADCDF7C8C50EB14A791F MUL PUSH1 0x80 SHR SWAP2 PUSH2 0x2A90 JUMP JUMPDEST SWAP2 PUSH17 0x1306FE0A31B7152DE8D5A46305C85EDEC MUL PUSH1 0x80 SHR SWAP2 PUSH2 0x2A7C JUMP JUMPDEST PUSH16 0xB504F333F9DE6484597D89B3754ABE9F SWAP3 POP PUSH2 0x2A68 JUMP JUMPDEST POP POP POP PUSH1 0x0 SWAP1 JUMP INVALID LOG2 PUSH5 0x6970667358 0x22 SLT KECCAK256 NOT SLT CALLDATALOAD 0xCE SWAP11 SWAP1 0x4C 0xA7 CALLDATALOAD DUP11 PUSH6 0x29ED7F8F3BA0 0xBF 0xA7 SWAP2 DUP13 0xB1 EXTCODESIZE CREATE PUSH12 0xAAFB0C22F5141D64736F6C63 NUMBER STOP ADDMOD EQ STOP CALLER 0xA6 PUSH13 0xC928B5EDB82AF9BD4992295415 GAS 0xB7 0xB0 SWAP5 0x26 SWAP5 0xBE LOG4 0xCE PREVRANDAO PUSH7 0x1D9A8736C688A2 PUSH5 0x6970667358 0x22 SLT KECCAK256 SSTORE 0xEC 0xA7 BASEFEE 0xAF 0x5E SSTORE INVALID COINBASE KECCAK256 0xAE 0xC5 SIGNEXTEND LOG2 0xA6 DUP12 0xD6 0xDB 0xEB 0xE0 MUL 0xD5 0xC5 PUSH4 0xBC4AA4C CALLDATALOAD JUMPDEST MLOAD PUSH18 0x64736F6C6343000814003360806040523462 STOP SUB 0xBA JUMPI PUSH3 0x2278 DUP1 CODESIZE SUB DUP1 PUSH3 0x1D DUP2 PUSH3 0x3D4 JUMP JUMPDEST SWAP3 DUP4 CODECOPY DUP2 ADD PUSH1 0x40 DUP3 DUP3 SUB SLT PUSH3 0x3BA JUMPI DUP2 MLOAD PUSH1 0x1 PUSH1 0x1 PUSH1 0x40 SHL SUB SWAP3 SWAP1 DUP4 DUP2 GT PUSH3 0x3BA JUMPI DUP2 ADD SWAP1 PUSH1 0x1F DUP4 DUP2 DUP5 ADD SLT ISZERO PUSH3 0x3BA JUMPI DUP3 MLOAD SWAP2 DUP6 DUP4 GT PUSH3 0x2C4 JUMPI PUSH1 0x20 SWAP3 PUSH1 0x1F NOT SWAP5 PUSH3 0x74 DUP6 DUP8 DUP7 DUP6 ADD AND ADD PUSH3 0x3D4 JUMP JUMPDEST SWAP7 DUP3 DUP9 MSTORE DUP6 DUP4 DUP4 ADD ADD GT PUSH3 0x3BA JUMPI SWAP1 DUP5 SWAP3 SWAP2 PUSH1 0x0 JUMPDEST DUP3 DUP2 LT PUSH3 0x3BF JUMPI POP POP PUSH1 0x0 SWAP1 DUP8 ADD DUP4 ADD MSTORE ADD MLOAD SWAP4 PUSH1 0x1 PUSH1 0x1 PUSH1 0xA0 SHL SUB SWAP3 DUP4 DUP7 AND DUP1 DUP8 SUB PUSH3 0x3BA JUMPI DUP3 MLOAD SWAP5 DUP9 DUP7 GT PUSH3 0x2C4 JUMPI PUSH1 0x2 SLOAD SWAP6 PUSH1 0x1 SWAP7 DUP8 DUP2 DUP2 SHR SWAP2 AND DUP1 ISZERO PUSH3 0x3AF JUMPI JUMPDEST DUP6 DUP3 LT EQ PUSH3 0x2A3 JUMPI DUP7 DUP2 GT PUSH3 0x363 JUMPI JUMPDEST POP DUP1 DUP5 DUP8 DUP3 GT PUSH1 0x1 EQ PUSH3 0x2FF JUMPI PUSH1 0x0 SWAP2 PUSH3 0x2F3 JUMPI JUMPDEST POP PUSH1 0x0 NOT PUSH1 0x3 DUP4 SWAP1 SHL SHR NOT AND SWAP1 DUP8 SHL OR PUSH1 0x2 SSTORE JUMPDEST DUP2 ISZERO PUSH3 0x2DA JUMPI PUSH1 0x3 DUP1 SLOAD PUSH1 0x1 PUSH1 0x1 PUSH1 0xA0 SHL SUB NOT DUP2 AND DUP5 OR SWAP1 SWAP2 SSTORE AND PUSH32 0x8BE0079C531659141344CD1FD0A4F28419497F9722A3DAAFE3B4186F6B6457E0 PUSH1 0x0 DUP1 LOG3 DUP2 MLOAD SWAP7 DUP8 GT PUSH3 0x2C4 JUMPI PUSH1 0x5 SWAP5 DUP6 SLOAD DUP6 DUP2 DUP2 SHR SWAP2 AND DUP1 ISZERO PUSH3 0x2B9 JUMPI JUMPDEST DUP4 DUP3 LT EQ PUSH3 0x2A3 JUMPI DUP5 DUP2 GT PUSH3 0x25A JUMPI JUMPDEST POP DUP2 SWAP4 DUP9 GT PUSH1 0x1 EQ PUSH3 0x1EF JUMPI POP POP SWAP5 DUP1 SWAP3 DUP2 SWAP3 PUSH3 0x1D2 SWAP8 PUSH1 0x0 SWAP5 PUSH3 0x1E3 JUMPI JUMPDEST POP POP SHL SWAP2 PUSH1 0x0 NOT SWAP1 PUSH1 0x3 SHL SHR NOT AND OR SWAP1 SSTORE JUMPDEST PUSH3 0x1BF DUP2 PUSH3 0x3FA JUMP JUMPDEST POP PUSH3 0x1CB DUP2 PUSH3 0x47B JUMP JUMPDEST POP PUSH3 0x51E JUMP JUMPDEST POP PUSH1 0x40 MLOAD PUSH2 0x1C9B SWAP1 DUP2 PUSH3 0x5BD DUP3 CODECOPY RETURN JUMPDEST ADD MLOAD SWAP3 POP CODESIZE DUP1 PUSH3 0x1A2 JUMP JUMPDEST DUP8 SWAP4 SWAP2 SWAP3 SWAP8 AND SWAP7 DUP6 PUSH1 0x0 MSTORE DUP3 PUSH1 0x0 KECCAK256 SWAP3 PUSH1 0x0 SWAP1 JUMPDEST DUP10 DUP3 LT PUSH3 0x242 JUMPI POP POP DUP4 PUSH3 0x1D2 SWAP9 LT PUSH3 0x228 JUMPI JUMPDEST POP POP POP DUP2 SHL ADD SWAP1 SSTORE PUSH3 0x1B4 JUMP JUMPDEST ADD MLOAD PUSH1 0x0 NOT PUSH1 0xF8 DUP5 PUSH1 0x3 SHL AND SHR NOT AND SWAP1 SSTORE CODESIZE DUP1 DUP1 PUSH3 0x21A JUMP JUMPDEST DUP1 DUP8 DUP6 SWAP7 DUP3 SWAP5 SWAP7 DUP7 ADD MLOAD DUP2 SSTORE ADD SWAP6 ADD SWAP4 ADD SWAP1 PUSH3 0x203 JUMP JUMPDEST DUP7 PUSH1 0x0 MSTORE DUP3 PUSH1 0x0 KECCAK256 DUP6 DUP1 DUP12 ADD DUP10 SHR DUP3 ADD SWAP3 DUP6 DUP13 LT PUSH3 0x299 JUMPI JUMPDEST ADD DUP9 SHR ADD SWAP1 DUP7 SWAP1 JUMPDEST DUP3 DUP2 LT PUSH3 0x28C JUMPI POP POP PUSH3 0x180 JUMP JUMPDEST PUSH1 0x0 DUP2 SSTORE ADD DUP7 SWAP1 PUSH3 0x27C JUMP JUMPDEST SWAP3 POP DUP2 SWAP3 PUSH3 0x274 JUMP JUMPDEST PUSH4 0x4E487B71 PUSH1 0xE0 SHL PUSH1 0x0 MSTORE PUSH1 0x22 PUSH1 0x4 MSTORE PUSH1 0x24 PUSH1 0x0 REVERT JUMPDEST SWAP1 PUSH1 0x7F AND SWAP1 PUSH3 0x16E JUMP JUMPDEST PUSH4 0x4E487B71 PUSH1 0xE0 SHL PUSH1 0x0 MSTORE PUSH1 0x41 PUSH1 0x4 MSTORE PUSH1 0x24 PUSH1 0x0 REVERT JUMPDEST PUSH1 0x40 MLOAD PUSH4 0x1E4FBDF7 PUSH1 0xE0 SHL DUP2 MSTORE PUSH1 0x0 PUSH1 0x4 DUP3 ADD MSTORE PUSH1 0x24 SWAP1 REVERT JUMPDEST SWAP1 POP DUP6 ADD MLOAD CODESIZE PUSH3 0xFC JUMP JUMPDEST DUP10 DUP10 SWAP4 AND SWAP1 PUSH1 0x2 PUSH1 0x0 MSTORE DUP7 PUSH1 0x0 KECCAK256 SWAP2 PUSH1 0x0 JUMPDEST DUP9 DUP3 DUP3 LT PUSH3 0x34C JUMPI POP POP DUP4 GT PUSH3 0x332 JUMPI JUMPDEST POP POP DUP2 SHL ADD PUSH1 0x2 SSTORE PUSH3 0x110 JUMP JUMPDEST DUP8 ADD MLOAD PUSH1 0x0 NOT PUSH1 0xF8 DUP5 PUSH1 0x3 SHL AND SHR NOT AND SWAP1 SSTORE CODESIZE DUP1 PUSH3 0x324 JUMP JUMPDEST DUP4 DUP12 ADD MLOAD DUP6 SSTORE DUP13 SWAP7 SWAP1 SWAP5 ADD SWAP4 SWAP3 DUP4 ADD SWAP3 ADD PUSH3 0x311 JUMP JUMPDEST PUSH1 0x2 PUSH1 0x0 MSTORE DUP5 PUSH1 0x0 KECCAK256 DUP8 DUP1 DUP5 ADD PUSH1 0x5 SHR DUP3 ADD SWAP3 DUP8 DUP6 LT PUSH3 0x3A5 JUMPI JUMPDEST ADD PUSH1 0x5 SHR ADD SWAP1 DUP9 SWAP1 JUMPDEST DUP3 DUP2 LT PUSH3 0x398 JUMPI POP POP PUSH3 0xE5 JUMP JUMPDEST PUSH1 0x0 DUP2 SSTORE ADD DUP9 SWAP1 PUSH3 0x388 JUMP JUMPDEST SWAP3 POP DUP2 SWAP3 PUSH3 0x37F JUMP JUMPDEST SWAP1 PUSH1 0x7F AND SWAP1 PUSH3 0xD3 JUMP JUMPDEST PUSH1 0x0 DUP1 REVERT JUMPDEST DUP2 DUP2 ADD DUP6 ADD MLOAD DUP10 DUP3 ADD DUP7 ADD MSTORE DUP7 SWAP5 ADD PUSH3 0x8A JUMP JUMPDEST PUSH1 0x40 MLOAD SWAP2 SWAP1 PUSH1 0x1F ADD PUSH1 0x1F NOT AND DUP3 ADD PUSH1 0x1 PUSH1 0x1 PUSH1 0x40 SHL SUB DUP2 GT DUP4 DUP3 LT OR PUSH3 0x2C4 JUMPI PUSH1 0x40 MSTORE JUMP JUMPDEST PUSH1 0x1 PUSH1 0x1 PUSH1 0xA0 SHL SUB AND PUSH1 0x0 DUP2 DUP2 MSTORE PUSH32 0x17EF568E3E12AB5B9C7254A8D58478811DE00F9E6EB34345ACD53BF8FD09D3EC PUSH1 0x20 MSTORE PUSH1 0x40 DUP2 KECCAK256 SLOAD SWAP1 SWAP2 SWAP1 PUSH1 0xFF AND PUSH3 0x477 JUMPI DUP2 DUP1 MSTORE PUSH1 0x4 PUSH1 0x20 MSTORE PUSH1 0x40 DUP3 KECCAK256 DUP2 DUP4 MSTORE PUSH1 0x20 MSTORE PUSH1 0x40 DUP3 KECCAK256 PUSH1 0x1 PUSH1 0xFF NOT DUP3 SLOAD AND OR SWAP1 SSTORE CALLER SWAP2 PUSH1 0x0 DUP1 MLOAD PUSH1 0x20 PUSH3 0x2258 DUP4 CODECOPY DUP2 MLOAD SWAP2 MSTORE DUP2 DUP1 LOG4 PUSH1 0x1 SWAP1 JUMP JUMPDEST POP SWAP1 JUMP JUMPDEST PUSH1 0x1 PUSH1 0x1 PUSH1 0xA0 SHL SUB AND PUSH1 0x0 DUP2 DUP2 MSTORE PUSH32 0xC8A67FF93CD072913F31C50776E9DA9E00867535CBAA98368A69DAFA551E5534 PUSH1 0x20 MSTORE PUSH1 0x40 DUP2 KECCAK256 SLOAD SWAP1 SWAP2 SWAP1 PUSH32 0x9F2DF0FED2C77648DE5860A4CC508CD0818C85B8B8A1AB4CEEEF8D981C8956A6 SWAP1 PUSH1 0xFF AND PUSH3 0x519 JUMPI DUP1 DUP4 MSTORE PUSH1 0x4 PUSH1 0x20 MSTORE PUSH1 0x40 DUP4 KECCAK256 DUP3 DUP5 MSTORE PUSH1 0x20 MSTORE PUSH1 0x40 DUP4 KECCAK256 PUSH1 0x1 PUSH1 0xFF NOT DUP3 SLOAD AND OR SWAP1 SSTORE PUSH1 0x0 DUP1 MLOAD PUSH1 0x20 PUSH3 0x2258 DUP4 CODECOPY DUP2 MLOAD SWAP2 MSTORE CALLER SWAP4 DUP1 LOG4 PUSH1 0x1 SWAP1 JUMP JUMPDEST POP POP SWAP1 JUMP JUMPDEST PUSH1 0x1 PUSH1 0x1 PUSH1 0xA0 SHL SUB AND PUSH1 0x0 DUP2 DUP2 MSTORE PUSH32 0xB82C046EAD5C152B204781FECB4D5F82EF023694E7CDA46A44BF9A793E5FBD7 PUSH1 0x20 MSTORE PUSH1 0x40 DUP2 KECCAK256 SLOAD SWAP1 SWAP2 SWAP1 PUSH32 0x3C11D16CBAFFD01DF69CE1C404F6340EE057498F5F00246190EA54220576A848 SWAP1 PUSH1 0xFF AND PUSH3 0x519 JUMPI DUP1 DUP4 MSTORE PUSH1 0x4 PUSH1 0x20 MSTORE PUSH1 0x40 DUP4 KECCAK256 DUP3 DUP5 MSTORE PUSH1 0x20 MSTORE PUSH1 0x40 DUP4 KECCAK256 PUSH1 0x1 PUSH1 0xFF NOT DUP3 SLOAD AND OR SWAP1 SSTORE PUSH1 0x0 DUP1 MLOAD PUSH1 0x20 PUSH3 0x2258 DUP4 CODECOPY DUP2 MLOAD SWAP2 MSTORE CALLER SWAP4 DUP1 LOG4 PUSH1 0x1 SWAP1 JUMP INVALID PUSH1 0x80 PUSH1 0x40 MSTORE PUSH1 0x4 CALLDATASIZE LT ISZERO PUSH2 0x12 JUMPI PUSH1 0x0 DUP1 REVERT JUMPDEST PUSH1 0x0 CALLDATALOAD PUSH1 0xE0 SHR DUP1 PUSH3 0xFDD58E EQ PUSH2 0x176 JUMPI DUP1 PUSH4 0x1FFC9A7 EQ PUSH2 0x171 JUMPI DUP1 PUSH4 0xE89341C EQ PUSH2 0x16C JUMPI DUP1 PUSH4 0x248A9CA3 EQ PUSH2 0x167 JUMPI DUP1 PUSH4 0x282C51F3 EQ PUSH2 0x162 JUMPI DUP1 PUSH4 0x2EB2C2D6 EQ PUSH2 0x15D JUMPI DUP1 PUSH4 0x2F2FF15D EQ PUSH2 0x158 JUMPI DUP1 PUSH4 0x3112DE9A EQ PUSH2 0x153 JUMPI DUP1 PUSH4 0x36568ABE EQ PUSH2 0x14E JUMPI DUP1 PUSH4 0x4E1273F4 EQ PUSH2 0x149 JUMPI DUP1 PUSH4 0x715018A6 EQ PUSH2 0x144 JUMPI DUP1 PUSH4 0x8DA5CB5B EQ PUSH2 0x13F JUMPI DUP1 PUSH4 0x91D14854 EQ PUSH2 0x13A JUMPI DUP1 PUSH4 0xA217FDDF EQ PUSH2 0x135 JUMPI DUP1 PUSH4 0xA22CB465 EQ PUSH2 0x130 JUMPI DUP1 PUSH4 0xA647E8EC EQ PUSH2 0x12B JUMPI DUP1 PUSH4 0xD5391393 EQ PUSH2 0x126 JUMPI DUP1 PUSH4 0xD547741F EQ PUSH2 0x121 JUMPI DUP1 PUSH4 0xDE7BF0A2 EQ PUSH2 0x11C JUMPI DUP1 PUSH4 0xE985E9C5 EQ PUSH2 0x117 JUMPI DUP1 PUSH4 0xF242432A EQ PUSH2 0x112 JUMPI PUSH4 0xF2FDE38B EQ PUSH2 0x10D JUMPI PUSH1 0x0 DUP1 REVERT JUMPDEST PUSH2 0xF2D JUMP JUMPDEST PUSH2 0xE0F JUMP JUMPDEST PUSH2 0xDBE JUMP JUMPDEST PUSH2 0xCA9 JUMP JUMPDEST PUSH2 0xC6A JUMP JUMPDEST PUSH2 0xC2F JUMP JUMPDEST PUSH2 0xAFA JUMP JUMPDEST PUSH2 0xA10 JUMP JUMPDEST PUSH2 0x9F4 JUMP JUMPDEST PUSH2 0x9A2 JUMP JUMPDEST PUSH2 0x979 JUMP JUMPDEST PUSH2 0x918 JUMP JUMPDEST PUSH2 0x85E JUMP JUMPDEST PUSH2 0x7D2 JUMP JUMPDEST PUSH2 0x7A9 JUMP JUMPDEST PUSH2 0x76A JUMP JUMPDEST PUSH2 0x641 JUMP JUMPDEST PUSH2 0x4D4 JUMP JUMPDEST PUSH2 0x4A5 JUMP JUMPDEST PUSH2 0x303 JUMP JUMPDEST PUSH2 0x21F JUMP JUMPDEST PUSH2 0x1C0 JUMP JUMPDEST PUSH1 0x4 CALLDATALOAD SWAP1 PUSH1 0x1 PUSH1 0x1 PUSH1 0xA0 SHL SUB DUP3 AND DUP3 SUB PUSH2 0x191 JUMPI JUMP JUMPDEST PUSH1 0x0 DUP1 REVERT JUMPDEST PUSH1 0x24 CALLDATALOAD SWAP1 PUSH1 0x1 PUSH1 0x1 PUSH1 0xA0 SHL SUB DUP3 AND DUP3 SUB PUSH2 0x191 JUMPI JUMP JUMPDEST CALLDATALOAD SWAP1 PUSH1 0x1 PUSH1 0x1 PUSH1 0xA0 SHL SUB DUP3 AND DUP3 SUB PUSH2 0x191 JUMPI JUMP JUMPDEST CALLVALUE PUSH2 0x191 JUMPI PUSH1 0x40 CALLDATASIZE PUSH1 0x3 NOT ADD SLT PUSH2 0x191 JUMPI PUSH1 0x20 PUSH2 0x204 PUSH2 0x1DE PUSH2 0x17B JUMP JUMPDEST PUSH1 0x24 CALLDATALOAD PUSH1 0x0 MSTORE PUSH1 0x0 DUP4 MSTORE PUSH1 0x40 PUSH1 0x0 KECCAK256 SWAP1 PUSH1 0x1 DUP1 PUSH1 0xA0 SHL SUB AND PUSH1 0x0 MSTORE PUSH1 0x20 MSTORE PUSH1 0x40 PUSH1 0x0 KECCAK256 SWAP1 JUMP JUMPDEST SLOAD PUSH1 0x40 MLOAD SWAP1 DUP2 MSTORE RETURN JUMPDEST PUSH1 0x1 PUSH1 0x1 PUSH1 0xE0 SHL SUB NOT DUP2 AND SUB PUSH2 0x191 JUMPI JUMP JUMPDEST CALLVALUE PUSH2 0x191 JUMPI PUSH1 0x20 CALLDATASIZE PUSH1 0x3 NOT ADD SLT PUSH2 0x191 JUMPI PUSH1 0x20 PUSH1 0x4 CALLDATALOAD PUSH2 0x23E DUP2 PUSH2 0x20D JUMP JUMPDEST PUSH4 0xFFFFFFFF PUSH1 0xE0 SHL AND PUSH4 0x7965DB0B PUSH1 0xE0 SHL DUP2 EQ SWAP1 DUP2 ISZERO PUSH2 0x264 JUMPI JUMPDEST POP PUSH1 0x40 MLOAD SWAP1 ISZERO ISZERO DUP2 MSTORE RETURN JUMPDEST PUSH4 0x6CDB3D13 PUSH1 0xE1 SHL DUP2 EQ SWAP2 POP DUP2 ISZERO PUSH2 0x296 JUMPI JUMPDEST DUP2 ISZERO PUSH2 0x285 JUMPI JUMPDEST POP CODESIZE PUSH2 0x259 JUMP JUMPDEST PUSH4 0x1FFC9A7 PUSH1 0xE0 SHL EQ SWAP1 POP CODESIZE PUSH2 0x27E JUMP JUMPDEST PUSH4 0x3A24D07 PUSH1 0xE2 SHL DUP2 EQ SWAP2 POP PUSH2 0x277 JUMP JUMPDEST PUSH1 0x0 JUMPDEST DUP4 DUP2 LT PUSH2 0x2BA JUMPI POP POP PUSH1 0x0 SWAP2 ADD MSTORE JUMP JUMPDEST DUP2 DUP2 ADD MLOAD DUP4 DUP3 ADD MSTORE PUSH1 0x20 ADD PUSH2 0x2AA JUMP JUMPDEST SWAP1 PUSH1 0x20 SWAP2 PUSH2 0x2E3 DUP2 MLOAD DUP1 SWAP3 DUP2 DUP6 MSTORE DUP6 DUP1 DUP7 ADD SWAP2 ADD PUSH2 0x2A7 JUMP JUMPDEST PUSH1 0x1F ADD PUSH1 0x1F NOT AND ADD ADD SWAP1 JUMP JUMPDEST SWAP1 PUSH1 0x20 PUSH2 0x300 SWAP3 DUP2 DUP2 MSTORE ADD SWAP1 PUSH2 0x2CA JUMP JUMPDEST SWAP1 JUMP JUMPDEST CALLVALUE PUSH2 0x191 JUMPI PUSH1 0x20 CALLDATASIZE PUSH1 0x3 NOT ADD SLT PUSH2 0x191 JUMPI PUSH1 0x0 PUSH1 0x4 CALLDATALOAD DUP1 PUSH27 0x184F03E93FF9F4DAA797ED6E38ED64BF6A1F010000000000000000 DUP1 DUP3 LT ISZERO PUSH2 0x497 JUMPI JUMPDEST POP PUSH14 0x4EE2D6D415B85ACEF8100000000 DUP1 DUP4 LT ISZERO PUSH2 0x488 JUMPI JUMPDEST POP PUSH7 0x2386F26FC10000 DUP1 DUP4 LT ISZERO PUSH2 0x479 JUMPI JUMPDEST POP PUSH4 0x5F5E100 DUP1 DUP4 LT ISZERO PUSH2 0x46A JUMPI JUMPDEST POP PUSH2 0x2710 DUP1 DUP4 LT ISZERO PUSH2 0x45B JUMPI JUMPDEST POP PUSH1 0x64 DUP3 LT ISZERO PUSH2 0x44B JUMPI JUMPDEST PUSH1 0xA DUP1 SWAP3 LT ISZERO PUSH2 0x441 JUMPI JUMPDEST PUSH1 0x1 SWAP1 DUP2 PUSH1 0x21 PUSH2 0x3AD DUP3 DUP8 ADD PUSH2 0x1C33 JUMP JUMPDEST SWAP6 DUP7 ADD ADD SWAP1 JUMPDEST PUSH2 0x40B JUMPI JUMPDEST PUSH1 0x40 MLOAD PUSH2 0x407 SWAP1 PUSH2 0x3FB DUP2 PUSH2 0x3ED PUSH2 0x3DC DUP11 PUSH2 0x3D6 PUSH1 0x20 DUP6 ADD PUSH2 0x1B49 JUMP JUMPDEST SWAP1 PUSH2 0x1C1C JUMP JUMPDEST PUSH5 0x173539B7B7 PUSH1 0xD9 SHL DUP2 MSTORE PUSH1 0x5 ADD SWAP1 JUMP JUMPDEST SUB PUSH1 0x1F NOT DUP2 ADD DUP4 MSTORE DUP3 PUSH2 0x546 JUMP JUMPDEST PUSH1 0x40 MLOAD SWAP2 DUP3 SWAP2 DUP3 PUSH2 0x2EF JUMP JUMPDEST SUB SWAP1 RETURN JUMPDEST PUSH1 0x0 NOT ADD SWAP1 DUP4 SWAP1 PUSH16 0x181899199A1A9B1B9C1CB0B131B232B3 PUSH1 0x81 SHL DUP3 DUP3 MOD BYTE DUP4 MSTORE8 DIV SWAP2 DUP3 ISZERO PUSH2 0x43C JUMPI SWAP2 SWAP1 DUP3 PUSH2 0x3B3 JUMP JUMPDEST PUSH2 0x3B8 JUMP JUMPDEST SWAP2 PUSH1 0x1 ADD SWAP2 PUSH2 0x39C JUMP JUMPDEST SWAP2 SWAP1 PUSH1 0x64 PUSH1 0x2 SWAP2 DIV SWAP2 ADD SWAP2 PUSH2 0x391 JUMP JUMPDEST PUSH1 0x4 SWAP2 SWAP4 SWAP3 DIV SWAP2 ADD SWAP2 CODESIZE PUSH2 0x386 JUMP JUMPDEST PUSH1 0x8 SWAP2 SWAP4 SWAP3 DIV SWAP2 ADD SWAP2 CODESIZE PUSH2 0x379 JUMP JUMPDEST PUSH1 0x10 SWAP2 SWAP4 SWAP3 DIV SWAP2 ADD SWAP2 CODESIZE PUSH2 0x36A JUMP JUMPDEST PUSH1 0x20 SWAP2 SWAP4 SWAP3 DIV SWAP2 ADD SWAP2 CODESIZE PUSH2 0x358 JUMP JUMPDEST PUSH1 0x40 SWAP4 POP DUP2 DIV SWAP2 POP CODESIZE PUSH2 0x33F JUMP JUMPDEST CALLVALUE PUSH2 0x191 JUMPI PUSH1 0x20 CALLDATASIZE PUSH1 0x3 NOT ADD SLT PUSH2 0x191 JUMPI PUSH1 0x4 CALLDATALOAD PUSH1 0x0 MSTORE PUSH1 0x4 PUSH1 0x20 MSTORE PUSH1 0x20 PUSH1 0x1 PUSH1 0x40 PUSH1 0x0 KECCAK256 ADD SLOAD PUSH1 0x40 MLOAD SWAP1 DUP2 MSTORE RETURN JUMPDEST CALLVALUE PUSH2 0x191 JUMPI PUSH1 0x0 CALLDATASIZE PUSH1 0x3 NOT ADD SLT PUSH2 0x191 JUMPI PUSH1 0x20 PUSH1 0x40 MLOAD PUSH32 0x3C11D16CBAFFD01DF69CE1C404F6340EE057498F5F00246190EA54220576A848 DUP2 MSTORE RETURN JUMPDEST PUSH4 0x4E487B71 PUSH1 0xE0 SHL PUSH1 0x0 MSTORE PUSH1 0x41 PUSH1 0x4 MSTORE PUSH1 0x24 PUSH1 0x0 REVERT JUMPDEST PUSH1 0x20 DUP2 ADD SWAP1 DUP2 LT PUSH8 0xFFFFFFFFFFFFFFFF DUP3 GT OR PUSH2 0x541 JUMPI PUSH1 0x40 MSTORE JUMP JUMPDEST PUSH2 0x50F JUMP JUMPDEST SWAP1 PUSH1 0x1F DUP1 NOT SWAP2 ADD AND DUP2 ADD SWAP1 DUP2 LT PUSH8 0xFFFFFFFFFFFFFFFF DUP3 GT OR PUSH2 0x541 JUMPI PUSH1 0x40 MSTORE JUMP JUMPDEST PUSH8 0xFFFFFFFFFFFFFFFF DUP2 GT PUSH2 0x541 JUMPI PUSH1 0x5 SHL PUSH1 0x20 ADD SWAP1 JUMP JUMPDEST DUP2 PUSH1 0x1F DUP3 ADD SLT ISZERO PUSH2 0x191 JUMPI DUP1 CALLDATALOAD SWAP2 PUSH2 0x597 DUP4 PUSH2 0x568 JUMP JUMPDEST SWAP3 PUSH2 0x5A5 PUSH1 0x40 MLOAD SWAP5 DUP6 PUSH2 0x546 JUMP JUMPDEST DUP1 DUP5 MSTORE PUSH1 0x20 SWAP3 DUP4 DUP1 DUP7 ADD SWAP3 PUSH1 0x5 SHL DUP3 ADD ADD SWAP3 DUP4 GT PUSH2 0x191 JUMPI DUP4 ADD SWAP1 JUMPDEST DUP3 DUP3 LT PUSH2 0x5CF JUMPI POP POP POP POP SWAP1 JUMP JUMPDEST DUP2 CALLDATALOAD DUP2 MSTORE SWAP1 DUP4 ADD SWAP1 DUP4 ADD PUSH2 0x5C1 JUMP JUMPDEST PUSH8 0xFFFFFFFFFFFFFFFF DUP2 GT PUSH2 0x541 JUMPI PUSH1 0x1F ADD PUSH1 0x1F NOT AND PUSH1 0x20 ADD SWAP1 JUMP JUMPDEST DUP2 PUSH1 0x1F DUP3 ADD SLT ISZERO PUSH2 0x191 JUMPI DUP1 CALLDATALOAD SWAP1 PUSH2 0x611 DUP3 PUSH2 0x5DE JUMP JUMPDEST SWAP3 PUSH2 0x61F PUSH1 0x40 MLOAD SWAP5 DUP6 PUSH2 0x546 JUMP JUMPDEST DUP3 DUP5 MSTORE PUSH1 0x20 DUP4 DUP4 ADD ADD GT PUSH2 0x191 JUMPI DUP2 PUSH1 0x0 SWAP3 PUSH1 0x20 DUP1 SWAP4 ADD DUP4 DUP7 ADD CALLDATACOPY DUP4 ADD ADD MSTORE SWAP1 JUMP JUMPDEST CALLVALUE PUSH2 0x191 JUMPI PUSH1 0xA0 CALLDATASIZE PUSH1 0x3 NOT ADD SLT PUSH2 0x191 JUMPI PUSH2 0x65A PUSH2 0x17B JUMP JUMPDEST PUSH2 0x662 PUSH2 0x196 JUMP JUMPDEST SWAP1 PUSH1 0x44 CALLDATALOAD SWAP2 PUSH8 0xFFFFFFFFFFFFFFFF SWAP1 DUP2 DUP5 GT PUSH2 0x191 JUMPI PUSH2 0x687 PUSH1 0x4 SWAP5 CALLDATASIZE SWAP1 DUP7 ADD PUSH2 0x580 JUMP JUMPDEST SWAP1 PUSH1 0x64 CALLDATALOAD DUP4 DUP2 GT PUSH2 0x191 JUMPI PUSH2 0x69F SWAP1 CALLDATASIZE SWAP1 DUP8 ADD PUSH2 0x580 JUMP JUMPDEST SWAP3 PUSH1 0x84 CALLDATALOAD SWAP1 DUP2 GT PUSH2 0x191 JUMPI PUSH2 0x6B7 SWAP1 CALLDATASIZE SWAP1 DUP8 ADD PUSH2 0x5FA JUMP JUMPDEST SWAP4 PUSH1 0x1 PUSH1 0x1 PUSH1 0xA0 SHL SUB DUP1 DUP3 AND SWAP1 CALLER DUP3 EQ ISZERO DUP1 PUSH2 0x746 JUMPI JUMPDEST PUSH2 0x719 JUMPI DUP4 AND ISZERO PUSH2 0x701 JUMPI ISZERO PUSH2 0x6EA JUMPI PUSH2 0x6E8 SWAP6 POP PUSH2 0x142B JUMP JUMPDEST STOP JUMPDEST PUSH1 0x40 MLOAD PUSH3 0x6A0D45 PUSH1 0xE2 SHL DUP2 MSTORE PUSH1 0x0 DUP2 DUP9 ADD MSTORE PUSH1 0x24 SWAP1 REVERT JUMPDEST PUSH1 0x40 MLOAD PUSH4 0x2BFA23E7 PUSH1 0xE1 SHL DUP2 MSTORE PUSH1 0x0 DUP2 DUP10 ADD MSTORE PUSH1 0x24 SWAP1 REVERT JUMPDEST PUSH1 0x40 DUP1 MLOAD PUSH4 0x711BEC91 PUSH1 0xE1 SHL DUP2 MSTORE CALLER DUP2 DUP12 ADD SWAP1 DUP2 MSTORE PUSH1 0x1 PUSH1 0x1 PUSH1 0xA0 SHL SUB DUP7 AND PUSH1 0x20 DUP3 ADD MSTORE SWAP1 SWAP2 DUP3 SWAP2 ADD SUB SWAP1 REVERT JUMPDEST POP PUSH1 0x0 DUP3 DUP2 MSTORE PUSH1 0x1 PUSH1 0x20 SWAP1 DUP2 MSTORE PUSH1 0x40 DUP1 DUP4 KECCAK256 CALLER DUP5 MSTORE SWAP1 SWAP2 MSTORE SWAP1 KECCAK256 SLOAD PUSH1 0xFF AND ISZERO PUSH2 0x6CE JUMP JUMPDEST CALLVALUE PUSH2 0x191 JUMPI PUSH1 0x40 CALLDATASIZE PUSH1 0x3 NOT ADD SLT PUSH2 0x191 JUMPI PUSH2 0x6E8 PUSH1 0x4 CALLDATALOAD PUSH2 0x789 PUSH2 0x196 JUMP JUMPDEST SWAP1 DUP1 PUSH1 0x0 MSTORE PUSH1 0x4 PUSH1 0x20 MSTORE PUSH2 0x7A4 PUSH1 0x1 PUSH1 0x40 PUSH1 0x0 KECCAK256 ADD SLOAD PUSH2 0x1019 JUMP JUMPDEST PUSH2 0x103A JUMP JUMPDEST CALLVALUE PUSH2 0x191 JUMPI PUSH1 0x40 CALLDATASIZE PUSH1 0x3 NOT ADD SLT PUSH2 0x191 JUMPI PUSH1 0x20 PUSH2 0x7CA PUSH1 0x24 CALLDATALOAD PUSH1 0x4 CALLDATALOAD PUSH2 0x1B23 JUMP JUMPDEST PUSH1 0x40 MLOAD SWAP1 DUP2 MSTORE RETURN JUMPDEST CALLVALUE PUSH2 0x191 JUMPI PUSH1 0x40 CALLDATASIZE PUSH1 0x3 NOT ADD SLT PUSH2 0x191 JUMPI PUSH2 0x7EB PUSH2 0x196 JUMP JUMPDEST CALLER PUSH1 0x1 PUSH1 0x1 PUSH1 0xA0 SHL SUB DUP3 AND SUB PUSH2 0x807 JUMPI PUSH2 0x6E8 SWAP1 PUSH1 0x4 CALLDATALOAD PUSH2 0x10D4 JUMP JUMPDEST PUSH1 0x40 MLOAD PUSH4 0x334BD919 PUSH1 0xE1 SHL DUP2 MSTORE PUSH1 0x4 SWAP1 REVERT JUMPDEST SWAP1 DUP2 MLOAD DUP1 DUP3 MSTORE PUSH1 0x20 DUP1 DUP1 SWAP4 ADD SWAP4 ADD SWAP2 PUSH1 0x0 JUMPDEST DUP3 DUP2 LT PUSH2 0x839 JUMPI POP POP POP POP SWAP1 JUMP JUMPDEST DUP4 MLOAD DUP6 MSTORE SWAP4 DUP2 ADD SWAP4 SWAP3 DUP2 ADD SWAP3 PUSH1 0x1 ADD PUSH2 0x82B JUMP JUMPDEST SWAP1 PUSH1 0x20 PUSH2 0x300 SWAP3 DUP2 DUP2 MSTORE ADD SWAP1 PUSH2 0x819 JUMP JUMPDEST CALLVALUE PUSH2 0x191 JUMPI PUSH1 0x40 CALLDATASIZE PUSH1 0x3 NOT ADD SLT PUSH2 0x191 JUMPI PUSH1 0x4 CALLDATALOAD PUSH8 0xFFFFFFFFFFFFFFFF DUP1 DUP3 GT PUSH2 0x191 JUMPI CALLDATASIZE PUSH1 0x23 DUP4 ADD SLT ISZERO PUSH2 0x191 JUMPI DUP2 PUSH1 0x4 ADD CALLDATALOAD PUSH2 0x89B DUP2 PUSH2 0x568 JUMP JUMPDEST SWAP3 PUSH2 0x8A9 PUSH1 0x40 MLOAD SWAP5 DUP6 PUSH2 0x546 JUMP JUMPDEST DUP2 DUP5 MSTORE PUSH1 0x20 SWAP2 PUSH1 0x24 DUP4 DUP7 ADD SWAP2 PUSH1 0x5 SHL DUP4 ADD ADD SWAP2 CALLDATASIZE DUP4 GT PUSH2 0x191 JUMPI PUSH1 0x24 ADD SWAP1 JUMPDEST DUP3 DUP3 LT PUSH2 0x901 JUMPI DUP6 PUSH1 0x24 CALLDATALOAD DUP7 DUP2 GT PUSH2 0x191 JUMPI PUSH2 0x407 SWAP2 PUSH2 0x8EF PUSH2 0x8F5 SWAP3 CALLDATASIZE SWAP1 PUSH1 0x4 ADD PUSH2 0x580 JUMP JUMPDEST SWAP1 PUSH2 0x11E6 JUMP JUMPDEST PUSH1 0x40 MLOAD SWAP2 DUP3 SWAP2 DUP3 PUSH2 0x84D JUMP JUMPDEST DUP4 DUP1 SWAP2 PUSH2 0x90D DUP5 PUSH2 0x1AC JUMP JUMPDEST DUP2 MSTORE ADD SWAP2 ADD SWAP1 PUSH2 0x8C8 JUMP JUMPDEST CALLVALUE PUSH2 0x191 JUMPI PUSH1 0x0 DUP1 PUSH1 0x3 NOT CALLDATASIZE ADD SLT PUSH2 0x976 JUMPI PUSH2 0x932 PUSH2 0x1166 JUMP JUMPDEST PUSH1 0x3 DUP1 SLOAD PUSH1 0x1 PUSH1 0x1 PUSH1 0xA0 SHL SUB NOT DUP2 AND SWAP1 SWAP2 SSTORE DUP2 SWAP1 PUSH1 0x1 PUSH1 0x1 PUSH1 0xA0 SHL SUB AND PUSH32 0x8BE0079C531659141344CD1FD0A4F28419497F9722A3DAAFE3B4186F6B6457E0 DUP3 DUP1 LOG3 DUP1 RETURN JUMPDEST DUP1 REVERT JUMPDEST CALLVALUE PUSH2 0x191 JUMPI PUSH1 0x0 CALLDATASIZE PUSH1 0x3 NOT ADD SLT PUSH2 0x191 JUMPI PUSH1 0x3 SLOAD PUSH1 0x40 MLOAD PUSH1 0x1 PUSH1 0x1 PUSH1 0xA0 SHL SUB SWAP1 SWAP2 AND DUP2 MSTORE PUSH1 0x20 SWAP1 RETURN JUMPDEST CALLVALUE PUSH2 0x191 JUMPI PUSH1 0x40 CALLDATASIZE PUSH1 0x3 NOT ADD SLT PUSH2 0x191 JUMPI PUSH1 0x20 PUSH1 0xFF PUSH2 0x9E8 PUSH2 0x9C2 PUSH2 0x196 JUMP JUMPDEST PUSH1 0x4 CALLDATALOAD PUSH1 0x0 MSTORE PUSH1 0x4 DUP5 MSTORE PUSH1 0x40 PUSH1 0x0 KECCAK256 SWAP1 PUSH1 0x1 DUP1 PUSH1 0xA0 SHL SUB AND PUSH1 0x0 MSTORE PUSH1 0x20 MSTORE PUSH1 0x40 PUSH1 0x0 KECCAK256 SWAP1 JUMP JUMPDEST SLOAD AND PUSH1 0x40 MLOAD SWAP1 ISZERO ISZERO DUP2 MSTORE RETURN JUMPDEST CALLVALUE PUSH2 0x191 JUMPI PUSH1 0x0 CALLDATASIZE PUSH1 0x3 NOT ADD SLT PUSH2 0x191 JUMPI PUSH1 0x20 PUSH1 0x40 MLOAD PUSH1 0x0 DUP2 MSTORE RETURN JUMPDEST CALLVALUE PUSH2 0x191 JUMPI PUSH1 0x40 CALLDATASIZE PUSH1 0x3 NOT ADD SLT PUSH2 0x191 JUMPI PUSH2 0xA29 PUSH2 0x17B JUMP JUMPDEST PUSH1 0x24 CALLDATALOAD SWAP1 DUP2 ISZERO ISZERO SWAP1 DUP2 DUP4 SUB PUSH2 0x191 JUMPI PUSH1 0x1 PUSH1 0x1 PUSH1 0xA0 SHL SUB DUP2 AND SWAP3 DUP4 ISZERO PUSH2 0xAB4 JUMPI PUSH2 0xA75 PUSH2 0xA86 SWAP3 CALLER PUSH1 0x0 MSTORE PUSH1 0x1 PUSH1 0x20 MSTORE PUSH1 0x40 PUSH1 0x0 KECCAK256 SWAP1 PUSH1 0x1 DUP1 PUSH1 0xA0 SHL SUB AND PUSH1 0x0 MSTORE PUSH1 0x20 MSTORE PUSH1 0x40 PUSH1 0x0 KECCAK256 SWAP1 JUMP JUMPDEST SWAP1 PUSH1 0xFF DUP1 NOT DUP4 SLOAD AND SWAP2 ISZERO ISZERO AND OR SWAP1 SSTORE JUMP JUMPDEST PUSH1 0x40 MLOAD SWAP1 DUP2 MSTORE PUSH32 0x17307EAB39AB6107E8899845AD3D59BD9653F200F220920489CA2B5937696C31 PUSH1 0x20 CALLER SWAP3 LOG3 STOP JUMPDEST PUSH1 0x40 MLOAD PUSH3 0xCED3E1 PUSH1 0xE8 SHL DUP2 MSTORE PUSH1 0x0 PUSH1 0x4 DUP3 ADD MSTORE PUSH1 0x24 SWAP1 REVERT JUMPDEST PUSH1 0x80 SWAP1 PUSH1 0x3 NOT ADD SLT PUSH2 0x191 JUMPI PUSH1 0x4 CALLDATALOAD PUSH1 0x1 PUSH1 0x1 PUSH1 0xA0 SHL SUB DUP2 AND DUP2 SUB PUSH2 0x191 JUMPI SWAP1 PUSH1 0x24 CALLDATALOAD SWAP1 PUSH1 0x44 CALLDATALOAD SWAP1 PUSH1 0x64 CALLDATALOAD SWAP1 JUMP JUMPDEST CALLVALUE PUSH2 0x191 JUMPI PUSH2 0xB08 CALLDATASIZE PUSH2 0xACC JUMP JUMPDEST CALLER PUSH1 0x0 SWAP1 DUP2 MSTORE PUSH32 0xC8A67FF93CD072913F31C50776E9DA9E00867535CBAA98368A69DAFA551E5534 PUSH1 0x20 MSTORE PUSH1 0x40 DUP2 KECCAK256 SLOAD SWAP1 SWAP5 SWAP2 SWAP4 SWAP2 SWAP3 SWAP2 SWAP1 PUSH32 0x9F2DF0FED2C77648DE5860A4CC508CD0818C85B8B8A1AB4CEEEF8D981C8956A6 SWAP1 PUSH1 0xFF AND ISZERO PUSH2 0xC11 JUMPI POP SWAP1 PUSH2 0xB74 SWAP2 PUSH2 0x1B23 JUMP JUMPDEST SWAP2 PUSH1 0x40 MLOAD PUSH2 0xB81 DUP2 PUSH2 0x525 JUMP JUMPDEST DUP5 DUP2 MSTORE PUSH1 0x1 PUSH1 0x1 PUSH1 0xA0 SHL SUB DUP4 AND SWAP3 DUP4 ISZERO PUSH2 0xBF8 JUMPI SWAP2 PUSH2 0xBEE PUSH1 0x20 SWAP3 PUSH32 0x2E8AC5177A616F2AEC08C3048F5021E4E9743ECE034E8D83BA5CAF76688BB475 SWAP5 PUSH2 0xBE8 DUP5 DUP10 SWAP2 PUSH1 0x40 MLOAD SWAP3 PUSH1 0x1 DUP5 MSTORE PUSH1 0x20 DUP5 ADD MSTORE PUSH1 0x40 DUP4 ADD SWAP2 PUSH1 0x1 DUP4 MSTORE PUSH1 0x60 DUP5 ADD MSTORE PUSH1 0x80 DUP4 ADD PUSH1 0x40 MSTORE JUMP JUMPDEST SWAP2 PUSH2 0x12AB JUMP JUMPDEST PUSH1 0x40 MLOAD SWAP1 DUP2 MSTORE LOG3 DUP1 RETURN JUMPDEST PUSH1 0x40 MLOAD PUSH4 0x2BFA23E7 PUSH1 0xE1 SHL DUP2 MSTORE PUSH1 0x4 DUP2 ADD DUP8 SWAP1 MSTORE PUSH1 0x24 SWAP1 REVERT JUMPDEST PUSH1 0x44 SWAP1 PUSH1 0x40 MLOAD SWAP1 PUSH4 0xE2517D3F PUSH1 0xE0 SHL DUP3 MSTORE CALLER PUSH1 0x4 DUP4 ADD MSTORE PUSH1 0x24 DUP3 ADD MSTORE REVERT JUMPDEST CALLVALUE PUSH2 0x191 JUMPI PUSH1 0x0 CALLDATASIZE PUSH1 0x3 NOT ADD SLT PUSH2 0x191 JUMPI PUSH1 0x20 PUSH1 0x40 MLOAD PUSH32 0x9F2DF0FED2C77648DE5860A4CC508CD0818C85B8B8A1AB4CEEEF8D981C8956A6 DUP2 MSTORE RETURN JUMPDEST CALLVALUE PUSH2 0x191 JUMPI PUSH1 0x40 CALLDATASIZE PUSH1 0x3 NOT ADD SLT PUSH2 0x191 JUMPI PUSH2 0x6E8 PUSH1 0x4 CALLDATALOAD PUSH2 0xC89 PUSH2 0x196 JUMP JUMPDEST SWAP1 DUP1 PUSH1 0x0 MSTORE PUSH1 0x4 PUSH1 0x20 MSTORE PUSH2 0xCA4 PUSH1 0x1 PUSH1 0x40 PUSH1 0x0 KECCAK256 ADD SLOAD PUSH2 0x1019 JUMP JUMPDEST PUSH2 0x10D4 JUMP JUMPDEST CALLVALUE PUSH2 0x191 JUMPI PUSH2 0xCB7 CALLDATASIZE PUSH2 0xACC JUMP JUMPDEST SWAP2 SWAP1 PUSH2 0xCC1 PUSH2 0xFBB JUMP JUMPDEST PUSH1 0x1 PUSH1 0x1 PUSH1 0xA0 SHL SUB DUP5 AND SWAP3 DUP4 ISZERO PUSH2 0xD79 JUMPI DUP1 ISZERO PUSH2 0xD26 JUMPI PUSH2 0xD11 DUP2 PUSH2 0xD0A PUSH2 0xD21 SWAP5 PUSH32 0xCCBEA4088A3B7AE9CA2D15FAB9A9742A4075B4D7247768A1EECEA917565ABA00 SWAP7 PUSH2 0x1B23 JUMP JUMPDEST DUP1 SWAP8 PUSH2 0x1981 JUMP JUMPDEST PUSH1 0x40 MLOAD SWAP1 DUP2 MSTORE SWAP1 DUP2 SWAP1 PUSH1 0x20 DUP3 ADD SWAP1 JUMP JUMPDEST SUB SWAP1 LOG3 STOP JUMPDEST PUSH1 0x40 MLOAD PUSH3 0x461BCD PUSH1 0xE5 SHL DUP2 MSTORE PUSH1 0x20 PUSH1 0x4 DUP3 ADD MSTORE PUSH1 0x25 PUSH1 0x24 DUP3 ADD MSTORE PUSH32 0x4275726E20616D6F756E74206D7573742062652067726561746572207468616E PUSH1 0x44 DUP3 ADD MSTORE PUSH5 0x207A65726F PUSH1 0xD8 SHL PUSH1 0x64 DUP3 ADD MSTORE PUSH1 0x84 SWAP1 REVERT JUMPDEST PUSH1 0x40 MLOAD PUSH3 0x461BCD PUSH1 0xE5 SHL DUP2 MSTORE PUSH1 0x20 PUSH1 0x4 DUP3 ADD MSTORE PUSH1 0x1D PUSH1 0x24 DUP3 ADD MSTORE PUSH32 0x43616E6E6F74206275726E2066726F6D207A65726F2061646472657373000000 PUSH1 0x44 DUP3 ADD MSTORE PUSH1 0x64 SWAP1 REVERT JUMPDEST CALLVALUE PUSH2 0x191 JUMPI PUSH1 0x40 CALLDATASIZE PUSH1 0x3 NOT ADD SLT PUSH2 0x191 JUMPI PUSH1 0x20 PUSH1 0xFF PUSH2 0x9E8 PUSH2 0xDDE PUSH2 0x17B JUMP JUMPDEST PUSH2 0xDE6 PUSH2 0x196 JUMP JUMPDEST PUSH1 0x1 PUSH1 0x1 PUSH1 0xA0 SHL SUB SWAP2 DUP3 AND PUSH1 0x0 SWAP1 DUP2 MSTORE PUSH1 0x1 DUP7 MSTORE PUSH1 0x40 DUP1 DUP3 KECCAK256 SWAP3 SWAP1 SWAP4 AND DUP2 MSTORE PUSH1 0x20 SWAP2 SWAP1 SWAP2 MSTORE KECCAK256 SWAP1 JUMP JUMPDEST CALLVALUE PUSH2 0x191 JUMPI PUSH1 0xA0 CALLDATASIZE PUSH1 0x3 NOT ADD SLT PUSH2 0x191 JUMPI PUSH2 0xE28 PUSH2 0x17B JUMP JUMPDEST PUSH2 0xE30 PUSH2 0x196 JUMP JUMPDEST PUSH1 0x84 CALLDATALOAD PUSH8 0xFFFFFFFFFFFFFFFF DUP2 GT PUSH2 0x191 JUMPI PUSH2 0xE50 SWAP1 CALLDATASIZE SWAP1 PUSH1 0x4 ADD PUSH2 0x5FA JUMP JUMPDEST SWAP1 PUSH1 0x1 PUSH1 0x1 PUSH1 0xA0 SHL SUB DUP4 DUP2 AND SWAP1 CALLER DUP3 EQ ISZERO DUP1 PUSH2 0xF09 JUMPI JUMPDEST PUSH2 0xEE2 JUMPI DUP3 AND ISZERO PUSH2 0xEC9 JUMPI ISZERO PUSH2 0xEB1 JUMPI PUSH2 0x6E8 SWAP3 PUSH2 0xEA9 PUSH1 0x64 CALLDATALOAD PUSH1 0x44 CALLDATALOAD SWAP2 PUSH1 0x40 MLOAD SWAP3 PUSH1 0x1 DUP5 MSTORE PUSH1 0x20 DUP5 ADD MSTORE PUSH1 0x40 DUP4 ADD SWAP2 PUSH1 0x1 DUP4 MSTORE PUSH1 0x60 DUP5 ADD MSTORE PUSH1 0x80 DUP4 ADD PUSH1 0x40 MSTORE JUMP JUMPDEST SWAP3 SWAP1 SWAP2 PUSH2 0x142B JUMP JUMPDEST PUSH1 0x40 MLOAD PUSH3 0x6A0D45 PUSH1 0xE2 SHL DUP2 MSTORE PUSH1 0x0 PUSH1 0x4 DUP3 ADD MSTORE PUSH1 0x24 SWAP1 REVERT JUMPDEST PUSH1 0x40 MLOAD PUSH4 0x2BFA23E7 PUSH1 0xE1 SHL DUP2 MSTORE PUSH1 0x0 PUSH1 0x4 DUP3 ADD MSTORE PUSH1 0x24 SWAP1 REVERT JUMPDEST PUSH1 0x40 MLOAD PUSH4 0x711BEC91 PUSH1 0xE1 SHL DUP2 MSTORE CALLER PUSH1 0x4 DUP3 ADD MSTORE PUSH1 0x1 PUSH1 0x1 PUSH1 0xA0 SHL SUB DUP7 AND PUSH1 0x24 DUP3 ADD MSTORE PUSH1 0x44 SWAP1 REVERT JUMPDEST POP PUSH1 0x0 DUP3 DUP2 MSTORE PUSH1 0x1 PUSH1 0x20 SWAP1 DUP2 MSTORE PUSH1 0x40 DUP1 DUP4 KECCAK256 CALLER DUP5 MSTORE SWAP1 SWAP2 MSTORE SWAP1 KECCAK256 SLOAD PUSH1 0xFF AND ISZERO PUSH2 0xE67 JUMP JUMPDEST CALLVALUE PUSH2 0x191 JUMPI PUSH1 0x20 CALLDATASIZE PUSH1 0x3 NOT ADD SLT PUSH2 0x191 JUMPI PUSH2 0xF46 PUSH2 0x17B JUMP JUMPDEST PUSH2 0xF4E PUSH2 0x1166 JUMP JUMPDEST PUSH1 0x1 PUSH1 0x1 PUSH1 0xA0 SHL SUB SWAP1 DUP2 AND SWAP1 DUP2 ISZERO PUSH2 0xFA2 JUMPI PUSH1 0x3 SLOAD DUP3 PUSH12 0xFFFFFFFFFFFFFFFFFFFFFFFF PUSH1 0xA0 SHL DUP3 AND OR PUSH1 0x3 SSTORE AND PUSH32 0x8BE0079C531659141344CD1FD0A4F28419497F9722A3DAAFE3B4186F6B6457E0 PUSH1 0x0 DUP1 LOG3 STOP JUMPDEST PUSH1 0x40 MLOAD PUSH4 0x1E4FBDF7 PUSH1 0xE0 SHL DUP2 MSTORE PUSH1 0x0 PUSH1 0x4 DUP3 ADD MSTORE PUSH1 0x24 SWAP1 REVERT JUMPDEST CALLER PUSH1 0x0 SWAP1 DUP2 MSTORE PUSH32 0xB82C046EAD5C152B204781FECB4D5F82EF023694E7CDA46A44BF9A793E5FBD7 PUSH1 0x20 MSTORE PUSH1 0x40 SWAP1 KECCAK256 PUSH32 0x3C11D16CBAFFD01DF69CE1C404F6340EE057498F5F00246190EA54220576A848 SWAP1 PUSH1 0xFF SWAP1 JUMPDEST SLOAD AND ISZERO PUSH2 0xC11 JUMPI POP JUMP JUMPDEST PUSH1 0x0 DUP2 DUP2 MSTORE PUSH1 0x4 PUSH1 0x20 SWAP1 DUP2 MSTORE PUSH1 0x40 DUP1 DUP4 KECCAK256 CALLER DUP5 MSTORE SWAP1 SWAP2 MSTORE SWAP1 KECCAK256 PUSH1 0xFF SWAP1 PUSH2 0x100F JUMP JUMPDEST PUSH1 0x0 SWAP1 DUP1 DUP3 MSTORE PUSH1 0x4 PUSH1 0x20 MSTORE PUSH1 0xFF PUSH2 0x1066 DUP5 PUSH1 0x40 DUP6 KECCAK256 SWAP1 PUSH1 0x1 DUP1 PUSH1 0xA0 SHL SUB AND PUSH1 0x0 MSTORE PUSH1 0x20 MSTORE PUSH1 0x40 PUSH1 0x0 KECCAK256 SWAP1 JUMP JUMPDEST SLOAD AND PUSH2 0x10CE JUMPI DUP1 DUP3 MSTORE PUSH1 0x4 PUSH1 0x20 SWAP1 DUP2 MSTORE PUSH1 0x40 DUP1 DUP5 KECCAK256 PUSH1 0x1 PUSH1 0x1 PUSH1 0xA0 SHL SUB DUP7 AND PUSH1 0x0 SWAP1 DUP2 MSTORE SWAP3 MSTORE SWAP1 KECCAK256 DUP1 SLOAD PUSH1 0xFF NOT AND PUSH1 0x1 OR SWAP1 SSTORE CALLER SWAP3 PUSH1 0x1 PUSH1 0x1 PUSH1 0xA0 SHL SUB AND SWAP2 PUSH32 0x2F8788117E7EFF1D82E926EC794901D17C78024A50270940304540A733656F0D SWAP1 DUP1 LOG4 PUSH1 0x1 SWAP1 JUMP JUMPDEST POP SWAP1 POP SWAP1 JUMP JUMPDEST PUSH1 0x0 SWAP1 DUP1 DUP3 MSTORE PUSH1 0x4 PUSH1 0x20 MSTORE PUSH1 0xFF PUSH2 0x1100 DUP5 PUSH1 0x40 DUP6 KECCAK256 SWAP1 PUSH1 0x1 DUP1 PUSH1 0xA0 SHL SUB AND PUSH1 0x0 MSTORE PUSH1 0x20 MSTORE PUSH1 0x40 PUSH1 0x0 KECCAK256 SWAP1 JUMP JUMPDEST SLOAD AND ISZERO PUSH2 0x10CE JUMPI DUP1 DUP3 MSTORE PUSH1 0x4 PUSH1 0x20 SWAP1 DUP2 MSTORE PUSH1 0x40 DUP1 DUP5 KECCAK256 PUSH1 0x1 PUSH1 0x1 PUSH1 0xA0 SHL SUB DUP7 AND PUSH1 0x0 SWAP1 DUP2 MSTORE SWAP3 MSTORE SWAP1 KECCAK256 DUP1 SLOAD PUSH1 0xFF NOT AND SWAP1 SSTORE CALLER SWAP3 PUSH1 0x1 PUSH1 0x1 PUSH1 0xA0 SHL SUB AND SWAP2 PUSH32 0xF6391F5C32D9C69D2A47EA670B442974B53935D1EDC7FD64EB21E047A839171B SWAP1 DUP1 LOG4 PUSH1 0x1 SWAP1 JUMP JUMPDEST PUSH1 0x3 SLOAD PUSH1 0x1 PUSH1 0x1 PUSH1 0xA0 SHL SUB AND CALLER SUB PUSH2 0x117A JUMPI JUMP JUMPDEST PUSH1 0x40 MLOAD PUSH4 0x118CDAA7 PUSH1 0xE0 SHL DUP2 MSTORE CALLER PUSH1 0x4 DUP3 ADD MSTORE PUSH1 0x24 SWAP1 REVERT JUMPDEST PUSH4 0x4E487B71 PUSH1 0xE0 SHL PUSH1 0x0 MSTORE PUSH1 0x11 PUSH1 0x4 MSTORE PUSH1 0x24 PUSH1 0x0 REVERT JUMPDEST PUSH1 0x0 NOT DUP2 EQ PUSH2 0x11B7 JUMPI PUSH1 0x1 ADD SWAP1 JUMP JUMPDEST PUSH2 0x1192 JUMP JUMPDEST DUP1 MLOAD DUP3 LT ISZERO PUSH2 0x11D0 JUMPI PUSH1 0x20 SWAP2 PUSH1 0x5 SHL ADD ADD SWAP1 JUMP JUMPDEST PUSH4 0x4E487B71 PUSH1 0xE0 SHL PUSH1 0x0 MSTORE PUSH1 0x32 PUSH1 0x4 MSTORE PUSH1 0x24 PUSH1 0x0 REVERT JUMPDEST SWAP2 SWAP1 SWAP2 DUP1 MLOAD DUP4 MLOAD DUP1 DUP3 SUB PUSH2 0x1289 JUMPI POP POP DUP1 MLOAD SWAP1 PUSH2 0x1202 DUP3 PUSH2 0x568 JUMP JUMPDEST SWAP2 PUSH2 0x1210 PUSH1 0x40 MLOAD SWAP4 DUP5 PUSH2 0x546 JUMP JUMPDEST DUP1 DUP4 MSTORE PUSH2 0x121F PUSH1 0x1F NOT SWAP2 PUSH2 0x568 JUMP JUMPDEST ADD SWAP1 PUSH1 0x20 SWAP2 CALLDATASIZE DUP4 DUP6 ADD CALLDATACOPY PUSH1 0x0 JUMPDEST DUP2 MLOAD DUP2 LT ISZERO PUSH2 0x1281 JUMPI PUSH1 0x5 DUP2 SWAP1 SHL DUP3 DUP2 ADD DUP5 ADD MLOAD SWAP1 DUP8 ADD DUP5 ADD MLOAD PUSH1 0x0 SWAP1 DUP2 MSTORE PUSH1 0x20 DUP2 DUP2 MSTORE PUSH1 0x40 DUP1 DUP4 KECCAK256 PUSH1 0x1 PUSH1 0x1 PUSH1 0xA0 SHL SUB SWAP1 SWAP5 AND DUP4 MSTORE SWAP3 SWAP1 MSTORE KECCAK256 SLOAD PUSH2 0x127C SWAP2 SWAP1 PUSH2 0x1276 DUP3 DUP8 PUSH2 0x11BC JUMP JUMPDEST MSTORE PUSH2 0x11A8 JUMP JUMPDEST PUSH2 0x122C JUMP JUMPDEST POP SWAP2 SWAP4 POP POP POP JUMP JUMPDEST PUSH1 0x40 MLOAD PUSH4 0x5B059991 PUSH1 0xE0 SHL DUP2 MSTORE PUSH1 0x4 DUP2 ADD SWAP2 SWAP1 SWAP2 MSTORE PUSH1 0x24 DUP2 ADD SWAP2 SWAP1 SWAP2 MSTORE PUSH1 0x44 SWAP1 REVERT JUMPDEST SWAP1 DUP1 MLOAD DUP4 MLOAD SWAP1 DUP2 DUP2 SUB PUSH2 0x1289 JUMPI POP POP PUSH1 0x0 JUMPDEST DUP2 MLOAD DUP2 LT ISZERO PUSH2 0x1340 JUMPI PUSH1 0x5 DUP2 SWAP1 SHL DUP3 DUP2 ADD PUSH1 0x20 SWAP1 DUP2 ADD MLOAD SWAP2 DUP7 ADD ADD MLOAD PUSH2 0x12F7 SWAP3 SWAP2 DUP6 SWAP1 PUSH1 0x1 PUSH1 0x1 PUSH1 0xA0 SHL SUB DUP3 AND PUSH2 0x12FC JUMPI JUMPDEST POP POP POP PUSH2 0x11A8 JUMP JUMPDEST PUSH2 0x12BD JUMP JUMPDEST PUSH2 0x1336 SWAP2 PUSH2 0x1317 PUSH2 0x132E SWAP3 PUSH1 0x0 MSTORE PUSH1 0x0 PUSH1 0x20 MSTORE PUSH1 0x40 PUSH1 0x0 KECCAK256 SWAP1 JUMP JUMPDEST SWAP1 PUSH1 0x1 DUP1 PUSH1 0xA0 SHL SUB AND PUSH1 0x0 MSTORE PUSH1 0x20 MSTORE PUSH1 0x40 PUSH1 0x0 KECCAK256 SWAP1 JUMP JUMPDEST SWAP2 DUP3 SLOAD PUSH2 0x1629 JUMP JUMPDEST SWAP1 SSTORE CODESIZE DUP5 DUP2 PUSH2 0x12EF JUMP JUMPDEST POP DUP1 MLOAD SWAP2 SWAP4 SWAP3 SWAP2 PUSH1 0x1 SUB PUSH2 0x13E2 JUMPI PUSH1 0x20 DUP2 DUP2 ADD MLOAD DUP4 DUP3 ADD MLOAD PUSH1 0x40 DUP1 MLOAD SWAP3 DUP4 MSTORE SWAP3 DUP3 ADD MSTORE PUSH1 0x1 PUSH1 0x1 PUSH1 0xA0 SHL SUB DUP7 AND SWAP2 PUSH1 0x0 SWAP2 CALLER SWAP2 PUSH32 0xC3D58168C5AE7397731D063D5BBF3D657854427343F4C083240F7AACAA2D0F62 SWAP2 LOG4 JUMPDEST PUSH1 0x1 PUSH1 0x1 PUSH1 0xA0 SHL SUB DUP5 AND PUSH2 0x13AC JUMPI JUMPDEST POP POP POP POP JUMP JUMPDEST DUP1 MLOAD PUSH1 0x1 SUB PUSH2 0x13D3 JUMPI SWAP1 PUSH1 0x20 DUP1 PUSH2 0x13CA SWAP6 SWAP4 ADD MLOAD SWAP2 ADD MLOAD SWAP2 CALLER PUSH2 0x1704 JUMP JUMPDEST CODESIZE DUP1 DUP1 DUP1 PUSH2 0x13A6 JUMP JUMPDEST PUSH2 0x13DD SWAP4 CALLER PUSH2 0x1915 JUMP JUMPDEST PUSH2 0x13CA JUMP JUMPDEST PUSH1 0x40 MLOAD PUSH1 0x1 PUSH1 0x1 PUSH1 0xA0 SHL SUB DUP6 AND SWAP1 PUSH1 0x0 SWAP1 CALLER SWAP1 PUSH32 0x4A39DC06D4C0DBC64B70AF90FD698A233A518AA5D07E595D983B8C0526C8F7FB SWAP1 DUP1 PUSH2 0x1423 DUP9 DUP9 DUP4 PUSH2 0x1636 JUMP JUMPDEST SUB SWAP1 LOG4 PUSH2 0x1397 JUMP JUMPDEST SWAP5 SWAP2 SWAP1 SWAP2 DUP2 MLOAD DUP5 MLOAD SWAP1 DUP2 DUP2 SUB PUSH2 0x1289 JUMPI POP POP PUSH1 0x0 JUMPDEST DUP3 MLOAD DUP2 LT ISZERO PUSH2 0x1533 JUMPI PUSH1 0x5 DUP2 SWAP1 SHL DUP4 DUP2 ADD PUSH1 0x20 SWAP1 DUP2 ADD MLOAD SWAP2 DUP8 ADD ADD MLOAD PUSH1 0x1 PUSH1 0x1 PUSH1 0xA0 SHL SUB SWAP3 SWAP2 DUP7 SWAP1 DUP11 DUP6 AND PUSH2 0x14AC JUMPI JUMPDEST PUSH2 0x1482 SWAP5 DUP3 AND PUSH2 0x1487 JUMPI POP POP POP PUSH2 0x11A8 JUMP JUMPDEST PUSH2 0x1440 JUMP JUMPDEST PUSH2 0x14A2 SWAP2 PUSH2 0x1317 PUSH2 0x132E SWAP3 PUSH1 0x0 MSTORE PUSH1 0x0 PUSH1 0x20 MSTORE PUSH1 0x40 PUSH1 0x0 KECCAK256 SWAP1 JUMP JUMPDEST SWAP1 SSTORE CODESIZE DUP6 DUP2 PUSH2 0x12EF JUMP JUMPDEST SWAP2 SWAP3 SWAP4 SWAP1 POP PUSH2 0x14C9 DUP11 PUSH2 0x1317 DUP5 PUSH1 0x0 MSTORE PUSH1 0x0 PUSH1 0x20 MSTORE PUSH1 0x40 PUSH1 0x0 KECCAK256 SWAP1 JUMP JUMPDEST SLOAD DUP4 DUP2 LT PUSH2 0x14FC JUMPI SWAP2 DUP8 SWAP2 DUP5 PUSH2 0x1482 SWAP7 SWAP6 SWAP5 SUB PUSH2 0x14F4 DUP14 PUSH2 0x1317 DUP6 PUSH1 0x0 MSTORE PUSH1 0x0 PUSH1 0x20 MSTORE PUSH1 0x40 PUSH1 0x0 KECCAK256 SWAP1 JUMP JUMPDEST SSTORE SWAP5 POP PUSH2 0x1470 JUMP JUMPDEST PUSH1 0x40 MLOAD PUSH4 0x3DEE4C5 PUSH1 0xE0 SHL DUP2 MSTORE PUSH1 0x1 PUSH1 0x1 PUSH1 0xA0 SHL SUB DUP13 AND PUSH1 0x4 DUP3 ADD MSTORE PUSH1 0x24 DUP2 ADD SWAP2 SWAP1 SWAP2 MSTORE PUSH1 0x44 DUP2 ADD DUP5 SWAP1 MSTORE PUSH1 0x64 DUP2 ADD DUP4 SWAP1 MSTORE PUSH1 0x84 SWAP1 REVERT JUMPDEST POP SWAP5 SWAP2 SWAP4 SWAP3 SWAP1 SWAP4 PUSH1 0x1 DUP6 MLOAD EQ PUSH1 0x0 EQ PUSH2 0x15DE JUMPI PUSH1 0x20 DUP6 DUP2 ADD MLOAD DUP4 DUP3 ADD MLOAD PUSH1 0x40 DUP1 MLOAD SWAP3 DUP4 MSTORE SWAP3 DUP3 ADD MSTORE PUSH1 0x1 PUSH1 0x1 PUSH1 0xA0 SHL SUB DUP4 DUP2 AND SWAP3 SWAP1 DUP7 AND SWAP2 CALLER SWAP2 PUSH32 0xC3D58168C5AE7397731D063D5BBF3D657854427343F4C083240F7AACAA2D0F62 SWAP2 LOG4 JUMPDEST PUSH1 0x1 PUSH1 0x1 PUSH1 0xA0 SHL SUB DUP2 AND PUSH2 0x15A7 JUMPI JUMPDEST POP POP POP POP POP JUMP JUMPDEST DUP5 MLOAD PUSH1 0x1 SUB PUSH2 0x15CD JUMPI PUSH1 0x20 DUP1 PUSH2 0x15C3 SWAP7 ADD MLOAD SWAP3 ADD MLOAD SWAP3 CALLER PUSH2 0x17FE JUMP JUMPDEST CODESIZE DUP1 DUP1 DUP1 DUP1 PUSH2 0x15A0 JUMP JUMPDEST PUSH2 0x15D9 SWAP5 SWAP2 SWAP3 CALLER PUSH2 0x194A JUMP JUMPDEST PUSH2 0x15C3 JUMP JUMPDEST PUSH1 0x40 MLOAD PUSH1 0x1 PUSH1 0x1 PUSH1 0xA0 SHL SUB DUP3 DUP2 AND SWAP2 SWAP1 DUP6 AND SWAP1 CALLER SWAP1 PUSH32 0x4A39DC06D4C0DBC64B70AF90FD698A233A518AA5D07E595D983B8C0526C8F7FB SWAP1 DUP1 PUSH2 0x1621 DUP9 DUP13 DUP4 PUSH2 0x1636 JUMP JUMPDEST SUB SWAP1 LOG4 PUSH2 0x1591 JUMP JUMPDEST SWAP2 SWAP1 DUP3 ADD DUP1 SWAP3 GT PUSH2 0x11B7 JUMPI JUMP JUMPDEST SWAP1 SWAP2 PUSH2 0x164D PUSH2 0x300 SWAP4 PUSH1 0x40 DUP5 MSTORE PUSH1 0x40 DUP5 ADD SWAP1 PUSH2 0x819 JUMP JUMPDEST SWAP2 PUSH1 0x20 DUP2 DUP5 SUB SWAP2 ADD MSTORE PUSH2 0x819 JUMP JUMPDEST SWAP1 DUP2 PUSH1 0x20 SWAP2 SUB SLT PUSH2 0x191 JUMPI MLOAD PUSH2 0x300 DUP2 PUSH2 0x20D JUMP JUMPDEST SWAP1 SWAP3 PUSH1 0xA0 SWAP3 PUSH2 0x300 SWAP6 SWAP5 PUSH1 0x1 DUP1 DUP7 SHL SUB AND DUP4 MSTORE PUSH1 0x0 PUSH1 0x20 DUP5 ADD MSTORE PUSH1 0x40 DUP4 ADD MSTORE PUSH1 0x60 DUP3 ADD MSTORE DUP2 PUSH1 0x80 DUP3 ADD MSTORE ADD SWAP1 PUSH2 0x2CA JUMP JUMPDEST SWAP2 SWAP3 PUSH2 0x300 SWAP6 SWAP5 SWAP2 PUSH1 0xA0 SWAP5 PUSH1 0x1 DUP1 DUP8 SHL SUB DUP1 SWAP3 AND DUP6 MSTORE AND PUSH1 0x20 DUP5 ADD MSTORE PUSH1 0x40 DUP4 ADD MSTORE PUSH1 0x60 DUP3 ADD MSTORE DUP2 PUSH1 0x80 DUP3 ADD MSTORE ADD SWAP1 PUSH2 0x2CA JUMP JUMPDEST RETURNDATASIZE ISZERO PUSH2 0x16FF JUMPI RETURNDATASIZE SWAP1 PUSH2 0x16E5 DUP3 PUSH2 0x5DE JUMP JUMPDEST SWAP2 PUSH2 0x16F3 PUSH1 0x40 MLOAD SWAP4 DUP5 PUSH2 0x546 JUMP JUMPDEST DUP3 MSTORE RETURNDATASIZE PUSH1 0x0 PUSH1 0x20 DUP5 ADD RETURNDATACOPY JUMP JUMPDEST PUSH1 0x60 SWAP1 JUMP JUMPDEST SWAP3 SWAP4 SWAP2 SWAP1 SWAP4 DUP5 EXTCODESIZE PUSH2 0x1716 JUMPI POP POP POP POP POP JUMP JUMPDEST PUSH1 0x20 SWAP2 PUSH2 0x1739 PUSH1 0x40 MLOAD SWAP5 DUP6 SWAP4 DUP5 SWAP4 PUSH4 0xF23A6E61 PUSH1 0xE0 SHL SWAP9 DUP10 DUP7 MSTORE PUSH1 0x4 DUP7 ADD PUSH2 0x1670 JUMP JUMPDEST SUB DUP2 PUSH1 0x0 PUSH1 0x1 PUSH1 0x1 PUSH1 0xA0 SHL SUB DUP9 AND GAS CALL PUSH1 0x0 SWAP2 DUP2 PUSH2 0x17CE JUMPI JUMPDEST POP PUSH2 0x1791 JUMPI DUP3 PUSH2 0x1760 PUSH2 0x16D4 JUMP JUMPDEST DUP1 MLOAD SWAP2 SWAP1 DUP3 PUSH2 0x178A JUMPI PUSH1 0x40 MLOAD PUSH4 0x2BFA23E7 PUSH1 0xE1 SHL DUP2 MSTORE PUSH1 0x1 PUSH1 0x1 PUSH1 0xA0 SHL SUB DUP4 AND PUSH1 0x4 DUP3 ADD MSTORE PUSH1 0x24 SWAP1 REVERT JUMPDEST SWAP1 POP PUSH1 0x20 ADD REVERT JUMPDEST PUSH1 0x1 PUSH1 0x1 PUSH1 0xE0 SHL SUB NOT AND SUB PUSH2 0x17AB JUMPI POP CODESIZE DUP1 DUP1 DUP1 DUP1 PUSH2 0x15A0 JUMP JUMPDEST PUSH1 0x40 MLOAD PUSH4 0x2BFA23E7 PUSH1 0xE1 SHL DUP2 MSTORE PUSH1 0x1 PUSH1 0x1 PUSH1 0xA0 SHL SUB SWAP2 SWAP1 SWAP2 AND PUSH1 0x4 DUP3 ADD MSTORE PUSH1 0x24 SWAP1 REVERT JUMPDEST PUSH2 0x17F0 SWAP2 SWAP3 POP PUSH1 0x20 RETURNDATASIZE DUP2 GT PUSH2 0x17F7 JUMPI JUMPDEST PUSH2 0x17E8 DUP2 DUP4 PUSH2 0x546 JUMP JUMPDEST DUP2 ADD SWAP1 PUSH2 0x165B JUMP JUMPDEST SWAP1 CODESIZE PUSH2 0x1752 JUMP JUMPDEST POP RETURNDATASIZE PUSH2 0x17DE JUMP JUMPDEST SWAP4 SWAP3 SWAP1 SWAP5 SWAP2 SWAP5 DUP6 EXTCODESIZE PUSH2 0x1813 JUMPI JUMPDEST POP POP POP POP POP POP JUMP JUMPDEST PUSH2 0x1836 PUSH1 0x20 SWAP4 PUSH1 0x40 MLOAD SWAP6 DUP7 SWAP5 DUP6 SWAP5 PUSH4 0xF23A6E61 PUSH1 0xE0 SHL SWAP10 DUP11 DUP8 MSTORE PUSH1 0x4 DUP8 ADD PUSH2 0x16A1 JUMP JUMPDEST SUB DUP2 PUSH1 0x0 PUSH1 0x1 PUSH1 0x1 PUSH1 0xA0 SHL SUB DUP9 AND GAS CALL PUSH1 0x0 SWAP2 DUP2 PUSH2 0x1878 JUMPI JUMPDEST POP PUSH2 0x185D JUMPI DUP3 PUSH2 0x1760 PUSH2 0x16D4 JUMP JUMPDEST PUSH1 0x1 PUSH1 0x1 PUSH1 0xE0 SHL SUB NOT AND SUB PUSH2 0x17AB JUMPI POP CODESIZE DUP1 DUP1 DUP1 DUP1 DUP1 PUSH2 0x180B JUMP JUMPDEST PUSH2 0x1891 SWAP2 SWAP3 POP PUSH1 0x20 RETURNDATASIZE DUP2 GT PUSH2 0x17F7 JUMPI PUSH2 0x17E8 DUP2 DUP4 PUSH2 0x546 JUMP JUMPDEST SWAP1 CODESIZE PUSH2 0x184F JUMP JUMPDEST SWAP3 PUSH2 0x18C7 PUSH2 0x300 SWAP6 SWAP4 PUSH2 0x18D5 SWAP4 PUSH1 0x1 DUP1 PUSH1 0xA0 SHL SUB AND DUP7 MSTORE PUSH1 0x0 PUSH1 0x20 DUP8 ADD MSTORE PUSH1 0xA0 PUSH1 0x40 DUP8 ADD MSTORE PUSH1 0xA0 DUP7 ADD SWAP1 PUSH2 0x819 JUMP JUMPDEST SWAP1 DUP5 DUP3 SUB PUSH1 0x60 DUP7 ADD MSTORE PUSH2 0x819 JUMP JUMPDEST SWAP2 PUSH1 0x80 DUP2 DUP5 SUB SWAP2 ADD MSTORE PUSH2 0x2CA JUMP JUMPDEST SWAP4 SWAP1 PUSH2 0x300 SWAP6 SWAP4 PUSH2 0x18C7 SWAP2 PUSH2 0x18D5 SWAP5 PUSH1 0x1 DUP1 PUSH1 0xA0 SHL SUB DUP1 SWAP3 AND DUP9 MSTORE AND PUSH1 0x20 DUP8 ADD MSTORE PUSH1 0xA0 PUSH1 0x40 DUP8 ADD MSTORE PUSH1 0xA0 DUP7 ADD SWAP1 PUSH2 0x819 JUMP JUMPDEST SWAP3 SWAP4 SWAP2 SWAP1 SWAP4 DUP5 EXTCODESIZE PUSH2 0x1927 JUMPI POP POP POP POP POP JUMP JUMPDEST PUSH1 0x20 SWAP2 PUSH2 0x1739 PUSH1 0x40 MLOAD SWAP5 DUP6 SWAP4 DUP5 SWAP4 PUSH4 0xBC197C81 PUSH1 0xE0 SHL SWAP9 DUP10 DUP7 MSTORE PUSH1 0x4 DUP7 ADD PUSH2 0x1898 JUMP JUMPDEST SWAP4 SWAP3 SWAP1 SWAP5 SWAP2 SWAP5 DUP6 EXTCODESIZE PUSH2 0x195E JUMPI POP POP POP POP POP POP JUMP JUMPDEST PUSH2 0x1836 PUSH1 0x20 SWAP4 PUSH1 0x40 MLOAD SWAP6 DUP7 SWAP5 DUP6 SWAP5 PUSH4 0xBC197C81 PUSH1 0xE0 SHL SWAP10 DUP11 DUP8 MSTORE PUSH1 0x4 DUP8 ADD PUSH2 0x18E3 JUMP JUMPDEST PUSH1 0x1 PUSH1 0x1 PUSH1 0xA0 SHL SUB DUP2 AND SWAP3 SWAP1 SWAP2 SWAP1 DUP4 ISZERO PUSH2 0xEB1 JUMPI PUSH2 0x19BC PUSH1 0x40 MLOAD SWAP3 PUSH1 0x1 DUP5 MSTORE PUSH1 0x20 DUP5 ADD MSTORE PUSH1 0x40 DUP4 ADD SWAP2 PUSH1 0x1 DUP4 MSTORE PUSH1 0x60 DUP5 ADD MSTORE PUSH1 0x80 DUP4 ADD PUSH1 0x40 MSTORE JUMP JUMPDEST SWAP2 SWAP1 PUSH1 0x40 SWAP5 PUSH1 0x0 DUP7 MLOAD PUSH2 0x19CE DUP2 PUSH2 0x525 JUMP JUMPDEST MSTORE DUP2 MLOAD DUP5 MLOAD SWAP1 DUP2 DUP2 SUB PUSH2 0x1B02 JUMPI POP POP PUSH1 0x0 JUMPDEST DUP3 MLOAD DUP2 LT ISZERO PUSH2 0x1A7B JUMPI DUP1 PUSH1 0x5 SHL PUSH1 0x20 DUP1 DUP3 DUP7 ADD ADD MLOAD SWAP2 DUP8 ADD ADD MLOAD PUSH2 0x1A12 DUP7 PUSH2 0x1317 DUP5 PUSH1 0x0 MSTORE PUSH1 0x0 PUSH1 0x20 MSTORE PUSH1 0x40 PUSH1 0x0 KECCAK256 SWAP1 JUMP JUMPDEST SLOAD DUP2 DUP2 LT PUSH2 0x1A45 JUMPI DUP7 PUSH2 0x1317 PUSH2 0x1A40 SWAP6 SWAP5 SWAP4 PUSH2 0x1A3A SWAP4 SUB SWAP4 PUSH1 0x0 MSTORE PUSH1 0x0 PUSH1 0x20 MSTORE PUSH1 0x40 PUSH1 0x0 KECCAK256 SWAP1 JUMP JUMPDEST SSTORE PUSH2 0x11A8 JUMP JUMPDEST PUSH2 0x19E0 JUMP JUMPDEST DUP10 MLOAD PUSH4 0x3DEE4C5 PUSH1 0xE0 SHL DUP2 MSTORE PUSH1 0x1 PUSH1 0x1 PUSH1 0xA0 SHL SUB DUP9 AND PUSH1 0x4 DUP3 ADD MSTORE PUSH1 0x24 DUP2 ADD SWAP2 SWAP1 SWAP2 MSTORE PUSH1 0x44 DUP2 ADD DUP3 SWAP1 MSTORE PUSH1 0x64 DUP2 ADD DUP4 SWAP1 MSTORE PUSH1 0x84 SWAP1 REVERT JUMPDEST POP SWAP5 SWAP1 PUSH1 0x0 SWAP5 SWAP4 SWAP3 POP PUSH1 0x1 DUP2 MLOAD EQ DUP6 EQ PUSH2 0x1AD0 JUMPI PUSH1 0x20 SWAP1 DUP2 ADD MLOAD SWAP3 DUP2 ADD MLOAD SWAP2 MLOAD SWAP3 DUP4 MSTORE DUP3 ADD MSTORE CALLER SWAP1 PUSH32 0xC3D58168C5AE7397731D063D5BBF3D657854427343F4C083240F7AACAA2D0F62 SWAP1 DUP1 PUSH1 0x40 DUP2 ADD JUMPDEST SUB SWAP1 LOG4 JUMP JUMPDEST SWAP1 MLOAD CALLER SWAP3 PUSH32 0x4A39DC06D4C0DBC64B70AF90FD698A233A518AA5D07E595D983B8C0526C8F7FB SWAP3 DUP3 SWAP2 PUSH2 0x1ACB SWAP2 DUP4 PUSH2 0x1636 JUMP JUMPDEST DUP8 MLOAD PUSH4 0x5B059991 PUSH1 0xE0 SHL DUP2 MSTORE PUSH1 0x4 DUP2 ADD SWAP2 SWAP1 SWAP2 MSTORE PUSH1 0x24 DUP2 ADD SWAP2 SWAP1 SWAP2 MSTORE PUSH1 0x44 SWAP1 REVERT JUMPDEST PUSH1 0x40 DUP1 MLOAD PUSH1 0x20 DUP2 ADD SWAP3 DUP4 MSTORE SWAP1 DUP2 ADD SWAP3 SWAP1 SWAP3 MSTORE SWAP1 PUSH2 0x1B43 DUP2 PUSH1 0x60 DUP2 ADD PUSH2 0x3ED JUMP JUMPDEST MLOAD SWAP1 KECCAK256 SWAP1 JUMP JUMPDEST PUSH1 0x5 SLOAD PUSH1 0x0 SWAP3 SWAP2 PUSH1 0x1 DUP3 DUP2 SHR SWAP3 DUP2 DUP2 AND SWAP2 SWAP1 DUP3 ISZERO PUSH2 0x1C12 JUMPI JUMPDEST PUSH1 0x20 SWAP3 DUP4 DUP7 LT DUP2 EQ PUSH2 0x1BFC JUMPI SWAP1 DUP2 ISZERO PUSH2 0x1BE1 JUMPI POP PUSH1 0x1 EQ PUSH2 0x1B83 JUMPI POP POP POP POP JUMP JUMPDEST SWAP1 SWAP2 SWAP3 SWAP4 SWAP5 POP PUSH2 0x1BB5 PUSH1 0x5 PUSH1 0x0 MSTORE PUSH32 0x36B6384B5ECA791C62761152D0C79BB0604C104A5FB6F4EB0703F3154BB3DB0 SWAP1 JUMP JUMPDEST SWAP1 PUSH1 0x0 SWAP2 JUMPDEST DUP6 DUP4 LT PUSH2 0x1BD0 JUMPI POP POP POP POP ADD SWAP1 CODESIZE DUP1 DUP1 DUP1 PUSH2 0x13A6 JUMP JUMPDEST DUP1 SLOAD DUP6 DUP5 ADD MSTORE SWAP2 DUP4 ADD SWAP2 DUP2 ADD PUSH2 0x1BBA JUMP JUMPDEST PUSH1 0xFF NOT AND DUP5 MSTORE POP POP POP DUP2 ISZERO ISZERO SWAP1 SWAP2 MUL ADD SWAP2 POP CODESIZE DUP1 DUP1 DUP1 PUSH2 0x13A6 JUMP JUMPDEST PUSH4 0x4E487B71 PUSH1 0xE0 SHL PUSH1 0x0 MSTORE PUSH1 0x22 PUSH1 0x4 MSTORE PUSH1 0x24 PUSH1 0x0 REVERT JUMPDEST SWAP4 PUSH1 0x7F AND SWAP4 PUSH2 0x1B62 JUMP JUMPDEST SWAP1 PUSH2 0x1C2F PUSH1 0x20 SWAP3 DUP3 DUP2 MLOAD SWAP5 DUP6 SWAP3 ADD PUSH2 0x2A7 JUMP JUMPDEST ADD SWAP1 JUMP JUMPDEST SWAP1 PUSH2 0x1C3D DUP3 PUSH2 0x5DE JUMP JUMPDEST PUSH2 0x1C4A PUSH1 0x40 MLOAD SWAP2 DUP3 PUSH2 0x546 JUMP JUMPDEST DUP3 DUP2 MSTORE DUP1 SWAP3 PUSH2 0x1C5B PUSH1 0x1F NOT SWAP2 PUSH2 0x5DE JUMP JUMPDEST ADD SWAP1 PUSH1 0x20 CALLDATASIZE SWAP2 ADD CALLDATACOPY JUMP INVALID LOG2 PUSH5 0x6970667358 0x22 SLT KECCAK256 0x1F 0xEF STOP SWAP2 0xD9 0xE6 0xF9 CALLDATACOPY SWAP16 0xC6 PUSH20 0x64ADBD1F6CB8E74637B585ECA3CF4AB0494E5DA7 PUSH31 0x64736F6C634300081400332F8788117E7EFF1D82E926EC794901D17C78024A POP 0x27 MULMOD BLOCKHASH ADDRESS GASLIMIT BLOCKHASH 0xA7 CALLER PUSH6 0x6F0D00000000 "},"methodIdentifiers":{"activeMarkets(uint256)":"3adfe6d0","createMarket(uint256,string,string[],address,uint256,uint256,uint256,address,address,uint256)":"97271c14","getActiveMarkets()":"a5e973c3","getPositions()":"80275860","marketTitles(address)":"c3a811fe","owner()":"8da5cb5b","positions()":"ba5b7982","renounceOwnership()":"715018a6","transferOwnership(address)":"f2fde38b"}}}}}