{
  "_format": "hh-sol-artifact-1",
  "contractName": "LMSRPredictionMarket",
  "sourceName": "src/core/LMSRPredictionMarket.sol",
  "abi": [
    {
      "inputs": [
        {
          "internalType": "uint256",
          "name": "_marketId",
          "type": "uint256"
        },
        {
          "internalType": "string",
          "name": "_title",
          "type": "string"
        },
        {
          "internalType": "string[]",
          "name": "_outcomes",
          "type": "string[]"
        },
        {
          "internalType": "address",
          "name": "_oracle",
          "type": "address"
        },
        {
          "internalType": "uint256",
          "name": "_b",
          "type": "uint256"
        },
        {
          "internalType": "uint256",
          "name": "_duration",
          "type": "uint256"
        },
        {
          "internalType": "uint256",
          "name": "_feePercent",
          "type": "uint256"
        },
        {
          "internalType": "address",
          "name": "_feeRecipient",
          "type": "address"
        },
        {
          "internalType": "address",
          "name": "_tokenAddress",
          "type": "address"
        },
        {
          "internalType": "uint256",
          "name": "_initialFunds",
          "type": "uint256"
        },
        {
          "internalType": "address",
          "name": "_positionsAddress",
          "type": "address"
        }
      ],
      "stateMutability": "nonpayable",
      "type": "constructor"
    },
    {
      "inputs": [],
      "name": "EnforcedPause",
      "type": "error"
    },
    {
      "inputs": [],
      "name": "ExpectedPause",
      "type": "error"
    },
    {
      "inputs": [
        {
          "internalType": "address",
          "name": "owner",
          "type": "address"
        }
      ],
      "name": "OwnableInvalidOwner",
      "type": "error"
    },
    {
      "inputs": [
        {
          "internalType": "address",
          "name": "account",
          "type": "address"
        }
      ],
      "name": "OwnableUnauthorizedAccount",
      "type": "error"
    },
    {
      "inputs": [],
      "name": "ReentrancyGuardReentrantCall",
      "type": "error"
    },
    {
      "anonymous": false,
      "inputs": [
        {
          "indexed": true,
          "internalType": "address",
          "name": "feeRecipient",
          "type": "address"
        },
        {
          "indexed": false,
          "internalType": "uint256",
          "name": "amount",
          "type": "uint256"
        }
      ],
      "name": "FeesWithdrawn",
      "type": "event"
    },
    {
      "anonymous": false,
      "inputs": [
        {
          "indexed": true,
          "internalType": "address",
          "name": "depositor",
          "type": "address"
        },
        {
          "indexed": false,
          "internalType": "uint256",
          "name": "amount",
          "type": "uint256"
        }
      ],
      "name": "FundsDeposited",
      "type": "event"
    },
    {
      "anonymous": false,
      "inputs": [],
      "name": "MarketClosed",
      "type": "event"
    },
    {
      "anonymous": false,
      "inputs": [
        {
          "indexed": true,
          "internalType": "uint256",
          "name": "winningOutcome",
          "type": "uint256"
        }
      ],
      "name": "OutcomeSet",
      "type": "event"
    },
    {
      "anonymous": false,
      "inputs": [
        {
          "indexed": true,
          "internalType": "address",
          "name": "previousOwner",
          "type": "address"
        },
        {
          "indexed": true,
          "internalType": "address",
          "name": "newOwner",
          "type": "address"
        }
      ],
      "name": "OwnershipTransferred",
      "type": "event"
    },
    {
      "anonymous": false,
      "inputs": [
        {
          "indexed": false,
          "internalType": "address",
          "name": "account",
          "type": "address"
        }
      ],
      "name": "Paused",
      "type": "event"
    },
    {
      "anonymous": false,
      "inputs": [
        {
          "indexed": true,
          "internalType": "address",
          "name": "user",
          "type": "address"
        },
        {
          "indexed": false,
          "internalType": "uint256",
          "name": "amount",
          "type": "uint256"
        }
      ],
      "name": "PayoutClaimed",
      "type": "event"
    },
    {
      "anonymous": false,
      "inputs": [
        {
          "indexed": true,
          "internalType": "address",
          "name": "user",
          "type": "address"
        },
        {
          "indexed": false,
          "internalType": "uint256",
          "name": "outcomeIndex",
          "type": "uint256"
        },
        {
          "indexed": false,
          "internalType": "uint256",
          "name": "numShares",
          "type": "uint256"
        },
        {
          "indexed": false,
          "internalType": "uint256",
          "name": "cost",
          "type": "uint256"
        }
      ],
      "name": "SharesPurchased",
      "type": "event"
    },
    {
      "anonymous": false,
      "inputs": [
        {
          "indexed": true,
          "internalType": "address",
          "name": "user",
          "type": "address"
        },
        {
          "indexed": false,
          "internalType": "uint256",
          "name": "outcomeIndex",
          "type": "uint256"
        },
        {
          "indexed": false,
          "internalType": "uint256",
          "name": "numShares",
          "type": "uint256"
        },
        {
          "indexed": false,
          "internalType": "uint256",
          "name": "payment",
          "type": "uint256"
        }
      ],
      "name": "SharesSold",
      "type": "event"
    },
    {
      "anonymous": false,
      "inputs": [
        {
          "indexed": false,
          "internalType": "address",
          "name": "account",
          "type": "address"
        }
      ],
      "name": "Unpaused",
      "type": "event"
    },
    {
      "inputs": [],
      "name": "FEE_REINVEST_PERCENT",
      "outputs": [
        {
          "internalType": "uint256",
          "name": "",
          "type": "uint256"
        }
      ],
      "stateMutability": "view",
      "type": "function"
    },
    {
      "inputs": [],
      "name": "MAX_LIQUIDITY_PARAM",
      "outputs": [
        {
          "internalType": "uint256",
          "name": "",
          "type": "uint256"
        }
      ],
      "stateMutability": "view",
      "type": "function"
    },
    {
      "inputs": [],
      "name": "MAX_OUTCOME",
      "outputs": [
        {
          "internalType": "uint256",
          "name": "",
          "type": "uint256"
        }
      ],
      "stateMutability": "view",
      "type": "function"
    },
    {
      "inputs": [],
      "name": "MAX_SHARE_TRADE",
      "outputs": [
        {
          "internalType": "uint256",
          "name": "",
          "type": "uint256"
        }
      ],
      "stateMutability": "view",
      "type": "function"
    },
    {
      "inputs": [],
      "name": "MIN_LIQUIDITY_PARAM",
      "outputs": [
        {
          "internalType": "uint256",
          "name": "",
          "type": "uint256"
        }
      ],
      "stateMutability": "view",
      "type": "function"
    },
    {
      "inputs": [],
      "name": "PERCENT_DENOMINATOR",
      "outputs": [
        {
          "internalType": "uint256",
          "name": "",
          "type": "uint256"
        }
      ],
      "stateMutability": "view",
      "type": "function"
    },
    {
      "inputs": [],
      "name": "SHARES_DECIMALS",
      "outputs": [
        {
          "internalType": "uint256",
          "name": "",
          "type": "uint256"
        }
      ],
      "stateMutability": "view",
      "type": "function"
    },
    {
      "inputs": [],
      "name": "b",
      "outputs": [
        {
          "internalType": "uint256",
          "name": "",
          "type": "uint256"
        }
      ],
      "stateMutability": "view",
      "type": "function"
    },
    {
      "inputs": [
        {
          "internalType": "uint256",
          "name": "outcomeIndex",
          "type": "uint256"
        },
        {
          "internalType": "uint256",
          "name": "numShares",
          "type": "uint256"
        }
      ],
      "name": "buyShares",
      "outputs": [],
      "stateMutability": "nonpayable",
      "type": "function"
    },
    {
      "inputs": [
        {
          "internalType": "uint256",
          "name": "_b",
          "type": "uint256"
        },
        {
          "internalType": "uint256",
          "name": "numOutcomes",
          "type": "uint256"
        }
      ],
      "name": "calculateMinimumInitialFunds",
      "outputs": [
        {
          "internalType": "uint256",
          "name": "",
          "type": "uint256"
        }
      ],
      "stateMutability": "pure",
      "type": "function"
    },
    {
      "inputs": [],
      "name": "claimPayout",
      "outputs": [],
      "stateMutability": "nonpayable",
      "type": "function"
    },
    {
      "inputs": [],
      "name": "closeMarket",
      "outputs": [],
      "stateMutability": "nonpayable",
      "type": "function"
    },
    {
      "inputs": [],
      "name": "collectedFees",
      "outputs": [
        {
          "internalType": "uint256",
          "name": "",
          "type": "uint256"
        }
      ],
      "stateMutability": "view",
      "type": "function"
    },
    {
      "inputs": [
        {
          "internalType": "uint256",
          "name": "amount",
          "type": "uint256"
        }
      ],
      "name": "depositInitialFunds",
      "outputs": [],
      "stateMutability": "nonpayable",
      "type": "function"
    },
    {
      "inputs": [
        {
          "internalType": "uint256",
          "name": "outcomeIndex",
          "type": "uint256"
        },
        {
          "internalType": "uint256",
          "name": "numShares",
          "type": "uint256"
        }
      ],
      "name": "estimateCost",
      "outputs": [
        {
          "internalType": "uint256",
          "name": "",
          "type": "uint256"
        }
      ],
      "stateMutability": "view",
      "type": "function"
    },
    {
      "inputs": [
        {
          "internalType": "uint256",
          "name": "outcomeIndex",
          "type": "uint256"
        },
        {
          "internalType": "uint256",
          "name": "numShares",
          "type": "uint256"
        }
      ],
      "name": "estimatePayment",
      "outputs": [
        {
          "internalType": "uint256",
          "name": "",
          "type": "uint256"
        }
      ],
      "stateMutability": "view",
      "type": "function"
    },
    {
      "inputs": [],
      "name": "feePercent",
      "outputs": [
        {
          "internalType": "uint256",
          "name": "",
          "type": "uint256"
        }
      ],
      "stateMutability": "view",
      "type": "function"
    },
    {
      "inputs": [],
      "name": "feeRecipient",
      "outputs": [
        {
          "internalType": "address",
          "name": "",
          "type": "address"
        }
      ],
      "stateMutability": "view",
      "type": "function"
    },
    {
      "inputs": [],
      "name": "getOutcomeCount",
      "outputs": [
        {
          "internalType": "uint256",
          "name": "",
          "type": "uint256"
        }
      ],
      "stateMutability": "view",
      "type": "function"
    },
    {
      "inputs": [
        {
          "internalType": "uint256",
          "name": "outcomeIndex",
          "type": "uint256"
        }
      ],
      "name": "getOutcomeTotalShares",
      "outputs": [
        {
          "internalType": "uint256",
          "name": "",
          "type": "uint256"
        }
      ],
      "stateMutability": "view",
      "type": "function"
    },
    {
      "inputs": [
        {
          "internalType": "uint256",
          "name": "_marketId",
          "type": "uint256"
        },
        {
          "internalType": "uint256",
          "name": "outcomeIndex",
          "type": "uint256"
        }
      ],
      "name": "getPositionId",
      "outputs": [
        {
          "internalType": "uint256",
          "name": "",
          "type": "uint256"
        }
      ],
      "stateMutability": "pure",
      "type": "function"
    },
    {
      "inputs": [
        {
          "internalType": "uint256",
          "name": "outcomeIndex",
          "type": "uint256"
        }
      ],
      "name": "getPrice",
      "outputs": [
        {
          "internalType": "uint256",
          "name": "",
          "type": "uint256"
        }
      ],
      "stateMutability": "view",
      "type": "function"
    },
    {
      "inputs": [
        {
          "internalType": "address",
          "name": "user",
          "type": "address"
        },
        {
          "internalType": "uint256",
          "name": "outcomeIndex",
          "type": "uint256"
        }
      ],
      "name": "getUserShares",
      "outputs": [
        {
          "internalType": "uint256",
          "name": "",
          "type": "uint256"
        }
      ],
      "stateMutability": "view",
      "type": "function"
    },
    {
      "inputs": [],
      "name": "i_numOutcomes",
      "outputs": [
        {
          "internalType": "uint256",
          "name": "",
          "type": "uint256"
        }
      ],
      "stateMutability": "view",
      "type": "function"
    },
    {
      "inputs": [],
      "name": "initialFunds",
      "outputs": [
        {
          "internalType": "uint256",
          "name": "",
          "type": "uint256"
        }
      ],
      "stateMutability": "view",
      "type": "function"
    },
    {
      "inputs": [],
      "name": "marketClosed",
      "outputs": [
        {
          "internalType": "bool",
          "name": "",
          "type": "bool"
        }
      ],
      "stateMutability": "view",
      "type": "function"
    },
    {
      "inputs": [],
      "name": "marketEndTime",
      "outputs": [
        {
          "internalType": "uint256",
          "name": "",
          "type": "uint256"
        }
      ],
      "stateMutability": "view",
      "type": "function"
    },
    {
      "inputs": [],
      "name": "marketId",
      "outputs": [
        {
          "internalType": "uint256",
          "name": "",
          "type": "uint256"
        }
      ],
      "stateMutability": "view",
      "type": "function"
    },
    {
      "inputs": [],
      "name": "marketMakerFunds",
      "outputs": [
        {
          "internalType": "uint256",
          "name": "",
          "type": "uint256"
        }
      ],
      "stateMutability": "view",
      "type": "function"
    },
    {
      "inputs": [],
      "name": "marketSettled",
      "outputs": [
        {
          "internalType": "bool",
          "name": "",
          "type": "bool"
        }
      ],
      "stateMutability": "view",
      "type": "function"
    },
    {
      "inputs": [],
      "name": "oracle",
      "outputs": [
        {
          "internalType": "address",
          "name": "",
          "type": "address"
        }
      ],
      "stateMutability": "view",
      "type": "function"
    },
    {
      "inputs": [
        {
          "internalType": "uint256",
          "name": "",
          "type": "uint256"
        }
      ],
      "name": "outcomes",
      "outputs": [
        {
          "internalType": "string",
          "name": "name",
          "type": "string"
        },
        {
          "internalType": "uint256",
          "name": "totalShares",
          "type": "uint256"
        }
      ],
      "stateMutability": "view",
      "type": "function"
    },
    {
      "inputs": [],
      "name": "owner",
      "outputs": [
        {
          "internalType": "address",
          "name": "",
          "type": "address"
        }
      ],
      "stateMutability": "view",
      "type": "function"
    },
    {
      "inputs": [],
      "name": "pause",
      "outputs": [],
      "stateMutability": "nonpayable",
      "type": "function"
    },
    {
      "inputs": [],
      "name": "paused",
      "outputs": [
        {
          "internalType": "bool",
          "name": "",
          "type": "bool"
        }
      ],
      "stateMutability": "view",
      "type": "function"
    },
    {
      "inputs": [],
      "name": "payoutPerShare",
      "outputs": [
        {
          "internalType": "uint256",
          "name": "",
          "type": "uint256"
        }
      ],
      "stateMutability": "view",
      "type": "function"
    },
    {
      "inputs": [],
      "name": "positions",
      "outputs": [
        {
          "internalType": "contract PredictionMarketPositions",
          "name": "",
          "type": "address"
        }
      ],
      "stateMutability": "view",
      "type": "function"
    },
    {
      "inputs": [],
      "name": "renounceOwnership",
      "outputs": [],
      "stateMutability": "nonpayable",
      "type": "function"
    },
    {
      "inputs": [
        {
          "internalType": "uint256",
          "name": "outcomeIndex",
          "type": "uint256"
        },
        {
          "internalType": "uint256",
          "name": "numShares",
          "type": "uint256"
        }
      ],
      "name": "sellShares",
      "outputs": [],
      "stateMutability": "nonpayable",
      "type": "function"
    },
    {
      "inputs": [
        {
          "internalType": "uint256",
          "name": "_winningOutcome",
          "type": "uint256"
        }
      ],
      "name": "setOutcome",
      "outputs": [],
      "stateMutability": "nonpayable",
      "type": "function"
    },
    {
      "inputs": [],
      "name": "title",
      "outputs": [
        {
          "internalType": "string",
          "name": "",
          "type": "string"
        }
      ],
      "stateMutability": "view",
      "type": "function"
    },
    {
      "inputs": [],
      "name": "token",
      "outputs": [
        {
          "internalType": "contract IERC20",
          "name": "",
          "type": "address"
        }
      ],
      "stateMutability": "view",
      "type": "function"
    },
    {
      "inputs": [],
      "name": "tokenDecimals",
      "outputs": [
        {
          "internalType": "uint8",
          "name": "",
          "type": "uint8"
        }
      ],
      "stateMutability": "view",
      "type": "function"
    },
    {
      "inputs": [
        {
          "internalType": "address",
          "name": "newOwner",
          "type": "address"
        }
      ],
      "name": "transferOwnership",
      "outputs": [],
      "stateMutability": "nonpayable",
      "type": "function"
    },
    {
      "inputs": [],
      "name": "unitScalingFactor",
      "outputs": [
        {
          "internalType": "uint256",
          "name": "",
          "type": "uint256"
        }
      ],
      "stateMutability": "view",
      "type": "function"
    },
    {
      "inputs": [],
      "name": "unpause",
      "outputs": [],
      "stateMutability": "nonpayable",
      "type": "function"
    },
    {
      "inputs": [
        {
          "internalType": "address",
          "name": "_newOracle",
          "type": "address"
        }
      ],
      "name": "updateOracle",
      "outputs": [],
      "stateMutability": "nonpayable",
      "type": "function"
    },
    {
      "inputs": [],
      "name": "winningOutcome",
      "outputs": [
        {
          "internalType": "uint256",
          "name": "",
          "type": "uint256"
        }
      ],
      "stateMutability": "view",
      "type": "function"
    },
    {
      "inputs": [],
      "name": "withdrawFees",
      "outputs": [],
      "stateMutability": "nonpayable",
      "type": "function"
    },
    {
      "inputs": [],
      "name": "withdrawRemainingFunds",
      "outputs": [],
      "stateMutability": "nonpayable",
      "type": "function"
    }
  ],
  "bytecode": "0x610180806040523462000a2957620044b5803803809162000021828562000d47565b83398101906101608183031262000a2957805160208201516001600160401b03811162000a2957836200005691840162000d6b565b60408301516001600160401b03811162000a295783019380601f8601121562000a29578451946001600160401b038611620006be578560051b9060405196620000a3602084018962000d47565b87526020808801928201019183831162000a295760208201905b83821062000d16575050505050620000d86060840162000de2565b9060808401519360a08101519260c082015195620000f960e0840162000de2565b9162000109610100850162000de2565b946200011f610140610120870151960162000de2565b97331562000cfd5760008054336001600160a01b03198216811783556040519290916001600160a01b0316907f8be0079c531659141344cd1fd0a4f28419497f9722a3daafe3b4186f6b6457e09080a3600180556002805460ff1916905560006009819055600a819055600b556001600160a01b0388161562000cbb57506001600160a01b0385161562000c76578a511562000c3157831562000bd457871562000b8f578a51801515908162000b82575b501562000b3d57612710841162000ade576064841062000a73578a51600181111562000a2e5760016001603f1b03811162000a295760008160401b600f0b131562000a29576000604082901b600f0b6801000000000000000081121562000a16575b80640100000000600292121562000a09575b62010000811215620009fc575b610100811215620009ef575b6010811215620009e2575b6004811215620009d6575b1215620009cd575b908591603f19810160401b9160401b600f0b90607f031b678000000000000000905b60008213620009ac575050906fb17217f7d1cf79abc9e3b39803f2f6af620002cc92600f0b0260801d62000e33565b60405163313ce56760e01b81526020816004816001600160a01b038d165afa80156200082a57620003079160009162000988575b5062000e12565b90818102918183041490151715620005b05786106200092c5760c0528051906001600160401b038211620006be57600754908160011c91600181161562000921575b60011660208310146200069d5781601f849311620008c0575b50602090601f8311600114620008425760009262000836575b50508160011b916000199060031b1c1916176007555b600880546001600160a01b0319166001600160a01b03929092169190911790556080524280850110620005b0576004956020944201875561ffff196005541660055560e0526101005260018060a01b03821660a05285516101605280600955600a556040519384809263313ce56760e01b825260018060a01b03165afa9081156200082a5760ff92600092620007f2575b50610120829052600c80546001600160a01b0319166001600160a01b0392909216919091179055166008811115620007d2575060ff610120511680600719810111620005b05762000477906007190162000e24565b600d555b6200048c60ff610120511662000e12565b6101405260005b8151811015620006ea57600581901b82016020015160408051919082016001600160401b03811183821017620006be576040528152600060208201526003549068010000000000000000821015620006be576001820180600355821015620006d4576003600052805180517fc2575a0e9e593c00f959f8c92f12db2869c3395a3b0502d05e2516446f71f85b92916001600160401b038211620006be578460011b840154600181811c91168015620006b3575b60208210146200069d57601f81116200064f575b50602090601f8311600114620005d25791806001959492602094600092620005c6575b5050600019600383901b1c191690851b1785851b8401555b015192821b0101556000198114620005b05760010162000493565b634e487b7160e01b600052601160045260246000fd5b0151905038806200057d565b908560011b850160005260206000209160005b601f1985168110620006365750926001959492869260209583601f198116106200061c575b505050811b0185851b84015562000595565b015160001960f88460031b161c191690553880806200060a565b91926020600181928685015181550194019201620005e5565b8560011b85016000526020600020601f840160051c81016020851062000695575b601f830160051c82018110620006885750506200055a565b6000815560010162000670565b508062000670565b634e487b7160e01b600052602260045260246000fd5b90607f169062000546565b634e487b7160e01b600052604160045260246000fd5b634e487b7160e01b600052603260045260246000fd5b604051613609908162000e8c823960805181818161096901528181611520015281816115f9015281816116600152612589015260a05181818161025c015281816103ac0152818161072701528181610dbf015281816112270152818161184e0152611d28015260c0518181816105b701528181610a6d01528181610e1b015281816114500152611b35015260e051818181610d2f01528181611373015281816115890152611c1d01526101005181818161036e015281816117d8015261193b01526101205181611abe015261014051818181610667015261090b01526101605181610bb90152f35b60080360088111620005b057620007e99062000e24565b600d556200047b565b6200081a91925060203d60201162000822575b62000811818362000d47565b81019062000df7565b903862000422565b503d62000805565b6040513d6000823e3d90fd5b0151905038806200037b565b6007600090815293506000805160206200449583398151915291905b601f1984168510620008a4576001945083601f198116106200088a575b505050811b0160075562000391565b015160001960f88460031b161c191690553880806200087b565b818101518355602094850194600190930192909101906200085e565b600760005290915060008051602062004495833981519152601f840160051c81016020851062000919575b90849392915b601f830160051c820181106200090957505062000362565b60008155859450600101620008f1565b5080620008eb565b91607f169162000349565b60405162461bcd60e51b815260206004820152602e60248201527f496e697469616c2066756e6473206d757374206578636565642062202a206c6e60448201526d286e756d5f6f7574636f6d65732960901b6064820152608490fd5b620009a5915060203d602011620008225762000811818362000d47565b3862000300565b8091935002908160ff1c9182607f011c918302019160011d8692916200029d565b6001016200027b565b91810191811d62000273565b6004928301921d62000268565b6008928301921d6200025d565b6010928301921d62000251565b6020928301921d62000244565b506040905081811b600f0b811d62000232565b600080fd5b60405162461bcd60e51b815260206004820152601e60248201527f4174206c656173742074776f206f7574636f6d657320726571756972656400006044820152606490fd5b60405162461bcd60e51b815260206004820152603460248201527f4c697175696469747920706172616d6574657220276227206d7573742062652060448201527f67726561746572207468616e206d696e696d756d0000000000000000000000006064820152608490fd5b60405162461bcd60e51b815260206004820152603160248201527f4c697175696469747920706172616d6574657220276227206578636565647320604482015270746865206c696d6974206d6178696d756d60781b6064820152608490fd5b60405162461bcd60e51b815260206004820152601a60248201527f496e76616c6964206e756d626572206f66206f7574636f6d65730000000000006044820152606490fd5b60059150111538620001d0565b60405162461bcd60e51b815260206004820152601960248201527f4475726174696f6e206d75737420626520706f736974697665000000000000006044820152606490fd5b60405162461bcd60e51b815260206004820152602f60248201527f4c697175696469747920706172616d657465722062206d75737420626520677260448201526e6561746572207468616e207a65726f60881b6064820152608490fd5b60405162461bcd60e51b815260206004820152601d60248201527f4174206c65617374206f6e65206f7574636f6d652072657175697265640000006044820152606490fd5b60405162461bcd60e51b815260206004820152601d60248201527f496e76616c69642066656520726563697069656e7420616464726573730000006044820152606490fd5b62461bcd60e51b815260206004820152601560248201527f496e76616c696420746f6b656e206164647265737300000000000000000000006044820152606490fd5b604051631e4fbdf760e01b815260006004820152602490fd5b81516001600160401b03811162000a295760209162000d3b8784809488010162000d6b565b815201910190620000bd565b601f909101601f19168101906001600160401b03821190821017620006be57604052565b919080601f8401121562000a29578251906001600160401b038211620006be576040519160209162000da7601f8301601f191684018562000d47565b81845282828701011162000a295760005b81811062000dce57508260009394955001015290565b858101830151848201840152820162000db8565b51906001600160a01b038216820362000a2957565b9081602091031262000a29575160ff8116810362000a295790565b60ff16604d8111620005b057600a0a90565b604d8111620005b057600a0a90565b811562000e8457600f0b60009081811262000e80576001600160801b038316810260401c9260801c026001600160c01b03811162000e805760401b908219821162000e7d57500190565b80fd5b5080fd5b505060009056fe6040608081526004908136101561001557600080fd5b600091823560e01c9081631cb44dfc14611efd5781632279a97014611ae25781633b97e85614611aa45781633f4ba83a14611a3a578163416e517e1461196a5781634690484014611926578163474e19f21461190a578163476343ee146117bc57816348a5dec6146117985781634a79d50c146116835781634df7e3d014611648578163510f5116146115b557816353249a31146114dc5781635c975abb146114b857816369c41a741461149a5781636e77609e146114735781636ed71ede14611438578163715018a6146113de5781637dc0d1d0146113b55781637dc8f086146113965781637fd6f15c1461135b5781638456cb591461130057816389ff7069146111d85781638da5cb5b146111b05781638f512bf4146111915781638fbb4a821461056e5781639003adfe14611172578163905143201461115357816392b2849b1461113757816396211a97146110b35781639aaff766146110565781639b34ae03146110375781639e6c295914610c65578163a2d07d241461101b578163b03238f714610fe7578163ba5b798214610fbe578163beebc5da14610c6a578163c3883f1714610c65578163c511ed5e14610bdc578163ca3bd56914610ba1578163d55e725b14610b82578163ddd9d04514610a42578163e75722301461092e578163e8467af6146108f3578163e88499a914610573578163ed0c986f1461056e578163eed2a1471461045d578163ef86ce8e14610324578163f2fde38b1461028f575063fc0c546a1461024957600080fd5b3461028b578160031936011261028b57517f00000000000000000000000000000000000000000000000000000000000000006001600160a01b03168152602090f35b5080fd5b905034610320576020366003190112610320576102aa611f89565b906102b36120ca565b6001600160a01b0391821692831561030a575050600054826bffffffffffffffffffffffff60a01b821617600055167f8be0079c531659141344cd1fd0a4f28419497f9722a3daafe3b4186f6b6457e0600080a380f35b51631e4fbdf760e01b8152908101849052602490fd5b8280fd5b9190503461032057826003193601126103205761033f6120ca565b61035060ff60055460081c1661238d565b6009805490849055815163a9059cbb60e01b81526001600160a01b037f000000000000000000000000000000000000000000000000000000000000000016848201908152602081810193909352909190829081906040010381877f00000000000000000000000000000000000000000000000000000000000000006001600160a01b03165af1908115610453578491610425575b50156103ee578280f35b906020606492519162461bcd60e51b8352820152601160248201527015da5d1a191c985dd85b0819985a5b1959607a1b6044820152fd5b610446915060203d811161044c575b61043e8183611fdf565b810190612222565b386103e4565b503d610434565b82513d86823e3d90fd5b82843461056b576020908160031936011261056b5783359060035482101561056b57506104899061207a565b509282519360009181549260019380851c92858216908115610561575b878510821461054e5750838952889291879082156105315750506001146104f1575b6104d492500386611fdf565b01546104e98351948486958652850190612001565b918301520390f35b505081600052858480600020856000915b8583106105185750506104d493508201016104c8565b80919294505483858c0101520191018590858993610502565b60ff1916848201526104d494151560051b84010191506104c89050565b634e487b7160e01b845260229052602483fd5b93607f16936104a6565b80fd5b612041565b9190503461032057826003193601126103205761058e61229c565b61059661227e565b6105a760ff60055460081c1661238d565b60018060a01b039081600c5416927f0000000000000000000000000000000000000000000000000000000000000000926006548351946318896f4d60e11b8652808487015281602487015260209586816044818b5afa80156108ba5787908a906108c4575b8751627eeac760e11b81523388820190815260208101929092529250829081906040015b03818b5afa9081156108ba578991610888575b50801561084e578060016106568561207a565b50015410610813579088929161068c7f0000000000000000000000000000000000000000000000000000000000000000826121e2565b986106a58a6009546106a0828210156122bf565b612215565b600955803b1561080f578751636f3df85160e11b815233888201908152602081019490945260408401949094526060830191909152839183919082908490829060800103925af18015610805576107ed575b5050825163a9059cbb60e01b815233838201908152602081018790529091859183919082908a90829060400103927f0000000000000000000000000000000000000000000000000000000000000000165af19081156107e35786916107c6575b501561078f5750907fec68461f5d4cc45c89e914cb8826a966c73dd35e5f97815ece0a01ffa4a025a691519283523392a26001805580f35b82606492519162461bcd60e51b83528201526013602482015272151bdad95b881c185e5bdd5d0819985a5b1959606a1b6044820152fd5b6107dd9150843d861161044c5761043e8183611fdf565b38610757565b83513d88823e3d90fd5b6107f690611fb5565b6108015785386106f7565b8580fd5b85513d84823e3d90fd5b8480fd5b855162461bcd60e51b81528086018890526015602482015274496e76616c696420736861726520616d6f756e747360581b6044820152606490fd5b855162461bcd60e51b815280860188905260146024820152734e6f2077696e6e696e677320746f20636c61696d60601b6044820152606490fd5b90508681813d83116108b3575b61089f8183611fdf565b810103126108ae575138610643565b600080fd5b503d610895565b86513d8b823e3d90fd5b5081813d83116108ec575b6108d98183611fdf565b810103126108ae5786610630915161060c565b503d6108cf565b50503461028b578160031936011261028b57602090517f00000000000000000000000000000000000000000000000000000000000000008152f35b905034610320576020366003190112610320573561095960035491610954838210612135565b61207a565b506001809101549061099461098f7f00000000000000000000000000000000000000000000000000000000000000008094612761565b6129e2565b92859286925b828410610a0a5750505050600f0b908115610a0657821b60170b059160016001607f1b0319831215806109f5575b1561056b575067ffffffffffffffff6109ed6109e8602094600f0b6126e4565b612680565b169051908152f35b5060016001607f1b038313156109c8565b8380fd5b90919293610a34610a3a91610a2e61098f8686610a268b61207a565b500154612761565b9061269b565b94612505565b92919061099a565b83833461028b578060031936011261028b57610a5c611f89565b600c5482516318896f4d60e11b81527f000000000000000000000000000000000000000000000000000000000000000086820152602480359082015260209590916001600160a01b0316908683604481855afa928315610b785790879392918793610b43575b508551627eeac760e11b81526001600160a01b0390951690850190815260208101929092528391829081906040015b03915afa928315610b385792610b09575b5051908152f35b9091508281813d8311610b31575b610b218183611fdf565b810103126108ae57519083610b02565b503d610b17565b8251903d90823e3d90fd5b8481959294503d8311610b71575b610b5b8183611fdf565b810103126108ae57915186929091610af1610ac2565b503d610b51565b85513d88823e3d90fd5b50503461028b578160031936011261028b57602090600a549051908152f35b50503461028b578160031936011261028b57602090517f00000000000000000000000000000000000000000000000000000000000000008152f35b9190503461032057826003193601126103205781544210610c2c5782600160ff1960055416176005557f0b5f6bf058282d5cc003efc735b9ee453bbd7f9bef4c6db6300d095f3eefac288180a180f35b906020606492519162461bcd60e51b8352820152601360248201527213585c9ad95d081b9bdd081bdd995c881e595d606a1b6044820152fd5b61205e565b9190503461032057610c7b36611f9f565b610c8693919361229c565b610c8e61227e565b610c9d60ff60055416156120f6565b610caa6003548510612135565b8015610f7b57612710811015610f3857610d27610d146109e8610d00610cd6610cd1612514565b61257a565b6001610ce18a61207a565b5001610cee878254612173565b9055610cfb610cd1612514565b6126c0565b610d0f8982600f0b1215612196565b6126e4565b67ffffffffffffffff600d5491166121e2565b926064610d547f0000000000000000000000000000000000000000000000000000000000000000866121e2565b04936032850285810460321486151715610f2557606490049087610d82610d7b8489612215565b9783612173565b84516323b872dd60e01b8152338189019081523060208201526040810183905291979181906060016001600160a01b0392916020918391900381877f000000000000000000000000000000000000000000000000000000000000000087165af1908115610f1b5790610dfb918591610efd575b5061223a565b600c5416803b15610320578551632991fa3b60e21b8152339281019283527f00000000000000000000000000000000000000000000000000000000000000006020840152604083018b905260608301889052918391839182908490829060800103925af1801561080557610edf575b50507f0ea2cc1a2a0fcfecef8b5ff9be41f8c0ca3770265a060b00de53118f88c91dfa95610eaa610ea2610ed59594610eb594612173565b600954612173565b600955600b54612173565b600b55519283923396846040919493926060820195825260208201520152565b0390a26001805580f35b610eeb90949394611fb5565b610ef9578738939293610e6a565b8780fd5b610f15915060203d811161044c5761043e8183611fdf565b38610df5565b87513d86823e3d90fd5b634e487b7160e01b885260118552602488fd5b506020606492519162461bcd60e51b8352820152601a60248201527f5368617265207472616465206c696d69742065786365656465640000000000006044820152fd5b506020606492519162461bcd60e51b8352820152601b60248201527f4d75737420627579206174206c65617374206f6e6520736861726500000000006044820152fd5b50503461028b578160031936011261028b57600c5490516001600160a01b039091168152602090f35b82843461056b57602036600319011261056b575060016110116020933561095460035482106123d2565b5001549051908152f35b50503461028b578160031936011261028b576020905160328152f35b50503461028b578160031936011261028b576020906006549051908152f35b9050823461056b575061106836611f9f565b8351906020820192835284820152838152606081019281841067ffffffffffffffff85111761109e575082602094525190208152f35b604190634e487b7160e01b6000525260246000fd5b9050823461056b57506110c536611f9f565b909160018211156110f4576020846110ed856110e86110e387612668565b6128d1565b612714565b9051908152f35b606490602085519162461bcd60e51b8352820152601e60248201527f4174206c656173742074776f206f7574636f6d657320726571756972656400006044820152fd5b50503461028b578160031936011261028b576020905160058152f35b50503461028b578160031936011261028b576020906009549051908152f35b50503461028b578160031936011261028b57602090600b549051908152f35b50503461028b578160031936011261028b57602090600d549051908152f35b50503461028b578160031936011261028b57905490516001600160a01b039091168152602090f35b919050346103205760209081600319360112610a06578235926111f96120ca565b81516323b872dd60e01b815233828201908152306020820152604081018690528490829081906060010381897f00000000000000000000000000000000000000000000000000000000000000006001600160a01b03165af19081156107e35786916112e3575b50156112a25750907f543ba50a5eec5e6178218e364b1d0f396157b3c8fa278522c2cb7fd99407d4749161129584600954612173565b600955519283523392a280f35b82606492519162461bcd60e51b8352820152601c60248201527f496e697469616c2066756e64207472616e73666572206661696c6564000000006044820152fd5b6112fa9150843d861161044c5761043e8183611fdf565b3861125f565b50503461028b578160031936011261028b5760207f62e78cea01bee320cd4e420270b5ea74000d11b0c9f74754ebdbfc544b05a2589161133e6120ca565b61134661227e565b600160ff19600254161760025551338152a180f35b50503461028b578160031936011261028b57602090517f00000000000000000000000000000000000000000000000000000000000000008152f35b50503461028b578160031936011261028b576020906003549051908152f35b50503461028b578160031936011261028b5760085490516001600160a01b039091168152602090f35b833461056b578060031936011261056b576113f76120ca565b600080546001600160a01b0319811682556001600160a01b03167f8be0079c531659141344cd1fd0a4f28419497f9722a3daafe3b4186f6b6457e08280a380f35b50503461028b578160031936011261028b57602090517f00000000000000000000000000000000000000000000000000000000000000008152f35b50503461028b578160031936011261028b5760209060ff60055460081c1690519015158152f35b90503461032057826003193601126103205760209250549051908152f35b50503461028b578160031936011261028b5760209060ff6002541690519015158152f35b50503461028b576020906110ed611582610d146109e8610d0f61157c61150136611f9f565b919061151060035482106123d2565b61151b831515612416565b6115467f00000000000000000000000000000000000000000000000000000000000000001515612475565b61154e612514565b9061157661156f61155e8461257a565b9561156984866124d9565b51612215565b91836124d9565b5261257a565b906126c0565b60646115ae7f0000000000000000000000000000000000000000000000000000000000000000836121e2565b0490612173565b50503461028b576020906110ed611582610d146109e8610d0f610cfb6115da36611f9f565b91906115e960035482106123d2565b6115f4831515612416565b61161f7f00000000000000000000000000000000000000000000000000000000000000001515612475565b611627612514565b9061157661156f6116378461257a565b9561164284866124d9565b51612173565b50503461028b578160031936011261028b57602090517f00000000000000000000000000000000000000000000000000000000000000008152f35b82843461056b578060031936011261056b575080519060009060075491600183811c9080851694851561178e575b602095868410811461177b578388528794939291879082156117595750506001146116fc575b50506116f892916116e9910385611fdf565b51928284938452830190612001565b0390f35b9085925060076000527fa66cc928b5edb82af9bd49922954155ab7b0942694bea4ce44661d9a8736c688916000925b82841061174157505050820101816116e96116d7565b8054848a01860152889550879490930192810161172b565b60ff19168682015292151560051b850190920192508391506116e990506116d7565b634e487b7160e01b855260228952602485fd5b91607f16916116b1565b50503461028b578160031936011261028b5760209060ff6005541690519015158152f35b9050346103205782600319360112610320576001600160a01b037f00000000000000000000000000000000000000000000000000000000000000008181169391929061184a9060209061181033881461230b565b600b5495869189600b5589875180968195829463a9059cbb60e01b84528a840160209093929193604081019460018060a01b031681520152565b03927f0000000000000000000000000000000000000000000000000000000000000000165af19081156107e35786916118ec575b50156118b257507fc0819c13be868895eb93e40eaceb96de976442fa1d404e5c55f14bb65a8c489a9160209151908152a280f35b6020606492519162461bcd60e51b83528201526015602482015274119959481dda5d1a191c985dd85b0819985a5b1959605a1b6044820152fd5b611904915060203d811161044c5761043e8183611fdf565b3861187e565b50503461028b578160031936011261028b576020905160088152f35b50503461028b578160031936011261028b57517f00000000000000000000000000000000000000000000000000000000000000006001600160a01b03168152602090f35b919050346103205760203660031901126103205781359161199660018060a01b0360085416331461230b565b6005549160ff831615611a03575050806119cf60ff6101009360081c16156119bd81612348565b6119ca6003548610612135565b612348565b8260065561ff001916176005557fbdb6af8caa3a0b8c130fd2ab4c4930e3fd8987c9730340729078e256bbc4b5438280a280f35b906020606492519162461bcd60e51b8352820152601160248201527026b0b935b2ba1039ba34b6361037b832b760791b6044820152fd5b905034610320578260031936011261032057611a546120ca565b6002549060ff821615611a96575060ff1916600255513381527f5db9ee0a495bf2e6ff9c91a7834c1ba4fdd244a5e8aa4e537bd38aeae4b073aa90602090a180f35b8251638dfc202b60e01b8152fd5b50503461028b578160031936011261028b576020905160ff7f0000000000000000000000000000000000000000000000000000000000000000168152f35b83833461028b57611af236611f9f565b611afa61229c565b611b0261227e565b611b1160ff60055416156120f6565b611b1e6003548310612135565b8015611eba57600c5483516318896f4d60e11b81527f0000000000000000000000000000000000000000000000000000000000000000878201819052602482018590526020926001600160a01b0392908316908481604481855afa908115611dea579085918a91611e85575b508851627eeac760e11b815233818d019081526020810192909252928391829081906040015b03915afa908115611e7b579085918991611e4a575b5010611e0757611c16610d146109e8611c07611be2610cd1612514565b6001611bed8b61207a565b5001611bfa8a8254612215565b905561157c610cd1612514565b610d0f8b82600f0b1215612196565b6064611c427f0000000000000000000000000000000000000000000000000000000000000000836121e2565b046032810281810460321482151715611df45791610eaa611ca492611c7d6064611c9e9b9c9d9e97960491611c778382612215565b94612215565b9981611c98611c908d9460095495612173565b8410156122bf565b8b612173565b90612215565b600b558883600c541691823b1561028b578951636f3df85160e11b8152338582019081526020810192909252604082018a90526060820188905292839182908490829060800103925af18015611dea57611dcf575b50865163a9059cbb60e01b8152339181019182526020820186905291839183919082908b9082906040015b03927f0000000000000000000000000000000000000000000000000000000000000000165af1918215611dc557610ed5927f019eed797248695407e185a0977fa0dba8bbaaba6c2f6f4a8bdf6fb32e62ba23969792611d8b928a92611da8575b505061223a565b519283923396846040919493926060820195825260208201520152565b611dbe9250803d1061044c5761043e8183611fdf565b8980611d84565b86513d89823e3d90fd5b611d2492849299611de08893611fb5565b9992509250611cf9565b88513d8b823e3d90fd5b634e487b7160e01b8a5260118b5260248afd5b855162461bcd60e51b8152808901849052601960248201527f4e6f7420656e6f7567682073686172657320746f2073656c6c000000000000006044820152606490fd5b809250858092503d8311611e74575b611e638183611fdf565b81010312610ef9578490518a611bc5565b503d611e59565b87513d8a823e3d90fd5b82819392503d8311611eb3575b611e9c8183611fdf565b81010312611eaf57518490611bb0611b8a565b8880fd5b503d611e92565b825162461bcd60e51b8152602081870152601c60248201527f4d7573742073656c6c206174206c65617374206f6e65207368617265000000006044820152606490fd5b90503461032057602036600319011261032057611f18611f89565b611f206120ca565b6001600160a01b0316918215611f4d5750506bffffffffffffffffffffffff60a01b600854161760085580f35b906020606492519162461bcd60e51b83528201526016602482015275496e76616c6964206f7261636c65206164647265737360501b6044820152fd5b600435906001600160a01b03821682036108ae57565b60409060031901126108ae576004359060243590565b67ffffffffffffffff8111611fc957604052565b634e487b7160e01b600052604160045260246000fd5b90601f8019910116810190811067ffffffffffffffff821117611fc957604052565b919082519283825260005b84811061202d575050826000602080949584010152601f8019910116010190565b60208183018101518483018201520161200c565b346108ae5760003660031901126108ae5760206040516127108152f35b346108ae5760003660031901126108ae57602060405160648152f35b6003548110156120b457600360005260011b7fc2575a0e9e593c00f959f8c92f12db2869c3395a3b0502d05e2516446f71f85b0190600090565b634e487b7160e01b600052603260045260246000fd5b6000546001600160a01b031633036120de57565b60405163118cdaa760e01b8152336004820152602490fd5b156120fd57565b60405162461bcd60e51b815260206004820152601060248201526f13585c9ad95d081a5cc818db1bdcd95960821b6044820152606490fd5b1561213c57565b60405162461bcd60e51b815260206004820152600f60248201526e496e76616c6964206f7574636f6d6560881b6044820152606490fd5b9190820180921161218057565b634e487b7160e01b600052601160045260246000fd5b1561219d57565b60405162461bcd60e51b815260206004820152601b60248201527f436f737420646966666572656e6365206973206e6567617469766500000000006044820152606490fd5b8181029291811591840414171561218057565b81156121ff570490565b634e487b7160e01b600052601260045260246000fd5b9190820391821161218057565b908160209103126108ae575180151581036108ae5790565b1561224157565b60405162461bcd60e51b8152602060048201526015602482015274151bdad95b881d1c985b9cd9995c8819985a5b1959605a1b6044820152606490fd5b60ff6002541661228a57565b60405163d93c066560e01b8152600490fd5b6002600154146122ad576002600155565b604051633ee5aeb560e01b8152600490fd5b156122c657565b60405162461bcd60e51b815260206004820152601f60248201527f496e73756666696369656e74206d61726b6574206d616b65722066756e6473006044820152606490fd5b1561231257565b60405162461bcd60e51b815260206004820152600e60248201526d139bdd08185d5d1a1bdc9a5e995960921b6044820152606490fd5b1561234f57565b60405162461bcd60e51b815260206004820152601660248201527513585c9ad95d08185b1c9958591e481cd95d1d1b195960521b6044820152606490fd5b1561239457565b60405162461bcd60e51b815260206004820152601660248201527513585c9ad95d081b9bdd081cd95d1d1b1959081e595d60521b6044820152606490fd5b156123d957565b60405162461bcd60e51b8152602060048201526015602482015274092dcecc2d8d2c840deeae8c6dedaca40d2dcc8caf605b1b6044820152606490fd5b1561241d57565b60405162461bcd60e51b815260206004820152602a60248201527f4e756d626572206f6620736861726573206d7573742062652067726561746572604482015269207468616e207a65726f60b01b6064820152608490fd5b1561247c57565b60405162461bcd60e51b815260206004820152602f60248201527f4c697175696469747920706172616d657465722062206d75737420626520677260448201526e6561746572207468616e207a65726f60881b6064820152608490fd5b80518210156120b45760209160051b010190565b67ffffffffffffffff8111611fc95760051b60200190565b60001981146121805760010190565b600354612520816124ed565b9061252e6040519283611fdf565b808252601f1961253d826124ed565b0136602084013760005b81811061255357505090565b8060016125626125759361207a565b50015461256f82866124d9565b52612505565b612547565b9081511561262b5790600080917f0000000000000000000000000000000000000000000000000000000000000000915b81518410156125dd576125d16125d791610a2e61098f866125cb89886124d9565b51612761565b93612505565b926125aa565b9250506125ec6125f291612668565b916128d1565b600f0b90600f0b0260401d60016001607f1b03198112158061261a575b156108ae57600f0b90565b5060016001607f1b0381131561260f565b60405162461bcd60e51b81526020600482015260156024820152744e6f206f7574636f6d657320617661696c61626c6560581b6044820152606490fd5b677fffffffffffffff81116108ae5760401b600f0b90565b600f0b600081126108ae5760401d67ffffffffffffffff1690565b90600f0b90600f0b0160016001607f1b03198112158061261a57156108ae57600f0b90565b600f91820b910b0360016001607f1b03198112158061261a57156108ae57600f0b90565b600f0b6b05f5e10000000000000000000260401d60016001607f1b03198112158061261a57156108ae57600f0b90565b811561275a57600f0b60009081811261028b576001600160801b038316810260401c9260801c026001600160c01b03811161028b5760401b908219821161056b57500190565b5050600090565b9080156108ae5760006001600160c01b0383116127aa57506127859160401b6121f5565b6001600160801b03908181116108ae571660016001607f1b0381116108ae57600f0b90565b9060c083811c93846401000000008110156128c4575b806201000060029210156128b8575b6101008110156128ac575b60108110156128a0575b6004811015612895575b101561288b575b6128136000199282600185870160be1984011c019160ff031b6121f5565b946001600160801b0390818711610801578460801c870291851687029084819460401b91838310612881575b505003948160801b93848710612877575b505060801c0361286c5761286492036121f5565b905b01612785565b505050600190612866565b9092019138612850565b019350843861283f565b90600101906127f5565b92810192811c6127ee565b6004938401931c6127e4565b6008938401931c6127da565b6010938401931c6127cf565b5060e0915080821c6127c0565b600f0b60008082131561056b578082680100000000000000008412156129d5575b8064010000000060029212156129c9575b620100008112156129bd575b6101008112156129b1575b60108112156129a5575b600481121561299a575b1215612992575b6001603f1b92603f19820160401b9291607f919082031b5b828513612974575050506fb17217f7d1cf79abc9e3b39803f2f6af9150600f0b0260801d90565b600185901d9490800260ff81901c918202909401939082011c61294d565b600101612935565b91810191811d61292e565b6004928301921d612924565b6008928301921d61291a565b6010928301921d61290f565b6020928301921d612903565b506040905082811d6128f2565b600f0b600160461b8112156108ae57683fffffffffffffffff198112612a2757700171547652b82fe1777d0ffda0d23a7d12612a24910260801d600f0b612a2d565b90565b50600090565b600f81810b600160461b8112156108ae57683fffffffffffffffff1981126135cb576001607f1b90600093846001603f1b8216850b136135b3575b846740000000000000008216850b13613596575b846720000000000000008216850b13613579575b846710000000000000008216850b1361355c575b846708000000000000008216850b1361353f575b846704000000000000008216850b13613522575b846702000000000000008216850b13613505575b846701000000000000008216850b136134e8575b8466800000000000008216850b136134cb575b8466400000000000008216850b136134ae575b8466200000000000008216850b13613491575b8466100000000000008216850b13613474575b8466080000000000008216850b13613457575b8466040000000000008216850b1361343a575b8466020000000000008216850b1361341d575b8466010000000000008216850b13613400575b84658000000000008216850b136133e3575b84654000000000008216850b136133c6575b84652000000000008216850b136133a9575b84651000000000008216850b1361338c575b84650800000000008216850b1361336f575b84650400000000008216850b13613352575b84650200000000008216850b13613335575b84650100000000008216850b13613318575b846480000000008216850b136132fb575b846440000000008216850b136132de575b846420000000008216850b136132c1575b846410000000008216850b136132a4575b846408000000008216850b13613287575b846404000000008216850b1361326a575b846402000000008216850b1361324d575b846401000000008216850b13613230575b8463800000008216850b13613213575b8463400000008216850b136131f6575b8463200000008216850b136131d9575b8463100000008216850b136131bc575b8463080000008216850b1361319f575b8463040000008216850b13613182575b8463020000008216850b13613165575b8463010000008216850b13613148575b84628000008216850b1361312b575b84624000008216850b1361310e575b84622000008216850b136130f1575b84621000008216850b136130d4575b84620800008216850b136130b7575b84620400008216850b1361309a575b84620200008216850b1361307d575b84620100008216850b13613060575b846180008216850b13613043575b846140008216850b13613026575b846120008216850b13613009575b846110008216850b13612fec575b846108008216850b13612fcf575b846104008216850b13612fb2575b846102008216850b13612f95575b846101008216850b13612f78575b8460809181838216870b13612f5c575b8160408216870b13612f40575b8160208216870b13612f24575b8160108216870b13612f08575b8160088216870b13612eec575b8160048216870b13612ed0575b8160028216870b13612eb3575b600116850b13612e95575b5060401d820b603f03820b1c9160016001607f1b03831161056b57500b90565b909170010000000000000000b17217f7d1cf79ab02901c9038612e75565b7001000000000000000162e42fefa39ef358909402821c93612e6a565b9370010000000000000002c5c85fdf473de6b202821c93612e5d565b93700100000000000000058b90bfbe8e7bcd6d02821c93612e50565b937001000000000000000b17217f7d1cf79afa02821c93612e43565b93700100000000000000162e42fefa39ef366f02821c93612e36565b937001000000000000002c5c85fdf473de6eca02821c93612e29565b9370010000000000000058b90bfbe8e7bce54402821c93612e1c565b91700100000000000000b17217f7d1cf79e9490260801c91612e0c565b9170010000000000000162e42fefa39ef44d910260801c91612dfe565b91700100000000000002c5c85fdf473dea871f0260801c91612df0565b917001000000000000058b90bfbe8e7bdcbe2e0260801c91612de2565b9170010000000000000b17217f7d1cf7d83c1a0260801c91612dd4565b917001000000000000162e42fefa39f02b772c0260801c91612dc6565b9170010000000000002c5c85fdf473e242ea380260801c91612db8565b91700100000000000058b90bfbe8e7cc35c3f00260801c91612daa565b917001000000000000b17217f7d1cfb72b45e10260801c91612d9c565b91700100000000000162e42fefa39fe95583c20260801c91612d8d565b917001000000000002c5c85fdf4741bea6e77e0260801c91612d7e565b9170010000000000058b90bfbe8e8b2d3d4ede0260801c91612d6f565b91700100000000000b17217f7d1d351a389d400260801c91612d60565b9170010000000000162e42fefa3ae53369388c0260801c91612d51565b91700100000000002c5c85fdf477b662b269450260801c91612d42565b917001000000000058b90bfbe8f71cb4e4b33d0260801c91612d33565b9170010000000000b17217f7d20cf927c8e94c0260801c91612d24565b917001000000000162e42fefa494f1478fde050260801c91612d14565b9170010000000002c5c85fdf4b15de6f17eb0d0260801c91612d04565b91700100000000058b90bfbe9ddbac5e109cce0260801c91612cf4565b917001000000000b17217f7d5a7716bba4a9ae0260801c91612ce4565b91700100000000162e42fefb2fed257559bdaa0260801c91612cd4565b917001000000002c5c85fdf84bd62ae30a74cc0260801c91612cc4565b9170010000000058b90bfbf8479bd5a81b51ad0260801c91612cb4565b91700100000000b17217f80f4ef5aadda455540260801c91612ca4565b9170010000000162e42ff0999ce3541b9fffcf0260801c91612c93565b91700100000002c5c85fe31f35a6a30da1be500260801c91612c82565b917001000000058b90bfcdee5acd3c1cedc8230260801c91612c71565b9170010000000b17217fba9c739aa5819f44f90260801c91612c60565b917001000000162e42fff037df38aa2b219f060260801c91612c4f565b9170010000002c5c8601cc6b9e94213c72737a0260801c91612c3e565b91700100000058b90c0b48c6be5df846c5b2ef0260801c91612c2d565b917001000000b1721835514b86e6d96efd1bfe0260801c91612c1c565b91700100000162e430e5a18f6119e3c02282a50260801c91612c0a565b917001000002c5c863b73f016468f6bac5ca2b0260801c91612bf8565b9170010000058b90cf1e6d97f9ca14dbcc16280260801c91612be6565b91700100000b1721bcfc99d9f890ea069117630260801c91612bd4565b9170010000162e43f4f831060e02d839a9d16d0260801c91612bc2565b91700100002c5c89d5ec6ca4d7c8acc017b7c90260801c91612bb0565b917001000058b91b5bc9ae2eed81e9b7d4cfab0260801c91612b9e565b9170010000b17255775c040618bf4a4ade83fc0260801c91612b8c565b917001000162e525ee054754457d59952920260260801c91612b79565b9170010002c5cc37da9491d0985c348c68e7b30260801c91612b66565b91700100058ba01fb9f96d6cacd4b180917c3d0260801c91612b53565b917001000b175effdc76ba38e31671ca9397250260801c91612b40565b91700100162f3904051fa128bca9c55c31e5df0260801c91612b2d565b917001002c605e2e8cec506d21bfc89a23a00f0260801c91612b1a565b9170010058c86da1c09ea1ff19d294cf2f679b0260801c91612b07565b91700100b1afa5abcbed6129ab13ec11dc95430260801c91612af4565b9170010163da9fb33356d84a66ae336dcdfa3f0260801c91612ae0565b91700102c9a3e778060ee6f7caca4f7a29bde80260801c91612acc565b917001059b0d31585743ae7c548eb68ca417fd0260801c91612ab8565b9170010b5586cf9890f6298b92b71842a983630260801c91612aa4565b917001172b83c7d517adcdf7c8c50eb14a791f0260801c91612a90565b917001306fe0a31b7152de8d5a46305c85edec0260801c91612a7c565b6fb504f333f9de6484597d89b3754abe9f9250612a68565b50505060009056fea2646970667358221220191235ce9a904ca7358a6529ed7f8f3ba0bfa7918cb13bf06baafb0c22f5141d64736f6c63430008140033a66cc928b5edb82af9bd49922954155ab7b0942694bea4ce44661d9a8736c688",
  "linkReferences": {},
  "deployedLinkReferences": {}
}